{
  "contractName": "LotteryWeekly",
  "abi": [
    {
      "constant": true,
      "inputs": [],
      "name": "rndNumber",
      "outputs": [
        {
          "name": "",
          "type": "uint256"
        }
      ],
      "payable": false,
      "stateMutability": "view",
      "type": "function"
    },
    {
      "constant": false,
      "inputs": [],
      "name": "bet",
      "outputs": [],
      "payable": true,
      "stateMutability": "payable",
      "type": "function"
    },
    {
      "constant": false,
      "inputs": [
        {
          "name": "myid",
          "type": "bytes32"
        },
        {
          "name": "result",
          "type": "string"
        }
      ],
      "name": "__callback",
      "outputs": [],
      "payable": false,
      "stateMutability": "nonpayable",
      "type": "function"
    },
    {
      "constant": false,
      "inputs": [
        {
          "name": "myid",
          "type": "bytes32"
        },
        {
          "name": "result",
          "type": "string"
        },
        {
          "name": "proof",
          "type": "bytes"
        }
      ],
      "name": "__callback",
      "outputs": [],
      "payable": false,
      "stateMutability": "nonpayable",
      "type": "function"
    },
    {
      "constant": true,
      "inputs": [],
      "name": "counter",
      "outputs": [
        {
          "name": "",
          "type": "uint256"
        }
      ],
      "payable": false,
      "stateMutability": "view",
      "type": "function"
    },
    {
      "constant": false,
      "inputs": [],
      "name": "renounceOwnership",
      "outputs": [],
      "payable": false,
      "stateMutability": "nonpayable",
      "type": "function"
    },
    {
      "constant": true,
      "inputs": [],
      "name": "owner",
      "outputs": [
        {
          "name": "",
          "type": "address"
        }
      ],
      "payable": false,
      "stateMutability": "view",
      "type": "function"
    },
    {
      "constant": true,
      "inputs": [],
      "name": "playersCount",
      "outputs": [
        {
          "name": "",
          "type": "uint256"
        }
      ],
      "payable": false,
      "stateMutability": "view",
      "type": "function"
    },
    {
      "constant": true,
      "inputs": [],
      "name": "calculateTotalPrize",
      "outputs": [
        {
          "name": "",
          "type": "uint256"
        }
      ],
      "payable": false,
      "stateMutability": "view",
      "type": "function"
    },
    {
      "constant": true,
      "inputs": [],
      "name": "totalBalance",
      "outputs": [
        {
          "name": "",
          "type": "uint256"
        }
      ],
      "payable": false,
      "stateMutability": "view",
      "type": "function"
    },
    {
      "constant": true,
      "inputs": [],
      "name": "isLotteryActive",
      "outputs": [
        {
          "name": "",
          "type": "bool"
        }
      ],
      "payable": false,
      "stateMutability": "view",
      "type": "function"
    },
    {
      "constant": false,
      "inputs": [],
      "name": "invoke",
      "outputs": [],
      "payable": false,
      "stateMutability": "nonpayable",
      "type": "function"
    },
    {
      "constant": false,
      "inputs": [
        {
          "name": "_commission",
          "type": "uint256"
        }
      ],
      "name": "changeCommission",
      "outputs": [],
      "payable": false,
      "stateMutability": "nonpayable",
      "type": "function"
    },
    {
      "constant": true,
      "inputs": [],
      "name": "commission",
      "outputs": [
        {
          "name": "",
          "type": "uint256"
        }
      ],
      "payable": false,
      "stateMutability": "view",
      "type": "function"
    },
    {
      "constant": true,
      "inputs": [],
      "name": "equalBet",
      "outputs": [
        {
          "name": "",
          "type": "uint256"
        }
      ],
      "payable": false,
      "stateMutability": "view",
      "type": "function"
    },
    {
      "constant": false,
      "inputs": [
        {
          "name": "_newOwner",
          "type": "address"
        }
      ],
      "name": "transferOwnership",
      "outputs": [],
      "payable": false,
      "stateMutability": "nonpayable",
      "type": "function"
    },
    {
      "constant": true,
      "inputs": [],
      "name": "TIMEOUT",
      "outputs": [
        {
          "name": "",
          "type": "uint256"
        }
      ],
      "payable": false,
      "stateMutability": "view",
      "type": "function"
    },
    {
      "constant": true,
      "inputs": [
        {
          "name": "",
          "type": "uint256"
        }
      ],
      "name": "players",
      "outputs": [
        {
          "name": "recipient",
          "type": "address"
        },
        {
          "name": "value",
          "type": "uint256"
        }
      ],
      "payable": false,
      "stateMutability": "view",
      "type": "function"
    },
    {
      "inputs": [
        {
          "name": "_equalBet",
          "type": "uint256"
        },
        {
          "name": "_commission",
          "type": "uint256"
        }
      ],
      "payable": true,
      "stateMutability": "payable",
      "type": "constructor"
    },
    {
      "payable": true,
      "stateMutability": "payable",
      "type": "fallback"
    },
    {
      "anonymous": false,
      "inputs": [
        {
          "indexed": false,
          "name": "str",
          "type": "string"
        }
      ],
      "name": "event_log",
      "type": "event"
    },
    {
      "anonymous": false,
      "inputs": [
        {
          "indexed": false,
          "name": "elu",
          "type": "uint256"
        }
      ],
      "name": "event_log_uint",
      "type": "event"
    },
    {
      "anonymous": false,
      "inputs": [
        {
          "indexed": false,
          "name": "rqreq",
          "type": "string"
        }
      ],
      "name": "event_random_query_request",
      "type": "event"
    },
    {
      "anonymous": false,
      "inputs": [
        {
          "indexed": false,
          "name": "rqres",
          "type": "string"
        }
      ],
      "name": "event_random_query_result",
      "type": "event"
    },
    {
      "anonymous": false,
      "inputs": [
        {
          "indexed": false,
          "name": "t",
          "type": "address"
        }
      ],
      "name": "event_transfer",
      "type": "event"
    },
    {
      "anonymous": false,
      "inputs": [
        {
          "indexed": false,
          "name": "e",
          "type": "string"
        }
      ],
      "name": "event_error",
      "type": "event"
    },
    {
      "anonymous": false,
      "inputs": [
        {
          "indexed": true,
          "name": "previousOwner",
          "type": "address"
        }
      ],
      "name": "OwnershipRenounced",
      "type": "event"
    },
    {
      "anonymous": false,
      "inputs": [
        {
          "indexed": true,
          "name": "previousOwner",
          "type": "address"
        },
        {
          "indexed": true,
          "name": "newOwner",
          "type": "address"
        }
      ],
      "name": "OwnershipTransferred",
      "type": "event"
    }
  ],
  "bytecode": "0x6080604081815280620028b783398101604052805160209091015160008054600160a060020a031916331790558181620000627f110000000000000000000000000000000000000000000000000000000000000064010000000062000088810204565b60016006819055600892909255600b55600d805460ff19169091179055506200076c9050565b600154600160a060020a03161580620000be5750600154620000bc90600160a060020a0316640100000000620002eb810204565b155b15620000db57620000d96000640100000000620002ef810204565b505b600160009054906101000a9004600160a060020a0316600160a060020a03166338cc48316040518163ffffffff167c0100000000000000000000000000000000000000000000000000000000028152600401602060405180830381600087803b1580156200014857600080fd5b505af11580156200015d573d6000803e3d6000fd5b505050506040513d60208110156200017457600080fd5b5051600254600160a060020a039081169116146200024757600160009054906101000a9004600160a060020a0316600160a060020a03166338cc48316040518163ffffffff167c0100000000000000000000000000000000000000000000000000000000028152600401602060405180830381600087803b158015620001f957600080fd5b505af11580156200020e573d6000803e3d6000fd5b505050506040513d60208110156200022557600080fd5b505160028054600160a060020a031916600160a060020a039092169190911790555b600254604080517f688dcfd70000000000000000000000000000000000000000000000000000000081527fff00000000000000000000000000000000000000000000000000000000000000841660048201529051600160a060020a039092169163688dcfd79160248082019260009290919082900301818387803b158015620002cf57600080fd5b505af1158015620002e4573d6000803e3d6000fd5b5050505050565b3b90565b6000620003046401000000006200030a810204565b92915050565b60008062000335731d3b2638a7cc9f2cb3d298a3da7a90b67e5506ed640100000000620002eb810204565b1115620003b35760018054600160a060020a031916731d3b2638a7cc9f2cb3d298a3da7a90b67e5506ed17905560408051808201909152600b81527f6574685f6d61696e6e65740000000000000000000000000000000000000000006020820152620003aa90640100000000620006b1810204565b506001620006ae565b6000620003dd73c03a2615d5efaf5f49f60b7bb6583eaec212fdf1640100000000620002eb810204565b1115620004525760018054600160a060020a03191673c03a2615d5efaf5f49f60b7bb6583eaec212fdf117905560408051808201909152600c81527f6574685f726f707374656e3300000000000000000000000000000000000000006020820152620003aa90640100000000620006b1810204565b60006200047c73b7a07bcf2ba2f2703b24c0691b5278999c59ac7e640100000000620002eb810204565b1115620004f15760018054600160a060020a03191673b7a07bcf2ba2f2703b24c0691b5278999c59ac7e17905560408051808201909152600981527f6574685f6b6f76616e00000000000000000000000000000000000000000000006020820152620003aa90640100000000620006b1810204565b60006200051b73146500cfd35b22e4a392fe0adc06de1a1368ed48640100000000620002eb810204565b1115620005905760018054600160a060020a03191673146500cfd35b22e4a392fe0adc06de1a1368ed4817905560408051808201909152600b81527f6574685f72696e6b6562790000000000000000000000000000000000000000006020820152620003aa90640100000000620006b1810204565b6000620005ba736f485c8bf6fc43ea212e93bbf8ce046c7f1cb475640100000000620002eb810204565b1115620005ee575060018054600160a060020a031916736f485c8bf6fc43ea212e93bbf8ce046c7f1cb475178155620006ae565b6000620006187320e12a1f859b3feae5fb2a0a32c18f5a65555bbf640100000000620002eb810204565b11156200064c575060018054600160a060020a0319167320e12a1f859b3feae5fb2a0a32c18f5a65555bbf178155620006ae565b6000620006767351efaf4c8b3c9afbd5ab9f4bbc82784ab6ef8faa640100000000620002eb810204565b1115620006aa575060018054600160a060020a0319167351efaf4c8b3c9afbd5ab9f4bbc82784ab6ef8faa178155620006ae565b5060005b90565b8051620006c6906003906020840190620006ca565b5050565b828054600181600116156101000203166002900490600052602060002090601f016020900481019282601f106200070d57805160ff19168380011785556200073d565b828001600101855582156200073d579182015b828111156200073d57825182559160200191906001019062000720565b506200074b9291506200074f565b5090565b620006ae91905b808211156200074b576000815560010162000756565b61213b806200077c6000396000f3006080604052600436106100e25763ffffffff60e060020a60003504166307dd96f781146100e457806311610c251461010b57806327dc297e1461011357806338bbfa501461017157806361bc221a1461020d578063715018a6146102225780638da5cb5b14610237578063a3f67d6d14610268578063ab8078c61461027d578063ad7a672f14610292578063c3b69ebb146102a7578063cab7f521146102d0578063df922f3a146102e5578063e1489191146102fd578063ef9a224214610312578063f2fde38b14610327578063f56f48f214610348578063f71d96cb1461035d575b005b3480156100f057600080fd5b506100f9610398565b60408051918252519081900360200190f35b6100e261039e565b34801561011f57600080fd5b5060408051602060046024803582810135601f81018590048502860185019096528585526100e29583359536956044949193909101919081908401838280828437509497506105109650505050505050565b34801561017d57600080fd5b5060408051602060046024803582810135601f81018590048502860185019096528585526100e295833595369560449491939091019190819084018382808284375050604080516020601f89358b018035918201839004830284018301909452808352979a9998810197919650918201945092508291508401838280828437509497506105309650505050505050565b34801561021957600080fd5b506100f9610730565b34801561022e57600080fd5b506100e2610736565b34801561024357600080fd5b5061024c610795565b60408051600160a060020a039092168252519081900360200190f35b34801561027457600080fd5b506100f96107a4565b34801561028957600080fd5b506100f96107aa565b34801561029e57600080fd5b506100f96107d4565b3480156102b357600080fd5b506102bc6107da565b604080519115158252519081900360200190f35b3480156102dc57600080fd5b506100e26107e3565b3480156102f157600080fd5b506100e260043561088d565b34801561030957600080fd5b506100f96108a9565b34801561031e57600080fd5b506100f96108af565b34801561033357600080fd5b506100e2600160a060020a03600435166108b5565b34801561035457600080fd5b506100f96108d8565b34801561036957600080fd5b506103756004356108dd565b60408051600160a060020a03909316835260208301919091528051918290030190f35b600c5481565b6103a6611f7b565b60085434146103b457600080fd5b600d5460ff161515610410576040805160e560020a62461bcd02815260206004820152601960248201527f4c6f7474657279206973206e6f7420616374697665206e6f7700000000000000604482015290519081900360640190fd5b600654336000908152600f602052604090205410610478576040805160e560020a62461bcd02815260206004820152601560248201527f4f6e6c79206f6e652062657420666f722067616d650000000000000000000000604482015290519081900360640190fd5b5060408051808201909152338152346020820152600a5460010161049d601082611f92565b50600654336000908152600f6020526040902055600a8054600181019091556010805483929081106104cb57fe5b60009182526020918290208351600292909202018054600160a060020a031916600160a060020a03909216919091178155910151600190910155506009805434019055565b60408051600081526020810190915261052c9083908390610530565b5050565b610538610913565b600160a060020a03163314610597576040805160e560020a62461bcd02815260206004820152601f60248201527f43616c6c6572206973206e6f74204f7261636c697a6520616464726573732100604482015290519081900360640190fd5b6000838152600e602052604090205460ff161515610625576040805160e560020a62461bcd02815260206004820152602160248201527f51756572792068617320616c7265616479206265656e2070726f63657373656460448201527f2100000000000000000000000000000000000000000000000000000000000000606482015290519081900360840190fd5b60075483141561072b5761063882610b09565b600c81905560408051918252517fb21238056034e0d6cc890938b808046968a29e77b2a3636793841ff76a92d9559181900360200190a161067a600c54610b1c565b610682610c02565b6006805460010190556000838152600e6020908152604091829020805460ff1916905581518181526027918101919091527f4f7261636c697a6520636f6d7075746174696f6e207175657279207761732072818301527f6563656976656400000000000000000000000000000000000000000000000000606082015290517f65f6d9f82a5021bfe453af062212bd087691bf16e7152c3362628730368e20769181900360800190a15b505050565b60065481565b600054600160a060020a0316331461074d57600080fd5b60008054604051600160a060020a03909116917ff8df31144d9c2f0f6b59d69b8b98abd5459d07f2742c4df920b25aae33c6482091a260008054600160a060020a0319169055565b600054600160a060020a031681565b600a5481565b600b546000906064038181106107ca5760095460649004810291506107d0565b60095491505b5090565b60095481565b600d5460ff1681565b600054600160a060020a031633146107fa57600080fd5b600a54600010610879576040805160e560020a62461bcd028152602060048201526024808201527f506c617965727320636f756e74206d757374206265206772656174657220746860448201527f616e203000000000000000000000000000000000000000000000000000000000606482015290519081900360840190fd5b600d805460ff1916905561088b610c1b565b565b600054600160a060020a031633146108a457600080fd5b600b55565b600b5481565b60085481565b600054600160a060020a031633146108cc57600080fd5b6108d581610ff7565b50565b600781565b60108054829081106108eb57fe5b600091825260209091206002909102018054600190910154600160a060020a03909116915082565b600154600090600160a060020a03161580610940575060015461093e90600160a060020a0316611067565b155b156109515761094f600061106b565b505b600160009054906101000a9004600160a060020a0316600160a060020a03166338cc48316040518163ffffffff1660e060020a028152600401602060405180830381600087803b1580156109a457600080fd5b505af11580156109b8573d6000803e3d6000fd5b505050506040513d60208110156109ce57600080fd5b5051600254600160a060020a03908116911614610a8457600160009054906101000a9004600160a060020a0316600160a060020a03166338cc48316040518163ffffffff1660e060020a028152600401602060405180830381600087803b158015610a3857600080fd5b505af1158015610a4c573d6000803e3d6000fd5b505050506040513d6020811015610a6257600080fd5b505160028054600160a060020a031916600160a060020a039092169190911790555b600260009054906101000a9004600160a060020a0316600160a060020a031663c281d19e6040518163ffffffff1660e060020a028152600401602060405180830381600087803b158015610ad757600080fd5b505af1158015610aeb573d6000803e3d6000fd5b505050506040513d6020811015610b0157600080fd5b505190505b90565b6000610b16826000611075565b92915050565b610b24611f7b565b6000601083815481101515610b3557fe5b6000918252602091829020604080518082019091526002909202018054600160a060020a0316825260010154918101919091529150610b726107aa565b8251909150600160a060020a03161561072b578151604051600160a060020a039091169082156108fc029083906000818181858888f19350505050158015610bbe573d6000803e3d6000fd5b50815160408051600160a060020a039092168252517f97c59ca311d5f013c9ddfa2dfc788d6f13354cf7e885021c8c027379fa9fb9ec9181900360200190a1505050565b600d805460ff1916600117905560006009819055600a55565b60006001600a541115610f225760408051808201909152600b81527f636f6d7075746174696f6e0000000000000000000000000000000000000000006020820152303190610c6c90620493e06111e7565b1115610d23576040805160208082526057908201527f4f7261636c697a6520636f6d7075746174696f6e20717565727920776173204e818301527f4f542073656e742c20706c656173652061646420736f6d652045544820746f2060608201527f636f76657220666f722074686520717565727920666565000000000000000000608082015290517f45216837f26a6836ade4e0969fe04657e771b5659940d6e0de811cb8d49580d69181900360a00190a16108d5565b610e726040805190810160405280600381526020017f55524c0000000000000000000000000000000000000000000000000000000000815250608060405190810160405280604381526020017f6a736f6e2868747470733a2f2f6170692e72616e646f6d2e6f72672f6a736f6e81526020017f2d7270632f312f696e766f6b65292e726573756c742e72616e646f6d2e64617481526020017f612e300000000000000000000000000000000000000000000000000000000000815250610e6960c0604051908101604052806092815260200161207e60929139610e07600a54611458565b606060405190810160405280603781526020017f2c20227265706c6163656d656e74223a202274727565222c202262617365223a81526020017f20223130227d2c20226964223a2022313432313522207d00000000000000000081525061154b565b620493e0611582565b60078190556000818152600e6020908152604091829020805460ff1916600117905581518181526026918101919091527f4f7261636c697a6520636f6d7075746174696f6e207175657279207761732072818301527f6571756573740000000000000000000000000000000000000000000000000000606082015290519192507f9eb50eb597f28ea7ded26f0afa775a7ceccca822f45cfe5a16f8bdf4214a41c4919081900360800190a16108d5565b600a54600114156108d557601080546000908110610f3c57fe5b60009182526020822060029091020154600954604051600160a060020a039092169281156108fc029290818181858888f19350505050158015610f83573d6000803e3d6000fd5b50610f8c610c02565b600680546001019055601080547f97c59ca311d5f013c9ddfa2dfc788d6f13354cf7e885021c8c027379fa9fb9ec91906000908110610fc757fe5b60009182526020918290206002909102015460408051600160a060020a039092168252519081900390910190a150565b600160a060020a038116151561100c57600080fd5b60008054604051600160a060020a03808516939216917f8be0079c531659141344cd1fd0a4f28419497f9722a3daafe3b4186f6b6457e091a360008054600160a060020a031916600160a060020a0392909216919091179055565b3b90565b6000610b166119e5565b6000828180805b83518110156111ca5783517f3000000000000000000000000000000000000000000000000000000000000000908590839081106110b557fe5b90602001015160f860020a900460f860020a02600160f860020a0319161015801561112b575083517f39000000000000000000000000000000000000000000000000000000000000009085908390811061110b57fe5b90602001015160f860020a900460f860020a02600160f860020a03191611155b1561118457811561114a57851515611142576111ca565b600019909501945b600a830292506030848281518110151561116057fe5b90602001015160f860020a900460f860020a0260f860020a900403830192506111c2565b838181518110151561119257fe5b90602001015160f860020a900460f860020a02600160f860020a031916602e60f860020a0214156111c257600191505b60010161107c565b60008611156111dc5785600a0a830292505b509095945050505050565b600154600090600160a060020a03161580611214575060015461121290600160a060020a0316611067565b155b1561122557611223600061106b565b505b600160009054906101000a9004600160a060020a0316600160a060020a03166338cc48316040518163ffffffff1660e060020a028152600401602060405180830381600087803b15801561127857600080fd5b505af115801561128c573d6000803e3d6000fd5b505050506040513d60208110156112a257600080fd5b5051600254600160a060020a0390811691161461135857600160009054906101000a9004600160a060020a0316600160a060020a03166338cc48316040518163ffffffff1660e060020a028152600401602060405180830381600087803b15801561130c57600080fd5b505af1158015611320573d6000803e3d6000fd5b505050506040513d602081101561133657600080fd5b505160028054600160a060020a031916600160a060020a039092169190911790555b600254604080517f2ef3accc0000000000000000000000000000000000000000000000000000000081526024810185905260048101918252855160448201528551600160a060020a0390931692632ef3accc9287928792829160640190602086019080838360005b838110156113d85781810151838201526020016113c0565b50505050905090810190601f1680156114055780820380516001836020036101000a031916815260200191505b509350505050602060405180830381600087803b15801561142557600080fd5b505af1158015611439573d6000803e3d6000fd5b505050506040513d602081101561144f57600080fd5b50519392505050565b606060008082818515156114a15760408051808201909152600181527f300000000000000000000000000000000000000000000000000000000000000060208201529450611542565b8593505b83156114bc57600190920191600a840493506114a5565b826040519080825280601f01601f1916602001820160405280156114ea578160200160208202803883390190505b5091505060001982015b851561153e57815160001982019160f860020a6030600a8a06010291849190811061151b57fe5b906020010190600160f860020a031916908160001a905350600a860495506114f4565b8194505b50505050919050565b606061157a84848460206040519081016040528060008152506020604051908101604052806000815250611d07565b949350505050565b6001546000908190600160a060020a031615806115b157506001546115af90600160a060020a0316611067565b155b156115c2576115c0600061106b565b505b600160009054906101000a9004600160a060020a0316600160a060020a03166338cc48316040518163ffffffff1660e060020a028152600401602060405180830381600087803b15801561161557600080fd5b505af1158015611629573d6000803e3d6000fd5b505050506040513d602081101561163f57600080fd5b5051600254600160a060020a039081169116146116f557600160009054906101000a9004600160a060020a0316600160a060020a03166338cc48316040518163ffffffff1660e060020a028152600401602060405180830381600087803b1580156116a957600080fd5b505af11580156116bd573d6000803e3d6000fd5b505050506040513d60208110156116d357600080fd5b505160028054600160a060020a031916600160a060020a039092169190911790555b600254604080517f2ef3accc0000000000000000000000000000000000000000000000000000000081526024810186905260048101918252885160448201528851600160a060020a0390931692632ef3accc928a928892829160640190602086019080838360005b8381101561177557818101518382015260200161175d565b50505050905090810190601f1680156117a25780820380516001836020036101000a031916815260200191505b509350505050602060405180830381600087803b1580156117c257600080fd5b505af11580156117d6573d6000803e3d6000fd5b505050506040513d60208110156117ec57600080fd5b50519050670de0b6b3a76400003a84020181111561180d57600091506119dc565b600260009054906101000a9004600160a060020a0316600160a060020a03166385dee34c826000898989896040518763ffffffff1660e060020a02815260040180868152602001806020018060200180602001858152602001848103845288818151815260200191508051906020019080838360005b8381101561189b578181015183820152602001611883565b50505050905090810190601f1680156118c85780820380516001836020036101000a031916815260200191505b50848103835287518152875160209182019189019080838360005b838110156118fb5781810151838201526020016118e3565b50505050905090810190601f1680156119285780820380516001836020036101000a031916815260200191505b50848103825286518152865160209182019188019080838360005b8381101561195b578181015183820152602001611943565b50505050905090810190601f1680156119885780820380516001836020036101000a031916815260200191505b50985050505050505050506020604051808303818588803b1580156119ac57600080fd5b505af11580156119c0573d6000803e3d6000fd5b50505050506040513d60208110156119d757600080fd5b505191505b50949350505050565b600080611a05731d3b2638a7cc9f2cb3d298a3da7a90b67e5506ed611067565b1115611a765760018054600160a060020a031916731d3b2638a7cc9f2cb3d298a3da7a90b67e5506ed17905560408051808201909152600b81527f6574685f6d61696e6e65740000000000000000000000000000000000000000006020820152611a6e90611f68565b506001610b06565b6000611a9573c03a2615d5efaf5f49f60b7bb6583eaec212fdf1611067565b1115611afe5760018054600160a060020a03191673c03a2615d5efaf5f49f60b7bb6583eaec212fdf117905560408051808201909152600c81527f6574685f726f707374656e3300000000000000000000000000000000000000006020820152611a6e90611f68565b6000611b1d73b7a07bcf2ba2f2703b24c0691b5278999c59ac7e611067565b1115611b865760018054600160a060020a03191673b7a07bcf2ba2f2703b24c0691b5278999c59ac7e17905560408051808201909152600981527f6574685f6b6f76616e00000000000000000000000000000000000000000000006020820152611a6e90611f68565b6000611ba573146500cfd35b22e4a392fe0adc06de1a1368ed48611067565b1115611c0e5760018054600160a060020a03191673146500cfd35b22e4a392fe0adc06de1a1368ed4817905560408051808201909152600b81527f6574685f72696e6b6562790000000000000000000000000000000000000000006020820152611a6e90611f68565b6000611c2d736f485c8bf6fc43ea212e93bbf8ce046c7f1cb475611067565b1115611c5f575060018054600160a060020a031916736f485c8bf6fc43ea212e93bbf8ce046c7f1cb475178155610b06565b6000611c7e7320e12a1f859b3feae5fb2a0a32c18f5a65555bbf611067565b1115611cb0575060018054600160a060020a0319167320e12a1f859b3feae5fb2a0a32c18f5a65555bbf178155610b06565b6000611ccf7351efaf4c8b3c9afbd5ab9f4bbc82784ab6ef8faa611067565b1115611d01575060018054600160a060020a0319167351efaf4c8b3c9afbd5ab9f4bbc82784ab6ef8faa178155610b06565b50600090565b6060806060806060806060806000808e98508d97508c96508b95508a94508451865188518a518c51010101016040519080825280601f01601f191660200182016040528015611d60578160200160208202803883390190505b50935083925060009150600090505b8851811015611dcd578881815181101515611d8657fe5b90602001015160f860020a900460f860020a028383806001019450815181101515611dad57fe5b906020010190600160f860020a031916908160001a905350600101611d6f565b5060005b8751811015611e2f578781815181101515611de857fe5b90602001015160f860020a900460f860020a028383806001019450815181101515611e0f57fe5b906020010190600160f860020a031916908160001a905350600101611dd1565b5060005b8651811015611e91578681815181101515611e4a57fe5b90602001015160f860020a900460f860020a028383806001019450815181101515611e7157fe5b906020010190600160f860020a031916908160001a905350600101611e33565b5060005b8551811015611ef3578581815181101515611eac57fe5b90602001015160f860020a900460f860020a028383806001019450815181101515611ed357fe5b906020010190600160f860020a031916908160001a905350600101611e95565b5060005b8451811015611f55578481815181101515611f0e57fe5b90602001015160f860020a900460f860020a028383806001019450815181101515611f3557fe5b906020010190600160f860020a031916908160001a905350600101611ef7565b50909d9c50505050505050505050505050565b805161052c906003906020840190611fbe565b604080518082019091526000808252602082015290565b81548183558181111561072b5760020281600202836000526020600020918201910161072b9190612038565b828054600181600116156101000203166002900490600052602060002090601f016020900481019282601f10611fff57805160ff191683800117855561202c565b8280016001018555821561202c579182015b8281111561202c578251825591602001919060010190612011565b506107d0929150612063565b610b0691905b808211156107d0578054600160a060020a03191681556000600182015560020161203e565b610b0691905b808211156107d0576000815560010161206956000a7b226a736f6e727063223a2022322e30222c20226d6574686f64223a202267656e65726174655369676e6564496e746567657273222c2022706172616d73223a207b226170694b6579223a202231316330633331632d326532362d346239342d393433612d373032646565393365663838222c20226e223a202231222c20226d696e223a202230222c20226d6178223a20a165627a7a72305820bc8a4dbaed1f70e8a2b343e54ad3489dbf396ff7da657aa5511fced472dd25440029",
  "source": "pragma solidity ^0.4.24;\n\nimport './Lottery.sol';\n\ncontract LotteryWeekly is Lottery {\n\n\tuint public constant TIMEOUT = 7; // timeout for 7 day\n\n\tconstructor(uint _equalBet, uint _commission)\n\tLottery(_equalBet, _commission)\n\tpublic\n\tpayable {}\n}",
  "sourcePath": "/home/explomat/blockchain/rndeth/contracts/LotteryWeekly.sol",
  "compiler": {
    "name": "solc",
    "version": "0.4.24+commit.e67f0147.Emscripten.clang"
  },
  "schemaVersion": "2.0.1",
  "updatedAt": "2018-11-06T00:02:01.411Z"
}