{
  "contractName": "LotteryMonth",
  "abi": [
    {
      "constant": true,
      "inputs": [],
      "name": "rndNumber",
      "outputs": [
        {
          "name": "",
          "type": "uint256"
        }
      ],
      "payable": false,
      "stateMutability": "view",
      "type": "function"
    },
    {
      "constant": false,
      "inputs": [],
      "name": "bet",
      "outputs": [],
      "payable": true,
      "stateMutability": "payable",
      "type": "function"
    },
    {
      "constant": false,
      "inputs": [
        {
          "name": "myid",
          "type": "bytes32"
        },
        {
          "name": "result",
          "type": "string"
        }
      ],
      "name": "__callback",
      "outputs": [],
      "payable": false,
      "stateMutability": "nonpayable",
      "type": "function"
    },
    {
      "constant": false,
      "inputs": [
        {
          "name": "myid",
          "type": "bytes32"
        },
        {
          "name": "result",
          "type": "string"
        },
        {
          "name": "proof",
          "type": "bytes"
        }
      ],
      "name": "__callback",
      "outputs": [],
      "payable": false,
      "stateMutability": "nonpayable",
      "type": "function"
    },
    {
      "constant": true,
      "inputs": [],
      "name": "counter",
      "outputs": [
        {
          "name": "",
          "type": "uint256"
        }
      ],
      "payable": false,
      "stateMutability": "view",
      "type": "function"
    },
    {
      "constant": false,
      "inputs": [],
      "name": "renounceOwnership",
      "outputs": [],
      "payable": false,
      "stateMutability": "nonpayable",
      "type": "function"
    },
    {
      "constant": false,
      "inputs": [
        {
          "name": "_ipfsHash",
          "type": "string"
        }
      ],
      "name": "changeIpfsHash",
      "outputs": [],
      "payable": false,
      "stateMutability": "nonpayable",
      "type": "function"
    },
    {
      "constant": true,
      "inputs": [],
      "name": "owner",
      "outputs": [
        {
          "name": "",
          "type": "address"
        }
      ],
      "payable": false,
      "stateMutability": "view",
      "type": "function"
    },
    {
      "constant": true,
      "inputs": [],
      "name": "playersCount",
      "outputs": [
        {
          "name": "",
          "type": "uint256"
        }
      ],
      "payable": false,
      "stateMutability": "view",
      "type": "function"
    },
    {
      "constant": true,
      "inputs": [],
      "name": "calculateTotalPrize",
      "outputs": [
        {
          "name": "",
          "type": "uint256"
        }
      ],
      "payable": false,
      "stateMutability": "view",
      "type": "function"
    },
    {
      "constant": true,
      "inputs": [],
      "name": "totalBalance",
      "outputs": [
        {
          "name": "",
          "type": "uint256"
        }
      ],
      "payable": false,
      "stateMutability": "view",
      "type": "function"
    },
    {
      "constant": true,
      "inputs": [],
      "name": "isLotteryActive",
      "outputs": [
        {
          "name": "",
          "type": "bool"
        }
      ],
      "payable": false,
      "stateMutability": "view",
      "type": "function"
    },
    {
      "constant": true,
      "inputs": [],
      "name": "ipfsHash",
      "outputs": [
        {
          "name": "",
          "type": "string"
        }
      ],
      "payable": false,
      "stateMutability": "view",
      "type": "function"
    },
    {
      "constant": false,
      "inputs": [],
      "name": "invoke",
      "outputs": [],
      "payable": false,
      "stateMutability": "nonpayable",
      "type": "function"
    },
    {
      "constant": false,
      "inputs": [
        {
          "name": "_commission",
          "type": "uint256"
        }
      ],
      "name": "changeCommission",
      "outputs": [],
      "payable": false,
      "stateMutability": "nonpayable",
      "type": "function"
    },
    {
      "constant": true,
      "inputs": [],
      "name": "commission",
      "outputs": [
        {
          "name": "",
          "type": "uint256"
        }
      ],
      "payable": false,
      "stateMutability": "view",
      "type": "function"
    },
    {
      "constant": true,
      "inputs": [],
      "name": "equalBet",
      "outputs": [
        {
          "name": "",
          "type": "uint256"
        }
      ],
      "payable": false,
      "stateMutability": "view",
      "type": "function"
    },
    {
      "constant": false,
      "inputs": [
        {
          "name": "_newOwner",
          "type": "address"
        }
      ],
      "name": "transferOwnership",
      "outputs": [],
      "payable": false,
      "stateMutability": "nonpayable",
      "type": "function"
    },
    {
      "constant": true,
      "inputs": [],
      "name": "TIMEOUT",
      "outputs": [
        {
          "name": "",
          "type": "uint256"
        }
      ],
      "payable": false,
      "stateMutability": "view",
      "type": "function"
    },
    {
      "constant": true,
      "inputs": [
        {
          "name": "",
          "type": "uint256"
        }
      ],
      "name": "players",
      "outputs": [
        {
          "name": "recipient",
          "type": "address"
        },
        {
          "name": "value",
          "type": "uint256"
        }
      ],
      "payable": false,
      "stateMutability": "view",
      "type": "function"
    },
    {
      "inputs": [
        {
          "name": "_ipfsHash",
          "type": "string"
        },
        {
          "name": "_equalBet",
          "type": "uint256"
        },
        {
          "name": "_commission",
          "type": "uint256"
        }
      ],
      "payable": true,
      "stateMutability": "payable",
      "type": "constructor"
    },
    {
      "payable": true,
      "stateMutability": "payable",
      "type": "fallback"
    },
    {
      "anonymous": false,
      "inputs": [
        {
          "indexed": false,
          "name": "str",
          "type": "string"
        }
      ],
      "name": "event_log",
      "type": "event"
    },
    {
      "anonymous": false,
      "inputs": [
        {
          "indexed": false,
          "name": "elu",
          "type": "uint256"
        }
      ],
      "name": "event_log_uint",
      "type": "event"
    },
    {
      "anonymous": false,
      "inputs": [
        {
          "indexed": false,
          "name": "rqreq",
          "type": "string"
        }
      ],
      "name": "event_random_query_request",
      "type": "event"
    },
    {
      "anonymous": false,
      "inputs": [
        {
          "indexed": false,
          "name": "rqres",
          "type": "string"
        }
      ],
      "name": "event_random_query_result",
      "type": "event"
    },
    {
      "anonymous": false,
      "inputs": [
        {
          "indexed": false,
          "name": "t",
          "type": "address"
        }
      ],
      "name": "event_transfer",
      "type": "event"
    },
    {
      "anonymous": false,
      "inputs": [
        {
          "indexed": false,
          "name": "e",
          "type": "string"
        }
      ],
      "name": "event_error",
      "type": "event"
    },
    {
      "anonymous": false,
      "inputs": [
        {
          "indexed": true,
          "name": "previousOwner",
          "type": "address"
        }
      ],
      "name": "OwnershipRenounced",
      "type": "event"
    },
    {
      "anonymous": false,
      "inputs": [
        {
          "indexed": true,
          "name": "previousOwner",
          "type": "address"
        },
        {
          "indexed": true,
          "name": "newOwner",
          "type": "address"
        }
      ],
      "name": "OwnershipTransferred",
      "type": "event"
    }
  ],
  "bytecode": "0x608060405260405162002f4d38038062002f4d833981016040908152815160208301519183015160008054600160a060020a03191633179055920191828282620000727f1100000000000000000000000000000000000000000000000000000000000000640100000000620000ae810204565b600160065582516200008c90600d906020860190620006f0565b50600891909155600b555050600e805460ff1916600117905550620007929050565b600154600160a060020a03161580620000e45750600154620000e290600160a060020a031664010000000062000311810204565b155b156200010157620000ff600064010000000062000315810204565b505b600160009054906101000a9004600160a060020a0316600160a060020a03166338cc48316040518163ffffffff167c0100000000000000000000000000000000000000000000000000000000028152600401602060405180830381600087803b1580156200016e57600080fd5b505af115801562000183573d6000803e3d6000fd5b505050506040513d60208110156200019a57600080fd5b5051600254600160a060020a039081169116146200026d57600160009054906101000a9004600160a060020a0316600160a060020a03166338cc48316040518163ffffffff167c0100000000000000000000000000000000000000000000000000000000028152600401602060405180830381600087803b1580156200021f57600080fd5b505af115801562000234573d6000803e3d6000fd5b505050506040513d60208110156200024b57600080fd5b505160028054600160a060020a031916600160a060020a039092169190911790555b600254604080517f688dcfd70000000000000000000000000000000000000000000000000000000081527fff00000000000000000000000000000000000000000000000000000000000000841660048201529051600160a060020a039092169163688dcfd79160248082019260009290919082900301818387803b158015620002f557600080fd5b505af11580156200030a573d6000803e3d6000fd5b5050505050565b3b90565b60006200032a64010000000062000330810204565b92915050565b6000806200035b731d3b2638a7cc9f2cb3d298a3da7a90b67e5506ed64010000000062000311810204565b1115620003d95760018054600160a060020a031916731d3b2638a7cc9f2cb3d298a3da7a90b67e5506ed17905560408051808201909152600b81527f6574685f6d61696e6e65740000000000000000000000000000000000000000006020820152620003d090640100000000620006d7810204565b506001620006d4565b60006200040373c03a2615d5efaf5f49f60b7bb6583eaec212fdf164010000000062000311810204565b1115620004785760018054600160a060020a03191673c03a2615d5efaf5f49f60b7bb6583eaec212fdf117905560408051808201909152600c81527f6574685f726f707374656e3300000000000000000000000000000000000000006020820152620003d090640100000000620006d7810204565b6000620004a273b7a07bcf2ba2f2703b24c0691b5278999c59ac7e64010000000062000311810204565b1115620005175760018054600160a060020a03191673b7a07bcf2ba2f2703b24c0691b5278999c59ac7e17905560408051808201909152600981527f6574685f6b6f76616e00000000000000000000000000000000000000000000006020820152620003d090640100000000620006d7810204565b60006200054173146500cfd35b22e4a392fe0adc06de1a1368ed4864010000000062000311810204565b1115620005b65760018054600160a060020a03191673146500cfd35b22e4a392fe0adc06de1a1368ed4817905560408051808201909152600b81527f6574685f72696e6b6562790000000000000000000000000000000000000000006020820152620003d090640100000000620006d7810204565b6000620005e0736f485c8bf6fc43ea212e93bbf8ce046c7f1cb47564010000000062000311810204565b111562000614575060018054600160a060020a031916736f485c8bf6fc43ea212e93bbf8ce046c7f1cb475178155620006d4565b60006200063e7320e12a1f859b3feae5fb2a0a32c18f5a65555bbf64010000000062000311810204565b111562000672575060018054600160a060020a0319167320e12a1f859b3feae5fb2a0a32c18f5a65555bbf178155620006d4565b60006200069c7351efaf4c8b3c9afbd5ab9f4bbc82784ab6ef8faa64010000000062000311810204565b1115620006d0575060018054600160a060020a0319167351efaf4c8b3c9afbd5ab9f4bbc82784ab6ef8faa178155620006d4565b5060005b90565b8051620006ec906003906020840190620006f0565b5050565b828054600181600116156101000203166002900490600052602060002090601f016020900481019282601f106200073357805160ff191683800117855562000763565b8280016001018555821562000763579182015b828111156200076357825182559160200191906001019062000746565b506200077192915062000775565b5090565b620006d491905b808211156200077157600081556001016200077c565b6127ab80620007a26000396000f3006080604052600436106100f85763ffffffff60e060020a60003504166307dd96f781146100fa57806311610c251461012157806327dc297e1461012957806338bbfa501461018457806361bc221a1461021f578063715018a6146102345780638064b15f146102495780638da5cb5b1461029e578063a3f67d6d146102cf578063ab8078c6146102e4578063ad7a672f146102f9578063c3b69ebb1461030e578063c623674f14610337578063cab7f521146103c3578063df922f3a146103d8578063e1489191146103f0578063ef9a224214610405578063f2fde38b1461041a578063f56f48f21461043b578063f71d96cb14610450575b005b34801561010657600080fd5b5061010f61048a565b60405190815260200160405180910390f35b6100f8610490565b34801561013557600080fd5b506100f86004803590369060446024803590810190830135806020601f820181900481020160405190810160405281815292919060208401838380828437509497506106009650505050505050565b34801561019057600080fd5b506100f86004803590369060446024803590810190830135806020601f820181900481020160405190810160405281815292919060208401838380828437509497969560208082019650903587018082019550359350839250601f83018190048102019050604051908101604052818152929190602084018383808284375094975061063e9650505050505050565b34801561022b57600080fd5b5061010f61083f565b34801561024057600080fd5b506100f8610845565b34801561025557600080fd5b506100f83660046024813581810190830135806020601f820181900481020160405190810160405281815292919060208401838380828437509497506108a69650505050505050565b3480156102aa57600080fd5b506102b36108d0565b604051600160a060020a03909116815260200160405180910390f35b3480156102db57600080fd5b5061010f6108df565b3480156102f057600080fd5b5061010f6108e5565b34801561030557600080fd5b5061010f61090f565b34801561031a57600080fd5b50610323610915565b604051901515815260200160405180910390f35b34801561034357600080fd5b5061034c61091e565b60405160208082528190810183818151815260200191508051906020019080838360005b83811015610388578082015183820152602001610370565b50505050905090810190601f1680156103b55780820380516001836020036101000a031916815260200191505b509250505060405180910390f35b3480156103cf57600080fd5b506100f86109bc565b3480156103e457600080fd5b506100f8600435610a65565b3480156103fc57600080fd5b5061010f610a81565b34801561041157600080fd5b5061010f610a87565b34801561042657600080fd5b506100f8600160a060020a0360043516610a8d565b34801561044757600080fd5b5061010f610ab0565b34801561045c57600080fd5b50610468600435610ab6565b604051600160a060020a03909216825260208201526040908101905180910390f35b600c5481565b610498612667565b60085434146104a657600080fd5b600e5460ff1615156105015760405160e560020a62461bcd02815260206004820152601960248201527f4c6f7474657279206973206e6f7420616374697665206e6f7700000000000000604482015260640160405180910390fd5b60065433600090815260106020526040902054106105685760405160e560020a62461bcd02815260206004820152601560248201527f4f6e6c79206f6e652062657420666f722067616d650000000000000000000000604482015260640160405180910390fd5b60408051908101604052338152346020820152600a5490915060010161058f60118261267e565b5060065433600090815260106020526040902055600a8054600181019091556011805483929081106105bd57fe5b90600052602060002060029091020181518154600160a060020a031916600160a060020a0391909116178155602082015160019091015550506009805434019055565b61063a82826000604051818152601f19601f8301168101602001604052908015610634578160200160208202803883390190505b5061063e565b5050565b610646610aeb565b600160a060020a031633146106a45760405160e560020a62461bcd02815260206004820152601f60248201527f43616c6c6572206973206e6f74204f7261636c697a6520616464726573732100604482015260640160405180910390fd5b6000838152600f602052604090205460ff1615156107315760405160e560020a62461bcd02815260206004820152602160248201527f51756572792068617320616c7265616479206265656e2070726f63657373656460448201527f2100000000000000000000000000000000000000000000000000000000000000606482015260840160405180910390fd5b60075483141561083a5761074482610cc0565b600c8190557fb21238056034e0d6cc890938b808046968a29e77b2a3636793841ff76a92d9559060405190815260200160405180910390a1610787600c54610cd3565b61078f610db6565b6006805460010190556000838152600f60205260409020805460ff191690557f65f6d9f82a5021bfe453af062212bd087691bf16e7152c3362628730368e207660405160208082526027908201527f4f7261636c697a6520636f6d7075746174696f6e2071756572792077617320726040808301919091527f656365697665640000000000000000000000000000000000000000000000000060608301526080909101905180910390a15b505050565b60065481565b600054600160a060020a0316331461085c57600080fd5b600054600160a060020a03167ff8df31144d9c2f0f6b59d69b8b98abd5459d07f2742c4df920b25aae33c6482060405160405180910390a260008054600160a060020a0319169055565b600054600160a060020a031633146108bd57600080fd5b600d81805161063a9291602001906126a8565b600054600160a060020a031681565b600a5481565b600b5460009060640381811061090557600954606490048102915061090b565b60095491505b5090565b60095481565b600e5460ff1681565b600d8054600181600116156101000203166002900480601f0160208091040260200160405190810160405280929190818152602001828054600181600116156101000203166002900480156109b45780601f10610989576101008083540402835291602001916109b4565b820191906000526020600020905b81548152906001019060200180831161099757829003601f168201915b505050505081565b600054600160a060020a031633146109d357600080fd5b600a54600010610a515760405160e560020a62461bcd028152602060048201526024808201527f506c617965727320636f756e74206d757374206265206772656174657220746860448201527f616e203000000000000000000000000000000000000000000000000000000000606482015260840160405180910390fd5b600e805460ff19169055610a63610dcf565b565b600054600160a060020a03163314610a7c57600080fd5b600b55565b600b5481565b60085481565b600054600160a060020a03163314610aa457600080fd5b610aad81611256565b50565b61021c81565b6011805482908110610ac457fe5b9060005260206000206002909102018054600190910154600160a060020a03909116915082565b600154600090600160a060020a03161580610b185750600154610b1690600160a060020a03166112c9565b155b15610b2957610b2760006112cd565b505b600154600160a060020a03166338cc48316040518163ffffffff1660e060020a028152600401602060405180830381600087803b158015610b6957600080fd5b505af1158015610b7d573d6000803e3d6000fd5b505050506040513d6020811015610b9357600080fd5b810190808051600254600160a060020a039081169116149250610c4791505057600154600160a060020a03166338cc48316040518163ffffffff1660e060020a028152600401602060405180830381600087803b158015610bf357600080fd5b505af1158015610c07573d6000803e3d6000fd5b505050506040513d6020811015610c1d57600080fd5b81019080805160028054600160a060020a031916600160a060020a03929092169190911790555050505b600254600160a060020a031663c281d19e6040518163ffffffff1660e060020a028152600401602060405180830381600087803b158015610c8757600080fd5b505af1158015610c9b573d6000803e3d6000fd5b505050506040513d6020811015610cb157600080fd5b81019080805193505050505b90565b6000610ccd8260006112d7565b92915050565b610cdb612667565b6000601183815481101515610cec57fe5b9060005260206000209060020201604080519081016040528154600160a060020a0316815260019091015460208201529150610d266108e5565b905060008251600160a060020a03161461083a578151600160a060020a031681156108fc0282604051600060405180830381858888f19350505050158015610d72573d6000803e3d6000fd5b507f97c59ca311d5f013c9ddfa2dfc788d6f13354cf7e885021c8c027379fa9fb9ec8251604051600160a060020a03909116815260200160405180910390a1505050565b600e805460ff1916600117905560006009819055600a55565b60006001600a541115611175573031610e1e60408051908101604052600b81527f636f6d7075746174696f6e0000000000000000000000000000000000000000006020820152620493e061143b565b1115610eda577f45216837f26a6836ade4e0969fe04657e771b5659940d6e0de811cb8d49580d660405160208082526057908201527f4f7261636c697a6520636f6d7075746174696f6e20717565727920776173204e6040808301919091527f4f542073656e742c20706c656173652061646420736f6d652045544820746f2060608301527f636f76657220666f722074686520717565727920666565000000000000000000608083015260a0909101905180910390a1610aad565b6110bd6040805190810160405280600b81526020017f636f6d7075746174696f6e00000000000000000000000000000000000000000081525060806040519081016040528061102c6040805190810160405280600581526020017f6a736f6e28000000000000000000000000000000000000000000000000000000815250600d8054600181600116156101000203166002900480601f016020809104026020016040519081016040528092919081815260200182805460018160011615610100020316600290048015610fee5780601f10610fc357610100808354040283529160200191610fee565b820191906000526020600020905b815481529060010190602001808311610fd157829003601f168201915b505050505060408051908101604052601681527f292e726573756c742e72616e646f6d2e646174612e30000000000000000000006020820152611686565b81526020016040805190810160405280600181526020017f310000000000000000000000000000000000000000000000000000000000000081525081526020016040805190810160405280600181526020017f300000000000000000000000000000000000000000000000000000000000000081525081526020016110b2600a546116bb565b9052620493e06117ad565b60078190556000818152600f60205290915060019060409020805460ff19169115159190911790557f9eb50eb597f28ea7ded26f0afa775a7ceccca822f45cfe5a16f8bdf4214a41c460405160208082526026908201527f4f7261636c697a6520636f6d7075746174696f6e2071756572792077617320726040808301919091527f657175657374000000000000000000000000000000000000000000000000000060608301526080909101905180910390a1610aad565b600a5460011415610aad5760118054600090811061118f57fe5b90600052602060002060029091020154600954600160a060020a039091169080156108fc0290604051600060405180830381858888f193505050501580156111db573d6000803e3d6000fd5b506111e4610db6565b600680546001019055601180547f97c59ca311d5f013c9ddfa2dfc788d6f13354cf7e885021c8c027379fa9fb9ec9190600090811061121f57fe5b90600052602060002060029091020154600160a060020a0316604051600160a060020a03909116815260200160405180910390a150565b600160a060020a038116151561126b57600080fd5b600054600160a060020a0380831691167f8be0079c531659141344cd1fd0a4f28419497f9722a3daafe3b4186f6b6457e060405160405180910390a360008054600160a060020a031916600160a060020a0392909216919091179055565b3b90565b6000610ccd6119ca565b6000828180805b835181101561141e577f300000000000000000000000000000000000000000000000000000000000000084828151811061131457fe5b016020015160f860020a900460f860020a02600160f860020a0319161015801561138557507f390000000000000000000000000000000000000000000000000000000000000084828151811061136657fe5b016020015160f860020a900460f860020a02600160f860020a03191611155b156113db5781156113a45785151561139c5761141e565b600019909501945b600a8302925060308482815181106113b857fe5b016020015160f860020a900460f860020a0260f860020a90040383019250611416565b8381815181106113e757fe5b016020015160f860020a900460f860020a02600160f860020a031916602e60f860020a02141561141657600191505b6001016112de565b60008611156114305785600a0a830292505b509095945050505050565b600154600090600160a060020a03161580611468575060015461146690600160a060020a03166112c9565b155b156114795761147760006112cd565b505b600154600160a060020a03166338cc48316040518163ffffffff1660e060020a028152600401602060405180830381600087803b1580156114b957600080fd5b505af11580156114cd573d6000803e3d6000fd5b505050506040513d60208110156114e357600080fd5b810190808051600254600160a060020a03908116911614925061159791505057600154600160a060020a03166338cc48316040518163ffffffff1660e060020a028152600401602060405180830381600087803b15801561154357600080fd5b505af1158015611557573d6000803e3d6000fd5b505050506040513d602081101561156d57600080fd5b81019080805160028054600160a060020a031916600160a060020a03929092169190911790555050505b600254600160a060020a0316632ef3accc84846040518363ffffffff1660e060020a0281526004018080602001838152602001828103825284818151815260200191508051906020019080838360005b838110156115ff5780820151838201526020016115e7565b50505050905090810190601f16801561162c5780820380516001836020036101000a031916815260200191505b509350505050602060405180830381600087803b15801561164c57600080fd5b505af1158015611660573d6000803e3d6000fd5b505050506040513d602081101561167657600080fd5b8101908080519695505050505050565b60606116b38484846020604051908101604052806000815250602060405190810160405260008152611ce8565b949350505050565b606060008082818515156117045760408051908101604052600181527f3000000000000000000000000000000000000000000000000000000000000000602082015294506117a4565b8593505b831561171f57600190920191600a84049350611708565b82604051818152601f19601f830116810160200160405290801561174d578160200160208202803883390190505b5091505060001982015b85156117a05760001981019060f860020a6030600a890601029083908151811061177d57fe5b906020010190600160f860020a031916908160001a905350600a86049550611757565b8194505b50505050919050565b600154600090606090600160a060020a031615806117dd57506001546117db90600160a060020a03166112c9565b155b156117ee576117ec60006112cd565b505b600154600160a060020a03166338cc48316040518163ffffffff1660e060020a028152600401602060405180830381600087803b15801561182e57600080fd5b505af1158015611842573d6000803e3d6000fd5b505050506040513d602081101561185857600080fd5b810190808051600254600160a060020a03908116911614925061190c91505057600154600160a060020a03166338cc48316040518163ffffffff1660e060020a028152600401602060405180830381600087803b1580156118b857600080fd5b505af11580156118cc573d6000803e3d6000fd5b505050506040513d60208110156118e257600080fd5b81019080805160028054600160a060020a031916600160a060020a03929092169190911790555050505b600460405190808252806020026020018201604052801561194157816020015b606081526020019060019003908161192c5790505b50905083518160008151811061195357fe5b6020908102909101015283600160200201518160018151811061197257fe5b602090810291909101015260408401518160028151811061198f57fe5b60209081029190910101526060840151816003815181106119ac57fe5b602090810290910101526119c1858285611f1e565b95945050505050565b6000806119ea731d3b2638a7cc9f2cb3d298a3da7a90b67e5506ed6112c9565b1115611a5a5760018054600160a060020a031916731d3b2638a7cc9f2cb3d298a3da7a90b67e5506ed179055611a5260408051908101604052600b81527f6574685f6d61696e6e657400000000000000000000000000000000000000000060208201526122fa565b506001610cbd565b6000611a7973c03a2615d5efaf5f49f60b7bb6583eaec212fdf16112c9565b1115611ae15760018054600160a060020a03191673c03a2615d5efaf5f49f60b7bb6583eaec212fdf1179055611a5260408051908101604052600c81527f6574685f726f707374656e33000000000000000000000000000000000000000060208201526122fa565b6000611b0073b7a07bcf2ba2f2703b24c0691b5278999c59ac7e6112c9565b1115611b685760018054600160a060020a03191673b7a07bcf2ba2f2703b24c0691b5278999c59ac7e179055611a5260408051908101604052600981527f6574685f6b6f76616e000000000000000000000000000000000000000000000060208201526122fa565b6000611b8773146500cfd35b22e4a392fe0adc06de1a1368ed486112c9565b1115611bef5760018054600160a060020a03191673146500cfd35b22e4a392fe0adc06de1a1368ed48179055611a5260408051908101604052600b81527f6574685f72696e6b65627900000000000000000000000000000000000000000060208201526122fa565b6000611c0e736f485c8bf6fc43ea212e93bbf8ce046c7f1cb4756112c9565b1115611c40575060018054600160a060020a031916736f485c8bf6fc43ea212e93bbf8ce046c7f1cb475178155610cbd565b6000611c5f7320e12a1f859b3feae5fb2a0a32c18f5a65555bbf6112c9565b1115611c91575060018054600160a060020a0319167320e12a1f859b3feae5fb2a0a32c18f5a65555bbf178155610cbd565b6000611cb07351efaf4c8b3c9afbd5ab9f4bbc82784ab6ef8faa6112c9565b1115611ce2575060018054600160a060020a0319167351efaf4c8b3c9afbd5ab9f4bbc82784ab6ef8faa178155610cbd565b50600090565b6060858585858585806000808451865188518a518c5101010101604051818152601f19601f8301168101602001604052908015611d2f578160200160208202803883390190505b50935083925060009150600090505b8851811015611d9757888181518110611d5357fe5b016020015160f860020a900460f860020a02838380600101945081518110611d7757fe5b906020010190600160f860020a031916908160001a905350600101611d3e565b5060005b8751811015611df457878181518110611db057fe5b016020015160f860020a900460f860020a02838380600101945081518110611dd457fe5b906020010190600160f860020a031916908160001a905350600101611d9b565b5060005b8651811015611e5157868181518110611e0d57fe5b016020015160f860020a900460f860020a02838380600101945081518110611e3157fe5b906020010190600160f860020a031916908160001a905350600101611df8565b5060005b8551811015611eae57858181518110611e6a57fe5b016020015160f860020a900460f860020a02838380600101945081518110611e8e57fe5b906020010190600160f860020a031916908160001a905350600101611e55565b5060005b8451811015611f0b57848181518110611ec757fe5b016020015160f860020a900460f860020a02838380600101945081518110611eeb57fe5b906020010190600160f860020a031916908160001a905350600101611eb2565b50909d9c50505050505050505050505050565b6001546000908190606090600160a060020a03161580611f505750600154611f4e90600160a060020a03166112c9565b155b15611f6157611f5f60006112cd565b505b600154600160a060020a03166338cc48316040518163ffffffff1660e060020a028152600401602060405180830381600087803b158015611fa157600080fd5b505af1158015611fb5573d6000803e3d6000fd5b505050506040513d6020811015611fcb57600080fd5b810190808051600254600160a060020a03908116911614925061207f91505057600154600160a060020a03166338cc48316040518163ffffffff1660e060020a028152600401602060405180830381600087803b15801561202b57600080fd5b505af115801561203f573d6000803e3d6000fd5b505050506040513d602081101561205557600080fd5b81019080805160028054600160a060020a031916600160a060020a03929092169190911790555050505b600254600160a060020a0316632ef3accc87866040518363ffffffff1660e060020a0281526004018080602001838152602001828103825284818151815260200191508051906020019080838360005b838110156120e75780820151838201526020016120cf565b50505050905090810190601f1680156121145780820380516001836020036101000a031916815260200191505b509350505050602060405180830381600087803b15801561213457600080fd5b505af1158015612148573d6000803e3d6000fd5b505050506040513d602081101561215e57600080fd5b8101908080519450505050670de0b6b3a76400003a85020182111561218657600092506122f1565b61218f8561230d565b600254909150600160a060020a031663c55c1cb68360008985896040518663ffffffff1660e060020a028152600401808581526020018060200180602001848152602001838103835286818151815260200191508051906020019080838360005b838110156122085780820151838201526020016121f0565b50505050905090810190601f1680156122355780820380516001836020036101000a031916815260200191505b50838103825285818151815260200191508051906020019080838360005b8381101561226b578082015183820152602001612253565b50505050905090810190601f1680156122985780820380516001836020036101000a031916815260200191505b5096505050505050506020604051808303818588803b1580156122ba57600080fd5b505af11580156122ce573d6000803e3d6000fd5b50505050506040513d60208110156122e557600080fd5b81019080805195505050505b50509392505050565b600381805161063a9291602001906126a8565b6060612317612722565b6000612321612384565b61232d82610400612390565b612336826123be565b5060005b83518110156123715761236984828151811061235257fe5b90602001906020020151839063ffffffff6123c916565b60010161233a565b61237a826123e6565b8151949350505050565b60405180590338823950565b8060208106156123a35760208106602003015b60208301819052604051928390526000835290910160405250565b610aad8160046123ed565b6123d68260038351612406565b61083a828263ffffffff61250a16565b610aad8160075b61063a82601f602060ff8516021763ffffffff6125a716565b60178111612427576124228360ff8481166020021683176125a7565b61083a565b60ff811161246057612448836018602060ff8616021763ffffffff6125a716565b61245a8382600163ffffffff6125e016565b5061083a565b61ffff811161249457612482836019602060ff8616021763ffffffff6125a716565b61245a8382600263ffffffff6125e016565b63ffffffff81116124ca576124b883601a602060ff8616021763ffffffff6125a716565b61245a8382600463ffffffff6125e016565b67ffffffffffffffff811161083a576124f283601b602060ff8616021763ffffffff6125a716565b6125048382600863ffffffff6125e016565b50505050565b612512612722565b60008060008086602001518751518751011115612544576125448761253c89602001518951612636565b60020261264d565b8551915086518051602081830101955087510190526020860192505b602082106125835782518452602084019350602083019250602082039150612560565b6001826020036101000a039050801983511681855116179093525093949350505050565b816020015182515160010111156125c9576125c982836020015160020261264d565b815180516020818301018381535060010190525050565b6125e8612722565b600084602001518551518401111561260c5761260c8561253c876020015186612636565b6001836101000a039050845180518481830101868419825116179052909301909252509192915050565b600081831115612647575081610ccd565b50919050565b60608251905061265d8383612390565b612504838261250a565b604080519081016040526000808252602082015290565b81548183558181111561083a576002028160020283600052602060002061083a928101910161273a565b828054600181600116156101000203166002900490600052602060002090601f016020900481019282601f106126e957805160ff1916838001178555612716565b82800160010185558215612716579182015b828111156127165782518255916020019190600101906126fb565b5061090b929150612765565b60408051908101604052606081526000602082015290565b610cbd91905b8082111561090b578054600160a060020a031916815560006001820155600201612740565b610cbd91905b8082111561090b576000815560010161276b5600a165627a7a723058208eb22ea23609a1922f0dd9c71991d9ce5ae43d77852c56b7018601de719fc30b0029",
  "source": "pragma solidity ^0.4.24;\n\nimport './Lottery.sol';\n\ncontract LotteryMonth is Lottery {\n\n\tuint public constant TIMEOUT = 540; //24 * 60 * 60 * 7 * 30; //timeout in seconds\n\n\tconstructor(string _ipfsHash, uint _equalBet, uint _commission)\n\tLottery(_ipfsHash, _equalBet, _commission)\n\tpublic\n\tpayable {}\n}",
  "sourcePath": "/home/explomat/blockchain/rndeth/contracts/LotteryMonth.sol",
  "compiler": {
    "name": "solc",
    "version": "0.4.24+commit.e67f0147.Emscripten.clang"
  },
  "schemaVersion": "2.0.1",
  "updatedAt": "2018-10-18T22:28:42.112Z"
}