{
  "contractName": "Authentication",
  "abi": [
    {
      "constant": false,
      "inputs": [],
      "name": "renounceOwnership",
      "outputs": [],
      "payable": false,
      "stateMutability": "nonpayable",
      "type": "function"
    },
    {
      "constant": false,
      "inputs": [],
      "name": "destroy",
      "outputs": [],
      "payable": false,
      "stateMutability": "nonpayable",
      "type": "function"
    },
    {
      "constant": true,
      "inputs": [],
      "name": "owner",
      "outputs": [
        {
          "name": "",
          "type": "address"
        }
      ],
      "payable": false,
      "stateMutability": "view",
      "type": "function"
    },
    {
      "constant": true,
      "inputs": [
        {
          "name": "",
          "type": "address"
        }
      ],
      "name": "users",
      "outputs": [
        {
          "name": "name",
          "type": "bytes32"
        }
      ],
      "payable": false,
      "stateMutability": "view",
      "type": "function"
    },
    {
      "constant": false,
      "inputs": [
        {
          "name": "_newOwner",
          "type": "address"
        }
      ],
      "name": "transferOwnership",
      "outputs": [],
      "payable": false,
      "stateMutability": "nonpayable",
      "type": "function"
    },
    {
      "constant": false,
      "inputs": [
        {
          "name": "_recipient",
          "type": "address"
        }
      ],
      "name": "destroyAndSend",
      "outputs": [],
      "payable": false,
      "stateMutability": "nonpayable",
      "type": "function"
    },
    {
      "anonymous": false,
      "inputs": [
        {
          "indexed": true,
          "name": "previousOwner",
          "type": "address"
        }
      ],
      "name": "OwnershipRenounced",
      "type": "event"
    },
    {
      "anonymous": false,
      "inputs": [
        {
          "indexed": true,
          "name": "previousOwner",
          "type": "address"
        },
        {
          "indexed": true,
          "name": "newOwner",
          "type": "address"
        }
      ],
      "name": "OwnershipTransferred",
      "type": "event"
    },
    {
      "constant": true,
      "inputs": [],
      "name": "login",
      "outputs": [
        {
          "name": "",
          "type": "bytes32"
        }
      ],
      "payable": false,
      "stateMutability": "view",
      "type": "function"
    },
    {
      "constant": false,
      "inputs": [
        {
          "name": "name",
          "type": "bytes32"
        }
      ],
      "name": "signup",
      "outputs": [
        {
          "name": "",
          "type": "bytes32"
        }
      ],
      "payable": true,
      "stateMutability": "payable",
      "type": "function"
    },
    {
      "constant": false,
      "inputs": [
        {
          "name": "name",
          "type": "bytes32"
        }
      ],
      "name": "update",
      "outputs": [
        {
          "name": "",
          "type": "bytes32"
        }
      ],
      "payable": true,
      "stateMutability": "payable",
      "type": "function"
    }
  ],
  "bytecode": "0x608060405260008054600160a060020a0319163317905561041b806100256000396000f3006080604052600436106100985763ffffffff7c01000000000000000000000000000000000000000000000000000000006000350416635c1397de811461009d578063715018a6146100ba57806383197ef0146100d15780638b147245146100e65780638da5cb5b146100f1578063a87430ba14610122578063b34e97e814610143578063f2fde38b14610158578063f5074f4114610179575b600080fd5b6100a860043561019a565b60408051918252519081900360200190f35b3480156100c657600080fd5b506100cf6101f2565b005b3480156100dd57600080fd5b506100cf61025e565b6100a8600435610283565b3480156100fd57600080fd5b506101066102dc565b60408051600160a060020a039092168252519081900360200190f35b34801561012e57600080fd5b506100a8600160a060020a03600435166102eb565b34801561014f57600080fd5b506100a86102fd565b34801561016457600080fd5b506100cf600160a060020a036004351661032c565b34801561018557600080fd5b506100cf600160a060020a036004351661034f565b6000818015156101a957600080fd5b3360009081526001602052604090205415156101d9573360009081526001602052604090208390558291506101ec565b3360009081526001602052604090205491505b50919050565b600054600160a060020a0316331461020957600080fd5b60008054604051600160a060020a03909116917ff8df31144d9c2f0f6b59d69b8b98abd5459d07f2742c4df920b25aae33c6482091a26000805473ffffffffffffffffffffffffffffffffffffffff19169055565b600054600160a060020a0316331461027557600080fd5b600054600160a060020a0316ff5b60008180151561029257600080fd5b3360009081526001602052604090205415156102ad57600080fd5b33600090815260016020526040902054156101ec573360009081526001602052604090208390558291506101ec565b600054600160a060020a031681565b60016020526000908152604090205481565b33600090815260016020526040812054151561031857600080fd5b503360009081526001602052604090205490565b600054600160a060020a0316331461034357600080fd5b61034c81610372565b50565b600054600160a060020a0316331461036657600080fd5b80600160a060020a0316ff5b600160a060020a038116151561038757600080fd5b60008054604051600160a060020a03808516939216917f8be0079c531659141344cd1fd0a4f28419497f9722a3daafe3b4186f6b6457e091a36000805473ffffffffffffffffffffffffffffffffffffffff1916600160a060020a03929092169190911790555600a165627a7a72305820b86b890a7bc3b417681950804213537abffc8236194a24b78a70146585449a600029",
  "source": "pragma solidity ^0.4.24;\nimport 'openzeppelin-solidity/contracts/lifecycle/Destructible.sol';\n\ncontract Authentication is Destructible {\n\tstruct User {\n\t\tbytes32 name;\n\t}\n\n\tmapping (address => User) public users;\n\n\tuint private id; // Stores user id temporarily\n\n\tmodifier onlyExistingUser {\n\t\t// Check if user exists or terminate\n\n\t\trequire(!(users[msg.sender].name == 0x0));\n\t\t_;\n\t}\n\n\tmodifier onlyValidName(bytes32 name) {\n\t\t// Only valid names allowed\n\n\t\trequire(!(name == 0x0));\n\t\t_;\n\t}\n\n\tfunction login() constant\n\tpublic\n\tonlyExistingUser\n\treturns (bytes32) {\n\t\treturn (users[msg.sender].name);\n\t}\n\n\tfunction signup(bytes32 name)\n\tpublic\n\tpayable\n\tonlyValidName(name)\n\treturns (bytes32) {\n\t\t// Check if user exists.\n\t\t// If yes, return user name.\n\t\t// If no, check if name was sent.\n\t\t// If yes, create and return user.\n\n\t\tif (users[msg.sender].name == 0x0) {\n\t\t\tusers[msg.sender].name = name;\n\t\t\treturn (users[msg.sender].name);\n\t\t}\n\n\t\treturn (users[msg.sender].name);\n\t}\n\n\tfunction update(bytes32 name)\n\tpublic\n\tpayable\n\tonlyValidName(name)\n\tonlyExistingUser\n\treturns (bytes32) {\n\t\t// Update user name.\n\n\t\tif (users[msg.sender].name != 0x0) {\n\t\t\tusers[msg.sender].name = name;\n\t\t\treturn (users[msg.sender].name);\n\t\t}\n\t}\n}\n",
  "sourcePath": "/home/explomat/blockchain/rndeth/contracts/Authentication.sol",
  "compiler": {
    "name": "solc",
    "version": "0.4.24+commit.e67f0147.Emscripten.clang"
  },
  "schemaVersion": "2.0.1",
  "updatedAt": "2018-10-12T21:59:43.810Z"
}