{
  "contractName": "Casino",
  "abi": [
    {
      "constant": true,
      "inputs": [],
      "name": "numberOfBets",
      "outputs": [
        {
          "name": "",
          "type": "uint256"
        }
      ],
      "payable": false,
      "stateMutability": "view",
      "type": "function"
    },
    {
      "constant": true,
      "inputs": [
        {
          "name": "",
          "type": "address"
        }
      ],
      "name": "playerInfo",
      "outputs": [
        {
          "name": "amountBet",
          "type": "uint256"
        },
        {
          "name": "numberSelected",
          "type": "uint256"
        }
      ],
      "payable": false,
      "stateMutability": "view",
      "type": "function"
    },
    {
      "constant": false,
      "inputs": [],
      "name": "renounceOwnership",
      "outputs": [],
      "payable": false,
      "stateMutability": "nonpayable",
      "type": "function"
    },
    {
      "constant": true,
      "inputs": [],
      "name": "owner",
      "outputs": [
        {
          "name": "",
          "type": "address"
        }
      ],
      "payable": false,
      "stateMutability": "view",
      "type": "function"
    },
    {
      "constant": true,
      "inputs": [],
      "name": "minimumBet",
      "outputs": [
        {
          "name": "",
          "type": "uint256"
        }
      ],
      "payable": false,
      "stateMutability": "view",
      "type": "function"
    },
    {
      "constant": true,
      "inputs": [],
      "name": "maxAmountOfBets",
      "outputs": [
        {
          "name": "",
          "type": "uint256"
        }
      ],
      "payable": false,
      "stateMutability": "view",
      "type": "function"
    },
    {
      "constant": false,
      "inputs": [
        {
          "name": "_newOwner",
          "type": "address"
        }
      ],
      "name": "transferOwnership",
      "outputs": [],
      "payable": false,
      "stateMutability": "nonpayable",
      "type": "function"
    },
    {
      "constant": true,
      "inputs": [
        {
          "name": "",
          "type": "uint256"
        }
      ],
      "name": "players",
      "outputs": [
        {
          "name": "",
          "type": "address"
        }
      ],
      "payable": false,
      "stateMutability": "view",
      "type": "function"
    },
    {
      "constant": true,
      "inputs": [],
      "name": "totalBet",
      "outputs": [
        {
          "name": "",
          "type": "uint256"
        }
      ],
      "payable": false,
      "stateMutability": "view",
      "type": "function"
    },
    {
      "inputs": [
        {
          "name": "_minimumBet",
          "type": "uint256"
        },
        {
          "name": "_maxAmountOfBets",
          "type": "uint256"
        }
      ],
      "payable": false,
      "stateMutability": "nonpayable",
      "type": "constructor"
    },
    {
      "payable": true,
      "stateMutability": "payable",
      "type": "fallback"
    },
    {
      "anonymous": false,
      "inputs": [
        {
          "indexed": true,
          "name": "previousOwner",
          "type": "address"
        }
      ],
      "name": "OwnershipRenounced",
      "type": "event"
    },
    {
      "anonymous": false,
      "inputs": [
        {
          "indexed": true,
          "name": "previousOwner",
          "type": "address"
        },
        {
          "indexed": true,
          "name": "newOwner",
          "type": "address"
        }
      ],
      "name": "OwnershipTransferred",
      "type": "event"
    },
    {
      "constant": true,
      "inputs": [
        {
          "name": "player",
          "type": "address"
        }
      ],
      "name": "checkPlayerExists",
      "outputs": [
        {
          "name": "",
          "type": "bool"
        }
      ],
      "payable": false,
      "stateMutability": "view",
      "type": "function"
    },
    {
      "constant": false,
      "inputs": [
        {
          "name": "numberSelected",
          "type": "uint256"
        }
      ],
      "name": "bet",
      "outputs": [],
      "payable": true,
      "stateMutability": "payable",
      "type": "function"
    },
    {
      "constant": false,
      "inputs": [
        {
          "name": "numberWinner",
          "type": "uint256"
        }
      ],
      "name": "distributePrizes",
      "outputs": [],
      "payable": false,
      "stateMutability": "nonpayable",
      "type": "function"
    },
    {
      "constant": false,
      "inputs": [],
      "name": "generateNumberWinner",
      "outputs": [],
      "payable": false,
      "stateMutability": "nonpayable",
      "type": "function"
    },
    {
      "constant": false,
      "inputs": [],
      "name": "kill",
      "outputs": [],
      "payable": false,
      "stateMutability": "nonpayable",
      "type": "function"
    }
  ],
  "bytecode": "0x608060405266038d7ea4c68000600155606460045534801561002057600080fd5b5060405160408061077083398101604052805160209091015160008054600160a060020a0319163317815582106100575760018290555b600081106100655760048190555b50506106fa806100766000396000f3006080604052600436106100cf5763ffffffff7c01000000000000000000000000000000000000000000000000000000006000350416630a50e36181146100d15780632ca8c6d3146100e65780634081d9161461010d57806341c0e1b5146101425780634b114691146101575780636ca3fc3b14610191578063715018a6146101a95780637365870b146101be5780638da5cb5b146101c9578063c38a8afd146101fa578063e08a96cd1461020f578063f2fde38b14610224578063f71d96cb14610245578063fe5e18531461025d575b005b3480156100dd57600080fd5b506100cf610272565b3480156100f257600080fd5b506100fb610285565b60408051918252519081900360200190f35b34801561011957600080fd5b5061012e600160a060020a036004351661028b565b604080519115158252519081900360200190f35b34801561014e57600080fd5b506100cf6102e9565b34801561016357600080fd5b50610178600160a060020a03600435166102f7565b6040805192835260208301919091528051918290030190f35b34801561019d57600080fd5b506100cf600435610310565b3480156101b557600080fd5b506100cf610466565b6100cf6004356104d2565b3480156101d557600080fd5b506101de61054d565b60408051600160a060020a039092168252519081900360200190f35b34801561020657600080fd5b506100fb61055c565b34801561021b57600080fd5b506100fb610562565b34801561023057600080fd5b506100cf600160a060020a0360043516610568565b34801561025157600080fd5b506101de600435610588565b34801561026957600080fd5b506100fb6105b0565b6001600a43060161028281610310565b50565b60035481565b6000805b6005548110156102de5782600160a060020a03166005828154811015156102b257fe5b600091825260209091200154600160a060020a031614156102d657600191506102e3565b60010161028f565b600091505b50919050565b600054600160a060020a0316ff5b6006602052600090815260409020805460019091015482565b610318610664565b6000808080805b6005548410156103be57600580548590811061033757fe5b6000918252602080832090910154600160a060020a03168083526006909152604090912060010154909350871415610390578286866064811061037657fe5b600160a060020a0390921660209290920201526001909401935b600160a060020a0383166000908152600660205260408120818155600190810191909155939093019261031f565b60006103cb600582610684565b505060025460649004905060005b848110156104555760008682606481106103ef57fe5b6020020151600160a060020a03161461044d5785816064811061040e57fe5b6020020151600160a060020a03166108fc839081150290604051600060405180830381858888f1935050505015801561044b573d6000803e3d6000fd5b505b6001016103d9565b61045d6105b6565b50505050505050565b600054600160a060020a0316331461047d57600080fd5b60008054604051600160a060020a03909116917ff8df31144d9c2f0f6b59d69b8b98abd5459d07f2742c4df920b25aae33c6482091a26000805473ffffffffffffffffffffffffffffffffffffffff19169055565b3360008181526006602052604081203480825560019182019490945560038054820190556005805491820181559091527f036b6384b5eca791c62761152d0c79bb0604c104a5fb6f4eb0703f3154bb3db001805473ffffffffffffffffffffffffffffffffffffffff19169091179055600280549091019055565b600054600160a060020a031681565b60015481565b60045481565b600054600160a060020a0316331461057f57600080fd5b610282816105e7565b600580548290811061059657fe5b600091825260209091200154600160a060020a0316905081565b60025481565b600054600160a060020a031633146105cd57600080fd5b60006105da600582610684565b5060006002819055600355565b600160a060020a03811615156105fc57600080fd5b60008054604051600160a060020a03808516939216917f8be0079c531659141344cd1fd0a4f28419497f9722a3daafe3b4186f6b6457e091a36000805473ffffffffffffffffffffffffffffffffffffffff1916600160a060020a0392909216919091179055565b610c80604051908101604052806064906020820280388339509192915050565b8154818355818111156106a8576000838152602090206106a89181019083016106ad565b505050565b6106cb91905b808211156106c757600081556001016106b3565b5090565b905600a165627a7a72305820a677c14fd9074983515b868c92f1df7c0bfd69b230ebb3b62a8151f4635bcc7f0029",
  "source": "pragma solidity ^0.4.24;\nimport 'openzeppelin-solidity/contracts/ownership/Ownable.sol';\n\ncontract Casino is Ownable {\n\tuint256 public minimumBet = 1000000000000000; //in wei == 0.1 ether\n\tuint256 public totalBet;\n\tuint256 public numberOfBets;\n\tuint256 public maxAmountOfBets = 100;\n\taddress[] public players;\n\n\tstruct Player {\n\t\tuint256 amountBet;\n\t\tuint256 numberSelected;\n\t}\n\t// The address of the player and => the user info   \n\tmapping(address => Player) public playerInfo;\n\n\tconstructor(uint256 _minimumBet, uint256 _maxAmountOfBets) public {\n\t\tif(_minimumBet >= 0 ) minimumBet = _minimumBet;\n\t\tif (_maxAmountOfBets >= 0) maxAmountOfBets = _maxAmountOfBets; \n\t}\n\n\t// Fallback function in case someone sends ether to the contract so it doesn't get lost and to increase the treasury of this contract \n\tfunction() public payable {}\n\n\n\tfunction checkPlayerExists(address player) public constant returns(bool){\n\t\tfor(uint256 i = 0; i < players.length; i++){\n\t\t\tif(players[i] == player) return true;\n\t\t}\n\t\treturn false;\n\t}\n\n\n\t// To bet for a number between 1 and 10 both inclusive\n\tfunction bet(uint256 numberSelected) public payable {\n\t\t/* require(!checkPlayerExists(msg.sender));\n\t\trequire(numberSelected >= 1 && numberSelected <= 10);\n\t\trequire(msg.value >= minimumBet); */\n\t\tplayerInfo[msg.sender].amountBet = msg.value;\n\t\tplayerInfo[msg.sender].numberSelected = numberSelected;\n\t\tnumberOfBets++;\n\t\tplayers.push(msg.sender);\n\t\ttotalBet += msg.value;\n\t}\n\n\tfunction resetData() private onlyOwner{\n\t\tplayers.length = 0; // Delete all the players array\n\t\ttotalBet = 0;\n\t\tnumberOfBets = 0;\n\t}\n\n\t// Sends the corresponding ether to each winner depending on the total bets\n\tfunction distributePrizes(uint256 numberWinner) public {\n\t\taddress[100] memory winners; // We have to create a temporary in memory array with fixed size\n\t\tuint256 count = 0; // This is the count for the array of winners\n\t\tfor(uint256 i = 0; i < players.length; i++){\n\t\t\taddress playerAddress = players[i];\n\t\t\tif(playerInfo[playerAddress].numberSelected == numberWinner){\n\t\t\t\twinners[count] = playerAddress;\n\t\t\t\tcount++;\n\t\t\t}\n\t\t\tdelete playerInfo[playerAddress]; // Delete all the players\n\t\t}\n\t\tplayers.length = 0; // Delete all the players array\n\t\tuint256 winnerEtherAmount = totalBet / winners.length; // How much each winner gets\n\t\tfor(uint256 j = 0; j < count; j++){\n\t\t\tif(winners[j] != address(0)) // Check that the address in this fixed array is not empty\n\t\t\twinners[j].transfer(winnerEtherAmount);\n\t\t}\n\t\tresetData();\n\t}\n\n\t// Generates a number between 1 and 10 that will be the winner\n\tfunction generateNumberWinner() public {\n\t\tuint256 numberGenerated = block.number % 10 + 1; // This isn't secure\n\t\tdistributePrizes(numberGenerated);\n\t}\n\n\tfunction kill() public {\n\t\tselfdestruct(owner);\n\t}\n}",
  "sourcePath": "/home/explomat/blockchain/rndeth/contracts/Casino.sol",
  "compiler": {
    "name": "solc",
    "version": "0.4.24+commit.e67f0147.Emscripten.clang"
  },
  "schemaVersion": "2.0.1",
  "updatedAt": "2018-10-11T18:59:22.694Z"
}