{
  "contractName": "Lottery",
  "abi": [
    {
      "constant": true,
      "inputs": [],
      "name": "rndNumber",
      "outputs": [
        {
          "name": "",
          "type": "uint256"
        }
      ],
      "payable": false,
      "stateMutability": "view",
      "type": "function"
    },
    {
      "constant": true,
      "inputs": [],
      "name": "counter",
      "outputs": [
        {
          "name": "",
          "type": "uint256"
        }
      ],
      "payable": false,
      "stateMutability": "view",
      "type": "function"
    },
    {
      "constant": false,
      "inputs": [],
      "name": "renounceOwnership",
      "outputs": [],
      "payable": false,
      "stateMutability": "nonpayable",
      "type": "function"
    },
    {
      "constant": true,
      "inputs": [],
      "name": "owner",
      "outputs": [
        {
          "name": "",
          "type": "address"
        }
      ],
      "payable": false,
      "stateMutability": "view",
      "type": "function"
    },
    {
      "constant": true,
      "inputs": [],
      "name": "playersCount",
      "outputs": [
        {
          "name": "",
          "type": "uint256"
        }
      ],
      "payable": false,
      "stateMutability": "view",
      "type": "function"
    },
    {
      "constant": true,
      "inputs": [],
      "name": "totalBalance",
      "outputs": [
        {
          "name": "",
          "type": "uint256"
        }
      ],
      "payable": false,
      "stateMutability": "view",
      "type": "function"
    },
    {
      "constant": true,
      "inputs": [],
      "name": "isLotteryActive",
      "outputs": [
        {
          "name": "",
          "type": "bool"
        }
      ],
      "payable": false,
      "stateMutability": "view",
      "type": "function"
    },
    {
      "constant": true,
      "inputs": [],
      "name": "ipfsHash",
      "outputs": [
        {
          "name": "",
          "type": "string"
        }
      ],
      "payable": false,
      "stateMutability": "view",
      "type": "function"
    },
    {
      "constant": true,
      "inputs": [],
      "name": "commission",
      "outputs": [
        {
          "name": "",
          "type": "uint256"
        }
      ],
      "payable": false,
      "stateMutability": "view",
      "type": "function"
    },
    {
      "constant": true,
      "inputs": [],
      "name": "equalBet",
      "outputs": [
        {
          "name": "",
          "type": "uint256"
        }
      ],
      "payable": false,
      "stateMutability": "view",
      "type": "function"
    },
    {
      "constant": false,
      "inputs": [
        {
          "name": "_newOwner",
          "type": "address"
        }
      ],
      "name": "transferOwnership",
      "outputs": [],
      "payable": false,
      "stateMutability": "nonpayable",
      "type": "function"
    },
    {
      "constant": true,
      "inputs": [
        {
          "name": "",
          "type": "uint256"
        }
      ],
      "name": "players",
      "outputs": [
        {
          "name": "recipient",
          "type": "address"
        },
        {
          "name": "value",
          "type": "uint256"
        }
      ],
      "payable": false,
      "stateMutability": "view",
      "type": "function"
    },
    {
      "inputs": [
        {
          "name": "_ipfsHash",
          "type": "string"
        },
        {
          "name": "_equalBet",
          "type": "uint256"
        },
        {
          "name": "_commission",
          "type": "uint256"
        }
      ],
      "payable": true,
      "stateMutability": "payable",
      "type": "constructor"
    },
    {
      "payable": true,
      "stateMutability": "payable",
      "type": "fallback"
    },
    {
      "anonymous": false,
      "inputs": [
        {
          "indexed": false,
          "name": "str",
          "type": "string"
        }
      ],
      "name": "event_log",
      "type": "event"
    },
    {
      "anonymous": false,
      "inputs": [
        {
          "indexed": false,
          "name": "elu",
          "type": "uint256"
        }
      ],
      "name": "event_log_uint",
      "type": "event"
    },
    {
      "anonymous": false,
      "inputs": [
        {
          "indexed": false,
          "name": "rqreq",
          "type": "string"
        }
      ],
      "name": "event_random_query_request",
      "type": "event"
    },
    {
      "anonymous": false,
      "inputs": [
        {
          "indexed": false,
          "name": "rqres",
          "type": "string"
        }
      ],
      "name": "event_random_query_result",
      "type": "event"
    },
    {
      "anonymous": false,
      "inputs": [
        {
          "indexed": false,
          "name": "t",
          "type": "address"
        }
      ],
      "name": "event_transfer",
      "type": "event"
    },
    {
      "anonymous": false,
      "inputs": [
        {
          "indexed": false,
          "name": "e",
          "type": "string"
        }
      ],
      "name": "event_error",
      "type": "event"
    },
    {
      "anonymous": false,
      "inputs": [
        {
          "indexed": true,
          "name": "previousOwner",
          "type": "address"
        }
      ],
      "name": "OwnershipRenounced",
      "type": "event"
    },
    {
      "anonymous": false,
      "inputs": [
        {
          "indexed": true,
          "name": "previousOwner",
          "type": "address"
        },
        {
          "indexed": true,
          "name": "newOwner",
          "type": "address"
        }
      ],
      "name": "OwnershipTransferred",
      "type": "event"
    },
    {
      "constant": false,
      "inputs": [],
      "name": "bet",
      "outputs": [],
      "payable": true,
      "stateMutability": "payable",
      "type": "function"
    },
    {
      "constant": false,
      "inputs": [
        {
          "name": "myid",
          "type": "bytes32"
        },
        {
          "name": "result",
          "type": "string"
        }
      ],
      "name": "__callback",
      "outputs": [],
      "payable": false,
      "stateMutability": "nonpayable",
      "type": "function"
    },
    {
      "constant": false,
      "inputs": [
        {
          "name": "myid",
          "type": "bytes32"
        },
        {
          "name": "result",
          "type": "string"
        },
        {
          "name": "proof",
          "type": "bytes"
        }
      ],
      "name": "__callback",
      "outputs": [],
      "payable": false,
      "stateMutability": "nonpayable",
      "type": "function"
    },
    {
      "constant": true,
      "inputs": [],
      "name": "calculateTotalPrize",
      "outputs": [
        {
          "name": "",
          "type": "uint256"
        }
      ],
      "payable": false,
      "stateMutability": "view",
      "type": "function"
    },
    {
      "constant": false,
      "inputs": [],
      "name": "invoke",
      "outputs": [],
      "payable": false,
      "stateMutability": "nonpayable",
      "type": "function"
    },
    {
      "constant": false,
      "inputs": [
        {
          "name": "_ipfsHash",
          "type": "string"
        }
      ],
      "name": "changeIpfsHash",
      "outputs": [],
      "payable": false,
      "stateMutability": "nonpayable",
      "type": "function"
    },
    {
      "constant": false,
      "inputs": [
        {
          "name": "_commission",
          "type": "uint256"
        }
      ],
      "name": "changeCommission",
      "outputs": [],
      "payable": false,
      "stateMutability": "nonpayable",
      "type": "function"
    }
  ],
  "bytecode": "0x608060405260405162002f2038038062002f20833981016040908152815160208301519183015160008054600160a060020a031916331790559201916200006f7f1100000000000000000000000000000000000000000000000000000000000000640100000000620000a7810204565b600160065582516200008990600d906020860190620006e9565b50600891909155600b5550600e805460ff191660011790556200078b565b600154600160a060020a03161580620000dd5750600154620000db90600160a060020a03166401000000006200030a810204565b155b15620000fa57620000f860006401000000006200030e810204565b505b600160009054906101000a9004600160a060020a0316600160a060020a03166338cc48316040518163ffffffff167c0100000000000000000000000000000000000000000000000000000000028152600401602060405180830381600087803b1580156200016757600080fd5b505af11580156200017c573d6000803e3d6000fd5b505050506040513d60208110156200019357600080fd5b5051600254600160a060020a039081169116146200026657600160009054906101000a9004600160a060020a0316600160a060020a03166338cc48316040518163ffffffff167c0100000000000000000000000000000000000000000000000000000000028152600401602060405180830381600087803b1580156200021857600080fd5b505af11580156200022d573d6000803e3d6000fd5b505050506040513d60208110156200024457600080fd5b505160028054600160a060020a031916600160a060020a039092169190911790555b600254604080517f688dcfd70000000000000000000000000000000000000000000000000000000081527fff00000000000000000000000000000000000000000000000000000000000000841660048201529051600160a060020a039092169163688dcfd79160248082019260009290919082900301818387803b158015620002ee57600080fd5b505af115801562000303573d6000803e3d6000fd5b5050505050565b3b90565b60006200032364010000000062000329810204565b92915050565b60008062000354731d3b2638a7cc9f2cb3d298a3da7a90b67e5506ed6401000000006200030a810204565b1115620003d25760018054600160a060020a031916731d3b2638a7cc9f2cb3d298a3da7a90b67e5506ed17905560408051808201909152600b81527f6574685f6d61696e6e65740000000000000000000000000000000000000000006020820152620003c990640100000000620006d0810204565b506001620006cd565b6000620003fc73c03a2615d5efaf5f49f60b7bb6583eaec212fdf16401000000006200030a810204565b1115620004715760018054600160a060020a03191673c03a2615d5efaf5f49f60b7bb6583eaec212fdf117905560408051808201909152600c81527f6574685f726f707374656e3300000000000000000000000000000000000000006020820152620003c990640100000000620006d0810204565b60006200049b73b7a07bcf2ba2f2703b24c0691b5278999c59ac7e6401000000006200030a810204565b1115620005105760018054600160a060020a03191673b7a07bcf2ba2f2703b24c0691b5278999c59ac7e17905560408051808201909152600981527f6574685f6b6f76616e00000000000000000000000000000000000000000000006020820152620003c990640100000000620006d0810204565b60006200053a73146500cfd35b22e4a392fe0adc06de1a1368ed486401000000006200030a810204565b1115620005af5760018054600160a060020a03191673146500cfd35b22e4a392fe0adc06de1a1368ed4817905560408051808201909152600b81527f6574685f72696e6b6562790000000000000000000000000000000000000000006020820152620003c990640100000000620006d0810204565b6000620005d9736f485c8bf6fc43ea212e93bbf8ce046c7f1cb4756401000000006200030a810204565b11156200060d575060018054600160a060020a031916736f485c8bf6fc43ea212e93bbf8ce046c7f1cb475178155620006cd565b6000620006377320e12a1f859b3feae5fb2a0a32c18f5a65555bbf6401000000006200030a810204565b11156200066b575060018054600160a060020a0319167320e12a1f859b3feae5fb2a0a32c18f5a65555bbf178155620006cd565b6000620006957351efaf4c8b3c9afbd5ab9f4bbc82784ab6ef8faa6401000000006200030a810204565b1115620006c9575060018054600160a060020a0319167351efaf4c8b3c9afbd5ab9f4bbc82784ab6ef8faa178155620006cd565b5060005b90565b8051620006e5906003906020840190620006e9565b5050565b828054600181600116156101000203166002900490600052602060002090601f016020900481019282601f106200072c57805160ff19168380011785556200075c565b828001600101855582156200075c579182015b828111156200075c5782518255916020019190600101906200073f565b506200076a9291506200076e565b5090565b620006cd91905b808211156200076a576000815560010162000775565b612785806200079b6000396000f3006080604052600436106100ed5763ffffffff60e060020a60003504166307dd96f781146100ef57806311610c251461011657806327dc297e1461011e57806338bbfa501461017957806361bc221a14610214578063715018a6146102295780638064b15f1461023e5780638da5cb5b14610293578063a3f67d6d146102c4578063ab8078c6146102d9578063ad7a672f146102ee578063c3b69ebb14610303578063c623674f1461032c578063cab7f521146103b8578063df922f3a146103cd578063e1489191146103e5578063ef9a2242146103fa578063f2fde38b1461040f578063f71d96cb14610430575b005b3480156100fb57600080fd5b5061010461046a565b60405190815260200160405180910390f35b6100ed610470565b34801561012a57600080fd5b506100ed6004803590369060446024803590810190830135806020601f820181900481020160405190810160405281815292919060208401838380828437509497506105e09650505050505050565b34801561018557600080fd5b506100ed6004803590369060446024803590810190830135806020601f820181900481020160405190810160405281815292919060208401838380828437509497969560208082019650903587018082019550359350839250601f83018190048102019050604051908101604052818152929190602084018383808284375094975061061e9650505050505050565b34801561022057600080fd5b5061010461081f565b34801561023557600080fd5b506100ed610825565b34801561024a57600080fd5b506100ed3660046024813581810190830135806020601f820181900481020160405190810160405281815292919060208401838380828437509497506108869650505050505050565b34801561029f57600080fd5b506102a86108b0565b604051600160a060020a03909116815260200160405180910390f35b3480156102d057600080fd5b506101046108bf565b3480156102e557600080fd5b506101046108c5565b3480156102fa57600080fd5b506101046108ef565b34801561030f57600080fd5b506103186108f5565b604051901515815260200160405180910390f35b34801561033857600080fd5b506103416108fe565b60405160208082528190810183818151815260200191508051906020019080838360005b8381101561037d578082015183820152602001610365565b50505050905090810190601f1680156103aa5780820380516001836020036101000a031916815260200191505b509250505060405180910390f35b3480156103c457600080fd5b506100ed61099c565b3480156103d957600080fd5b506100ed600435610a45565b3480156103f157600080fd5b50610104610a61565b34801561040657600080fd5b50610104610a67565b34801561041b57600080fd5b506100ed600160a060020a0360043516610a6d565b34801561043c57600080fd5b50610448600435610a90565b604051600160a060020a03909216825260208201526040908101905180910390f35b600c5481565b610478612641565b600854341461048657600080fd5b600e5460ff1615156104e15760405160e560020a62461bcd02815260206004820152601960248201527f4c6f7474657279206973206e6f7420616374697665206e6f7700000000000000604482015260640160405180910390fd5b60065433600090815260106020526040902054106105485760405160e560020a62461bcd02815260206004820152601560248201527f4f6e6c79206f6e652062657420666f722067616d650000000000000000000000604482015260640160405180910390fd5b60408051908101604052338152346020820152600a5490915060010161056f601182612658565b5060065433600090815260106020526040902055600a80546001810190915560118054839290811061059d57fe5b90600052602060002060029091020181518154600160a060020a031916600160a060020a0391909116178155602082015160019091015550506009805434019055565b61061a82826000604051818152601f19601f8301168101602001604052908015610614578160200160208202803883390190505b5061061e565b5050565b610626610ac5565b600160a060020a031633146106845760405160e560020a62461bcd02815260206004820152601f60248201527f43616c6c6572206973206e6f74204f7261636c697a6520616464726573732100604482015260640160405180910390fd5b6000838152600f602052604090205460ff1615156107115760405160e560020a62461bcd02815260206004820152602160248201527f51756572792068617320616c7265616479206265656e2070726f63657373656460448201527f2100000000000000000000000000000000000000000000000000000000000000606482015260840160405180910390fd5b60075483141561081a5761072482610c9a565b600c8190557fb21238056034e0d6cc890938b808046968a29e77b2a3636793841ff76a92d9559060405190815260200160405180910390a1610767600c54610cad565b61076f610d90565b6006805460010190556000838152600f60205260409020805460ff191690557f65f6d9f82a5021bfe453af062212bd087691bf16e7152c3362628730368e207660405160208082526027908201527f4f7261636c697a6520636f6d7075746174696f6e2071756572792077617320726040808301919091527f656365697665640000000000000000000000000000000000000000000000000060608301526080909101905180910390a15b505050565b60065481565b600054600160a060020a0316331461083c57600080fd5b600054600160a060020a03167ff8df31144d9c2f0f6b59d69b8b98abd5459d07f2742c4df920b25aae33c6482060405160405180910390a260008054600160a060020a0319169055565b600054600160a060020a0316331461089d57600080fd5b600d81805161061a929160200190612682565b600054600160a060020a031681565b600a5481565b600b546000906064038181106108e55760095460649004810291506108eb565b60095491505b5090565b60095481565b600e5460ff1681565b600d8054600181600116156101000203166002900480601f0160208091040260200160405190810160405280929190818152602001828054600181600116156101000203166002900480156109945780601f1061096957610100808354040283529160200191610994565b820191906000526020600020905b81548152906001019060200180831161097757829003601f168201915b505050505081565b600054600160a060020a031633146109b357600080fd5b600a54600010610a315760405160e560020a62461bcd028152602060048201526024808201527f506c617965727320636f756e74206d757374206265206772656174657220746860448201527f616e203000000000000000000000000000000000000000000000000000000000606482015260840160405180910390fd5b600e805460ff19169055610a43610da9565b565b600054600160a060020a03163314610a5c57600080fd5b600b55565b600b5481565b60085481565b600054600160a060020a03163314610a8457600080fd5b610a8d81611230565b50565b6011805482908110610a9e57fe5b9060005260206000206002909102018054600190910154600160a060020a03909116915082565b600154600090600160a060020a03161580610af25750600154610af090600160a060020a03166112a3565b155b15610b0357610b0160006112a7565b505b600154600160a060020a03166338cc48316040518163ffffffff1660e060020a028152600401602060405180830381600087803b158015610b4357600080fd5b505af1158015610b57573d6000803e3d6000fd5b505050506040513d6020811015610b6d57600080fd5b810190808051600254600160a060020a039081169116149250610c2191505057600154600160a060020a03166338cc48316040518163ffffffff1660e060020a028152600401602060405180830381600087803b158015610bcd57600080fd5b505af1158015610be1573d6000803e3d6000fd5b505050506040513d6020811015610bf757600080fd5b81019080805160028054600160a060020a031916600160a060020a03929092169190911790555050505b600254600160a060020a031663c281d19e6040518163ffffffff1660e060020a028152600401602060405180830381600087803b158015610c6157600080fd5b505af1158015610c75573d6000803e3d6000fd5b505050506040513d6020811015610c8b57600080fd5b81019080805193505050505b90565b6000610ca78260006112b1565b92915050565b610cb5612641565b6000601183815481101515610cc657fe5b9060005260206000209060020201604080519081016040528154600160a060020a0316815260019091015460208201529150610d006108c5565b905060008251600160a060020a03161461081a578151600160a060020a031681156108fc0282604051600060405180830381858888f19350505050158015610d4c573d6000803e3d6000fd5b507f97c59ca311d5f013c9ddfa2dfc788d6f13354cf7e885021c8c027379fa9fb9ec8251604051600160a060020a03909116815260200160405180910390a1505050565b600e805460ff1916600117905560006009819055600a55565b60006001600a54111561114f573031610df860408051908101604052600b81527f636f6d7075746174696f6e0000000000000000000000000000000000000000006020820152620493e0611415565b1115610eb4577f45216837f26a6836ade4e0969fe04657e771b5659940d6e0de811cb8d49580d660405160208082526057908201527f4f7261636c697a6520636f6d7075746174696f6e20717565727920776173204e6040808301919091527f4f542073656e742c20706c656173652061646420736f6d652045544820746f2060608301527f636f76657220666f722074686520717565727920666565000000000000000000608083015260a0909101905180910390a1610a8d565b6110976040805190810160405280600b81526020017f636f6d7075746174696f6e0000000000000000000000000000000000000000008152506080604051908101604052806110066040805190810160405280600581526020017f6a736f6e28000000000000000000000000000000000000000000000000000000815250600d8054600181600116156101000203166002900480601f016020809104026020016040519081016040528092919081815260200182805460018160011615610100020316600290048015610fc85780601f10610f9d57610100808354040283529160200191610fc8565b820191906000526020600020905b815481529060010190602001808311610fab57829003601f168201915b505050505060408051908101604052601681527f292e726573756c742e72616e646f6d2e646174612e30000000000000000000006020820152611660565b81526020016040805190810160405280600181526020017f310000000000000000000000000000000000000000000000000000000000000081525081526020016040805190810160405280600181526020017f3000000000000000000000000000000000000000000000000000000000000000815250815260200161108c600a54611695565b9052620493e0611787565b60078190556000818152600f60205290915060019060409020805460ff19169115159190911790557f9eb50eb597f28ea7ded26f0afa775a7ceccca822f45cfe5a16f8bdf4214a41c460405160208082526026908201527f4f7261636c697a6520636f6d7075746174696f6e2071756572792077617320726040808301919091527f657175657374000000000000000000000000000000000000000000000000000060608301526080909101905180910390a1610a8d565b600a5460011415610a8d5760118054600090811061116957fe5b90600052602060002060029091020154600954600160a060020a039091169080156108fc0290604051600060405180830381858888f193505050501580156111b5573d6000803e3d6000fd5b506111be610d90565b600680546001019055601180547f97c59ca311d5f013c9ddfa2dfc788d6f13354cf7e885021c8c027379fa9fb9ec919060009081106111f957fe5b90600052602060002060029091020154600160a060020a0316604051600160a060020a03909116815260200160405180910390a150565b600160a060020a038116151561124557600080fd5b600054600160a060020a0380831691167f8be0079c531659141344cd1fd0a4f28419497f9722a3daafe3b4186f6b6457e060405160405180910390a360008054600160a060020a031916600160a060020a0392909216919091179055565b3b90565b6000610ca76119a4565b6000828180805b83518110156113f8577f30000000000000000000000000000000000000000000000000000000000000008482815181106112ee57fe5b016020015160f860020a900460f860020a02600160f860020a0319161015801561135f57507f390000000000000000000000000000000000000000000000000000000000000084828151811061134057fe5b016020015160f860020a900460f860020a02600160f860020a03191611155b156113b557811561137e57851515611376576113f8565b600019909501945b600a83029250603084828151811061139257fe5b016020015160f860020a900460f860020a0260f860020a900403830192506113f0565b8381815181106113c157fe5b016020015160f860020a900460f860020a02600160f860020a031916602e60f860020a0214156113f057600191505b6001016112b8565b600086111561140a5785600a0a830292505b509095945050505050565b600154600090600160a060020a03161580611442575060015461144090600160a060020a03166112a3565b155b156114535761145160006112a7565b505b600154600160a060020a03166338cc48316040518163ffffffff1660e060020a028152600401602060405180830381600087803b15801561149357600080fd5b505af11580156114a7573d6000803e3d6000fd5b505050506040513d60208110156114bd57600080fd5b810190808051600254600160a060020a03908116911614925061157191505057600154600160a060020a03166338cc48316040518163ffffffff1660e060020a028152600401602060405180830381600087803b15801561151d57600080fd5b505af1158015611531573d6000803e3d6000fd5b505050506040513d602081101561154757600080fd5b81019080805160028054600160a060020a031916600160a060020a03929092169190911790555050505b600254600160a060020a0316632ef3accc84846040518363ffffffff1660e060020a0281526004018080602001838152602001828103825284818151815260200191508051906020019080838360005b838110156115d95780820151838201526020016115c1565b50505050905090810190601f1680156116065780820380516001836020036101000a031916815260200191505b509350505050602060405180830381600087803b15801561162657600080fd5b505af115801561163a573d6000803e3d6000fd5b505050506040513d602081101561165057600080fd5b8101908080519695505050505050565b606061168d8484846020604051908101604052806000815250602060405190810160405260008152611cc2565b949350505050565b606060008082818515156116de5760408051908101604052600181527f30000000000000000000000000000000000000000000000000000000000000006020820152945061177e565b8593505b83156116f957600190920191600a840493506116e2565b82604051818152601f19601f8301168101602001604052908015611727578160200160208202803883390190505b5091505060001982015b851561177a5760001981019060f860020a6030600a890601029083908151811061175757fe5b906020010190600160f860020a031916908160001a905350600a86049550611731565b8194505b50505050919050565b600154600090606090600160a060020a031615806117b757506001546117b590600160a060020a03166112a3565b155b156117c8576117c660006112a7565b505b600154600160a060020a03166338cc48316040518163ffffffff1660e060020a028152600401602060405180830381600087803b15801561180857600080fd5b505af115801561181c573d6000803e3d6000fd5b505050506040513d602081101561183257600080fd5b810190808051600254600160a060020a0390811691161492506118e691505057600154600160a060020a03166338cc48316040518163ffffffff1660e060020a028152600401602060405180830381600087803b15801561189257600080fd5b505af11580156118a6573d6000803e3d6000fd5b505050506040513d60208110156118bc57600080fd5b81019080805160028054600160a060020a031916600160a060020a03929092169190911790555050505b600460405190808252806020026020018201604052801561191b57816020015b60608152602001906001900390816119065790505b50905083518160008151811061192d57fe5b6020908102909101015283600160200201518160018151811061194c57fe5b602090810291909101015260408401518160028151811061196957fe5b602090810291909101015260608401518160038151811061198657fe5b6020908102909101015261199b858285611ef8565b95945050505050565b6000806119c4731d3b2638a7cc9f2cb3d298a3da7a90b67e5506ed6112a3565b1115611a345760018054600160a060020a031916731d3b2638a7cc9f2cb3d298a3da7a90b67e5506ed179055611a2c60408051908101604052600b81527f6574685f6d61696e6e657400000000000000000000000000000000000000000060208201526122d4565b506001610c97565b6000611a5373c03a2615d5efaf5f49f60b7bb6583eaec212fdf16112a3565b1115611abb5760018054600160a060020a03191673c03a2615d5efaf5f49f60b7bb6583eaec212fdf1179055611a2c60408051908101604052600c81527f6574685f726f707374656e33000000000000000000000000000000000000000060208201526122d4565b6000611ada73b7a07bcf2ba2f2703b24c0691b5278999c59ac7e6112a3565b1115611b425760018054600160a060020a03191673b7a07bcf2ba2f2703b24c0691b5278999c59ac7e179055611a2c60408051908101604052600981527f6574685f6b6f76616e000000000000000000000000000000000000000000000060208201526122d4565b6000611b6173146500cfd35b22e4a392fe0adc06de1a1368ed486112a3565b1115611bc95760018054600160a060020a03191673146500cfd35b22e4a392fe0adc06de1a1368ed48179055611a2c60408051908101604052600b81527f6574685f72696e6b65627900000000000000000000000000000000000000000060208201526122d4565b6000611be8736f485c8bf6fc43ea212e93bbf8ce046c7f1cb4756112a3565b1115611c1a575060018054600160a060020a031916736f485c8bf6fc43ea212e93bbf8ce046c7f1cb475178155610c97565b6000611c397320e12a1f859b3feae5fb2a0a32c18f5a65555bbf6112a3565b1115611c6b575060018054600160a060020a0319167320e12a1f859b3feae5fb2a0a32c18f5a65555bbf178155610c97565b6000611c8a7351efaf4c8b3c9afbd5ab9f4bbc82784ab6ef8faa6112a3565b1115611cbc575060018054600160a060020a0319167351efaf4c8b3c9afbd5ab9f4bbc82784ab6ef8faa178155610c97565b50600090565b6060858585858585806000808451865188518a518c5101010101604051818152601f19601f8301168101602001604052908015611d09578160200160208202803883390190505b50935083925060009150600090505b8851811015611d7157888181518110611d2d57fe5b016020015160f860020a900460f860020a02838380600101945081518110611d5157fe5b906020010190600160f860020a031916908160001a905350600101611d18565b5060005b8751811015611dce57878181518110611d8a57fe5b016020015160f860020a900460f860020a02838380600101945081518110611dae57fe5b906020010190600160f860020a031916908160001a905350600101611d75565b5060005b8651811015611e2b57868181518110611de757fe5b016020015160f860020a900460f860020a02838380600101945081518110611e0b57fe5b906020010190600160f860020a031916908160001a905350600101611dd2565b5060005b8551811015611e8857858181518110611e4457fe5b016020015160f860020a900460f860020a02838380600101945081518110611e6857fe5b906020010190600160f860020a031916908160001a905350600101611e2f565b5060005b8451811015611ee557848181518110611ea157fe5b016020015160f860020a900460f860020a02838380600101945081518110611ec557fe5b906020010190600160f860020a031916908160001a905350600101611e8c565b50909d9c50505050505050505050505050565b6001546000908190606090600160a060020a03161580611f2a5750600154611f2890600160a060020a03166112a3565b155b15611f3b57611f3960006112a7565b505b600154600160a060020a03166338cc48316040518163ffffffff1660e060020a028152600401602060405180830381600087803b158015611f7b57600080fd5b505af1158015611f8f573d6000803e3d6000fd5b505050506040513d6020811015611fa557600080fd5b810190808051600254600160a060020a03908116911614925061205991505057600154600160a060020a03166338cc48316040518163ffffffff1660e060020a028152600401602060405180830381600087803b15801561200557600080fd5b505af1158015612019573d6000803e3d6000fd5b505050506040513d602081101561202f57600080fd5b81019080805160028054600160a060020a031916600160a060020a03929092169190911790555050505b600254600160a060020a0316632ef3accc87866040518363ffffffff1660e060020a0281526004018080602001838152602001828103825284818151815260200191508051906020019080838360005b838110156120c15780820151838201526020016120a9565b50505050905090810190601f1680156120ee5780820380516001836020036101000a031916815260200191505b509350505050602060405180830381600087803b15801561210e57600080fd5b505af1158015612122573d6000803e3d6000fd5b505050506040513d602081101561213857600080fd5b8101908080519450505050670de0b6b3a76400003a85020182111561216057600092506122cb565b612169856122e7565b600254909150600160a060020a031663c55c1cb68360008985896040518663ffffffff1660e060020a028152600401808581526020018060200180602001848152602001838103835286818151815260200191508051906020019080838360005b838110156121e25780820151838201526020016121ca565b50505050905090810190601f16801561220f5780820380516001836020036101000a031916815260200191505b50838103825285818151815260200191508051906020019080838360005b8381101561224557808201518382015260200161222d565b50505050905090810190601f1680156122725780820380516001836020036101000a031916815260200191505b5096505050505050506020604051808303818588803b15801561229457600080fd5b505af11580156122a8573d6000803e3d6000fd5b50505050506040513d60208110156122bf57600080fd5b81019080805195505050505b50509392505050565b600381805161061a929160200190612682565b60606122f16126fc565b60006122fb61235e565b6123078261040061236a565b61231082612398565b5060005b835181101561234b5761234384828151811061232c57fe5b90602001906020020151839063ffffffff6123a316565b600101612314565b612354826123c0565b8151949350505050565b60405180590338823950565b80602081061561237d5760208106602003015b60208301819052604051928390526000835290910160405250565b610a8d8160046123c7565b6123b082600383516123e0565b61081a828263ffffffff6124e416565b610a8d8160075b61061a82601f602060ff8516021763ffffffff61258116565b60178111612401576123fc8360ff848116602002168317612581565b61081a565b60ff811161243a57612422836018602060ff8616021763ffffffff61258116565b6124348382600163ffffffff6125ba16565b5061081a565b61ffff811161246e5761245c836019602060ff8616021763ffffffff61258116565b6124348382600263ffffffff6125ba16565b63ffffffff81116124a45761249283601a602060ff8616021763ffffffff61258116565b6124348382600463ffffffff6125ba16565b67ffffffffffffffff811161081a576124cc83601b602060ff8616021763ffffffff61258116565b6124de8382600863ffffffff6125ba16565b50505050565b6124ec6126fc565b6000806000808660200151875151875101111561251e5761251e8761251689602001518951612610565b600202612627565b8551915086518051602081830101955087510190526020860192505b6020821061255d578251845260208401935060208301925060208203915061253a565b6001826020036101000a039050801983511681855116179093525093949350505050565b816020015182515160010111156125a3576125a3828360200151600202612627565b815180516020818301018381535060010190525050565b6125c26126fc565b60008460200151855151840111156125e6576125e685612516876020015186612610565b6001836101000a039050845180518481830101868419825116179052909301909252509192915050565b600081831115612621575081610ca7565b50919050565b606082519050612637838361236a565b6124de83826124e4565b604080519081016040526000808252602082015290565b81548183558181111561081a576002028160020283600052602060002061081a9281019101612714565b828054600181600116156101000203166002900490600052602060002090601f016020900481019282601f106126c357805160ff19168380011785556126f0565b828001600101855582156126f0579182015b828111156126f05782518255916020019190600101906126d5565b506108eb92915061273f565b60408051908101604052606081526000602082015290565b610c9791905b808211156108eb578054600160a060020a03191681556000600182015560020161271a565b610c9791905b808211156108eb57600081556001016127455600a165627a7a72305820ea7e3bc310cb7be6e2070e20ac2245252ad4c4a8f96da30c489856335c42b7e90029",
  "source": "pragma solidity ^0.4.24;\n\nimport './lib/oraclizeAPI.sol';\nimport 'openzeppelin-solidity/contracts/ownership/Ownable.sol';\n\ncontract Lottery is Ownable, usingOraclize {\n\t\n\tevent event_log(string str);\n\tevent event_log_uint(uint elu);\n\tevent event_random_query_request(string rqreq);\n\tevent event_random_query_result(string rqres);\n\tevent event_transfer(address t);\n\tevent event_error(string e);\n\n\t// lottery couner\n\tuint public counter;\n\n\t// next query id\n\tbytes32 nextQueryId;\n\n\t// player bet\n\tuint public equalBet;\n\n\tuint public totalBalance;\n\tuint public playersCount;\n\n\t// lottery percent comission\n\tuint public commission;\n\n\t// generating random number\n\tuint public rndNumber; \n\n\t// ipfs hash\n\tstring public ipfsHash;\n\n\t// disable players bet when process oraclize request\n\tbool public isLotteryActive;\n\tuint constant ORACLIZE_GAS_LIMIT = 300000;\n\n\tstruct Player {\n\t\taddress recipient;\n\t\tuint value;\n\t}\n\n\tmapping(bytes32 => bool) pendingQueries; //oraclize queries\n\tmapping(address => uint) playersList; //mapping for counter\n\tPlayer[] public players;\n\n\tconstructor(string _ipfsHash, uint _equalBet, uint _commission) public payable {\n\t\toraclize_setProof(proofType_TLSNotary | proofStorage_IPFS);\n\n\t\tcounter = 1;\n\t\tipfsHash = _ipfsHash;\n\t\tequalBet = _equalBet;\n\t\tcommission = _commission;\n\t\tisLotteryActive = true;\n\t}\n\n\tfunction bet() public payable {\n\t\trequire(msg.value == equalBet);\n\t\trequire(isLotteryActive, 'Lottery is not active now');\n\t\trequire(playersList[msg.sender] < counter, 'Only one bet for game');\n\n\t\tPlayer memory newPlayer = Player({\n\t\t\trecipient: msg.sender,\n\t\t\tvalue: msg.value\n\t\t});\n\t\tplayers.length = playersCount + 1;\n\n\t\tplayersList[msg.sender] = counter;\n\t\tplayers[playersCount++] = newPlayer;\n\t\ttotalBalance += msg.value;\n\t}\n\t\n\tfunction determineWinner() private {\n\t\tif (playersCount > 1){\n\t\t\tif (oraclize_getPrice('computation', ORACLIZE_GAS_LIMIT) > address(this).balance) {\n\t\t\t\temit event_error('Oraclize computation query was NOT sent, please add some ETH to cover for the query fee');\n\t\t\t\treturn;\n\t\t\t}\n\n\t\t\tbytes32 queryId = oraclize_query( \n\t\t\t\t'computation', \n\t\t\t\t[\n\t\t\t\t\tstrConcat('json(', ipfsHash, ').result.random.data.0'),\n\t\t\t\t\t'1',\n\t\t\t\t\t'0',\n\t\t\t\t\tuint2str(playersCount)\n\t\t\t\t], \n\t\t\t\tORACLIZE_GAS_LIMIT\n\t\t\t);\n\n\t\t\tnextQueryId = queryId;\n\t\t\tpendingQueries[queryId] = true;\n\t\t\temit event_random_query_request('Oraclize computation query was request');\n\t\t} else if (playersCount == 1){\n\t\t\tplayers[0].recipient.transfer(totalBalance);\n\t\t\treset();\n\t\t\tcounter++; // increment lottery counter\n\t\t\temit event_transfer(players[0].recipient);\n\t\t}\t\n\t}\n\n\t// the callback function is called by Oraclize when the result is ready\n\t// the oraclize_randomDS_proofVerify modifier prevents an invalid proof to execute this function code:\n\t// the proof validity is fully verified on-chain\n\tfunction __callback(bytes32 myid, string result, bytes proof) public {\n\t\trequire(msg.sender == oraclize_cbAddress(), 'Caller is not Oraclize address!');\n        require(pendingQueries[myid], 'Query has already been processed!');\n\n        if (nextQueryId == myid){ // for avoid overlay oraclize queries\n        \trndNumber = parseInt(result);\n        \temit event_log_uint(rndNumber);\n\t\t\tdistributeFunds(rndNumber);\n\t\t\treset();\n\t\t\tcounter++; // increment lottery counter\n\t\t\tdelete pendingQueries[myid];\n\t\t\temit event_random_query_result('Oraclize computation query was received');\n        }\n\t}\n\n\tfunction distributeFunds(uint winningNumber) private {\n\t\tPlayer memory wPlayer = players[winningNumber];\n\t\tuint prizeToDistribute = calculateTotalPrize();\n\n\t\tif (wPlayer.recipient != address(0)){\n\t\t\twPlayer.recipient.transfer(prizeToDistribute);\n\t\t\temit event_transfer(wPlayer.recipient);\n\t\t}\n\t}\n\n\tfunction calculateTotalPrize() public constant returns (uint){\n\t\tuint totalPercent = 100 - commission;\n\t\tif (totalPercent >= 0){\n\t\t\treturn (totalBalance / 100) * totalPercent;\n\t\t}\n\t\treturn totalBalance;\n\t}\n\n\n\tfunction invoke() public onlyOwner {\n\t\trequire(playersCount > 0, 'Players count must be greater than 0');\n\t\tisLotteryActive = false;\n\t\tdetermineWinner();\n\t}\n\n\tfunction reset() private {\n\t\tisLotteryActive = true;\n\t\ttotalBalance = 0;\n\t\tplayersCount = 0;\n\t}\n\n\tfunction changeIpfsHash(string _ipfsHash) public onlyOwner {\n\t\tipfsHash = _ipfsHash;\n\t}\n\n\tfunction changeCommission(uint _commission) public onlyOwner {\n\t\tcommission = _commission;\n\t}\n\n\t//catch ether\n\tfunction() public payable {}\n}\n",
  "sourcePath": "/home/explomat/blockchain/rndeth/contracts/Lottery.sol",
  "compiler": {
    "name": "solc",
    "version": "0.4.24+commit.e67f0147.Emscripten.clang"
  },
  "schemaVersion": "2.0.1",
  "updatedAt": "2018-10-18T22:27:04.531Z"
}