{
  "contractName": "LotteryMonth",
  "abi": [
    {
      "constant": true,
      "inputs": [],
      "name": "rndNumber",
      "outputs": [
        {
          "name": "",
          "type": "uint256"
        }
      ],
      "payable": false,
      "stateMutability": "view",
      "type": "function"
    },
    {
      "constant": false,
      "inputs": [],
      "name": "bet",
      "outputs": [],
      "payable": true,
      "stateMutability": "payable",
      "type": "function"
    },
    {
      "constant": false,
      "inputs": [
        {
          "name": "myid",
          "type": "bytes32"
        },
        {
          "name": "result",
          "type": "string"
        }
      ],
      "name": "__callback",
      "outputs": [],
      "payable": false,
      "stateMutability": "nonpayable",
      "type": "function"
    },
    {
      "constant": false,
      "inputs": [
        {
          "name": "myid",
          "type": "bytes32"
        },
        {
          "name": "result",
          "type": "string"
        },
        {
          "name": "proof",
          "type": "bytes"
        }
      ],
      "name": "__callback",
      "outputs": [],
      "payable": false,
      "stateMutability": "nonpayable",
      "type": "function"
    },
    {
      "constant": true,
      "inputs": [],
      "name": "counter",
      "outputs": [
        {
          "name": "",
          "type": "uint256"
        }
      ],
      "payable": false,
      "stateMutability": "view",
      "type": "function"
    },
    {
      "constant": false,
      "inputs": [],
      "name": "renounceOwnership",
      "outputs": [],
      "payable": false,
      "stateMutability": "nonpayable",
      "type": "function"
    },
    {
      "constant": true,
      "inputs": [],
      "name": "_result",
      "outputs": [
        {
          "name": "",
          "type": "string"
        }
      ],
      "payable": false,
      "stateMutability": "view",
      "type": "function"
    },
    {
      "constant": false,
      "inputs": [
        {
          "name": "_ipfsHash",
          "type": "string"
        }
      ],
      "name": "changeIpfsHash",
      "outputs": [],
      "payable": false,
      "stateMutability": "nonpayable",
      "type": "function"
    },
    {
      "constant": true,
      "inputs": [],
      "name": "owner",
      "outputs": [
        {
          "name": "",
          "type": "address"
        }
      ],
      "payable": false,
      "stateMutability": "view",
      "type": "function"
    },
    {
      "constant": true,
      "inputs": [],
      "name": "playersCount",
      "outputs": [
        {
          "name": "",
          "type": "uint256"
        }
      ],
      "payable": false,
      "stateMutability": "view",
      "type": "function"
    },
    {
      "constant": true,
      "inputs": [],
      "name": "calculateTotalPrize",
      "outputs": [
        {
          "name": "",
          "type": "uint256"
        }
      ],
      "payable": false,
      "stateMutability": "view",
      "type": "function"
    },
    {
      "constant": true,
      "inputs": [],
      "name": "totalBalance",
      "outputs": [
        {
          "name": "",
          "type": "uint256"
        }
      ],
      "payable": false,
      "stateMutability": "view",
      "type": "function"
    },
    {
      "constant": true,
      "inputs": [],
      "name": "isLotteryActive",
      "outputs": [
        {
          "name": "",
          "type": "bool"
        }
      ],
      "payable": false,
      "stateMutability": "view",
      "type": "function"
    },
    {
      "constant": true,
      "inputs": [],
      "name": "ipfsHash",
      "outputs": [
        {
          "name": "",
          "type": "string"
        }
      ],
      "payable": false,
      "stateMutability": "view",
      "type": "function"
    },
    {
      "constant": false,
      "inputs": [],
      "name": "invoke",
      "outputs": [],
      "payable": false,
      "stateMutability": "nonpayable",
      "type": "function"
    },
    {
      "constant": false,
      "inputs": [
        {
          "name": "_commission",
          "type": "uint256"
        }
      ],
      "name": "changeCommission",
      "outputs": [],
      "payable": false,
      "stateMutability": "nonpayable",
      "type": "function"
    },
    {
      "constant": true,
      "inputs": [],
      "name": "commission",
      "outputs": [
        {
          "name": "",
          "type": "uint256"
        }
      ],
      "payable": false,
      "stateMutability": "view",
      "type": "function"
    },
    {
      "constant": true,
      "inputs": [],
      "name": "equalBet",
      "outputs": [
        {
          "name": "",
          "type": "uint256"
        }
      ],
      "payable": false,
      "stateMutability": "view",
      "type": "function"
    },
    {
      "constant": false,
      "inputs": [
        {
          "name": "_newOwner",
          "type": "address"
        }
      ],
      "name": "transferOwnership",
      "outputs": [],
      "payable": false,
      "stateMutability": "nonpayable",
      "type": "function"
    },
    {
      "constant": true,
      "inputs": [],
      "name": "TIMEOUT",
      "outputs": [
        {
          "name": "",
          "type": "uint256"
        }
      ],
      "payable": false,
      "stateMutability": "view",
      "type": "function"
    },
    {
      "constant": true,
      "inputs": [
        {
          "name": "",
          "type": "uint256"
        }
      ],
      "name": "players",
      "outputs": [
        {
          "name": "recipient",
          "type": "address"
        },
        {
          "name": "value",
          "type": "uint256"
        }
      ],
      "payable": false,
      "stateMutability": "view",
      "type": "function"
    },
    {
      "inputs": [
        {
          "name": "_ipfsHash",
          "type": "string"
        },
        {
          "name": "_equalBet",
          "type": "uint256"
        },
        {
          "name": "_commission",
          "type": "uint256"
        }
      ],
      "payable": true,
      "stateMutability": "payable",
      "type": "constructor"
    },
    {
      "payable": true,
      "stateMutability": "payable",
      "type": "fallback"
    },
    {
      "anonymous": false,
      "inputs": [
        {
          "indexed": false,
          "name": "str",
          "type": "string"
        }
      ],
      "name": "event_log",
      "type": "event"
    },
    {
      "anonymous": false,
      "inputs": [
        {
          "indexed": false,
          "name": "str",
          "type": "uint256"
        }
      ],
      "name": "event_log_uint",
      "type": "event"
    },
    {
      "anonymous": false,
      "inputs": [
        {
          "indexed": true,
          "name": "rqreq",
          "type": "string"
        }
      ],
      "name": "event_random_query_request",
      "type": "event"
    },
    {
      "anonymous": false,
      "inputs": [
        {
          "indexed": true,
          "name": "rqres",
          "type": "string"
        }
      ],
      "name": "event_random_query_result",
      "type": "event"
    },
    {
      "anonymous": false,
      "inputs": [
        {
          "indexed": true,
          "name": "t",
          "type": "address"
        }
      ],
      "name": "event_transfer",
      "type": "event"
    },
    {
      "anonymous": false,
      "inputs": [
        {
          "indexed": false,
          "name": "e",
          "type": "string"
        }
      ],
      "name": "event_error",
      "type": "event"
    },
    {
      "anonymous": false,
      "inputs": [
        {
          "indexed": true,
          "name": "previousOwner",
          "type": "address"
        }
      ],
      "name": "OwnershipRenounced",
      "type": "event"
    },
    {
      "anonymous": false,
      "inputs": [
        {
          "indexed": true,
          "name": "previousOwner",
          "type": "address"
        },
        {
          "indexed": true,
          "name": "newOwner",
          "type": "address"
        }
      ],
      "name": "OwnershipTransferred",
      "type": "event"
    }
  ],
  "bytecode": "0x608060405260405162002f5738038062002f57833981016040908152815160208301519183015160008054600160a060020a03191633179055920191828282620000727f1100000000000000000000000000000000000000000000000000000000000000640100000000620000ae810204565b600160065582516200008c90600c906020860190620006f0565b50600791909155600a555050600d805460ff1916600117905550620007929050565b600154600160a060020a03161580620000e45750600154620000e290600160a060020a031664010000000062000311810204565b155b156200010157620000ff600064010000000062000315810204565b505b600160009054906101000a9004600160a060020a0316600160a060020a03166338cc48316040518163ffffffff167c0100000000000000000000000000000000000000000000000000000000028152600401602060405180830381600087803b1580156200016e57600080fd5b505af115801562000183573d6000803e3d6000fd5b505050506040513d60208110156200019a57600080fd5b5051600254600160a060020a039081169116146200026d57600160009054906101000a9004600160a060020a0316600160a060020a03166338cc48316040518163ffffffff167c0100000000000000000000000000000000000000000000000000000000028152600401602060405180830381600087803b1580156200021f57600080fd5b505af115801562000234573d6000803e3d6000fd5b505050506040513d60208110156200024b57600080fd5b505160028054600160a060020a031916600160a060020a039092169190911790555b600254604080517f688dcfd70000000000000000000000000000000000000000000000000000000081527fff00000000000000000000000000000000000000000000000000000000000000841660048201529051600160a060020a039092169163688dcfd79160248082019260009290919082900301818387803b158015620002f557600080fd5b505af11580156200030a573d6000803e3d6000fd5b5050505050565b3b90565b60006200032a64010000000062000330810204565b92915050565b6000806200035b731d3b2638a7cc9f2cb3d298a3da7a90b67e5506ed64010000000062000311810204565b1115620003d95760018054600160a060020a031916731d3b2638a7cc9f2cb3d298a3da7a90b67e5506ed17905560408051808201909152600b81527f6574685f6d61696e6e65740000000000000000000000000000000000000000006020820152620003d090640100000000620006d7810204565b506001620006d4565b60006200040373c03a2615d5efaf5f49f60b7bb6583eaec212fdf164010000000062000311810204565b1115620004785760018054600160a060020a03191673c03a2615d5efaf5f49f60b7bb6583eaec212fdf117905560408051808201909152600c81527f6574685f726f707374656e3300000000000000000000000000000000000000006020820152620003d090640100000000620006d7810204565b6000620004a273b7a07bcf2ba2f2703b24c0691b5278999c59ac7e64010000000062000311810204565b1115620005175760018054600160a060020a03191673b7a07bcf2ba2f2703b24c0691b5278999c59ac7e17905560408051808201909152600981527f6574685f6b6f76616e00000000000000000000000000000000000000000000006020820152620003d090640100000000620006d7810204565b60006200054173146500cfd35b22e4a392fe0adc06de1a1368ed4864010000000062000311810204565b1115620005b65760018054600160a060020a03191673146500cfd35b22e4a392fe0adc06de1a1368ed4817905560408051808201909152600b81527f6574685f72696e6b6562790000000000000000000000000000000000000000006020820152620003d090640100000000620006d7810204565b6000620005e0736f485c8bf6fc43ea212e93bbf8ce046c7f1cb47564010000000062000311810204565b111562000614575060018054600160a060020a031916736f485c8bf6fc43ea212e93bbf8ce046c7f1cb475178155620006d4565b60006200063e7320e12a1f859b3feae5fb2a0a32c18f5a65555bbf64010000000062000311810204565b111562000672575060018054600160a060020a0319167320e12a1f859b3feae5fb2a0a32c18f5a65555bbf178155620006d4565b60006200069c7351efaf4c8b3c9afbd5ab9f4bbc82784ab6ef8faa64010000000062000311810204565b1115620006d0575060018054600160a060020a0319167351efaf4c8b3c9afbd5ab9f4bbc82784ab6ef8faa178155620006d4565b5060005b90565b8051620006ec906003906020840190620006f0565b5050565b828054600181600116156101000203166002900490600052602060002090601f016020900481019282601f106200073357805160ff191683800117855562000763565b8280016001018555821562000763579182015b828111156200076357825182559160200191906001019062000746565b506200077192915062000775565b5090565b620006d491905b808211156200077157600081556001016200077c565b6127b580620007a26000396000f3006080604052600436106101035763ffffffff60e060020a60003504166307dd96f7811461010557806311610c251461012c57806327dc297e1461013457806338bbfa501461018f57806361bc221a1461022a578063715018a61461023f57806379147cf0146102545780638064b15f146102e05780638da5cb5b14610335578063a3f67d6d14610366578063ab8078c61461037b578063ad7a672f14610390578063c3b69ebb146103a5578063c623674f146103ce578063cab7f521146103e3578063df922f3a146103f8578063e148919114610410578063ef9a224214610425578063f2fde38b1461043a578063f56f48f21461045b578063f71d96cb14610470575b005b34801561011157600080fd5b5061011a6104aa565b60405190815260200160405180910390f35b6101036104b0565b34801561014057600080fd5b506101036004803590369060446024803590810190830135806020601f820181900481020160405190810160405281815292919060208401838380828437509497506106539650505050505050565b34801561019b57600080fd5b506101036004803590369060446024803590810190830135806020601f820181900481020160405190810160405281815292919060208401838380828437509497969560208082019650903587018082019550359350839250601f8301819004810201905060405190810160405281815292919060208401838380828437509497506106919650505050505050565b34801561023657600080fd5b5061011a610879565b34801561024b57600080fd5b5061010361087f565b34801561026057600080fd5b506102696108e0565b60405160208082528190810183818151815260200191508051906020019080838360005b838110156102a557808201518382015260200161028d565b50505050905090810190601f1680156102d25780820380516001836020036101000a031916815260200191505b509250505060405180910390f35b3480156102ec57600080fd5b506101033660046024813581810190830135806020601f8201819004810201604051908101604052818152929190602084018383808284375094975061097e9650505050505050565b34801561034157600080fd5b5061034a6109a8565b604051600160a060020a03909116815260200160405180910390f35b34801561037257600080fd5b5061011a6109b7565b34801561038757600080fd5b5061011a6109bd565b34801561039c57600080fd5b5061011a6109e7565b3480156103b157600080fd5b506103ba6109ed565b604051901515815260200160405180910390f35b3480156103da57600080fd5b506102696109f6565b3480156103ef57600080fd5b50610103610a61565b34801561040457600080fd5b50610103600435610adf565b34801561041c57600080fd5b5061011a610afb565b34801561043157600080fd5b5061011a610b01565b34801561044657600080fd5b50610103600160a060020a0360043516610b07565b34801561046757600080fd5b5061011a610b2a565b34801561047c57600080fd5b50610488600435610b30565b604051600160a060020a03909216825260208201526040908101905180910390f35b600b5481565b6104b8612671565b7fb21238056034e0d6cc890938b808046968a29e77b2a3636793841ff76a92d9553460405190815260200160405180910390a160075434146104f957600080fd5b600d5460ff1615156105545760405160e560020a62461bcd02815260206004820152601960248201527f4c6f7474657279206973206e6f7420616374697665206e6f7700000000000000604482015260640160405180910390fd5b60065433600090815260106020526040902054106105bb5760405160e560020a62461bcd02815260206004820152601560248201527f4f6e6c79206f6e652062657420666f722067616d650000000000000000000000604482015260640160405180910390fd5b604080519081016040523381523460208201526009549091506001016105e2601182612688565b5060065433600090815260106020526040902055600980546001810190915560118054839290811061061057fe5b90600052602060002060029091020181518154600160a060020a031916600160a060020a0391909116178155602082015160019091015550506008805434019055565b61068d82826000604051818152601f19601f8301168101602001604052908015610687578160200160208202803883390190505b50610691565b5050565b604080519081016040526001815260fc60020a6003026020820152600e9080516106bf9291602001906126b2565b506106c8610b65565b600160a060020a031633146107265760405160e560020a62461bcd02815260206004820152601f60248201527f43616c6c6572206973206e6f74204f7261636c697a6520616464726573732100604482015260640160405180910390fd5b6000838152600f602052604090205460ff1615156107b35760405160e560020a62461bcd02815260206004820152602160248201527f51756572792068617320616c7265616479206265656e2070726f63657373656460448201527f2100000000000000000000000000000000000000000000000000000000000000606482015260840160405180910390fd5b6107bc82610d3a565b600b8190556107ca90610d4d565b6107d2610e2a565b6006805460010190556000838152600f60205260409020805460ff191690556040517f4f7261636c697a6520636f6d7075746174696f6e20717565727920776173207281527f6563656976656400000000000000000000000000000000000000000000000000602082015260270160405180910390207f65f6d9f82a5021bfe453af062212bd087691bf16e7152c3362628730368e207660405160405180910390a2505050565b60065481565b600054600160a060020a0316331461089657600080fd5b600054600160a060020a03167ff8df31144d9c2f0f6b59d69b8b98abd5459d07f2742c4df920b25aae33c6482060405160405180910390a260008054600160a060020a0319169055565b600e8054600181600116156101000203166002900480601f0160208091040260200160405190810160405280929190818152602001828054600181600116156101000203166002900480156109765780601f1061094b57610100808354040283529160200191610976565b820191906000526020600020905b81548152906001019060200180831161095957829003601f168201915b505050505081565b600054600160a060020a0316331461099557600080fd5b600c81805161068d9291602001906126b2565b600054600160a060020a031681565b60095481565b600a546000906064038181106109dd5760085460649004810291506109e3565b60085491505b5090565b60085481565b600d5460ff1681565b600c8054600181600116156101000203166002900480601f0160208091040260200160405190810160405280929190818152602001828054600181600116156101000203166002900480156109765780601f1061094b57610100808354040283529160200191610976565b600054600160a060020a03163314610a7857600080fd5b60006009541115610add5760408051908101604052600181527f36000000000000000000000000000000000000000000000000000000000000006020820152600e908051610aca9291602001906126b2565b50600d805460ff19169055610add610e43565b565b600054600160a060020a03163314610af657600080fd5b600a55565b600a5481565b60075481565b600054600160a060020a03163314610b1e57600080fd5b610b2781611292565b50565b61021c81565b6011805482908110610b3e57fe5b9060005260206000206002909102018054600190910154600160a060020a03909116915082565b600154600090600160a060020a03161580610b925750600154610b9090600160a060020a0316611305565b155b15610ba357610ba16000611309565b505b600154600160a060020a03166338cc48316040518163ffffffff1660e060020a028152600401602060405180830381600087803b158015610be357600080fd5b505af1158015610bf7573d6000803e3d6000fd5b505050506040513d6020811015610c0d57600080fd5b810190808051600254600160a060020a039081169116149250610cc191505057600154600160a060020a03166338cc48316040518163ffffffff1660e060020a028152600401602060405180830381600087803b158015610c6d57600080fd5b505af1158015610c81573d6000803e3d6000fd5b505050506040513d6020811015610c9757600080fd5b81019080805160028054600160a060020a031916600160a060020a03929092169190911790555050505b600254600160a060020a031663c281d19e6040518163ffffffff1660e060020a028152600401602060405180830381600087803b158015610d0157600080fd5b505af1158015610d15573d6000803e3d6000fd5b505050506040513d6020811015610d2b57600080fd5b81019080805193505050505b90565b6000610d47826000611313565b92915050565b610d55612671565b6000601183815481101515610d6657fe5b9060005260206000209060020201604080519081016040528154600160a060020a0316815260019091015460208201529150610da06109bd565b905060008251600160a060020a031614610e25578151600160a060020a031681156108fc0282604051600060405180830381858888f19350505050158015610dec573d6000803e3d6000fd5b508151600160a060020a03167f97c59ca311d5f013c9ddfa2dfc788d6f13354cf7e885021c8c027379fa9fb9ec60405160405180910390a25b505050565b600d805460ff1916600117905560006008819055600955565b6000600160095411156111c3573031610e9260408051908101604052600b81527f636f6d7075746174696f6e0000000000000000000000000000000000000000006020820152620493e061145e565b1115610f4e577f45216837f26a6836ade4e0969fe04657e771b5659940d6e0de811cb8d49580d660405160208082526057908201527f4f7261636c697a6520636f6d7075746174696f6e20717565727920776173204e6040808301919091527f4f542073656e742c20706c656173652061646420736f6d652045544820746f2060608301527f636f76657220666f722074686520717565727920666565000000000000000000608083015260a0909101905180910390a1610b27565b6111186040805190810160405280600b81526020017f636f6d7075746174696f6e0000000000000000000000000000000000000000008152506080604051908101604052806110a06040805190810160405280600581526020017f6a736f6e28000000000000000000000000000000000000000000000000000000815250600c8054600181600116156101000203166002900480601f0160208091040260200160405190810160405280929190818152602001828054600181600116156101000203166002900480156110625780601f1061103757610100808354040283529160200191611062565b820191906000526020600020905b81548152906001019060200180831161104557829003601f168201915b505050505060408051908101604052601681527f292e726573756c742e72616e646f6d2e646174612e300000000000000000000060208201526116a9565b81526020016040805190810160405280600181526020017f3100000000000000000000000000000000000000000000000000000000000000815250815260200160408051908101604052806001815260200160fc60020a600302815250815260200161110d6009546116de565b9052620493e06117b7565b6000818152600f60205290915060019060409020805460ff19169115159190911790556040517f4f7261636c697a6520636f6d7075746174696f6e20717565727920776173207281527f6571756573740000000000000000000000000000000000000000000000000000602082015260260160405180910390207f9eb50eb597f28ea7ded26f0afa775a7ceccca822f45cfe5a16f8bdf4214a41c460405160405180910390a2610b27565b60095460011415610b27576011805460009081106111dd57fe5b90600052602060002060029091020154600854600160a060020a039091169080156108fc0290604051600060405180830381858888f19350505050158015611229573d6000803e3d6000fd5b50611232610e2a565b60068054600101905560118054600090811061124a57fe5b90600052602060002060029091020154600160a060020a03167f97c59ca311d5f013c9ddfa2dfc788d6f13354cf7e885021c8c027379fa9fb9ec60405160405180910390a250565b600160a060020a03811615156112a757600080fd5b600054600160a060020a0380831691167f8be0079c531659141344cd1fd0a4f28419497f9722a3daafe3b4186f6b6457e060405160405180910390a360008054600160a060020a031916600160a060020a0392909216919091179055565b3b90565b6000610d476119d4565b6000828180805b83518110156114415760fc60020a60030284828151811061133757fe5b016020015160f860020a900460f860020a02600160f860020a031916101580156113a857507f390000000000000000000000000000000000000000000000000000000000000084828151811061138957fe5b016020015160f860020a900460f860020a02600160f860020a03191611155b156113fe5781156113c7578515156113bf57611441565b600019909501945b600a8302925060308482815181106113db57fe5b016020015160f860020a900460f860020a0260f860020a90040383019250611439565b83818151811061140a57fe5b016020015160f860020a900460f860020a02600160f860020a031916602e60f860020a02141561143957600191505b60010161131a565b60008611156114535785600a0a830292505b509095945050505050565b600154600090600160a060020a0316158061148b575060015461148990600160a060020a0316611305565b155b1561149c5761149a6000611309565b505b600154600160a060020a03166338cc48316040518163ffffffff1660e060020a028152600401602060405180830381600087803b1580156114dc57600080fd5b505af11580156114f0573d6000803e3d6000fd5b505050506040513d602081101561150657600080fd5b810190808051600254600160a060020a0390811691161492506115ba91505057600154600160a060020a03166338cc48316040518163ffffffff1660e060020a028152600401602060405180830381600087803b15801561156657600080fd5b505af115801561157a573d6000803e3d6000fd5b505050506040513d602081101561159057600080fd5b81019080805160028054600160a060020a031916600160a060020a03929092169190911790555050505b600254600160a060020a0316632ef3accc84846040518363ffffffff1660e060020a0281526004018080602001838152602001828103825284818151815260200191508051906020019080838360005b8381101561162257808201518382015260200161160a565b50505050905090810190601f16801561164f5780820380516001836020036101000a031916815260200191505b509350505050602060405180830381600087803b15801561166f57600080fd5b505af1158015611683573d6000803e3d6000fd5b505050506040513d602081101561169957600080fd5b8101908080519695505050505050565b60606116d68484846020604051908101604052806000815250602060405190810160405260008152611cf2565b949350505050565b6060600080828185151561170e57604080519081016040526001815260fc60020a600302602082015294506117ae565b8593505b831561172957600190920191600a84049350611712565b82604051818152601f19601f8301168101602001604052908015611757578160200160208202803883390190505b5091505060001982015b85156117aa5760001981019060f860020a6030600a890601029083908151811061178757fe5b906020010190600160f860020a031916908160001a905350600a86049550611761565b8194505b50505050919050565b600154600090606090600160a060020a031615806117e757506001546117e590600160a060020a0316611305565b155b156117f8576117f66000611309565b505b600154600160a060020a03166338cc48316040518163ffffffff1660e060020a028152600401602060405180830381600087803b15801561183857600080fd5b505af115801561184c573d6000803e3d6000fd5b505050506040513d602081101561186257600080fd5b810190808051600254600160a060020a03908116911614925061191691505057600154600160a060020a03166338cc48316040518163ffffffff1660e060020a028152600401602060405180830381600087803b1580156118c257600080fd5b505af11580156118d6573d6000803e3d6000fd5b505050506040513d60208110156118ec57600080fd5b81019080805160028054600160a060020a031916600160a060020a03929092169190911790555050505b600460405190808252806020026020018201604052801561194b57816020015b60608152602001906001900390816119365790505b50905083518160008151811061195d57fe5b6020908102909101015283600160200201518160018151811061197c57fe5b602090810291909101015260408401518160028151811061199957fe5b60209081029190910101526060840151816003815181106119b657fe5b602090810290910101526119cb858285611f28565b95945050505050565b6000806119f4731d3b2638a7cc9f2cb3d298a3da7a90b67e5506ed611305565b1115611a645760018054600160a060020a031916731d3b2638a7cc9f2cb3d298a3da7a90b67e5506ed179055611a5c60408051908101604052600b81527f6574685f6d61696e6e65740000000000000000000000000000000000000000006020820152612304565b506001610d37565b6000611a8373c03a2615d5efaf5f49f60b7bb6583eaec212fdf1611305565b1115611aeb5760018054600160a060020a03191673c03a2615d5efaf5f49f60b7bb6583eaec212fdf1179055611a5c60408051908101604052600c81527f6574685f726f707374656e3300000000000000000000000000000000000000006020820152612304565b6000611b0a73b7a07bcf2ba2f2703b24c0691b5278999c59ac7e611305565b1115611b725760018054600160a060020a03191673b7a07bcf2ba2f2703b24c0691b5278999c59ac7e179055611a5c60408051908101604052600981527f6574685f6b6f76616e00000000000000000000000000000000000000000000006020820152612304565b6000611b9173146500cfd35b22e4a392fe0adc06de1a1368ed48611305565b1115611bf95760018054600160a060020a03191673146500cfd35b22e4a392fe0adc06de1a1368ed48179055611a5c60408051908101604052600b81527f6574685f72696e6b6562790000000000000000000000000000000000000000006020820152612304565b6000611c18736f485c8bf6fc43ea212e93bbf8ce046c7f1cb475611305565b1115611c4a575060018054600160a060020a031916736f485c8bf6fc43ea212e93bbf8ce046c7f1cb475178155610d37565b6000611c697320e12a1f859b3feae5fb2a0a32c18f5a65555bbf611305565b1115611c9b575060018054600160a060020a0319167320e12a1f859b3feae5fb2a0a32c18f5a65555bbf178155610d37565b6000611cba7351efaf4c8b3c9afbd5ab9f4bbc82784ab6ef8faa611305565b1115611cec575060018054600160a060020a0319167351efaf4c8b3c9afbd5ab9f4bbc82784ab6ef8faa178155610d37565b50600090565b6060858585858585806000808451865188518a518c5101010101604051818152601f19601f8301168101602001604052908015611d39578160200160208202803883390190505b50935083925060009150600090505b8851811015611da157888181518110611d5d57fe5b016020015160f860020a900460f860020a02838380600101945081518110611d8157fe5b906020010190600160f860020a031916908160001a905350600101611d48565b5060005b8751811015611dfe57878181518110611dba57fe5b016020015160f860020a900460f860020a02838380600101945081518110611dde57fe5b906020010190600160f860020a031916908160001a905350600101611da5565b5060005b8651811015611e5b57868181518110611e1757fe5b016020015160f860020a900460f860020a02838380600101945081518110611e3b57fe5b906020010190600160f860020a031916908160001a905350600101611e02565b5060005b8551811015611eb857858181518110611e7457fe5b016020015160f860020a900460f860020a02838380600101945081518110611e9857fe5b906020010190600160f860020a031916908160001a905350600101611e5f565b5060005b8451811015611f1557848181518110611ed157fe5b016020015160f860020a900460f860020a02838380600101945081518110611ef557fe5b906020010190600160f860020a031916908160001a905350600101611ebc565b50909d9c50505050505050505050505050565b6001546000908190606090600160a060020a03161580611f5a5750600154611f5890600160a060020a0316611305565b155b15611f6b57611f696000611309565b505b600154600160a060020a03166338cc48316040518163ffffffff1660e060020a028152600401602060405180830381600087803b158015611fab57600080fd5b505af1158015611fbf573d6000803e3d6000fd5b505050506040513d6020811015611fd557600080fd5b810190808051600254600160a060020a03908116911614925061208991505057600154600160a060020a03166338cc48316040518163ffffffff1660e060020a028152600401602060405180830381600087803b15801561203557600080fd5b505af1158015612049573d6000803e3d6000fd5b505050506040513d602081101561205f57600080fd5b81019080805160028054600160a060020a031916600160a060020a03929092169190911790555050505b600254600160a060020a0316632ef3accc87866040518363ffffffff1660e060020a0281526004018080602001838152602001828103825284818151815260200191508051906020019080838360005b838110156120f15780820151838201526020016120d9565b50505050905090810190601f16801561211e5780820380516001836020036101000a031916815260200191505b509350505050602060405180830381600087803b15801561213e57600080fd5b505af1158015612152573d6000803e3d6000fd5b505050506040513d602081101561216857600080fd5b8101908080519450505050670de0b6b3a76400003a85020182111561219057600092506122fb565b61219985612317565b600254909150600160a060020a031663c55c1cb68360008985896040518663ffffffff1660e060020a028152600401808581526020018060200180602001848152602001838103835286818151815260200191508051906020019080838360005b838110156122125780820151838201526020016121fa565b50505050905090810190601f16801561223f5780820380516001836020036101000a031916815260200191505b50838103825285818151815260200191508051906020019080838360005b8381101561227557808201518382015260200161225d565b50505050905090810190601f1680156122a25780820380516001836020036101000a031916815260200191505b5096505050505050506020604051808303818588803b1580156122c457600080fd5b505af11580156122d8573d6000803e3d6000fd5b50505050506040513d60208110156122ef57600080fd5b81019080805195505050505b50509392505050565b600381805161068d9291602001906126b2565b606061232161272c565b600061232b61238e565b6123378261040061239a565b612340826123c8565b5060005b835181101561237b5761237384828151811061235c57fe5b90602001906020020151839063ffffffff6123d316565b600101612344565b612384826123f0565b8151949350505050565b60405180590338823950565b8060208106156123ad5760208106602003015b60208301819052604051928390526000835290910160405250565b610b278160046123f7565b6123e08260038351612410565b610e25828263ffffffff61251416565b610b278160075b61068d82601f602060ff8516021763ffffffff6125b116565b601781116124315761242c8360ff8481166020021683176125b1565b610e25565b60ff811161246a57612452836018602060ff8616021763ffffffff6125b116565b6124648382600163ffffffff6125ea16565b50610e25565b61ffff811161249e5761248c836019602060ff8616021763ffffffff6125b116565b6124648382600263ffffffff6125ea16565b63ffffffff81116124d4576124c283601a602060ff8616021763ffffffff6125b116565b6124648382600463ffffffff6125ea16565b67ffffffffffffffff8111610e25576124fc83601b602060ff8616021763ffffffff6125b116565b61250e8382600863ffffffff6125ea16565b50505050565b61251c61272c565b6000806000808660200151875151875101111561254e5761254e8761254689602001518951612640565b600202612657565b8551915086518051602081830101955087510190526020860192505b6020821061258d578251845260208401935060208301925060208203915061256a565b6001826020036101000a039050801983511681855116179093525093949350505050565b816020015182515160010111156125d3576125d3828360200151600202612657565b815180516020818301018381535060010190525050565b6125f261272c565b60008460200151855151840111156126165761261685612546876020015186612640565b6001836101000a039050845180518481830101868419825116179052909301909252509192915050565b600081831115612651575081610d47565b50919050565b606082519050612667838361239a565b61250e8382612514565b604080519081016040526000808252602082015290565b815481835581811115610e255760020281600202836000526020600020610e259281019101612744565b828054600181600116156101000203166002900490600052602060002090601f016020900481019282601f106126f357805160ff1916838001178555612720565b82800160010185558215612720579182015b82811115612720578251825591602001919060010190612705565b506109e392915061276f565b60408051908101604052606081526000602082015290565b610d3791905b808211156109e3578054600160a060020a03191681556000600182015560020161274a565b610d3791905b808211156109e357600081556001016127755600a165627a7a72305820d54b6992bae09bdd5af2dae9ce4693e7ac63baa512ecae178aa5ab2c7b0eb6540029",
  "source": "pragma solidity ^0.4.24;\n\nimport './Lottery.sol';\n\ncontract LotteryMonth is Lottery {\n\n\tuint public constant TIMEOUT = 540; //24 * 60 * 60 * 7 * 30; //timeout in seconds\n\n\tconstructor(string _ipfsHash, uint _equalBet, uint _commission)\n\tLottery(_ipfsHash, _equalBet, _commission)\n\tpublic\n\tpayable {}\n}",
  "sourcePath": "/home/explomat/blockchain/rndeth/contracts/LotteryMonth.sol",
  "compiler": {
    "name": "solc",
    "version": "0.4.24+commit.e67f0147.Emscripten.clang"
  },
  "schemaVersion": "2.0.1",
  "updatedAt": "2018-10-15T02:32:34.791Z"
}