{
  "contractName": "LotteryDaily_recursive",
  "abi": [
    {
      "constant": true,
      "inputs": [],
      "name": "rndNumber",
      "outputs": [
        {
          "name": "",
          "type": "uint256"
        }
      ],
      "payable": false,
      "stateMutability": "view",
      "type": "function"
    },
    {
      "constant": true,
      "inputs": [],
      "name": "nextDelayRecursiveQueryId",
      "outputs": [
        {
          "name": "",
          "type": "bytes32"
        }
      ],
      "payable": false,
      "stateMutability": "view",
      "type": "function"
    },
    {
      "constant": true,
      "inputs": [],
      "name": "result1",
      "outputs": [
        {
          "name": "",
          "type": "string"
        }
      ],
      "payable": false,
      "stateMutability": "view",
      "type": "function"
    },
    {
      "constant": true,
      "inputs": [],
      "name": "counter",
      "outputs": [
        {
          "name": "",
          "type": "uint256"
        }
      ],
      "payable": false,
      "stateMutability": "view",
      "type": "function"
    },
    {
      "constant": false,
      "inputs": [],
      "name": "renounceOwnership",
      "outputs": [],
      "payable": false,
      "stateMutability": "nonpayable",
      "type": "function"
    },
    {
      "constant": true,
      "inputs": [],
      "name": "_result",
      "outputs": [
        {
          "name": "",
          "type": "string"
        }
      ],
      "payable": false,
      "stateMutability": "view",
      "type": "function"
    },
    {
      "constant": true,
      "inputs": [],
      "name": "oraclizeDefaultDelay",
      "outputs": [
        {
          "name": "",
          "type": "uint256"
        }
      ],
      "payable": false,
      "stateMutability": "view",
      "type": "function"
    },
    {
      "constant": true,
      "inputs": [],
      "name": "owner",
      "outputs": [
        {
          "name": "",
          "type": "address"
        }
      ],
      "payable": false,
      "stateMutability": "view",
      "type": "function"
    },
    {
      "constant": true,
      "inputs": [],
      "name": "playersCount",
      "outputs": [
        {
          "name": "",
          "type": "uint256"
        }
      ],
      "payable": false,
      "stateMutability": "view",
      "type": "function"
    },
    {
      "constant": true,
      "inputs": [],
      "name": "totalBalance",
      "outputs": [
        {
          "name": "",
          "type": "uint256"
        }
      ],
      "payable": false,
      "stateMutability": "view",
      "type": "function"
    },
    {
      "constant": true,
      "inputs": [],
      "name": "isLotteryActive",
      "outputs": [
        {
          "name": "",
          "type": "bool"
        }
      ],
      "payable": false,
      "stateMutability": "view",
      "type": "function"
    },
    {
      "constant": true,
      "inputs": [],
      "name": "ipfsHash",
      "outputs": [
        {
          "name": "",
          "type": "string"
        }
      ],
      "payable": false,
      "stateMutability": "view",
      "type": "function"
    },
    {
      "constant": true,
      "inputs": [],
      "name": "commission",
      "outputs": [
        {
          "name": "",
          "type": "uint256"
        }
      ],
      "payable": false,
      "stateMutability": "view",
      "type": "function"
    },
    {
      "constant": true,
      "inputs": [],
      "name": "equalBet",
      "outputs": [
        {
          "name": "",
          "type": "uint256"
        }
      ],
      "payable": false,
      "stateMutability": "view",
      "type": "function"
    },
    {
      "constant": false,
      "inputs": [
        {
          "name": "_newOwner",
          "type": "address"
        }
      ],
      "name": "transferOwnership",
      "outputs": [],
      "payable": false,
      "stateMutability": "nonpayable",
      "type": "function"
    },
    {
      "constant": true,
      "inputs": [
        {
          "name": "",
          "type": "uint256"
        }
      ],
      "name": "players",
      "outputs": [
        {
          "name": "recipient",
          "type": "address"
        },
        {
          "name": "value",
          "type": "uint256"
        }
      ],
      "payable": false,
      "stateMutability": "view",
      "type": "function"
    },
    {
      "inputs": [
        {
          "name": "_ipfsHash",
          "type": "string"
        },
        {
          "name": "_equalBet",
          "type": "uint256"
        },
        {
          "name": "_commission",
          "type": "uint256"
        },
        {
          "name": "_delay",
          "type": "uint256"
        },
        {
          "name": "_isDelayRequestActive",
          "type": "bool"
        }
      ],
      "payable": true,
      "stateMutability": "payable",
      "type": "constructor"
    },
    {
      "payable": true,
      "stateMutability": "payable",
      "type": "fallback"
    },
    {
      "anonymous": false,
      "inputs": [
        {
          "indexed": false,
          "name": "str",
          "type": "string"
        }
      ],
      "name": "event_log",
      "type": "event"
    },
    {
      "anonymous": false,
      "inputs": [
        {
          "indexed": false,
          "name": "str",
          "type": "uint256"
        }
      ],
      "name": "event_log_uint",
      "type": "event"
    },
    {
      "anonymous": false,
      "inputs": [
        {
          "indexed": false,
          "name": "dqrst",
          "type": "string"
        }
      ],
      "name": "event_delay_query_request",
      "type": "event"
    },
    {
      "anonymous": false,
      "inputs": [
        {
          "indexed": false,
          "name": "dqrlt",
          "type": "string"
        }
      ],
      "name": "event_delay_query_result",
      "type": "event"
    },
    {
      "anonymous": false,
      "inputs": [
        {
          "indexed": false,
          "name": "rqreq",
          "type": "string"
        }
      ],
      "name": "event_random_query_request",
      "type": "event"
    },
    {
      "anonymous": false,
      "inputs": [
        {
          "indexed": false,
          "name": "rqres",
          "type": "string"
        }
      ],
      "name": "event_random_query_result",
      "type": "event"
    },
    {
      "anonymous": false,
      "inputs": [
        {
          "indexed": false,
          "name": "t",
          "type": "address"
        }
      ],
      "name": "event_transfer",
      "type": "event"
    },
    {
      "anonymous": false,
      "inputs": [
        {
          "indexed": false,
          "name": "e",
          "type": "string"
        }
      ],
      "name": "event_error",
      "type": "event"
    },
    {
      "anonymous": false,
      "inputs": [
        {
          "indexed": true,
          "name": "previousOwner",
          "type": "address"
        }
      ],
      "name": "OwnershipRenounced",
      "type": "event"
    },
    {
      "anonymous": false,
      "inputs": [
        {
          "indexed": true,
          "name": "previousOwner",
          "type": "address"
        },
        {
          "indexed": true,
          "name": "newOwner",
          "type": "address"
        }
      ],
      "name": "OwnershipTransferred",
      "type": "event"
    },
    {
      "constant": false,
      "inputs": [],
      "name": "test",
      "outputs": [
        {
          "name": "",
          "type": "bool"
        }
      ],
      "payable": false,
      "stateMutability": "nonpayable",
      "type": "function"
    },
    {
      "constant": false,
      "inputs": [],
      "name": "bet",
      "outputs": [],
      "payable": true,
      "stateMutability": "payable",
      "type": "function"
    },
    {
      "constant": false,
      "inputs": [
        {
          "name": "_delay",
          "type": "uint256"
        },
        {
          "name": "_coefficient",
          "type": "uint256"
        }
      ],
      "name": "delayRequest",
      "outputs": [],
      "payable": false,
      "stateMutability": "nonpayable",
      "type": "function"
    },
    {
      "constant": false,
      "inputs": [
        {
          "name": "myid",
          "type": "bytes32"
        },
        {
          "name": "result",
          "type": "string"
        },
        {
          "name": "proof",
          "type": "bytes"
        }
      ],
      "name": "__callback",
      "outputs": [],
      "payable": false,
      "stateMutability": "nonpayable",
      "type": "function"
    },
    {
      "constant": false,
      "inputs": [
        {
          "name": "myid",
          "type": "bytes32"
        },
        {
          "name": "result",
          "type": "string"
        }
      ],
      "name": "__callback",
      "outputs": [],
      "payable": false,
      "stateMutability": "nonpayable",
      "type": "function"
    },
    {
      "constant": true,
      "inputs": [],
      "name": "calculateTotalPrize",
      "outputs": [
        {
          "name": "",
          "type": "uint256"
        }
      ],
      "payable": false,
      "stateMutability": "view",
      "type": "function"
    },
    {
      "constant": true,
      "inputs": [
        {
          "name": "_delay",
          "type": "uint256"
        }
      ],
      "name": "isRecursiveStale",
      "outputs": [
        {
          "name": "",
          "type": "bool"
        }
      ],
      "payable": false,
      "stateMutability": "view",
      "type": "function"
    },
    {
      "constant": false,
      "inputs": [
        {
          "name": "_ipfsHash",
          "type": "string"
        }
      ],
      "name": "changeIpfsHash",
      "outputs": [],
      "payable": false,
      "stateMutability": "nonpayable",
      "type": "function"
    },
    {
      "constant": false,
      "inputs": [
        {
          "name": "_state",
          "type": "bool"
        }
      ],
      "name": "changeDelayRequestState",
      "outputs": [],
      "payable": false,
      "stateMutability": "nonpayable",
      "type": "function"
    },
    {
      "constant": false,
      "inputs": [
        {
          "name": "_commission",
          "type": "uint256"
        }
      ],
      "name": "changeCommission",
      "outputs": [],
      "payable": false,
      "stateMutability": "nonpayable",
      "type": "function"
    },
    {
      "constant": false,
      "inputs": [
        {
          "name": "_delay",
          "type": "uint256"
        }
      ],
      "name": "changeDelay",
      "outputs": [],
      "payable": false,
      "stateMutability": "nonpayable",
      "type": "function"
    }
  ],
  "bytecode": "0x6080604052604051620049b7380380620049b783398101604090815281516020830151918301516060840151608085015160008054600160a060020a03191633179055929094019390916200007d7f110000000000000000000000000000000000000000000000000000000000000064010000000062000117810204565b604080517f4f7261636c697a65204c6f74746572794461696c79000000000000000000000081529051908190036015019020600e5560016006558451620000cc90600c9060208801906200114c565b506007849055600a839055600f829055600d8054600161ff0019909116610100841515021760ff19161790556200010c826401000000006200037a810204565b5050505050620011ee565b600154600160a060020a031615806200014d57506001546200014b90600160a060020a031664010000000062000646810204565b155b156200016a576200016860006401000000006200064a810204565b505b600160009054906101000a9004600160a060020a0316600160a060020a03166338cc48316040518163ffffffff167c0100000000000000000000000000000000000000000000000000000000028152600401602060405180830381600087803b158015620001d757600080fd5b505af1158015620001ec573d6000803e3d6000fd5b505050506040513d60208110156200020357600080fd5b5051600254600160a060020a03908116911614620002d657600160009054906101000a9004600160a060020a0316600160a060020a03166338cc48316040518163ffffffff167c0100000000000000000000000000000000000000000000000000000000028152600401602060405180830381600087803b1580156200028857600080fd5b505af11580156200029d573d6000803e3d6000fd5b505050506040513d6020811015620002b457600080fd5b505160028054600160a060020a031916600160a060020a039092169190911790555b600254604080517f688dcfd70000000000000000000000000000000000000000000000000000000081527fff00000000000000000000000000000000000000000000000000000000000000841660048201529051600160a060020a039092169163688dcfd79160248082019260009290919082900301818387803b1580156200035e57600080fd5b505af115801562000373573d6000803e3d6000fd5b5050505050565b6040805160208082526015908201527f72656375727369766544656c61795265717565737400000000000000000000008183015290516000917f55ca470abce2758070cab17dcd4192727fe34743f53fd5b592c996480ff80e20919081900360600190a160408051808201909152600381527f55524c000000000000000000000000000000000000000000000000000000000060208201523031906200042d90620493e064010000000062000665810204565b1115620004d5576040805160208082526051908201527f4f7261636c697a652064656c617920717565727920776173204e4f542073656e818301527f742c20706c656173652061646420736f6d652045544820746f20636f7665722060608201527f666f72207468652071756572792066656500000000000000000000000000000060808201529051600080516020620049978339815191529181900360a00190a162000642565b600d54610100900460ff1615156200053c576040805160208082526015908201527f4c6f7474657279206973206e6f74206163746976650000000000000000000000818301529051600080516020620049978339815191529181900360600190a162000642565b620005a1826040805190810160405280600381526020017f55524c00000000000000000000000000000000000000000000000000000000008152506020604051908101604052806000815250620493e06200092d640100000000026401000000009004565b600081815260126020908152604091829020805467ffffffffffffffff428801166401000000000263ffffff01606060020a0319909116179055600e8390558151818152808201919091527f4f7261636c697a652064656c61792071756572792077617320726571756573748183015290519192507f60c9c8808d9813747f8040517423a67630c31b1a9ffe7b05eb1ee206d3c83740919081900360600190a15b5050565b3b90565b60006200065f64010000000062000d95810204565b92915050565b600154600090600160a060020a031615806200069e57506001546200069c90600160a060020a031664010000000062000646810204565b155b15620006bb57620006b960006401000000006200064a810204565b505b600160009054906101000a9004600160a060020a0316600160a060020a03166338cc48316040518163ffffffff167c0100000000000000000000000000000000000000000000000000000000028152600401602060405180830381600087803b1580156200072857600080fd5b505af11580156200073d573d6000803e3d6000fd5b505050506040513d60208110156200075457600080fd5b5051600254600160a060020a039081169116146200082757600160009054906101000a9004600160a060020a0316600160a060020a03166338cc48316040518163ffffffff167c0100000000000000000000000000000000000000000000000000000000028152600401602060405180830381600087803b158015620007d957600080fd5b505af1158015620007ee573d6000803e3d6000fd5b505050506040513d60208110156200080557600080fd5b505160028054600160a060020a031916600160a060020a039092169190911790555b600254604080517f2ef3accc0000000000000000000000000000000000000000000000000000000081526024810185905260048101918252855160448201528551600160a060020a0390931692632ef3accc9287928792829160640190602086019080838360005b83811015620008a95781810151838201526020016200088f565b50505050905090810190601f168015620008d75780820380516001836020036101000a031916815260200191505b509350505050602060405180830381600087803b158015620008f857600080fd5b505af11580156200090d573d6000803e3d6000fd5b505050506040513d60208110156200092457600080fd5b50519392505050565b6001546000908190600160a060020a031615806200096857506001546200096690600160a060020a031664010000000062000646810204565b155b1562000985576200098360006401000000006200064a810204565b505b600160009054906101000a9004600160a060020a0316600160a060020a03166338cc48316040518163ffffffff167c0100000000000000000000000000000000000000000000000000000000028152600401602060405180830381600087803b158015620009f257600080fd5b505af115801562000a07573d6000803e3d6000fd5b505050506040513d602081101562000a1e57600080fd5b5051600254600160a060020a0390811691161462000af157600160009054906101000a9004600160a060020a0316600160a060020a03166338cc48316040518163ffffffff167c0100000000000000000000000000000000000000000000000000000000028152600401602060405180830381600087803b15801562000aa357600080fd5b505af115801562000ab8573d6000803e3d6000fd5b505050506040513d602081101562000acf57600080fd5b505160028054600160a060020a031916600160a060020a039092169190911790555b600254604080517f2ef3accc0000000000000000000000000000000000000000000000000000000081526024810186905260048101918252875160448201528751600160a060020a0390931692632ef3accc9289928892829160640190602086019080838360005b8381101562000b7357818101518382015260200162000b59565b50505050905090810190601f16801562000ba15780820380516001836020036101000a031916815260200191505b509350505050602060405180830381600087803b15801562000bc257600080fd5b505af115801562000bd7573d6000803e3d6000fd5b505050506040513d602081101562000bee57600080fd5b50519050670de0b6b3a76400003a84020181111562000c11576000915062000d8c565b6002546040517fc51be90f0000000000000000000000000000000000000000000000000000000081526004810188815260648201869052608060248301908152885160848401528851600160a060020a039094169363c51be90f9386938c938c938c938c939291604482019160a40190602088019080838360005b8381101562000ca657818101518382015260200162000c8c565b50505050905090810190601f16801562000cd45780820380516001836020036101000a031916815260200191505b50838103825285518152855160209182019187019080838360005b8381101562000d0957818101518382015260200162000cef565b50505050905090810190601f16801562000d375780820380516001836020036101000a031916815260200191505b5096505050505050506020604051808303818588803b15801562000d5a57600080fd5b505af115801562000d6f573d6000803e3d6000fd5b50505050506040513d602081101562000d8757600080fd5b505191505b50949350505050565b60008062000dc0731d3b2638a7cc9f2cb3d298a3da7a90b67e5506ed64010000000062000646810204565b111562000e3e5760018054600160a060020a031916731d3b2638a7cc9f2cb3d298a3da7a90b67e5506ed17905560408051808201909152600b81527f6574685f6d61696e6e6574000000000000000000000000000000000000000000602082015262000e35906401000000006200113c810204565b50600162001139565b600062000e6873c03a2615d5efaf5f49f60b7bb6583eaec212fdf164010000000062000646810204565b111562000edd5760018054600160a060020a03191673c03a2615d5efaf5f49f60b7bb6583eaec212fdf117905560408051808201909152600c81527f6574685f726f707374656e330000000000000000000000000000000000000000602082015262000e35906401000000006200113c810204565b600062000f0773b7a07bcf2ba2f2703b24c0691b5278999c59ac7e64010000000062000646810204565b111562000f7c5760018054600160a060020a03191673b7a07bcf2ba2f2703b24c0691b5278999c59ac7e17905560408051808201909152600981527f6574685f6b6f76616e0000000000000000000000000000000000000000000000602082015262000e35906401000000006200113c810204565b600062000fa673146500cfd35b22e4a392fe0adc06de1a1368ed4864010000000062000646810204565b11156200101b5760018054600160a060020a03191673146500cfd35b22e4a392fe0adc06de1a1368ed4817905560408051808201909152600b81527f6574685f72696e6b656279000000000000000000000000000000000000000000602082015262000e35906401000000006200113c810204565b600062001045736f485c8bf6fc43ea212e93bbf8ce046c7f1cb47564010000000062000646810204565b111562001079575060018054600160a060020a031916736f485c8bf6fc43ea212e93bbf8ce046c7f1cb47517815562001139565b6000620010a37320e12a1f859b3feae5fb2a0a32c18f5a65555bbf64010000000062000646810204565b1115620010d7575060018054600160a060020a0319167320e12a1f859b3feae5fb2a0a32c18f5a65555bbf17815562001139565b6000620011017351efaf4c8b3c9afbd5ab9f4bbc82784ab6ef8faa64010000000062000646810204565b111562001135575060018054600160a060020a0319167351efaf4c8b3c9afbd5ab9f4bbc82784ab6ef8faa17815562001139565b5060005b90565b8051620006429060039060208401905b828054600181600116156101000203166002900490600052602060002090601f016020900481019282601f106200118f57805160ff1916838001178555620011bf565b82800160010185558215620011bf579182015b82811115620011bf578251825591602001919060010190620011a2565b50620011cd929150620011d1565b5090565b6200113991905b80821115620011cd5760008155600101620011d8565b61379980620011fe6000396000f3006080604052600436106101455763ffffffff60e060020a60003504166307dd96f7811461014757806311610c251461016e57806327dc297e1461017657806330b64026146101d157806338bbfa50146101e65780635037ec62146102815780635076492c1461029957806360d10813146102b457806361bc221a14610340578063715018a614610355578063780fc2251461036a57806379147cf0146103845780637d7594ef146103995780638064b15f146103ae5780638da5cb5b14610403578063a3f67d6d14610434578063ab8078c614610449578063ad7a672f1461045e578063c3b69ebb14610473578063c623674f1461049c578063df922f3a146104b1578063e1489191146104c9578063ef9a2242146104de578063f2fde38b146104f3578063f71d96cb14610514578063f790d9ee1461054e578063f8a8fd6d14610566575b005b34801561015357600080fd5b5061015c61057b565b60405190815260200160405180910390f35b610145610581565b34801561018257600080fd5b506101456004803590369060446024803590810190830135806020601f8201819004810201604051908101604052818152929190602084018383808284375094975061076e9650505050505050565b3480156101dd57600080fd5b5061015c6107ac565b3480156101f257600080fd5b506101456004803590369060446024803590810190830135806020601f820181900481020160405190810160405281815292919060208401838380828437509497969560208082019650903587018082019550359350839250601f8301819004810201905060405190810160405281815292919060208401838380828437509497506107b29650505050505050565b34801561028d57600080fd5b50610145600435610d2b565b3480156102a557600080fd5b50610145600435602435610d47565b3480156102c057600080fd5b506102c9610fa4565b60405160208082528190810183818151815260200191508051906020019080838360005b838110156103055780820151838201526020016102ed565b50505050905090810190601f1680156103325780820380516001836020036101000a031916815260200191505b509250505060405180910390f35b34801561034c57600080fd5b5061015c611042565b34801561036157600080fd5b50610145611048565b34801561037657600080fd5b5061014560043515156110a9565b34801561039057600080fd5b506102c96110da565b3480156103a557600080fd5b5061015c611145565b3480156103ba57600080fd5b506101453660046024813581810190830135806020601f8201819004810201604051908101604052818152929190602084018383808284375094975061114b9650505050505050565b34801561040f57600080fd5b50610418611175565b604051600160a060020a03909116815260200160405180910390f35b34801561044057600080fd5b5061015c611184565b34801561045557600080fd5b5061015c61118a565b34801561046a57600080fd5b5061015c6111d1565b34801561047f57600080fd5b506104886111d7565b604051901515815260200160405180910390f35b3480156104a857600080fd5b506102c96111e0565b3480156104bd57600080fd5b5061014560043561124b565b3480156104d557600080fd5b5061015c611267565b3480156104ea57600080fd5b5061015c61126d565b3480156104ff57600080fd5b50610145600160a060020a0360043516611273565b34801561052057600080fd5b5061052c600435611296565b604051600160a060020a03909216825260208201526040908101905180910390f35b34801561055a57600080fd5b506104886004356112cb565b34801561057257600080fd5b5061048861131a565b600b5481565b610589613625565b7fb21238056034e0d6cc890938b808046968a29e77b2a3636793841ff76a92d9553460405190815260200160405180910390a160075434146106145760405160e560020a62461bcd02815260206004820152601260248201527f5265717569726520302e30312065746865720000000000000000000000000000604482015260640160405180910390fd5b600d5460ff16151561066f5760405160e560020a62461bcd02815260206004820152601960248201527f4c6f7474657279206973206e6f7420616374697665206e6f7700000000000000604482015260640160405180910390fd5b60065433600090815260136020526040902054106106d65760405160e560020a62461bcd02815260206004820152601560248201527f4f6e6c79206f6e652062657420666f722067616d650000000000000000000000604482015260640160405180910390fd5b604080519081016040523381523460208201526009549091506001016106fd60148261363c565b5060065433600090815260136020526040902055600980546001810190915560148054839290811061072b57fe5b90600052602060002060029091020181518154600160a060020a031916600160a060020a0391909116178155602082015160019091015550506008805434019055565b6107a882826000604051818152601f19601f83011681016020016040529080156107a2578160200160208202803883390190505b506107b2565b5050565b600e5481565b6107ba613666565b604080519081016040526001815260fc60020a600302602082015260109080516107e8929160200190613696565b506107f1611382565b600160a060020a0316331461084f5760405160e560020a62461bcd02815260206004820152601f60248201527f43616c6c6572206973206e6f74204f7261636c697a6520616464726573732100604482015260640160405180910390fd5b6000848152601260205260409020546301000000900460ff16156108e25760405160e560020a62461bcd02815260206004820152602160248201527f51756572792068617320616c7265616479206265656e2070726f63657373656460448201527f2100000000000000000000000000000000000000000000000000000000000000606482015260840160405180910390fd5b600084815260126020526040902060a06040519081016040528154909190829060ff16600181111561091057fe5b600181111561091b57fe5b8152905460ff610100820481161515602084015262010000820481161515604084015263010000008204161515606083015267ffffffffffffffff64010000000090910416608090910152905060018151600181111561097757fe5b1415610a7d577f65f6d9f82a5021bfe453af062212bd087691bf16e7152c3362628730368e207660405160208082526027908201527f4f7261636c697a6520636f6d7075746174696f6e2071756572792077617320726040808301919091527f656365697665640000000000000000000000000000000000000000000000000060608301526080909101905180910390a160408051908101604052600181527f310000000000000000000000000000000000000000000000000000000000000060208201526010908051610a4f929160200190613696565b50600680546001019055610a6283611556565b600b819055610a7090611563565b610a78611646565b610cfa565b600081516001811115610a8c57fe5b1415610cb1577ff24d02db99eb5dd52f4cd82ee38228b954dac31b4ee7d4da7aa38c8297e07af160405160208082526021908201527f4f7261636c697a652064656c61792071756572792077617320726563656976656040808301919091527f640000000000000000000000000000000000000000000000000000000000000060608301526080909101905180910390a160408051908101604052600181527f320000000000000000000000000000000000000000000000000000000000000060208201526010908051610b64929160200190613696565b50610b6d61166a565b8060400151158015610b805750600e5484145b15610c6457610b90600f546116d1565b7ff24d02db99eb5dd52f4cd82ee38228b954dac31b4ee7d4da7aa38c8297e07af16040516020808252602d908201527f4f7261636c697a652064656c61792071756572792077617320726563656976656040808301919091527f642c206e6578742071756572790000000000000000000000000000000000000060608301526080909101905180910390a160408051908101604052600181527f330000000000000000000000000000000000000000000000000000000000000060208201526010908051610c62929160200190613696565b505b60408051908101604052600181527f340000000000000000000000000000000000000000000000000000000000000060208201526010908051610cab929160200190613696565b50610cfa565b60408051908101604052600181527f350000000000000000000000000000000000000000000000000000000000000060208201526010908051610cf8929160200190613696565b505b6000848152601260205260019060409020805491151563010000000263ff0000001990921691909117905550505050565b600054600160a060020a03163314610d4257600080fd5b600f55565b60008054600160a060020a03163314610d5f57600080fd5b600f8390557fb21238056034e0d6cc890938b808046968a29e77b2a3636793841ff76a92d9554260405190815260200160405180910390a1610da28284026112cb565b15610e56577f55ca470abce2758070cab17dcd4192727fe34743f53fd5b592c996480ff80e206040516020808252600d908201527f64656c61792072657175657374000000000000000000000000000000000000006040808301919091526060909101905180910390a1600d805461ff001916610100179055600f54610e27906116d1565b600e54600090815260126020526001906040902080549115156101000261ff0019909216919091179055610f9f565b7f55ca470abce2758070cab17dcd4192727fe34743f53fd5b592c996480ff80e206040516020808252600e908201527f73696d706c6520726571756573740000000000000000000000000000000000006040808301919091526060909101905180910390a1610f0d836040805190810160405280600381526020017f55524c0000000000000000000000000000000000000000000000000000000000815250602060405190810160405260008152620493e06119d7565b60008181526012602052909150600190604090208054911515620100000262ff0000199092169190911790556000818152601260205260408120805460ff191660018381811115610f5a57fe5b0217905550600081815260126020524284019060409020805467ffffffffffffffff92909216640100000000026bffffffffffffffff00000000199092169190911790555b505050565b60118054600181600116156101000203166002900480601f01602080910402602001604051908101604052809291908181526020018280546001816001161561010002031660029004801561103a5780601f1061100f5761010080835404028352916020019161103a565b820191906000526020600020905b81548152906001019060200180831161101d57829003601f168201915b505050505081565b60065481565b600054600160a060020a0316331461105f57600080fd5b600054600160a060020a03167ff8df31144d9c2f0f6b59d69b8b98abd5459d07f2742c4df920b25aae33c6482060405160405180910390a260008054600160a060020a0319169055565b600054600160a060020a031633146110c057600080fd5b600d80549115156101000261ff0019909216919091179055565b60108054600181600116156101000203166002900480601f01602080910402602001604051908101604052809291908181526020018280546001816001161561010002031660029004801561103a5780601f1061100f5761010080835404028352916020019161103a565b600f5481565b600054600160a060020a0316331461116257600080fd5b600c8180516107a8929160200190613696565b600054600160a060020a031681565b60095481565b600a546000906064038181106111c7576111c0816111b46064600854611da390919063ffffffff16565b9063ffffffff611db816565b91506111cd565b60085491505b5090565b60085481565b600d5460ff1681565b600c8054600181600116156101000203166002900480601f01602080910402602001604051908101604052809291908181526020018280546001816001161561010002031660029004801561103a5780601f1061100f5761010080835404028352916020019161103a565b600054600160a060020a0316331461126257600080fd5b600a55565b600a5481565b60075481565b600054600160a060020a0316331461128a57600080fd5b61129381611de1565b50565b60148054829081106112a457fe5b9060005260206000206002909102018054600190910154600160a060020a03909116915082565b600e5460009081526012602052816040822054640100000000900467ffffffffffffffff16014211806113145750600e54600090815260126020526040902054610100900460ff165b92915050565b60008054600160a060020a0316331461133257600080fd5b60408051908101604052600181527f310000000000000000000000000000000000000000000000000000000000000060208201526011908051611379929160200190613696565b50600190505b90565b600154600090600160a060020a031615806113af57506001546113ad90600160a060020a0316611e54565b155b156113c0576113be6000611e58565b505b600154600160a060020a03166338cc48316040518163ffffffff1660e060020a028152600401602060405180830381600087803b15801561140057600080fd5b505af1158015611414573d6000803e3d6000fd5b505050506040513d602081101561142a57600080fd5b810190808051600254600160a060020a0390811691161492506114de91505057600154600160a060020a03166338cc48316040518163ffffffff1660e060020a028152600401602060405180830381600087803b15801561148a57600080fd5b505af115801561149e573d6000803e3d6000fd5b505050506040513d60208110156114b457600080fd5b81019080805160028054600160a060020a031916600160a060020a03929092169190911790555050505b600254600160a060020a031663c281d19e6040518163ffffffff1660e060020a028152600401602060405180830381600087803b15801561151e57600080fd5b505af1158015611532573d6000803e3d6000fd5b505050506040513d602081101561154857600080fd5b810190808051935050505090565b6000611314826000611e62565b61156b613625565b600060148381548110151561157c57fe5b9060005260206000209060020201604080519081016040528154600160a060020a03168152600190910154602082015291506115b661118a565b905060008251600160a060020a031614610f9f578151600160a060020a031681156108fc0282604051600060405180830381858888f19350505050158015611602573d6000803e3d6000fd5b507f97c59ca311d5f013c9ddfa2dfc788d6f13354cf7e885021c8c027379fa9fb9ec8251604051600160a060020a03909116815260200160405180910390a1505050565b600d805461ff001960ff199091166001171661010017905560006008819055600955565b600060095411156116cf5760408051908101604052600181527f3600000000000000000000000000000000000000000000000000000000000000602082015260109080516116bc929160200190613696565b50600d805460ff191690556116cf611fad565b565b60007f55ca470abce2758070cab17dcd4192727fe34743f53fd5b592c996480ff80e2060405160208082526015908201527f72656375727369766544656c61795265717565737400000000000000000000006040808301919091526060909101905180910390a1303161177a60408051908101604052600381527f55524c00000000000000000000000000000000000000000000000000000000006020820152620493e0612412565b1115611836577f45216837f26a6836ade4e0969fe04657e771b5659940d6e0de811cb8d49580d660405160208082526051908201527f4f7261636c697a652064656c617920717565727920776173204e4f542073656e6040808301919091527f742c20706c656173652061646420736f6d652045544820746f20636f7665722060608301527f666f722074686520717565727920666565000000000000000000000000000000608083015260a0909101905180910390a16107a8565b600d54610100900460ff1615156118b1577f45216837f26a6836ade4e0969fe04657e771b5659940d6e0de811cb8d49580d660405160208082526015908201527f4c6f7474657279206973206e6f742061637469766500000000000000000000006040808301919091526060909101905180910390a16107a8565b611903826040805190810160405280600381526020017f55524c0000000000000000000000000000000000000000000000000000000000815250602060405190810160405260008152620493e06119d7565b6000818152601260205290915060408120805460ff19166001838181111561192757fe5b0217905550600081815260126020524283019060409020805467ffffffffffffffff92909216640100000000026bffffffffffffffff0000000019909216919091179055600e8190557f60c9c8808d9813747f8040517423a67630c31b1a9ffe7b05eb1ee206d3c837406040516020808252808201527f4f7261636c697a652064656c61792071756572792077617320726571756573746040808301919091526060909101905180910390a15050565b6001546000908190600160a060020a03161580611a065750600154611a0490600160a060020a0316611e54565b155b15611a1757611a156000611e58565b505b600154600160a060020a03166338cc48316040518163ffffffff1660e060020a028152600401602060405180830381600087803b158015611a5757600080fd5b505af1158015611a6b573d6000803e3d6000fd5b505050506040513d6020811015611a8157600080fd5b810190808051600254600160a060020a039081169116149250611b3591505057600154600160a060020a03166338cc48316040518163ffffffff1660e060020a028152600401602060405180830381600087803b158015611ae157600080fd5b505af1158015611af5573d6000803e3d6000fd5b505050506040513d6020811015611b0b57600080fd5b81019080805160028054600160a060020a031916600160a060020a03929092169190911790555050505b600254600160a060020a0316632ef3accc86856040518363ffffffff1660e060020a0281526004018080602001838152602001828103825284818151815260200191508051906020019080838360005b83811015611b9d578082015183820152602001611b85565b50505050905090810190601f168015611bca5780820380516001836020036101000a031916815260200191505b509350505050602060405180830381600087803b158015611bea57600080fd5b505af1158015611bfe573d6000803e3d6000fd5b505050506040513d6020811015611c1457600080fd5b8101908080519350505050670de0b6b3a76400003a840201811115611c3c5760009150611d9a565b600254600160a060020a031663c51be90f82888888886040518663ffffffff1660e060020a028152600401808581526020018060200180602001848152602001838103835286818151815260200191508051906020019080838360005b83811015611cb1578082015183820152602001611c99565b50505050905090810190601f168015611cde5780820380516001836020036101000a031916815260200191505b50838103825285818151815260200191508051906020019080838360005b83811015611d14578082015183820152602001611cfc565b50505050905090810190601f168015611d415780820380516001836020036101000a031916815260200191505b5096505050505050506020604051808303818588803b158015611d6357600080fd5b505af1158015611d77573d6000803e3d6000fd5b50505050506040513d6020811015611d8e57600080fd5b81019080805194505050505b50949350505050565b60008183811515611db057fe5b049392505050565b6000821515611dc957506000611314565b50818102818382811515611dd957fe5b041461131457fe5b600160a060020a0381161515611df657600080fd5b600054600160a060020a0380831691167f8be0079c531659141344cd1fd0a4f28419497f9722a3daafe3b4186f6b6457e060405160405180910390a360008054600160a060020a031916600160a060020a0392909216919091179055565b3b90565b600061131461265d565b6000828180805b8351811015611f905760fc60020a600302848281518110611e8657fe5b016020015160f860020a900460f860020a02600160f860020a03191610158015611ef757507f3900000000000000000000000000000000000000000000000000000000000000848281518110611ed857fe5b016020015160f860020a900460f860020a02600160f860020a03191611155b15611f4d578115611f1657851515611f0e57611f90565b600019909501945b600a830292506030848281518110611f2a57fe5b016020015160f860020a900460f860020a0260f860020a90040383019250611f88565b838181518110611f5957fe5b016020015160f860020a900460f860020a02600160f860020a031916602e60f860020a021415611f8857600191505b600101611e69565b6000861115611fa25785600a0a830292505b509095945050505050565b60006001600954111561233e573031611ffc60408051908101604052600b81527f636f6d7075746174696f6e0000000000000000000000000000000000000000006020820152620493e0612412565b11156120b8577f45216837f26a6836ade4e0969fe04657e771b5659940d6e0de811cb8d49580d660405160208082526057908201527f4f7261636c697a6520636f6d7075746174696f6e20717565727920776173204e6040808301919091527f4f542073656e742c20706c656173652061646420736f6d652045544820746f2060608301527f636f76657220666f722074686520717565727920666565000000000000000000608083015260a0909101905180910390a1611293565b6122826040805190810160405280600b81526020017f636f6d7075746174696f6e00000000000000000000000000000000000000000081525060806040519081016040528061220a6040805190810160405280600581526020017f6a736f6e28000000000000000000000000000000000000000000000000000000815250600c8054600181600116156101000203166002900480601f0160208091040260200160405190810160405280929190818152602001828054600181600116156101000203166002900480156121cc5780601f106121a1576101008083540402835291602001916121cc565b820191906000526020600020905b8154815290600101906020018083116121af57829003601f168201915b505050505060408051908101604052601681527f292e726573756c742e72616e646f6d2e646174612e3000000000000000000000602082015261297b565b81526020016040805190810160405280600181526020017f3100000000000000000000000000000000000000000000000000000000000000815250815260200160408051908101604052806001815260200160fc60020a60030281525081526020016122776009546129b0565b9052620493e0612a89565b6000818152601260205290915060019060409020805460ff1916600183818111156122a957fe5b02179055507f9eb50eb597f28ea7ded26f0afa775a7ceccca822f45cfe5a16f8bdf4214a41c460405160208082526026908201527f4f7261636c697a6520636f6d7075746174696f6e2071756572792077617320726040808301919091527f657175657374000000000000000000000000000000000000000000000000000060608301526080909101905180910390a1611293565b600954600114156112935760148054600090811061235857fe5b90600052602060002060029091020154600854600160a060020a039091169080156108fc0290604051600060405180830381858888f193505050501580156123a4573d6000803e3d6000fd5b507f97c59ca311d5f013c9ddfa2dfc788d6f13354cf7e885021c8c027379fa9fb9ec601460008154811015156123d657fe5b90600052602060002060029091020154600160a060020a0316604051600160a060020a03909116815260200160405180910390a1611293611646565b600154600090600160a060020a0316158061243f575060015461243d90600160a060020a0316611e54565b155b156124505761244e6000611e58565b505b600154600160a060020a03166338cc48316040518163ffffffff1660e060020a028152600401602060405180830381600087803b15801561249057600080fd5b505af11580156124a4573d6000803e3d6000fd5b505050506040513d60208110156124ba57600080fd5b810190808051600254600160a060020a03908116911614925061256e91505057600154600160a060020a03166338cc48316040518163ffffffff1660e060020a028152600401602060405180830381600087803b15801561251a57600080fd5b505af115801561252e573d6000803e3d6000fd5b505050506040513d602081101561254457600080fd5b81019080805160028054600160a060020a031916600160a060020a03929092169190911790555050505b600254600160a060020a0316632ef3accc84846040518363ffffffff1660e060020a0281526004018080602001838152602001828103825284818151815260200191508051906020019080838360005b838110156125d65780820151838201526020016125be565b50505050905090810190601f1680156126035780820380516001836020036101000a031916815260200191505b509350505050602060405180830381600087803b15801561262357600080fd5b505af1158015612637573d6000803e3d6000fd5b505050506040513d602081101561264d57600080fd5b8101908080519695505050505050565b60008061267d731d3b2638a7cc9f2cb3d298a3da7a90b67e5506ed611e54565b11156126ed5760018054600160a060020a031916731d3b2638a7cc9f2cb3d298a3da7a90b67e5506ed1790556126e560408051908101604052600b81527f6574685f6d61696e6e65740000000000000000000000000000000000000000006020820152612ca6565b50600161137f565b600061270c73c03a2615d5efaf5f49f60b7bb6583eaec212fdf1611e54565b11156127745760018054600160a060020a03191673c03a2615d5efaf5f49f60b7bb6583eaec212fdf11790556126e560408051908101604052600c81527f6574685f726f707374656e3300000000000000000000000000000000000000006020820152612ca6565b600061279373b7a07bcf2ba2f2703b24c0691b5278999c59ac7e611e54565b11156127fb5760018054600160a060020a03191673b7a07bcf2ba2f2703b24c0691b5278999c59ac7e1790556126e560408051908101604052600981527f6574685f6b6f76616e00000000000000000000000000000000000000000000006020820152612ca6565b600061281a73146500cfd35b22e4a392fe0adc06de1a1368ed48611e54565b11156128825760018054600160a060020a03191673146500cfd35b22e4a392fe0adc06de1a1368ed481790556126e560408051908101604052600b81527f6574685f72696e6b6562790000000000000000000000000000000000000000006020820152612ca6565b60006128a1736f485c8bf6fc43ea212e93bbf8ce046c7f1cb475611e54565b11156128d3575060018054600160a060020a031916736f485c8bf6fc43ea212e93bbf8ce046c7f1cb47517815561137f565b60006128f27320e12a1f859b3feae5fb2a0a32c18f5a65555bbf611e54565b1115612924575060018054600160a060020a0319167320e12a1f859b3feae5fb2a0a32c18f5a65555bbf17815561137f565b60006129437351efaf4c8b3c9afbd5ab9f4bbc82784ab6ef8faa611e54565b1115612975575060018054600160a060020a0319167351efaf4c8b3c9afbd5ab9f4bbc82784ab6ef8faa17815561137f565b50600090565b60606129a88484846020604051908101604052806000815250602060405190810160405260008152612cb9565b949350505050565b606060008082818515156129e057604080519081016040526001815260fc60020a60030260208201529450612a80565b8593505b83156129fb57600190920191600a840493506129e4565b82604051818152601f19601f8301168101602001604052908015612a29578160200160208202803883390190505b5091505060001982015b8515612a7c5760001981019060f860020a6030600a8906010290839081518110612a5957fe5b906020010190600160f860020a031916908160001a905350600a86049550612a33565b8194505b50505050919050565b600154600090606090600160a060020a03161580612ab95750600154612ab790600160a060020a0316611e54565b155b15612aca57612ac86000611e58565b505b600154600160a060020a03166338cc48316040518163ffffffff1660e060020a028152600401602060405180830381600087803b158015612b0a57600080fd5b505af1158015612b1e573d6000803e3d6000fd5b505050506040513d6020811015612b3457600080fd5b810190808051600254600160a060020a039081169116149250612be891505057600154600160a060020a03166338cc48316040518163ffffffff1660e060020a028152600401602060405180830381600087803b158015612b9457600080fd5b505af1158015612ba8573d6000803e3d6000fd5b505050506040513d6020811015612bbe57600080fd5b81019080805160028054600160a060020a031916600160a060020a03929092169190911790555050505b6004604051908082528060200260200182016040528015612c1d57816020015b6060815260200190600190039081612c085790505b509050835181600081518110612c2f57fe5b60209081029091010152836001602002015181600181518110612c4e57fe5b6020908102919091010152604084015181600281518110612c6b57fe5b6020908102919091010152606084015181600381518110612c8857fe5b60209081029091010152612c9d858285612eef565b95945050505050565b60038180516107a8929160200190613696565b6060858585858585806000808451865188518a518c5101010101604051818152601f19601f8301168101602001604052908015612d00578160200160208202803883390190505b50935083925060009150600090505b8851811015612d6857888181518110612d2457fe5b016020015160f860020a900460f860020a02838380600101945081518110612d4857fe5b906020010190600160f860020a031916908160001a905350600101612d0f565b5060005b8751811015612dc557878181518110612d8157fe5b016020015160f860020a900460f860020a02838380600101945081518110612da557fe5b906020010190600160f860020a031916908160001a905350600101612d6c565b5060005b8651811015612e2257868181518110612dde57fe5b016020015160f860020a900460f860020a02838380600101945081518110612e0257fe5b906020010190600160f860020a031916908160001a905350600101612dc9565b5060005b8551811015612e7f57858181518110612e3b57fe5b016020015160f860020a900460f860020a02838380600101945081518110612e5f57fe5b906020010190600160f860020a031916908160001a905350600101612e26565b5060005b8451811015612edc57848181518110612e9857fe5b016020015160f860020a900460f860020a02838380600101945081518110612ebc57fe5b906020010190600160f860020a031916908160001a905350600101612e83565b50909d9c50505050505050505050505050565b6001546000908190606090600160a060020a03161580612f215750600154612f1f90600160a060020a0316611e54565b155b15612f3257612f306000611e58565b505b600154600160a060020a03166338cc48316040518163ffffffff1660e060020a028152600401602060405180830381600087803b158015612f7257600080fd5b505af1158015612f86573d6000803e3d6000fd5b505050506040513d6020811015612f9c57600080fd5b810190808051600254600160a060020a03908116911614925061305091505057600154600160a060020a03166338cc48316040518163ffffffff1660e060020a028152600401602060405180830381600087803b158015612ffc57600080fd5b505af1158015613010573d6000803e3d6000fd5b505050506040513d602081101561302657600080fd5b81019080805160028054600160a060020a031916600160a060020a03929092169190911790555050505b600254600160a060020a0316632ef3accc87866040518363ffffffff1660e060020a0281526004018080602001838152602001828103825284818151815260200191508051906020019080838360005b838110156130b85780820151838201526020016130a0565b50505050905090810190601f1680156130e55780820380516001836020036101000a031916815260200191505b509350505050602060405180830381600087803b15801561310557600080fd5b505af1158015613119573d6000803e3d6000fd5b505050506040513d602081101561312f57600080fd5b8101908080519450505050670de0b6b3a76400003a85020182111561315757600092506132c2565b613160856132cb565b600254909150600160a060020a031663c55c1cb68360008985896040518663ffffffff1660e060020a028152600401808581526020018060200180602001848152602001838103835286818151815260200191508051906020019080838360005b838110156131d95780820151838201526020016131c1565b50505050905090810190601f1680156132065780820380516001836020036101000a031916815260200191505b50838103825285818151815260200191508051906020019080838360005b8381101561323c578082015183820152602001613224565b50505050905090810190601f1680156132695780820380516001836020036101000a031916815260200191505b5096505050505050506020604051808303818588803b15801561328b57600080fd5b505af115801561329f573d6000803e3d6000fd5b50505050506040513d60208110156132b657600080fd5b81019080805195505050505b50509392505050565b60606132d5613710565b60006132df613342565b6132eb8261040061334e565b6132f48261337c565b5060005b835181101561332f5761332784828151811061331057fe5b90602001906020020151839063ffffffff61338716565b6001016132f8565b613338826133a4565b8151949350505050565b60405180590338823950565b8060208106156133615760208106602003015b60208301819052604051928390526000835290910160405250565b6112938160046133ab565b61339482600383516133c4565b610f9f828263ffffffff6134c816565b6112938160075b6107a882601f602060ff8516021763ffffffff61356516565b601781116133e5576133e08360ff848116602002168317613565565b610f9f565b60ff811161341e57613406836018602060ff8616021763ffffffff61356516565b6134188382600163ffffffff61359e16565b50610f9f565b61ffff811161345257613440836019602060ff8616021763ffffffff61356516565b6134188382600263ffffffff61359e16565b63ffffffff81116134885761347683601a602060ff8616021763ffffffff61356516565b6134188382600463ffffffff61359e16565b67ffffffffffffffff8111610f9f576134b083601b602060ff8616021763ffffffff61356516565b6134c28382600863ffffffff61359e16565b50505050565b6134d0613710565b6000806000808660200151875151875101111561350257613502876134fa896020015189516135f4565b60020261360b565b8551915086518051602081830101955087510190526020860192505b60208210613541578251845260208401935060208301925060208203915061351e565b6001826020036101000a039050801983511681855116179093525093949350505050565b816020015182515160010111156135875761358782836020015160020261360b565b815180516020818301018381535060010190525050565b6135a6613710565b60008460200151855151840111156135ca576135ca856134fa8760200151866135f4565b6001836101000a039050845180518481830101868419825116179052909301909252509192915050565b600081831115613605575081611314565b50919050565b60608251905061361b838361334e565b6134c283826134c8565b604080519081016040526000808252602082015290565b815481835581811115610f9f5760020281600202836000526020600020610f9f9281019101613728565b60a06040519081016040528060008152600060208201819052604082018190526060820181905260809091015290565b828054600181600116156101000203166002900490600052602060002090601f016020900481019282601f106136d757805160ff1916838001178555613704565b82800160010185558215613704579182015b828111156137045782518255916020019190600101906136e9565b506111cd929150613753565b60408051908101604052606081526000602082015290565b61137f91905b808211156111cd578054600160a060020a03191681556000600182015560020161372e565b61137f91905b808211156111cd57600081556001016137595600a165627a7a723058207983f9b690b585946bae8e707a44618f2291e9fc5c14976033dedb61a2b387cb002945216837f26a6836ade4e0969fe04657e771b5659940d6e0de811cb8d49580d6",
  "source": "pragma solidity ^0.4.24;\n\nimport './lib/oraclizeAPI.sol';\nimport 'openzeppelin-solidity/contracts/ownership/Ownable.sol';\nimport 'openzeppelin-solidity/contracts/math/SafeMath.sol';\n\ncontract LotteryDaily_recursive is Ownable, usingOraclize {\n\tusing SafeMath for *;\n\n\tevent event_log(string str);\n\tevent event_log_uint(uint str);\n\tevent event_delay_query_request(string dqrst);\n\tevent event_delay_query_result(string dqrlt);\n\tevent event_random_query_request(string rqreq);\n\tevent event_random_query_result(string rqres);\n\tevent event_transfer(address t);\n\tevent event_error(string e);\n\n\tuint public counter;\n\n\t//player bet\n\tuint public equalBet;\n\n\tuint public totalBalance;\n\tuint public playersCount;\n\n\t//lottery percent comission\n\tuint public commission;\n\n\t//generating random number\n\tuint public rndNumber; \n\n\t//ipfs hash\n\tstring public ipfsHash;\n\n\t// disable players bet when process oraclize request\n\t// If callback never executed, we will invoke determineWinner() on next step\n\tbool public isLotteryActive;\n\n\t//For stopping requrcive queries\n\tbool private isDelayRequestActive;\n\n\t// last query id\n\tbytes32 public nextDelayRecursiveQueryId;\n\n\t//\n\tuint public oraclizeDefaultDelay; // seconds\n\tuint constant ORACLIZE_GAS_LIMIT = 300000;\n\n\tstring public _result;\n\tstring public result1;\n\n\tenum OraclizeState { Delay, Request }\n\n\tstruct Player {\n\t\taddress recipient;\n\t\tuint value;\n\t}\n\n\tstruct QueryIDs {\n\t\tOraclizeState state;\n\t\tbool isRevival;\n\t\tbool isManual;\n\t\tbool isProcessed;\n\t\tuint64 dueAt;\n\t\t//uint128 gasPriceUsed;\n\t}\n\n\tmapping(bytes32 => QueryIDs) pendingQueries; //oraclize queries\n\tmapping(address => uint) playersList; //mapping for counter\n\tPlayer[] public players;\n\n\tconstructor(string _ipfsHash, uint _equalBet, uint _commission, uint _delay, bool _isDelayRequestActive) public payable {\n\t\toraclize_setProof(proofType_TLSNotary | proofStorage_IPFS);\n        nextDelayRecursiveQueryId = keccak256('Oraclize LotteryDaily');\n\n        counter = 1;\n\t\tipfsHash = _ipfsHash;\n\t\tequalBet = _equalBet;\n\t\tcommission = _commission;\n\t\toraclizeDefaultDelay = _delay;\n\t\tisDelayRequestActive = _isDelayRequestActive;\n\t\tisLotteryActive = true;\n\n\t\trecursiveDelayRequest(oraclizeDefaultDelay);\n\t}\n\n\tfunction test() public onlyOwner returns(bool){\n\t\tresult1 = '1';\n\t\treturn true;\n\t}\n\n\tfunction bet() public payable {\n\t\temit event_log_uint(msg.value);\n\t\trequire(msg.value == equalBet, 'Require 0.01 ether');\n\t\trequire(isLotteryActive, 'Lottery is not active now');\n\t\trequire(playersList[msg.sender] < counter, 'Only one bet for game');\n\n\t\tPlayer memory newPlayer = Player({\n\t\t\trecipient: msg.sender,\n\t\t\tvalue: msg.value\n\t\t});\n\t\tplayers.length = playersCount + 1;\n\n\t\tplayersList[msg.sender] = counter;\n\t\tplayers[playersCount++] = newPlayer;\n\t\ttotalBalance += msg.value;\n\t}\n\n\tfunction recursiveDelayRequest(uint _delay) private {\n\t\temit event_log('recursiveDelayRequest');\n\t\tif (oraclize_getPrice('URL', ORACLIZE_GAS_LIMIT) > address(this).balance) {\n\t\t\temit event_error('Oraclize delay query was NOT sent, please add some ETH to cover for the query fee');\n\t\t\treturn;\n\t\t}\n\n\t\tif (isDelayRequestActive == false){\n\t\t\temit event_error('Lottery is not active');\n\t\t\treturn;\n\t\t}\n\n\t\tbytes32 queryId = oraclize_query(_delay, 'URL', '', ORACLIZE_GAS_LIMIT);\n\t\tpendingQueries[queryId].state = OraclizeState.Delay;\n\t\tpendingQueries[queryId].dueAt = uint64(now + _delay);\n\t\tnextDelayRecursiveQueryId = queryId;\n\n\t\temit event_delay_query_request('Oraclize delay query was request');\n\t}\n\n\n\tfunction delayRequest(uint _delay, uint _coefficient) public onlyOwner {\n\t\toraclizeDefaultDelay = _delay;\n\t\temit event_log_uint(now);\n\n\t\tif (isRecursiveStale(_delay * _coefficient)) {\n\t\t\temit event_log('delay request');\n\t\t\tisDelayRequestActive = true;\n\t\t\trecursiveDelayRequest(oraclizeDefaultDelay);\n\t\t\tpendingQueries[nextDelayRecursiveQueryId].isRevival = true;\n\t\t} else {\n\t\t\temit event_log('simple request');\n\t\t\tbytes32 queryId = oraclize_query(_delay, 'URL', '', ORACLIZE_GAS_LIMIT);\n\t\t\tpendingQueries[queryId].isManual = true;\n\t\t\tpendingQueries[queryId].state = OraclizeState.Delay;\n\t\t\tpendingQueries[queryId].dueAt = uint64(now + _delay);\n\t\t}\n\t}\n\t\n\tfunction determineWinner() private {\n\t\tif (playersCount > 1){\n\t\t\tif (oraclize_getPrice('computation', ORACLIZE_GAS_LIMIT) > address(this).balance) {\n\t\t\t\temit event_error('Oraclize computation query was NOT sent, please add some ETH to cover for the query fee');\n\t\t\t\treturn;\n\t\t\t}\n\n\t\t\tbytes32 queryId = oraclize_query( \n\t\t\t\t'computation', \n\t\t\t\t[\n\t\t\t\t\tstrConcat('json(', ipfsHash, ').result.random.data.0'),\n\t\t\t\t\t'1',\n\t\t\t\t\t'0',\n\t\t\t\t\tuint2str(playersCount)\n\t\t\t\t], \n\t\t\t\tORACLIZE_GAS_LIMIT\n\t\t\t);\n\t\t\tpendingQueries[queryId].state = OraclizeState.Request;\n\t\t\temit event_random_query_request('Oraclize computation query was request');\n\t\t\t//emit event_random_query(strConcat(uint2str(now), ' Oraclize query was sent');\n\t\t} else if (playersCount == 1){\n\t\t\tplayers[0].recipient.transfer(totalBalance);\n\t\t\temit event_transfer(players[0].recipient);\n\t\t\treset();\n\t\t}\t\n\t}\n\n\t// the callback function is called by Oraclize when the result is ready\n\t// the oraclize_randomDS_proofVerify modifier prevents an invalid proof to execute this function code:\n\t// the proof validity is fully verified on-chain\n\tfunction __callback(bytes32 myid, string result, bytes proof) public {\n\t\t_result = \"0\";\n\t\trequire(msg.sender == oraclize_cbAddress(), 'Caller is not Oraclize address!');\n        require(!pendingQueries[myid].isProcessed, 'Query has already been processed!');\n\n\t\tQueryIDs memory qi = pendingQueries[myid];\n\t\tif (qi.state == OraclizeState.Request){\n\t\t\temit event_random_query_result('Oraclize computation query was received');\n\t\t\t_result = \"1\";\n\t\t\tcounter++; // increment lottery counter\n\t\t\trndNumber = parseInt(result);\n\t\t\tdistributeFunds(rndNumber);\n\t\t\treset();\n\t\t} else if (qi.state == OraclizeState.Delay){\n\t\t\temit event_delay_query_result('Oraclize delay query was received');\n\t\t\t_result = \"2\";\n\t\t\tinvoke();\n\t\t\tif (!qi.isManual && nextDelayRecursiveQueryId == myid){\n\t\t\t\trecursiveDelayRequest(oraclizeDefaultDelay);\n\t\t\t\temit event_delay_query_result('Oraclize delay query was received, next query');\n\t\t\t\t_result = \"3\";\n\t\t\t}\n\t\t\t_result = \"4\";\n\t\t} else {\n\t\t\t_result = \"5\";\n\t\t}\n\n\t\tpendingQueries[myid].isProcessed = true;\n\t\t//delete pendingQueries[myid];\n\t}\n\n\tfunction distributeFunds(uint winningNumber) private {\n\t\tPlayer memory wPlayer = players[winningNumber];\n\t\tuint prizeToDistribute = calculateTotalPrize();\n\n\t\tif (wPlayer.recipient != address(0)){\n\t\t\twPlayer.recipient.transfer(prizeToDistribute);\n\t\t\temit event_transfer(wPlayer.recipient);\n\t\t}\n\t}\n\n\tfunction calculateTotalPrize() public constant returns (uint256){\n\t\tuint totalPercent = 100 - commission;\n\t\tif (totalPercent >= 0){\n\t\t\treturn totalBalance.div(100).mul(totalPercent);\n\t\t}\n\t\treturn totalBalance;\n\t}\n\n\n\tfunction invoke() private {\n\t\tif (playersCount > 0){\n\t\t\t_result = \"6\";\n\t\t\tisLotteryActive = false;\n\t\t\tdetermineWinner();\n\t\t}\n\t}\n\n\tfunction reset() private {\n\t\tisLotteryActive = true;\n\t\tisDelayRequestActive = true;\n\t\ttotalBalance = 0;\n\t\tplayersCount = 0;\n\t}\n\n\tfunction isRecursiveStale(uint _delay) public view returns (bool) {\n\t\treturn now > pendingQueries[nextDelayRecursiveQueryId].dueAt + _delay || \n\t\t\tpendingQueries[nextDelayRecursiveQueryId].isRevival;\n\t}\n\n\tfunction changeIpfsHash(string _ipfsHash) public onlyOwner {\n\t\tipfsHash = _ipfsHash;\n\t}\n\n\tfunction changeDelayRequestState(bool _state) public onlyOwner {\n\t\tisDelayRequestActive = _state;\n\t}\n\n\tfunction changeCommission(uint _commission) public onlyOwner {\n\t\tcommission = _commission;\n\t}\n\n\tfunction changeDelay(uint _delay) public onlyOwner {\n\t\toraclizeDefaultDelay = _delay;\n\t}\n\n\t//catch ether\n\tfunction() public payable {}\n}\n",
  "sourcePath": "/home/explomat/blockchain/rndeth/contracts/LotteryDaily_recursive.sol",
  "compiler": {
    "name": "solc",
    "version": "0.4.24+commit.e67f0147.Emscripten.clang"
  },
  "schemaVersion": "2.0.1",
  "updatedAt": "2018-11-06T00:01:48.505Z"
}