{
  "contractName": "Lottery",
  "abi": [
    {
      "constant": true,
      "inputs": [],
      "name": "rndNumber",
      "outputs": [
        {
          "name": "",
          "type": "uint256"
        }
      ],
      "payable": false,
      "stateMutability": "view",
      "type": "function"
    },
    {
      "constant": true,
      "inputs": [],
      "name": "counter",
      "outputs": [
        {
          "name": "",
          "type": "uint256"
        }
      ],
      "payable": false,
      "stateMutability": "view",
      "type": "function"
    },
    {
      "constant": false,
      "inputs": [],
      "name": "renounceOwnership",
      "outputs": [],
      "payable": false,
      "stateMutability": "nonpayable",
      "type": "function"
    },
    {
      "constant": true,
      "inputs": [],
      "name": "owner",
      "outputs": [
        {
          "name": "",
          "type": "address"
        }
      ],
      "payable": false,
      "stateMutability": "view",
      "type": "function"
    },
    {
      "constant": true,
      "inputs": [],
      "name": "playersCount",
      "outputs": [
        {
          "name": "",
          "type": "uint256"
        }
      ],
      "payable": false,
      "stateMutability": "view",
      "type": "function"
    },
    {
      "constant": true,
      "inputs": [],
      "name": "totalBalance",
      "outputs": [
        {
          "name": "",
          "type": "uint256"
        }
      ],
      "payable": false,
      "stateMutability": "view",
      "type": "function"
    },
    {
      "constant": true,
      "inputs": [],
      "name": "isLotteryActive",
      "outputs": [
        {
          "name": "",
          "type": "bool"
        }
      ],
      "payable": false,
      "stateMutability": "view",
      "type": "function"
    },
    {
      "constant": true,
      "inputs": [],
      "name": "commission",
      "outputs": [
        {
          "name": "",
          "type": "uint256"
        }
      ],
      "payable": false,
      "stateMutability": "view",
      "type": "function"
    },
    {
      "constant": true,
      "inputs": [],
      "name": "equalBet",
      "outputs": [
        {
          "name": "",
          "type": "uint256"
        }
      ],
      "payable": false,
      "stateMutability": "view",
      "type": "function"
    },
    {
      "constant": false,
      "inputs": [
        {
          "name": "_newOwner",
          "type": "address"
        }
      ],
      "name": "transferOwnership",
      "outputs": [],
      "payable": false,
      "stateMutability": "nonpayable",
      "type": "function"
    },
    {
      "constant": true,
      "inputs": [
        {
          "name": "",
          "type": "uint256"
        }
      ],
      "name": "players",
      "outputs": [
        {
          "name": "recipient",
          "type": "address"
        },
        {
          "name": "value",
          "type": "uint256"
        }
      ],
      "payable": false,
      "stateMutability": "view",
      "type": "function"
    },
    {
      "inputs": [
        {
          "name": "_equalBet",
          "type": "uint256"
        },
        {
          "name": "_commission",
          "type": "uint256"
        }
      ],
      "payable": true,
      "stateMutability": "payable",
      "type": "constructor"
    },
    {
      "payable": true,
      "stateMutability": "payable",
      "type": "fallback"
    },
    {
      "anonymous": false,
      "inputs": [
        {
          "indexed": false,
          "name": "str",
          "type": "string"
        }
      ],
      "name": "event_log",
      "type": "event"
    },
    {
      "anonymous": false,
      "inputs": [
        {
          "indexed": false,
          "name": "elu",
          "type": "uint256"
        }
      ],
      "name": "event_log_uint",
      "type": "event"
    },
    {
      "anonymous": false,
      "inputs": [
        {
          "indexed": false,
          "name": "rqreq",
          "type": "string"
        }
      ],
      "name": "event_random_query_request",
      "type": "event"
    },
    {
      "anonymous": false,
      "inputs": [
        {
          "indexed": false,
          "name": "rqres",
          "type": "string"
        }
      ],
      "name": "event_random_query_result",
      "type": "event"
    },
    {
      "anonymous": false,
      "inputs": [
        {
          "indexed": false,
          "name": "t",
          "type": "address"
        }
      ],
      "name": "event_transfer",
      "type": "event"
    },
    {
      "anonymous": false,
      "inputs": [
        {
          "indexed": false,
          "name": "e",
          "type": "string"
        }
      ],
      "name": "event_error",
      "type": "event"
    },
    {
      "anonymous": false,
      "inputs": [
        {
          "indexed": true,
          "name": "previousOwner",
          "type": "address"
        }
      ],
      "name": "OwnershipRenounced",
      "type": "event"
    },
    {
      "anonymous": false,
      "inputs": [
        {
          "indexed": true,
          "name": "previousOwner",
          "type": "address"
        },
        {
          "indexed": true,
          "name": "newOwner",
          "type": "address"
        }
      ],
      "name": "OwnershipTransferred",
      "type": "event"
    },
    {
      "constant": false,
      "inputs": [],
      "name": "bet",
      "outputs": [],
      "payable": true,
      "stateMutability": "payable",
      "type": "function"
    },
    {
      "constant": false,
      "inputs": [
        {
          "name": "myid",
          "type": "bytes32"
        },
        {
          "name": "result",
          "type": "string"
        }
      ],
      "name": "__callback",
      "outputs": [],
      "payable": false,
      "stateMutability": "nonpayable",
      "type": "function"
    },
    {
      "constant": false,
      "inputs": [
        {
          "name": "myid",
          "type": "bytes32"
        },
        {
          "name": "result",
          "type": "string"
        },
        {
          "name": "proof",
          "type": "bytes"
        }
      ],
      "name": "__callback",
      "outputs": [],
      "payable": false,
      "stateMutability": "nonpayable",
      "type": "function"
    },
    {
      "constant": true,
      "inputs": [],
      "name": "calculateTotalPrize",
      "outputs": [
        {
          "name": "",
          "type": "uint256"
        }
      ],
      "payable": false,
      "stateMutability": "view",
      "type": "function"
    },
    {
      "constant": false,
      "inputs": [],
      "name": "invoke",
      "outputs": [],
      "payable": false,
      "stateMutability": "nonpayable",
      "type": "function"
    },
    {
      "constant": false,
      "inputs": [
        {
          "name": "_commission",
          "type": "uint256"
        }
      ],
      "name": "changeCommission",
      "outputs": [],
      "payable": false,
      "stateMutability": "nonpayable",
      "type": "function"
    },
    {
      "constant": false,
      "inputs": [
        {
          "name": "_isLotteryActive",
          "type": "bool"
        }
      ],
      "name": "changeLotteryActive",
      "outputs": [],
      "payable": false,
      "stateMutability": "nonpayable",
      "type": "function"
    },
    {
      "constant": true,
      "inputs": [
        {
          "name": "_sender",
          "type": "address"
        }
      ],
      "name": "isPlayerNotReBid",
      "outputs": [
        {
          "name": "",
          "type": "bool"
        }
      ],
      "payable": false,
      "stateMutability": "view",
      "type": "function"
    }
  ],
  "bytecode": "0x60806040818152806200292183398101604052805160209091015160008054600160a060020a03191633179055620000607f110000000000000000000000000000000000000000000000000000000000000064010000000062000083810204565b60016006819055600892909255600b55600d805460ff1916909117905562000767565b600154600160a060020a03161580620000b95750600154620000b790600160a060020a0316640100000000620002e6810204565b155b15620000d657620000d46000640100000000620002ea810204565b505b600160009054906101000a9004600160a060020a0316600160a060020a03166338cc48316040518163ffffffff167c0100000000000000000000000000000000000000000000000000000000028152600401602060405180830381600087803b1580156200014357600080fd5b505af115801562000158573d6000803e3d6000fd5b505050506040513d60208110156200016f57600080fd5b5051600254600160a060020a039081169116146200024257600160009054906101000a9004600160a060020a0316600160a060020a03166338cc48316040518163ffffffff167c0100000000000000000000000000000000000000000000000000000000028152600401602060405180830381600087803b158015620001f457600080fd5b505af115801562000209573d6000803e3d6000fd5b505050506040513d60208110156200022057600080fd5b505160028054600160a060020a031916600160a060020a039092169190911790555b600254604080517f688dcfd70000000000000000000000000000000000000000000000000000000081527fff00000000000000000000000000000000000000000000000000000000000000841660048201529051600160a060020a039092169163688dcfd79160248082019260009290919082900301818387803b158015620002ca57600080fd5b505af1158015620002df573d6000803e3d6000fd5b5050505050565b3b90565b6000620002ff64010000000062000305810204565b92915050565b60008062000330731d3b2638a7cc9f2cb3d298a3da7a90b67e5506ed640100000000620002e6810204565b1115620003ae5760018054600160a060020a031916731d3b2638a7cc9f2cb3d298a3da7a90b67e5506ed17905560408051808201909152600b81527f6574685f6d61696e6e65740000000000000000000000000000000000000000006020820152620003a590640100000000620006ac810204565b506001620006a9565b6000620003d873c03a2615d5efaf5f49f60b7bb6583eaec212fdf1640100000000620002e6810204565b11156200044d5760018054600160a060020a03191673c03a2615d5efaf5f49f60b7bb6583eaec212fdf117905560408051808201909152600c81527f6574685f726f707374656e3300000000000000000000000000000000000000006020820152620003a590640100000000620006ac810204565b60006200047773b7a07bcf2ba2f2703b24c0691b5278999c59ac7e640100000000620002e6810204565b1115620004ec5760018054600160a060020a03191673b7a07bcf2ba2f2703b24c0691b5278999c59ac7e17905560408051808201909152600981527f6574685f6b6f76616e00000000000000000000000000000000000000000000006020820152620003a590640100000000620006ac810204565b60006200051673146500cfd35b22e4a392fe0adc06de1a1368ed48640100000000620002e6810204565b11156200058b5760018054600160a060020a03191673146500cfd35b22e4a392fe0adc06de1a1368ed4817905560408051808201909152600b81527f6574685f72696e6b6562790000000000000000000000000000000000000000006020820152620003a590640100000000620006ac810204565b6000620005b5736f485c8bf6fc43ea212e93bbf8ce046c7f1cb475640100000000620002e6810204565b1115620005e9575060018054600160a060020a031916736f485c8bf6fc43ea212e93bbf8ce046c7f1cb475178155620006a9565b6000620006137320e12a1f859b3feae5fb2a0a32c18f5a65555bbf640100000000620002e6810204565b111562000647575060018054600160a060020a0319167320e12a1f859b3feae5fb2a0a32c18f5a65555bbf178155620006a9565b6000620006717351efaf4c8b3c9afbd5ab9f4bbc82784ab6ef8faa640100000000620002e6810204565b1115620006a5575060018054600160a060020a0319167351efaf4c8b3c9afbd5ab9f4bbc82784ab6ef8faa178155620006a9565b5060005b90565b8051620006c1906003906020840190620006c5565b5050565b828054600181600116156101000203166002900490600052602060002090601f016020900481019282601f106200070857805160ff191683800117855562000738565b8280016001018555821562000738579182015b82811115620007385782518255916020019190600101906200071b565b50620007469291506200074a565b5090565b620006a991905b8082111562000746576000815560010162000751565b6121aa80620007776000396000f3006080604052600436106100ed5763ffffffff60e060020a60003504166307dd96f781146100ef57806311610c251461011657806327dc297e1461011e57806338bbfa501461017c57806361bc221a14610218578063715018a61461022d5780638da5cb5b146102425780639ac34a0e14610273578063a3f67d6d146102a8578063ab8078c6146102bd578063ad7a672f146102d2578063c3b69ebb146102e7578063c4bc6476146102fc578063cab7f52114610316578063df922f3a1461032b578063e148919114610343578063ef9a224214610358578063f2fde38b1461036d578063f71d96cb1461038e575b005b3480156100fb57600080fd5b506101046103c9565b60408051918252519081900360200190f35b6100ed6103cf565b34801561012a57600080fd5b5060408051602060046024803582810135601f81018590048502860185019096528585526100ed9583359536956044949193909101919081908401838280828437509497506105389650505050505050565b34801561018857600080fd5b5060408051602060046024803582810135601f81018590048502860185019096528585526100ed95833595369560449491939091019190819084018382808284375050604080516020601f89358b018035918201839004830284018301909452808352979a9998810197919650918201945092508291508401838280828437509497506105589650505050505050565b34801561022457600080fd5b50610104610758565b34801561023957600080fd5b506100ed61075e565b34801561024e57600080fd5b506102576107bd565b60408051600160a060020a039092168252519081900360200190f35b34801561027f57600080fd5b50610294600160a060020a03600435166107cc565b604080519115158252519081900360200190f35b3480156102b457600080fd5b506101046107ee565b3480156102c957600080fd5b506101046107f4565b3480156102de57600080fd5b5061010461081e565b3480156102f357600080fd5b50610294610824565b34801561030857600080fd5b506100ed600435151561082d565b34801561032257600080fd5b506100ed610857565b34801561033757600080fd5b506100ed600435610901565b34801561034f57600080fd5b5061010461091d565b34801561036457600080fd5b50610104610923565b34801561037957600080fd5b506100ed600160a060020a0360043516610929565b34801561039a57600080fd5b506103a660043561094c565b60408051600160a060020a03909316835260208301919091528051918290030190f35b600c5481565b6103d7611fea565b60085434146103e557600080fd5b600d5460ff161515610441576040805160e560020a62461bcd02815260206004820152601960248201527f4c6f7474657279206973206e6f7420616374697665206e6f7700000000000000604482015290519081900360640190fd5b61044a336107cc565b15156104a0576040805160e560020a62461bcd02815260206004820152601560248201527f4f6e6c79206f6e652062657420666f722067616d650000000000000000000000604482015290519081900360640190fd5b5060408051808201909152338152346020820152600a546001016104c5601082612001565b50600654336000908152600f6020526040902055600a8054600181019091556010805483929081106104f357fe5b60009182526020918290208351600292909202018054600160a060020a031916600160a060020a03909216919091178155910151600190910155506009805434019055565b6040805160008152602081019091526105549083908390610558565b5050565b610560610982565b600160a060020a031633146105bf576040805160e560020a62461bcd02815260206004820152601f60248201527f43616c6c6572206973206e6f74204f7261636c697a6520616464726573732100604482015290519081900360640190fd5b6000838152600e602052604090205460ff16151561064d576040805160e560020a62461bcd02815260206004820152602160248201527f51756572792068617320616c7265616479206265656e2070726f63657373656460448201527f2100000000000000000000000000000000000000000000000000000000000000606482015290519081900360840190fd5b6007548314156107535761066082610b78565b600c81905560408051918252517fb21238056034e0d6cc890938b808046968a29e77b2a3636793841ff76a92d9559181900360200190a16106a2600c54610b8b565b6106aa610c71565b6006805460010190556000838152600e6020908152604091829020805460ff1916905581518181526027918101919091527f4f7261636c697a6520636f6d7075746174696f6e207175657279207761732072818301527f6563656976656400000000000000000000000000000000000000000000000000606082015290517f65f6d9f82a5021bfe453af062212bd087691bf16e7152c3362628730368e20769181900360800190a15b505050565b60065481565b600054600160a060020a0316331461077557600080fd5b60008054604051600160a060020a03909116917ff8df31144d9c2f0f6b59d69b8b98abd5459d07f2742c4df920b25aae33c6482091a260008054600160a060020a0319169055565b600054600160a060020a031681565b600654600160a060020a0382166000908152600f602052604090205410919050565b600a5481565b600b5460009060640381811061081457600954606490048102915061081a565b60095491505b5090565b60095481565b600d5460ff1681565b600054600160a060020a0316331461084457600080fd5b600d805460ff1916911515919091179055565b600054600160a060020a0316331461086e57600080fd5b600a546000106108ed576040805160e560020a62461bcd028152602060048201526024808201527f506c617965727320636f756e74206d757374206265206772656174657220746860448201527f616e203000000000000000000000000000000000000000000000000000000000606482015290519081900360840190fd5b600d805460ff191690556108ff610c8a565b565b600054600160a060020a0316331461091857600080fd5b600b55565b600b5481565b60085481565b600054600160a060020a0316331461094057600080fd5b61094981611066565b50565b601080548290811061095a57fe5b600091825260209091206002909102018054600190910154600160a060020a03909116915082565b600154600090600160a060020a031615806109af57506001546109ad90600160a060020a03166110d6565b155b156109c0576109be60006110da565b505b600160009054906101000a9004600160a060020a0316600160a060020a03166338cc48316040518163ffffffff1660e060020a028152600401602060405180830381600087803b158015610a1357600080fd5b505af1158015610a27573d6000803e3d6000fd5b505050506040513d6020811015610a3d57600080fd5b5051600254600160a060020a03908116911614610af357600160009054906101000a9004600160a060020a0316600160a060020a03166338cc48316040518163ffffffff1660e060020a028152600401602060405180830381600087803b158015610aa757600080fd5b505af1158015610abb573d6000803e3d6000fd5b505050506040513d6020811015610ad157600080fd5b505160028054600160a060020a031916600160a060020a039092169190911790555b600260009054906101000a9004600160a060020a0316600160a060020a031663c281d19e6040518163ffffffff1660e060020a028152600401602060405180830381600087803b158015610b4657600080fd5b505af1158015610b5a573d6000803e3d6000fd5b505050506040513d6020811015610b7057600080fd5b505190505b90565b6000610b858260006110e4565b92915050565b610b93611fea565b6000601083815481101515610ba457fe5b6000918252602091829020604080518082019091526002909202018054600160a060020a0316825260010154918101919091529150610be16107f4565b8251909150600160a060020a031615610753578151604051600160a060020a039091169082156108fc029083906000818181858888f19350505050158015610c2d573d6000803e3d6000fd5b50815160408051600160a060020a039092168252517f97c59ca311d5f013c9ddfa2dfc788d6f13354cf7e885021c8c027379fa9fb9ec9181900360200190a1505050565b600d805460ff1916600117905560006009819055600a55565b60006001600a541115610f915760408051808201909152600b81527f636f6d7075746174696f6e0000000000000000000000000000000000000000006020820152303190610cdb90620493e0611256565b1115610d92576040805160208082526057908201527f4f7261636c697a6520636f6d7075746174696f6e20717565727920776173204e818301527f4f542073656e742c20706c656173652061646420736f6d652045544820746f2060608201527f636f76657220666f722074686520717565727920666565000000000000000000608082015290517f45216837f26a6836ade4e0969fe04657e771b5659940d6e0de811cb8d49580d69181900360a00190a1610949565b610ee16040805190810160405280600381526020017f55524c0000000000000000000000000000000000000000000000000000000000815250608060405190810160405280604381526020017f6a736f6e2868747470733a2f2f6170692e72616e646f6d2e6f72672f6a736f6e81526020017f2d7270632f312f696e766f6b65292e726573756c742e72616e646f6d2e64617481526020017f612e300000000000000000000000000000000000000000000000000000000000815250610ed860c060405190810160405280609281526020016120ed60929139610e76600a546114c7565b606060405190810160405280603781526020017f2c20227265706c6163656d656e74223a202274727565222c202262617365223a81526020017f20223130227d2c20226964223a2022313432313522207d0000000000000000008152506115ba565b620493e06115f1565b60078190556000818152600e6020908152604091829020805460ff1916600117905581518181526026918101919091527f4f7261636c697a6520636f6d7075746174696f6e207175657279207761732072818301527f6571756573740000000000000000000000000000000000000000000000000000606082015290519192507f9eb50eb597f28ea7ded26f0afa775a7ceccca822f45cfe5a16f8bdf4214a41c4919081900360800190a1610949565b600a546001141561094957601080546000908110610fab57fe5b60009182526020822060029091020154600954604051600160a060020a039092169281156108fc029290818181858888f19350505050158015610ff2573d6000803e3d6000fd5b50610ffb610c71565b600680546001019055601080547f97c59ca311d5f013c9ddfa2dfc788d6f13354cf7e885021c8c027379fa9fb9ec9190600090811061103657fe5b60009182526020918290206002909102015460408051600160a060020a039092168252519081900390910190a150565b600160a060020a038116151561107b57600080fd5b60008054604051600160a060020a03808516939216917f8be0079c531659141344cd1fd0a4f28419497f9722a3daafe3b4186f6b6457e091a360008054600160a060020a031916600160a060020a0392909216919091179055565b3b90565b6000610b85611a54565b6000828180805b83518110156112395783517f30000000000000000000000000000000000000000000000000000000000000009085908390811061112457fe5b90602001015160f860020a900460f860020a02600160f860020a0319161015801561119a575083517f39000000000000000000000000000000000000000000000000000000000000009085908390811061117a57fe5b90602001015160f860020a900460f860020a02600160f860020a03191611155b156111f35781156111b9578515156111b157611239565b600019909501945b600a83029250603084828151811015156111cf57fe5b90602001015160f860020a900460f860020a0260f860020a90040383019250611231565b838181518110151561120157fe5b90602001015160f860020a900460f860020a02600160f860020a031916602e60f860020a02141561123157600191505b6001016110eb565b600086111561124b5785600a0a830292505b509095945050505050565b600154600090600160a060020a03161580611283575060015461128190600160a060020a03166110d6565b155b156112945761129260006110da565b505b600160009054906101000a9004600160a060020a0316600160a060020a03166338cc48316040518163ffffffff1660e060020a028152600401602060405180830381600087803b1580156112e757600080fd5b505af11580156112fb573d6000803e3d6000fd5b505050506040513d602081101561131157600080fd5b5051600254600160a060020a039081169116146113c757600160009054906101000a9004600160a060020a0316600160a060020a03166338cc48316040518163ffffffff1660e060020a028152600401602060405180830381600087803b15801561137b57600080fd5b505af115801561138f573d6000803e3d6000fd5b505050506040513d60208110156113a557600080fd5b505160028054600160a060020a031916600160a060020a039092169190911790555b600254604080517f2ef3accc0000000000000000000000000000000000000000000000000000000081526024810185905260048101918252855160448201528551600160a060020a0390931692632ef3accc9287928792829160640190602086019080838360005b8381101561144757818101518382015260200161142f565b50505050905090810190601f1680156114745780820380516001836020036101000a031916815260200191505b509350505050602060405180830381600087803b15801561149457600080fd5b505af11580156114a8573d6000803e3d6000fd5b505050506040513d60208110156114be57600080fd5b50519392505050565b606060008082818515156115105760408051808201909152600181527f3000000000000000000000000000000000000000000000000000000000000000602082015294506115b1565b8593505b831561152b57600190920191600a84049350611514565b826040519080825280601f01601f191660200182016040528015611559578160200160208202803883390190505b5091505060001982015b85156115ad57815160001982019160f860020a6030600a8a06010291849190811061158a57fe5b906020010190600160f860020a031916908160001a905350600a86049550611563565b8194505b50505050919050565b60606115e984848460206040519081016040528060008152506020604051908101604052806000815250611d76565b949350505050565b6001546000908190600160a060020a03161580611620575060015461161e90600160a060020a03166110d6565b155b156116315761162f60006110da565b505b600160009054906101000a9004600160a060020a0316600160a060020a03166338cc48316040518163ffffffff1660e060020a028152600401602060405180830381600087803b15801561168457600080fd5b505af1158015611698573d6000803e3d6000fd5b505050506040513d60208110156116ae57600080fd5b5051600254600160a060020a0390811691161461176457600160009054906101000a9004600160a060020a0316600160a060020a03166338cc48316040518163ffffffff1660e060020a028152600401602060405180830381600087803b15801561171857600080fd5b505af115801561172c573d6000803e3d6000fd5b505050506040513d602081101561174257600080fd5b505160028054600160a060020a031916600160a060020a039092169190911790555b600254604080517f2ef3accc0000000000000000000000000000000000000000000000000000000081526024810186905260048101918252885160448201528851600160a060020a0390931692632ef3accc928a928892829160640190602086019080838360005b838110156117e45781810151838201526020016117cc565b50505050905090810190601f1680156118115780820380516001836020036101000a031916815260200191505b509350505050602060405180830381600087803b15801561183157600080fd5b505af1158015611845573d6000803e3d6000fd5b505050506040513d602081101561185b57600080fd5b50519050670de0b6b3a76400003a84020181111561187c5760009150611a4b565b600260009054906101000a9004600160a060020a0316600160a060020a03166385dee34c826000898989896040518763ffffffff1660e060020a02815260040180868152602001806020018060200180602001858152602001848103845288818151815260200191508051906020019080838360005b8381101561190a5781810151838201526020016118f2565b50505050905090810190601f1680156119375780820380516001836020036101000a031916815260200191505b50848103835287518152875160209182019189019080838360005b8381101561196a578181015183820152602001611952565b50505050905090810190601f1680156119975780820380516001836020036101000a031916815260200191505b50848103825286518152865160209182019188019080838360005b838110156119ca5781810151838201526020016119b2565b50505050905090810190601f1680156119f75780820380516001836020036101000a031916815260200191505b50985050505050505050506020604051808303818588803b158015611a1b57600080fd5b505af1158015611a2f573d6000803e3d6000fd5b50505050506040513d6020811015611a4657600080fd5b505191505b50949350505050565b600080611a74731d3b2638a7cc9f2cb3d298a3da7a90b67e5506ed6110d6565b1115611ae55760018054600160a060020a031916731d3b2638a7cc9f2cb3d298a3da7a90b67e5506ed17905560408051808201909152600b81527f6574685f6d61696e6e65740000000000000000000000000000000000000000006020820152611add90611fd7565b506001610b75565b6000611b0473c03a2615d5efaf5f49f60b7bb6583eaec212fdf16110d6565b1115611b6d5760018054600160a060020a03191673c03a2615d5efaf5f49f60b7bb6583eaec212fdf117905560408051808201909152600c81527f6574685f726f707374656e3300000000000000000000000000000000000000006020820152611add90611fd7565b6000611b8c73b7a07bcf2ba2f2703b24c0691b5278999c59ac7e6110d6565b1115611bf55760018054600160a060020a03191673b7a07bcf2ba2f2703b24c0691b5278999c59ac7e17905560408051808201909152600981527f6574685f6b6f76616e00000000000000000000000000000000000000000000006020820152611add90611fd7565b6000611c1473146500cfd35b22e4a392fe0adc06de1a1368ed486110d6565b1115611c7d5760018054600160a060020a03191673146500cfd35b22e4a392fe0adc06de1a1368ed4817905560408051808201909152600b81527f6574685f72696e6b6562790000000000000000000000000000000000000000006020820152611add90611fd7565b6000611c9c736f485c8bf6fc43ea212e93bbf8ce046c7f1cb4756110d6565b1115611cce575060018054600160a060020a031916736f485c8bf6fc43ea212e93bbf8ce046c7f1cb475178155610b75565b6000611ced7320e12a1f859b3feae5fb2a0a32c18f5a65555bbf6110d6565b1115611d1f575060018054600160a060020a0319167320e12a1f859b3feae5fb2a0a32c18f5a65555bbf178155610b75565b6000611d3e7351efaf4c8b3c9afbd5ab9f4bbc82784ab6ef8faa6110d6565b1115611d70575060018054600160a060020a0319167351efaf4c8b3c9afbd5ab9f4bbc82784ab6ef8faa178155610b75565b50600090565b6060806060806060806060806000808e98508d97508c96508b95508a94508451865188518a518c51010101016040519080825280601f01601f191660200182016040528015611dcf578160200160208202803883390190505b50935083925060009150600090505b8851811015611e3c578881815181101515611df557fe5b90602001015160f860020a900460f860020a028383806001019450815181101515611e1c57fe5b906020010190600160f860020a031916908160001a905350600101611dde565b5060005b8751811015611e9e578781815181101515611e5757fe5b90602001015160f860020a900460f860020a028383806001019450815181101515611e7e57fe5b906020010190600160f860020a031916908160001a905350600101611e40565b5060005b8651811015611f00578681815181101515611eb957fe5b90602001015160f860020a900460f860020a028383806001019450815181101515611ee057fe5b906020010190600160f860020a031916908160001a905350600101611ea2565b5060005b8551811015611f62578581815181101515611f1b57fe5b90602001015160f860020a900460f860020a028383806001019450815181101515611f4257fe5b906020010190600160f860020a031916908160001a905350600101611f04565b5060005b8451811015611fc4578481815181101515611f7d57fe5b90602001015160f860020a900460f860020a028383806001019450815181101515611fa457fe5b906020010190600160f860020a031916908160001a905350600101611f66565b50909d9c50505050505050505050505050565b805161055490600390602084019061202d565b604080518082019091526000808252602082015290565b8154818355818111156107535760020281600202836000526020600020918201910161075391906120a7565b828054600181600116156101000203166002900490600052602060002090601f016020900481019282601f1061206e57805160ff191683800117855561209b565b8280016001018555821561209b579182015b8281111561209b578251825591602001919060010190612080565b5061081a9291506120d2565b610b7591905b8082111561081a578054600160a060020a0319168155600060018201556002016120ad565b610b7591905b8082111561081a57600081556001016120d856000a7b226a736f6e727063223a2022322e30222c20226d6574686f64223a202267656e65726174655369676e6564496e746567657273222c2022706172616d73223a207b226170694b6579223a202231316330633331632d326532362d346239342d393433612d373032646565393365663838222c20226e223a202231222c20226d696e223a202230222c20226d6178223a20a165627a7a72305820f7c19384c2df7df0a39b47e9d8b690dd35de325c20ea179b04b30218b771e8720029",
  "source": "pragma solidity ^0.4.24;\n\nimport './lib/oraclizeAPI.sol';\nimport 'openzeppelin-solidity/contracts/ownership/Ownable.sol';\n\ncontract Lottery is Ownable, usingOraclize {\n\t\n\tevent event_log(string str);\n\tevent event_log_uint(uint elu);\n\tevent event_random_query_request(string rqreq);\n\tevent event_random_query_result(string rqres);\n\tevent event_transfer(address t);\n\tevent event_error(string e);\n\n\t// lottery couner\n\tuint public counter;\n\n\t// next query id\n\tbytes32 nextQueryId;\n\n\t// player bet\n\tuint public equalBet;\n\n\tuint public totalBalance;\n\tuint public playersCount;\n\n\t// lottery percent comission\n\tuint public commission;\n\n\t// generating random number\n\tuint public rndNumber; \n\n\t// disable players bet when process oraclize request\n\tbool public isLotteryActive;\n\tuint constant ORACLIZE_GAS_LIMIT = 300000;\n\n\tstruct Player {\n\t\taddress recipient;\n\t\tuint value;\n\t}\n\n\tmapping(bytes32 => bool) pendingQueries; //oraclize queries\n\tmapping(address => uint) playersList; //mapping for counter\n\tPlayer[] public players;\n\n\tconstructor(uint _equalBet, uint _commission) public payable {\n\t\toraclize_setProof(proofType_TLSNotary | proofStorage_IPFS);\n\n\t\tcounter = 1;\n\t\tequalBet = _equalBet;\n\t\tcommission = _commission;\n\t\tisLotteryActive = true;\n\t}\n\n\tfunction bet() public payable {\n\t\trequire(msg.value == equalBet);\n\t\trequire(isLotteryActive, 'Lottery is not active now');\n\t\trequire(isPlayerNotReBid(msg.sender), 'Only one bet for game');\n\n\t\tPlayer memory newPlayer = Player({\n\t\t\trecipient: msg.sender,\n\t\t\tvalue: msg.value\n\t\t});\n\t\tplayers.length = playersCount + 1;\n\n\t\tplayersList[msg.sender] = counter;\n\t\tplayers[playersCount++] = newPlayer;\n\t\ttotalBalance += msg.value;\n\t}\n\t\n\tfunction determineWinner() private {\n\t\tif (playersCount > 1){\n\t\t\tif (oraclize_getPrice('computation', ORACLIZE_GAS_LIMIT) > address(this).balance) {\n\t\t\t\temit event_error('Oraclize computation query was NOT sent, please add some ETH to cover for the query fee');\n\t\t\t\treturn;\n\t\t\t}\n\n\t\t\tbytes32 queryId = oraclize_query(\n\t\t\t\t'URL',\n\t\t\t\t'json(https://api.random.org/json-rpc/1/invoke).result.random.data.0',\n\t\t\t\tstrConcat('\\n{\"jsonrpc\": \"2.0\", \"method\": \"generateSignedIntegers\", \"params\": {\"apiKey\": \"11c0c31c-2e26-4b94-943a-702dee93ef88\", \"n\": \"1\", \"min\": \"0\", \"max\": ', uint2str(playersCount), ', \"replacement\": \"true\", \"base\": \"10\"}, \"id\": \"14215\" }'),\n\t\t\t\tORACLIZE_GAS_LIMIT\n\t\t\t);\n\n\t\t\tnextQueryId = queryId;\n\t\t\tpendingQueries[queryId] = true;\n\t\t\temit event_random_query_request('Oraclize computation query was request');\n\t\t} else if (playersCount == 1){\n\t\t\tplayers[0].recipient.transfer(totalBalance);\n\t\t\treset();\n\t\t\tcounter++; // increment lottery counter\n\t\t\temit event_transfer(players[0].recipient);\n\t\t}\t\n\t}\n\n\tfunction __callback(bytes32 myid, string result, bytes proof) public {\n\t\trequire(msg.sender == oraclize_cbAddress(), 'Caller is not Oraclize address!');\n        require(pendingQueries[myid], 'Query has already been processed!');\n\n        if (nextQueryId == myid){ // for avoid overlay oraclize queries\n        \trndNumber = parseInt(result);\n        \temit event_log_uint(rndNumber);\n\t\t\tdistributeFunds(rndNumber);\n\t\t\treset();\n\t\t\tcounter++; // increment lottery counter\n\t\t\tdelete pendingQueries[myid];\n\t\t\temit event_random_query_result('Oraclize computation query was received');\n        }\n\t}\n\n\tfunction distributeFunds(uint winningNumber) private {\n\t\tPlayer memory wPlayer = players[winningNumber];\n\t\tuint prizeToDistribute = calculateTotalPrize();\n\n\t\tif (wPlayer.recipient != address(0)){\n\t\t\twPlayer.recipient.transfer(prizeToDistribute);\n\t\t\temit event_transfer(wPlayer.recipient);\n\t\t}\n\t}\n\n\tfunction calculateTotalPrize() public constant returns (uint){\n\t\tuint totalPercent = 100 - commission;\n\t\tif (totalPercent >= 0){\n\t\t\treturn (totalBalance / 100) * totalPercent;\n\t\t}\n\t\treturn totalBalance;\n\t}\n\n\n\tfunction invoke() public onlyOwner {\n\t\trequire(playersCount > 0, 'Players count must be greater than 0');\n\t\tisLotteryActive = false;\n\t\tdetermineWinner();\n\t}\n\n\tfunction reset() private {\n\t\tisLotteryActive = true;\n\t\ttotalBalance = 0;\n\t\tplayersCount = 0;\n\t}\n\n\tfunction changeCommission(uint _commission) public onlyOwner {\n\t\tcommission = _commission;\n\t}\n\n\tfunction changeLotteryActive(bool _isLotteryActive) public onlyOwner {\n\t\tisLotteryActive = _isLotteryActive;\n\t}\n\n\tfunction isPlayerNotReBid(address _sender) public view returns (bool) {\n\t\treturn playersList[_sender] < counter;\n\t}\n\n\t//catch ether\n\tfunction() public payable {}\n}\n",
  "sourcePath": "/home/explomat/blockchain/rndeth/contracts/Lottery.sol",
  "compiler": {
    "name": "solc",
    "version": "0.4.24+commit.e67f0147.Emscripten.clang"
  },
  "schemaVersion": "2.0.1",
  "updatedAt": "2018-11-17T14:57:38.933Z"
}