{
  "contractName": "LotteryDaily",
  "abi": [
    {
      "constant": true,
      "inputs": [],
      "name": "rndNumber",
      "outputs": [
        {
          "name": "",
          "type": "uint256"
        }
      ],
      "payable": false,
      "stateMutability": "view",
      "type": "function"
    },
    {
      "constant": false,
      "inputs": [],
      "name": "bet",
      "outputs": [],
      "payable": true,
      "stateMutability": "payable",
      "type": "function"
    },
    {
      "constant": false,
      "inputs": [
        {
          "name": "myid",
          "type": "bytes32"
        },
        {
          "name": "result",
          "type": "string"
        }
      ],
      "name": "__callback",
      "outputs": [],
      "payable": false,
      "stateMutability": "nonpayable",
      "type": "function"
    },
    {
      "constant": false,
      "inputs": [
        {
          "name": "myid",
          "type": "bytes32"
        },
        {
          "name": "result",
          "type": "string"
        },
        {
          "name": "proof",
          "type": "bytes"
        }
      ],
      "name": "__callback",
      "outputs": [],
      "payable": false,
      "stateMutability": "nonpayable",
      "type": "function"
    },
    {
      "constant": true,
      "inputs": [],
      "name": "counter",
      "outputs": [
        {
          "name": "",
          "type": "uint256"
        }
      ],
      "payable": false,
      "stateMutability": "view",
      "type": "function"
    },
    {
      "constant": false,
      "inputs": [],
      "name": "renounceOwnership",
      "outputs": [],
      "payable": false,
      "stateMutability": "nonpayable",
      "type": "function"
    },
    {
      "constant": true,
      "inputs": [],
      "name": "owner",
      "outputs": [
        {
          "name": "",
          "type": "address"
        }
      ],
      "payable": false,
      "stateMutability": "view",
      "type": "function"
    },
    {
      "constant": true,
      "inputs": [
        {
          "name": "_sender",
          "type": "address"
        }
      ],
      "name": "isPlayerNotReBid",
      "outputs": [
        {
          "name": "",
          "type": "bool"
        }
      ],
      "payable": false,
      "stateMutability": "view",
      "type": "function"
    },
    {
      "constant": true,
      "inputs": [],
      "name": "playersCount",
      "outputs": [
        {
          "name": "",
          "type": "uint256"
        }
      ],
      "payable": false,
      "stateMutability": "view",
      "type": "function"
    },
    {
      "constant": true,
      "inputs": [],
      "name": "calculateTotalPrize",
      "outputs": [
        {
          "name": "",
          "type": "uint256"
        }
      ],
      "payable": false,
      "stateMutability": "view",
      "type": "function"
    },
    {
      "constant": true,
      "inputs": [],
      "name": "totalBalance",
      "outputs": [
        {
          "name": "",
          "type": "uint256"
        }
      ],
      "payable": false,
      "stateMutability": "view",
      "type": "function"
    },
    {
      "constant": true,
      "inputs": [],
      "name": "isLotteryActive",
      "outputs": [
        {
          "name": "",
          "type": "bool"
        }
      ],
      "payable": false,
      "stateMutability": "view",
      "type": "function"
    },
    {
      "constant": false,
      "inputs": [
        {
          "name": "_isLotteryActive",
          "type": "bool"
        }
      ],
      "name": "changeLotteryActive",
      "outputs": [],
      "payable": false,
      "stateMutability": "nonpayable",
      "type": "function"
    },
    {
      "constant": false,
      "inputs": [],
      "name": "invoke",
      "outputs": [],
      "payable": false,
      "stateMutability": "nonpayable",
      "type": "function"
    },
    {
      "constant": false,
      "inputs": [
        {
          "name": "_commission",
          "type": "uint256"
        }
      ],
      "name": "changeCommission",
      "outputs": [],
      "payable": false,
      "stateMutability": "nonpayable",
      "type": "function"
    },
    {
      "constant": true,
      "inputs": [],
      "name": "commission",
      "outputs": [
        {
          "name": "",
          "type": "uint256"
        }
      ],
      "payable": false,
      "stateMutability": "view",
      "type": "function"
    },
    {
      "constant": true,
      "inputs": [],
      "name": "equalBet",
      "outputs": [
        {
          "name": "",
          "type": "uint256"
        }
      ],
      "payable": false,
      "stateMutability": "view",
      "type": "function"
    },
    {
      "constant": false,
      "inputs": [
        {
          "name": "_newOwner",
          "type": "address"
        }
      ],
      "name": "transferOwnership",
      "outputs": [],
      "payable": false,
      "stateMutability": "nonpayable",
      "type": "function"
    },
    {
      "constant": true,
      "inputs": [],
      "name": "TIMEOUT",
      "outputs": [
        {
          "name": "",
          "type": "uint256"
        }
      ],
      "payable": false,
      "stateMutability": "view",
      "type": "function"
    },
    {
      "constant": true,
      "inputs": [
        {
          "name": "",
          "type": "uint256"
        }
      ],
      "name": "players",
      "outputs": [
        {
          "name": "recipient",
          "type": "address"
        },
        {
          "name": "value",
          "type": "uint256"
        }
      ],
      "payable": false,
      "stateMutability": "view",
      "type": "function"
    },
    {
      "inputs": [
        {
          "name": "_equalBet",
          "type": "uint256"
        },
        {
          "name": "_commission",
          "type": "uint256"
        }
      ],
      "payable": true,
      "stateMutability": "payable",
      "type": "constructor"
    },
    {
      "payable": true,
      "stateMutability": "payable",
      "type": "fallback"
    },
    {
      "anonymous": false,
      "inputs": [
        {
          "indexed": false,
          "name": "str",
          "type": "string"
        }
      ],
      "name": "event_log",
      "type": "event"
    },
    {
      "anonymous": false,
      "inputs": [
        {
          "indexed": false,
          "name": "elu",
          "type": "uint256"
        }
      ],
      "name": "event_log_uint",
      "type": "event"
    },
    {
      "anonymous": false,
      "inputs": [
        {
          "indexed": false,
          "name": "rqreq",
          "type": "string"
        }
      ],
      "name": "event_random_query_request",
      "type": "event"
    },
    {
      "anonymous": false,
      "inputs": [
        {
          "indexed": false,
          "name": "rqres",
          "type": "string"
        }
      ],
      "name": "event_random_query_result",
      "type": "event"
    },
    {
      "anonymous": false,
      "inputs": [
        {
          "indexed": false,
          "name": "t",
          "type": "address"
        }
      ],
      "name": "event_transfer",
      "type": "event"
    },
    {
      "anonymous": false,
      "inputs": [
        {
          "indexed": false,
          "name": "e",
          "type": "string"
        }
      ],
      "name": "event_error",
      "type": "event"
    },
    {
      "anonymous": false,
      "inputs": [
        {
          "indexed": true,
          "name": "previousOwner",
          "type": "address"
        }
      ],
      "name": "OwnershipRenounced",
      "type": "event"
    },
    {
      "anonymous": false,
      "inputs": [
        {
          "indexed": true,
          "name": "previousOwner",
          "type": "address"
        },
        {
          "indexed": true,
          "name": "newOwner",
          "type": "address"
        }
      ],
      "name": "OwnershipTransferred",
      "type": "event"
    }
  ],
  "bytecode": "0x60806040818152806200294b83398101604052805160209091015160008054600160a060020a031916331790558181620000627f110000000000000000000000000000000000000000000000000000000000000064010000000062000088810204565b60016006819055600892909255600b55600d805460ff19169091179055506200076c9050565b600154600160a060020a03161580620000be5750600154620000bc90600160a060020a0316640100000000620002eb810204565b155b15620000db57620000d96000640100000000620002ef810204565b505b600160009054906101000a9004600160a060020a0316600160a060020a03166338cc48316040518163ffffffff167c0100000000000000000000000000000000000000000000000000000000028152600401602060405180830381600087803b1580156200014857600080fd5b505af11580156200015d573d6000803e3d6000fd5b505050506040513d60208110156200017457600080fd5b5051600254600160a060020a039081169116146200024757600160009054906101000a9004600160a060020a0316600160a060020a03166338cc48316040518163ffffffff167c0100000000000000000000000000000000000000000000000000000000028152600401602060405180830381600087803b158015620001f957600080fd5b505af11580156200020e573d6000803e3d6000fd5b505050506040513d60208110156200022557600080fd5b505160028054600160a060020a031916600160a060020a039092169190911790555b600254604080517f688dcfd70000000000000000000000000000000000000000000000000000000081527fff00000000000000000000000000000000000000000000000000000000000000841660048201529051600160a060020a039092169163688dcfd79160248082019260009290919082900301818387803b158015620002cf57600080fd5b505af1158015620002e4573d6000803e3d6000fd5b5050505050565b3b90565b6000620003046401000000006200030a810204565b92915050565b60008062000335731d3b2638a7cc9f2cb3d298a3da7a90b67e5506ed640100000000620002eb810204565b1115620003b35760018054600160a060020a031916731d3b2638a7cc9f2cb3d298a3da7a90b67e5506ed17905560408051808201909152600b81527f6574685f6d61696e6e65740000000000000000000000000000000000000000006020820152620003aa90640100000000620006b1810204565b506001620006ae565b6000620003dd73c03a2615d5efaf5f49f60b7bb6583eaec212fdf1640100000000620002eb810204565b1115620004525760018054600160a060020a03191673c03a2615d5efaf5f49f60b7bb6583eaec212fdf117905560408051808201909152600c81527f6574685f726f707374656e3300000000000000000000000000000000000000006020820152620003aa90640100000000620006b1810204565b60006200047c73b7a07bcf2ba2f2703b24c0691b5278999c59ac7e640100000000620002eb810204565b1115620004f15760018054600160a060020a03191673b7a07bcf2ba2f2703b24c0691b5278999c59ac7e17905560408051808201909152600981527f6574685f6b6f76616e00000000000000000000000000000000000000000000006020820152620003aa90640100000000620006b1810204565b60006200051b73146500cfd35b22e4a392fe0adc06de1a1368ed48640100000000620002eb810204565b1115620005905760018054600160a060020a03191673146500cfd35b22e4a392fe0adc06de1a1368ed4817905560408051808201909152600b81527f6574685f72696e6b6562790000000000000000000000000000000000000000006020820152620003aa90640100000000620006b1810204565b6000620005ba736f485c8bf6fc43ea212e93bbf8ce046c7f1cb475640100000000620002eb810204565b1115620005ee575060018054600160a060020a031916736f485c8bf6fc43ea212e93bbf8ce046c7f1cb475178155620006ae565b6000620006187320e12a1f859b3feae5fb2a0a32c18f5a65555bbf640100000000620002eb810204565b11156200064c575060018054600160a060020a0319167320e12a1f859b3feae5fb2a0a32c18f5a65555bbf178155620006ae565b6000620006767351efaf4c8b3c9afbd5ab9f4bbc82784ab6ef8faa640100000000620002eb810204565b1115620006aa575060018054600160a060020a0319167351efaf4c8b3c9afbd5ab9f4bbc82784ab6ef8faa178155620006ae565b5060005b90565b8051620006c6906003906020840190620006ca565b5050565b828054600181600116156101000203166002900490600052602060002090601f016020900481019282601f106200070d57805160ff19168380011785556200073d565b828001600101855582156200073d579182015b828111156200073d57825182559160200191906001019062000720565b506200074b9291506200074f565b5090565b620006ae91905b808211156200074b576000815560010162000756565b6121cf806200077c6000396000f3006080604052600436106100f85763ffffffff60e060020a60003504166307dd96f781146100fa57806311610c251461012157806327dc297e1461012957806338bbfa501461018757806361bc221a14610223578063715018a6146102385780638da5cb5b1461024d5780639ac34a0e1461027e578063a3f67d6d146102b3578063ab8078c6146102c8578063ad7a672f146102dd578063c3b69ebb146102f2578063c4bc647614610307578063cab7f52114610321578063df922f3a14610336578063e14891911461034e578063ef9a224214610363578063f2fde38b14610378578063f56f48f214610399578063f71d96cb146103ae575b005b34801561010657600080fd5b5061010f6103e9565b60408051918252519081900360200190f35b6100f86103ef565b34801561013557600080fd5b5060408051602060046024803582810135601f81018590048502860185019096528585526100f89583359536956044949193909101919081908401838280828437509497506105589650505050505050565b34801561019357600080fd5b5060408051602060046024803582810135601f81018590048502860185019096528585526100f895833595369560449491939091019190819084018382808284375050604080516020601f89358b018035918201839004830284018301909452808352979a9998810197919650918201945092508291508401838280828437509497506105789650505050505050565b34801561022f57600080fd5b5061010f610778565b34801561024457600080fd5b506100f861077e565b34801561025957600080fd5b506102626107dd565b60408051600160a060020a039092168252519081900360200190f35b34801561028a57600080fd5b5061029f600160a060020a03600435166107ec565b604080519115158252519081900360200190f35b3480156102bf57600080fd5b5061010f61080e565b3480156102d457600080fd5b5061010f610814565b3480156102e957600080fd5b5061010f61083e565b3480156102fe57600080fd5b5061029f610844565b34801561031357600080fd5b506100f8600435151561084d565b34801561032d57600080fd5b506100f8610877565b34801561034257600080fd5b506100f8600435610921565b34801561035a57600080fd5b5061010f61093d565b34801561036f57600080fd5b5061010f610943565b34801561038457600080fd5b506100f8600160a060020a0360043516610949565b3480156103a557600080fd5b5061010f61096c565b3480156103ba57600080fd5b506103c6600435610971565b60408051600160a060020a03909316835260208301919091528051918290030190f35b600c5481565b6103f761200f565b600854341461040557600080fd5b600d5460ff161515610461576040805160e560020a62461bcd02815260206004820152601960248201527f4c6f7474657279206973206e6f7420616374697665206e6f7700000000000000604482015290519081900360640190fd5b61046a336107ec565b15156104c0576040805160e560020a62461bcd02815260206004820152601560248201527f4f6e6c79206f6e652062657420666f722067616d650000000000000000000000604482015290519081900360640190fd5b5060408051808201909152338152346020820152600a546001016104e5601082612026565b50600654336000908152600f6020526040902055600a80546001810190915560108054839290811061051357fe5b60009182526020918290208351600292909202018054600160a060020a031916600160a060020a03909216919091178155910151600190910155506009805434019055565b6040805160008152602081019091526105749083908390610578565b5050565b6105806109a7565b600160a060020a031633146105df576040805160e560020a62461bcd02815260206004820152601f60248201527f43616c6c6572206973206e6f74204f7261636c697a6520616464726573732100604482015290519081900360640190fd5b6000838152600e602052604090205460ff16151561066d576040805160e560020a62461bcd02815260206004820152602160248201527f51756572792068617320616c7265616479206265656e2070726f63657373656460448201527f2100000000000000000000000000000000000000000000000000000000000000606482015290519081900360840190fd5b6007548314156107735761068082610b9d565b600c81905560408051918252517fb21238056034e0d6cc890938b808046968a29e77b2a3636793841ff76a92d9559181900360200190a16106c2600c54610bb0565b6106ca610c96565b6006805460010190556000838152600e6020908152604091829020805460ff1916905581518181526027918101919091527f4f7261636c697a6520636f6d7075746174696f6e207175657279207761732072818301527f6563656976656400000000000000000000000000000000000000000000000000606082015290517f65f6d9f82a5021bfe453af062212bd087691bf16e7152c3362628730368e20769181900360800190a15b505050565b60065481565b600054600160a060020a0316331461079557600080fd5b60008054604051600160a060020a03909116917ff8df31144d9c2f0f6b59d69b8b98abd5459d07f2742c4df920b25aae33c6482091a260008054600160a060020a0319169055565b600054600160a060020a031681565b600654600160a060020a0382166000908152600f602052604090205410919050565b600a5481565b600b5460009060640381811061083457600954606490048102915061083a565b60095491505b5090565b60095481565b600d5460ff1681565b600054600160a060020a0316331461086457600080fd5b600d805460ff1916911515919091179055565b600054600160a060020a0316331461088e57600080fd5b600a5460001061090d576040805160e560020a62461bcd028152602060048201526024808201527f506c617965727320636f756e74206d757374206265206772656174657220746860448201527f616e203000000000000000000000000000000000000000000000000000000000606482015290519081900360840190fd5b600d805460ff1916905561091f610caf565b565b600054600160a060020a0316331461093857600080fd5b600b55565b600b5481565b60085481565b600054600160a060020a0316331461096057600080fd5b6109698161108b565b50565b600181565b601080548290811061097f57fe5b600091825260209091206002909102018054600190910154600160a060020a03909116915082565b600154600090600160a060020a031615806109d457506001546109d290600160a060020a03166110fb565b155b156109e5576109e360006110ff565b505b600160009054906101000a9004600160a060020a0316600160a060020a03166338cc48316040518163ffffffff1660e060020a028152600401602060405180830381600087803b158015610a3857600080fd5b505af1158015610a4c573d6000803e3d6000fd5b505050506040513d6020811015610a6257600080fd5b5051600254600160a060020a03908116911614610b1857600160009054906101000a9004600160a060020a0316600160a060020a03166338cc48316040518163ffffffff1660e060020a028152600401602060405180830381600087803b158015610acc57600080fd5b505af1158015610ae0573d6000803e3d6000fd5b505050506040513d6020811015610af657600080fd5b505160028054600160a060020a031916600160a060020a039092169190911790555b600260009054906101000a9004600160a060020a0316600160a060020a031663c281d19e6040518163ffffffff1660e060020a028152600401602060405180830381600087803b158015610b6b57600080fd5b505af1158015610b7f573d6000803e3d6000fd5b505050506040513d6020811015610b9557600080fd5b505190505b90565b6000610baa826000611109565b92915050565b610bb861200f565b6000601083815481101515610bc957fe5b6000918252602091829020604080518082019091526002909202018054600160a060020a0316825260010154918101919091529150610c06610814565b8251909150600160a060020a031615610773578151604051600160a060020a039091169082156108fc029083906000818181858888f19350505050158015610c52573d6000803e3d6000fd5b50815160408051600160a060020a039092168252517f97c59ca311d5f013c9ddfa2dfc788d6f13354cf7e885021c8c027379fa9fb9ec9181900360200190a1505050565b600d805460ff1916600117905560006009819055600a55565b60006001600a541115610fb65760408051808201909152600b81527f636f6d7075746174696f6e0000000000000000000000000000000000000000006020820152303190610d0090620493e061127b565b1115610db7576040805160208082526057908201527f4f7261636c697a6520636f6d7075746174696f6e20717565727920776173204e818301527f4f542073656e742c20706c656173652061646420736f6d652045544820746f2060608201527f636f76657220666f722074686520717565727920666565000000000000000000608082015290517f45216837f26a6836ade4e0969fe04657e771b5659940d6e0de811cb8d49580d69181900360a00190a1610969565b610f066040805190810160405280600381526020017f55524c0000000000000000000000000000000000000000000000000000000000815250608060405190810160405280604381526020017f6a736f6e2868747470733a2f2f6170692e72616e646f6d2e6f72672f6a736f6e81526020017f2d7270632f312f696e766f6b65292e726573756c742e72616e646f6d2e64617481526020017f612e300000000000000000000000000000000000000000000000000000000000815250610efd60c0604051908101604052806092815260200161211260929139610e9b600a546114ec565b606060405190810160405280603781526020017f2c20227265706c6163656d656e74223a202274727565222c202262617365223a81526020017f20223130227d2c20226964223a2022313432313522207d0000000000000000008152506115df565b620493e0611616565b60078190556000818152600e6020908152604091829020805460ff1916600117905581518181526026918101919091527f4f7261636c697a6520636f6d7075746174696f6e207175657279207761732072818301527f6571756573740000000000000000000000000000000000000000000000000000606082015290519192507f9eb50eb597f28ea7ded26f0afa775a7ceccca822f45cfe5a16f8bdf4214a41c4919081900360800190a1610969565b600a546001141561096957601080546000908110610fd057fe5b60009182526020822060029091020154600954604051600160a060020a039092169281156108fc029290818181858888f19350505050158015611017573d6000803e3d6000fd5b50611020610c96565b600680546001019055601080547f97c59ca311d5f013c9ddfa2dfc788d6f13354cf7e885021c8c027379fa9fb9ec9190600090811061105b57fe5b60009182526020918290206002909102015460408051600160a060020a039092168252519081900390910190a150565b600160a060020a03811615156110a057600080fd5b60008054604051600160a060020a03808516939216917f8be0079c531659141344cd1fd0a4f28419497f9722a3daafe3b4186f6b6457e091a360008054600160a060020a031916600160a060020a0392909216919091179055565b3b90565b6000610baa611a79565b6000828180805b835181101561125e5783517f30000000000000000000000000000000000000000000000000000000000000009085908390811061114957fe5b90602001015160f860020a900460f860020a02600160f860020a031916101580156111bf575083517f39000000000000000000000000000000000000000000000000000000000000009085908390811061119f57fe5b90602001015160f860020a900460f860020a02600160f860020a03191611155b156112185781156111de578515156111d65761125e565b600019909501945b600a83029250603084828151811015156111f457fe5b90602001015160f860020a900460f860020a0260f860020a90040383019250611256565b838181518110151561122657fe5b90602001015160f860020a900460f860020a02600160f860020a031916602e60f860020a02141561125657600191505b600101611110565b60008611156112705785600a0a830292505b509095945050505050565b600154600090600160a060020a031615806112a857506001546112a690600160a060020a03166110fb565b155b156112b9576112b760006110ff565b505b600160009054906101000a9004600160a060020a0316600160a060020a03166338cc48316040518163ffffffff1660e060020a028152600401602060405180830381600087803b15801561130c57600080fd5b505af1158015611320573d6000803e3d6000fd5b505050506040513d602081101561133657600080fd5b5051600254600160a060020a039081169116146113ec57600160009054906101000a9004600160a060020a0316600160a060020a03166338cc48316040518163ffffffff1660e060020a028152600401602060405180830381600087803b1580156113a057600080fd5b505af11580156113b4573d6000803e3d6000fd5b505050506040513d60208110156113ca57600080fd5b505160028054600160a060020a031916600160a060020a039092169190911790555b600254604080517f2ef3accc0000000000000000000000000000000000000000000000000000000081526024810185905260048101918252855160448201528551600160a060020a0390931692632ef3accc9287928792829160640190602086019080838360005b8381101561146c578181015183820152602001611454565b50505050905090810190601f1680156114995780820380516001836020036101000a031916815260200191505b509350505050602060405180830381600087803b1580156114b957600080fd5b505af11580156114cd573d6000803e3d6000fd5b505050506040513d60208110156114e357600080fd5b50519392505050565b606060008082818515156115355760408051808201909152600181527f3000000000000000000000000000000000000000000000000000000000000000602082015294506115d6565b8593505b831561155057600190920191600a84049350611539565b826040519080825280601f01601f19166020018201604052801561157e578160200160208202803883390190505b5091505060001982015b85156115d257815160001982019160f860020a6030600a8a0601029184919081106115af57fe5b906020010190600160f860020a031916908160001a905350600a86049550611588565b8194505b50505050919050565b606061160e84848460206040519081016040528060008152506020604051908101604052806000815250611d9b565b949350505050565b6001546000908190600160a060020a03161580611645575060015461164390600160a060020a03166110fb565b155b156116565761165460006110ff565b505b600160009054906101000a9004600160a060020a0316600160a060020a03166338cc48316040518163ffffffff1660e060020a028152600401602060405180830381600087803b1580156116a957600080fd5b505af11580156116bd573d6000803e3d6000fd5b505050506040513d60208110156116d357600080fd5b5051600254600160a060020a0390811691161461178957600160009054906101000a9004600160a060020a0316600160a060020a03166338cc48316040518163ffffffff1660e060020a028152600401602060405180830381600087803b15801561173d57600080fd5b505af1158015611751573d6000803e3d6000fd5b505050506040513d602081101561176757600080fd5b505160028054600160a060020a031916600160a060020a039092169190911790555b600254604080517f2ef3accc0000000000000000000000000000000000000000000000000000000081526024810186905260048101918252885160448201528851600160a060020a0390931692632ef3accc928a928892829160640190602086019080838360005b838110156118095781810151838201526020016117f1565b50505050905090810190601f1680156118365780820380516001836020036101000a031916815260200191505b509350505050602060405180830381600087803b15801561185657600080fd5b505af115801561186a573d6000803e3d6000fd5b505050506040513d602081101561188057600080fd5b50519050670de0b6b3a76400003a8402018111156118a15760009150611a70565b600260009054906101000a9004600160a060020a0316600160a060020a03166385dee34c826000898989896040518763ffffffff1660e060020a02815260040180868152602001806020018060200180602001858152602001848103845288818151815260200191508051906020019080838360005b8381101561192f578181015183820152602001611917565b50505050905090810190601f16801561195c5780820380516001836020036101000a031916815260200191505b50848103835287518152875160209182019189019080838360005b8381101561198f578181015183820152602001611977565b50505050905090810190601f1680156119bc5780820380516001836020036101000a031916815260200191505b50848103825286518152865160209182019188019080838360005b838110156119ef5781810151838201526020016119d7565b50505050905090810190601f168015611a1c5780820380516001836020036101000a031916815260200191505b50985050505050505050506020604051808303818588803b158015611a4057600080fd5b505af1158015611a54573d6000803e3d6000fd5b50505050506040513d6020811015611a6b57600080fd5b505191505b50949350505050565b600080611a99731d3b2638a7cc9f2cb3d298a3da7a90b67e5506ed6110fb565b1115611b0a5760018054600160a060020a031916731d3b2638a7cc9f2cb3d298a3da7a90b67e5506ed17905560408051808201909152600b81527f6574685f6d61696e6e65740000000000000000000000000000000000000000006020820152611b0290611ffc565b506001610b9a565b6000611b2973c03a2615d5efaf5f49f60b7bb6583eaec212fdf16110fb565b1115611b925760018054600160a060020a03191673c03a2615d5efaf5f49f60b7bb6583eaec212fdf117905560408051808201909152600c81527f6574685f726f707374656e3300000000000000000000000000000000000000006020820152611b0290611ffc565b6000611bb173b7a07bcf2ba2f2703b24c0691b5278999c59ac7e6110fb565b1115611c1a5760018054600160a060020a03191673b7a07bcf2ba2f2703b24c0691b5278999c59ac7e17905560408051808201909152600981527f6574685f6b6f76616e00000000000000000000000000000000000000000000006020820152611b0290611ffc565b6000611c3973146500cfd35b22e4a392fe0adc06de1a1368ed486110fb565b1115611ca25760018054600160a060020a03191673146500cfd35b22e4a392fe0adc06de1a1368ed4817905560408051808201909152600b81527f6574685f72696e6b6562790000000000000000000000000000000000000000006020820152611b0290611ffc565b6000611cc1736f485c8bf6fc43ea212e93bbf8ce046c7f1cb4756110fb565b1115611cf3575060018054600160a060020a031916736f485c8bf6fc43ea212e93bbf8ce046c7f1cb475178155610b9a565b6000611d127320e12a1f859b3feae5fb2a0a32c18f5a65555bbf6110fb565b1115611d44575060018054600160a060020a0319167320e12a1f859b3feae5fb2a0a32c18f5a65555bbf178155610b9a565b6000611d637351efaf4c8b3c9afbd5ab9f4bbc82784ab6ef8faa6110fb565b1115611d95575060018054600160a060020a0319167351efaf4c8b3c9afbd5ab9f4bbc82784ab6ef8faa178155610b9a565b50600090565b6060806060806060806060806000808e98508d97508c96508b95508a94508451865188518a518c51010101016040519080825280601f01601f191660200182016040528015611df4578160200160208202803883390190505b50935083925060009150600090505b8851811015611e61578881815181101515611e1a57fe5b90602001015160f860020a900460f860020a028383806001019450815181101515611e4157fe5b906020010190600160f860020a031916908160001a905350600101611e03565b5060005b8751811015611ec3578781815181101515611e7c57fe5b90602001015160f860020a900460f860020a028383806001019450815181101515611ea357fe5b906020010190600160f860020a031916908160001a905350600101611e65565b5060005b8651811015611f25578681815181101515611ede57fe5b90602001015160f860020a900460f860020a028383806001019450815181101515611f0557fe5b906020010190600160f860020a031916908160001a905350600101611ec7565b5060005b8551811015611f87578581815181101515611f4057fe5b90602001015160f860020a900460f860020a028383806001019450815181101515611f6757fe5b906020010190600160f860020a031916908160001a905350600101611f29565b5060005b8451811015611fe9578481815181101515611fa257fe5b90602001015160f860020a900460f860020a028383806001019450815181101515611fc957fe5b906020010190600160f860020a031916908160001a905350600101611f8b565b50909d9c50505050505050505050505050565b8051610574906003906020840190612052565b604080518082019091526000808252602082015290565b8154818355818111156107735760020281600202836000526020600020918201910161077391906120cc565b828054600181600116156101000203166002900490600052602060002090601f016020900481019282601f1061209357805160ff19168380011785556120c0565b828001600101855582156120c0579182015b828111156120c05782518255916020019190600101906120a5565b5061083a9291506120f7565b610b9a91905b8082111561083a578054600160a060020a0319168155600060018201556002016120d2565b610b9a91905b8082111561083a57600081556001016120fd56000a7b226a736f6e727063223a2022322e30222c20226d6574686f64223a202267656e65726174655369676e6564496e746567657273222c2022706172616d73223a207b226170694b6579223a202231316330633331632d326532362d346239342d393433612d373032646565393365663838222c20226e223a202231222c20226d696e223a202230222c20226d6178223a20a165627a7a72305820b2aff6cda8d0ed4897f5eaf1aaefaa051179448859d21fa25239de0aa2b47e200029",
  "source": "pragma solidity ^0.4.24;\n\nimport './Lottery.sol';\n\ncontract LotteryDaily is Lottery {\n\n\tuint public constant TIMEOUT = 1; // timeout for 1 day\n\n\tconstructor(uint _equalBet, uint _commission)\n\tLottery(_equalBet, _commission)\n\tpublic\n\tpayable {}\n}",
  "sourcePath": "/home/explomat/blockchain/rndeth/contracts/LotteryDaily.sol",
  "compiler": {
    "name": "solc",
    "version": "0.4.24+commit.e67f0147.Emscripten.clang"
  },
  "schemaVersion": "2.0.1",
  "updatedAt": "2018-11-17T14:57:43.305Z"
}