{
  "contractName": "Lottery",
  "abi": [
    {
      "constant": true,
      "inputs": [],
      "name": "rndNumber",
      "outputs": [
        {
          "name": "",
          "type": "uint256"
        }
      ],
      "payable": false,
      "stateMutability": "view",
      "type": "function"
    },
    {
      "constant": true,
      "inputs": [],
      "name": "counter",
      "outputs": [
        {
          "name": "",
          "type": "uint256"
        }
      ],
      "payable": false,
      "stateMutability": "view",
      "type": "function"
    },
    {
      "constant": false,
      "inputs": [],
      "name": "renounceOwnership",
      "outputs": [],
      "payable": false,
      "stateMutability": "nonpayable",
      "type": "function"
    },
    {
      "constant": true,
      "inputs": [],
      "name": "owner",
      "outputs": [
        {
          "name": "",
          "type": "address"
        }
      ],
      "payable": false,
      "stateMutability": "view",
      "type": "function"
    },
    {
      "constant": true,
      "inputs": [],
      "name": "playersCount",
      "outputs": [
        {
          "name": "",
          "type": "uint256"
        }
      ],
      "payable": false,
      "stateMutability": "view",
      "type": "function"
    },
    {
      "constant": true,
      "inputs": [],
      "name": "totalBalance",
      "outputs": [
        {
          "name": "",
          "type": "uint256"
        }
      ],
      "payable": false,
      "stateMutability": "view",
      "type": "function"
    },
    {
      "constant": true,
      "inputs": [],
      "name": "isLotteryActive",
      "outputs": [
        {
          "name": "",
          "type": "bool"
        }
      ],
      "payable": false,
      "stateMutability": "view",
      "type": "function"
    },
    {
      "constant": true,
      "inputs": [],
      "name": "ipfsHash",
      "outputs": [
        {
          "name": "",
          "type": "string"
        }
      ],
      "payable": false,
      "stateMutability": "view",
      "type": "function"
    },
    {
      "constant": true,
      "inputs": [],
      "name": "commission",
      "outputs": [
        {
          "name": "",
          "type": "uint256"
        }
      ],
      "payable": false,
      "stateMutability": "view",
      "type": "function"
    },
    {
      "constant": true,
      "inputs": [],
      "name": "equalBet",
      "outputs": [
        {
          "name": "",
          "type": "uint256"
        }
      ],
      "payable": false,
      "stateMutability": "view",
      "type": "function"
    },
    {
      "constant": false,
      "inputs": [
        {
          "name": "_newOwner",
          "type": "address"
        }
      ],
      "name": "transferOwnership",
      "outputs": [],
      "payable": false,
      "stateMutability": "nonpayable",
      "type": "function"
    },
    {
      "constant": true,
      "inputs": [
        {
          "name": "",
          "type": "uint256"
        }
      ],
      "name": "players",
      "outputs": [
        {
          "name": "recipient",
          "type": "address"
        },
        {
          "name": "value",
          "type": "uint256"
        }
      ],
      "payable": false,
      "stateMutability": "view",
      "type": "function"
    },
    {
      "inputs": [
        {
          "name": "_ipfsHash",
          "type": "string"
        },
        {
          "name": "_equalBet",
          "type": "uint256"
        },
        {
          "name": "_commission",
          "type": "uint256"
        }
      ],
      "payable": true,
      "stateMutability": "payable",
      "type": "constructor"
    },
    {
      "payable": true,
      "stateMutability": "payable",
      "type": "fallback"
    },
    {
      "anonymous": false,
      "inputs": [
        {
          "indexed": false,
          "name": "str",
          "type": "string"
        }
      ],
      "name": "event_log",
      "type": "event"
    },
    {
      "anonymous": false,
      "inputs": [
        {
          "indexed": false,
          "name": "elu",
          "type": "uint256"
        }
      ],
      "name": "event_log_uint",
      "type": "event"
    },
    {
      "anonymous": false,
      "inputs": [
        {
          "indexed": false,
          "name": "rqreq",
          "type": "string"
        }
      ],
      "name": "event_random_query_request",
      "type": "event"
    },
    {
      "anonymous": false,
      "inputs": [
        {
          "indexed": false,
          "name": "rqres",
          "type": "string"
        }
      ],
      "name": "event_random_query_result",
      "type": "event"
    },
    {
      "anonymous": false,
      "inputs": [
        {
          "indexed": false,
          "name": "t",
          "type": "address"
        }
      ],
      "name": "event_transfer",
      "type": "event"
    },
    {
      "anonymous": false,
      "inputs": [
        {
          "indexed": false,
          "name": "e",
          "type": "string"
        }
      ],
      "name": "event_error",
      "type": "event"
    },
    {
      "anonymous": false,
      "inputs": [
        {
          "indexed": true,
          "name": "previousOwner",
          "type": "address"
        }
      ],
      "name": "OwnershipRenounced",
      "type": "event"
    },
    {
      "anonymous": false,
      "inputs": [
        {
          "indexed": true,
          "name": "previousOwner",
          "type": "address"
        },
        {
          "indexed": true,
          "name": "newOwner",
          "type": "address"
        }
      ],
      "name": "OwnershipTransferred",
      "type": "event"
    },
    {
      "constant": false,
      "inputs": [],
      "name": "bet",
      "outputs": [],
      "payable": true,
      "stateMutability": "payable",
      "type": "function"
    },
    {
      "constant": false,
      "inputs": [
        {
          "name": "myid",
          "type": "bytes32"
        },
        {
          "name": "result",
          "type": "string"
        }
      ],
      "name": "__callback",
      "outputs": [],
      "payable": false,
      "stateMutability": "nonpayable",
      "type": "function"
    },
    {
      "constant": false,
      "inputs": [
        {
          "name": "myid",
          "type": "bytes32"
        },
        {
          "name": "result",
          "type": "string"
        },
        {
          "name": "proof",
          "type": "bytes"
        }
      ],
      "name": "__callback",
      "outputs": [],
      "payable": false,
      "stateMutability": "nonpayable",
      "type": "function"
    },
    {
      "constant": true,
      "inputs": [],
      "name": "calculateTotalPrize",
      "outputs": [
        {
          "name": "",
          "type": "uint256"
        }
      ],
      "payable": false,
      "stateMutability": "view",
      "type": "function"
    },
    {
      "constant": false,
      "inputs": [],
      "name": "invoke",
      "outputs": [],
      "payable": false,
      "stateMutability": "nonpayable",
      "type": "function"
    },
    {
      "constant": false,
      "inputs": [
        {
          "name": "_ipfsHash",
          "type": "string"
        }
      ],
      "name": "changeIpfsHash",
      "outputs": [],
      "payable": false,
      "stateMutability": "nonpayable",
      "type": "function"
    },
    {
      "constant": false,
      "inputs": [
        {
          "name": "_commission",
          "type": "uint256"
        }
      ],
      "name": "changeCommission",
      "outputs": [],
      "payable": false,
      "stateMutability": "nonpayable",
      "type": "function"
    }
  ],
  "bytecode": "0x608060405260405162002a6238038062002a62833981016040908152815160208301519183015160008054600160a060020a031916331790559201916200006f7f1100000000000000000000000000000000000000000000000000000000000000640100000000620000a7810204565b600160065582516200008990600d906020860190620006e9565b50600891909155600b5550600e805460ff191660011790556200078b565b600154600160a060020a03161580620000dd5750600154620000db90600160a060020a03166401000000006200030a810204565b155b15620000fa57620000f860006401000000006200030e810204565b505b600160009054906101000a9004600160a060020a0316600160a060020a03166338cc48316040518163ffffffff167c0100000000000000000000000000000000000000000000000000000000028152600401602060405180830381600087803b1580156200016757600080fd5b505af11580156200017c573d6000803e3d6000fd5b505050506040513d60208110156200019357600080fd5b5051600254600160a060020a039081169116146200026657600160009054906101000a9004600160a060020a0316600160a060020a03166338cc48316040518163ffffffff167c0100000000000000000000000000000000000000000000000000000000028152600401602060405180830381600087803b1580156200021857600080fd5b505af11580156200022d573d6000803e3d6000fd5b505050506040513d60208110156200024457600080fd5b505160028054600160a060020a031916600160a060020a039092169190911790555b600254604080517f688dcfd70000000000000000000000000000000000000000000000000000000081527fff00000000000000000000000000000000000000000000000000000000000000841660048201529051600160a060020a039092169163688dcfd79160248082019260009290919082900301818387803b158015620002ee57600080fd5b505af115801562000303573d6000803e3d6000fd5b5050505050565b3b90565b60006200032364010000000062000329810204565b92915050565b60008062000354731d3b2638a7cc9f2cb3d298a3da7a90b67e5506ed6401000000006200030a810204565b1115620003d25760018054600160a060020a031916731d3b2638a7cc9f2cb3d298a3da7a90b67e5506ed17905560408051808201909152600b81527f6574685f6d61696e6e65740000000000000000000000000000000000000000006020820152620003c990640100000000620006d0810204565b506001620006cd565b6000620003fc73c03a2615d5efaf5f49f60b7bb6583eaec212fdf16401000000006200030a810204565b1115620004715760018054600160a060020a03191673c03a2615d5efaf5f49f60b7bb6583eaec212fdf117905560408051808201909152600c81527f6574685f726f707374656e3300000000000000000000000000000000000000006020820152620003c990640100000000620006d0810204565b60006200049b73b7a07bcf2ba2f2703b24c0691b5278999c59ac7e6401000000006200030a810204565b1115620005105760018054600160a060020a03191673b7a07bcf2ba2f2703b24c0691b5278999c59ac7e17905560408051808201909152600981527f6574685f6b6f76616e00000000000000000000000000000000000000000000006020820152620003c990640100000000620006d0810204565b60006200053a73146500cfd35b22e4a392fe0adc06de1a1368ed486401000000006200030a810204565b1115620005af5760018054600160a060020a03191673146500cfd35b22e4a392fe0adc06de1a1368ed4817905560408051808201909152600b81527f6574685f72696e6b6562790000000000000000000000000000000000000000006020820152620003c990640100000000620006d0810204565b6000620005d9736f485c8bf6fc43ea212e93bbf8ce046c7f1cb4756401000000006200030a810204565b11156200060d575060018054600160a060020a031916736f485c8bf6fc43ea212e93bbf8ce046c7f1cb475178155620006cd565b6000620006377320e12a1f859b3feae5fb2a0a32c18f5a65555bbf6401000000006200030a810204565b11156200066b575060018054600160a060020a0319167320e12a1f859b3feae5fb2a0a32c18f5a65555bbf178155620006cd565b6000620006957351efaf4c8b3c9afbd5ab9f4bbc82784ab6ef8faa6401000000006200030a810204565b1115620006c9575060018054600160a060020a0319167351efaf4c8b3c9afbd5ab9f4bbc82784ab6ef8faa178155620006cd565b5060005b90565b8051620006e5906003906020840190620006e9565b5050565b828054600181600116156101000203166002900490600052602060002090601f016020900481019282601f106200072c57805160ff19168380011785556200075c565b828001600101855582156200075c579182015b828111156200075c5782518255916020019190600101906200073f565b506200076a9291506200076e565b5090565b620006cd91905b808211156200076a576000815560010162000775565b6122c7806200079b6000396000f3006080604052600436106100ed5763ffffffff60e060020a60003504166307dd96f781146100ef57806311610c251461011657806327dc297e1461011e57806338bbfa501461017c57806361bc221a14610218578063715018a61461022d5780638064b15f146102425780638da5cb5b1461029b578063a3f67d6d146102cc578063ab8078c6146102e1578063ad7a672f146102f6578063c3b69ebb1461030b578063c623674f14610334578063cab7f521146103be578063df922f3a146103d3578063e1489191146103eb578063ef9a224214610400578063f2fde38b14610415578063f71d96cb14610436575b005b3480156100fb57600080fd5b50610104610471565b60408051918252519081900360200190f35b6100ed610477565b34801561012a57600080fd5b5060408051602060046024803582810135601f81018590048502860185019096528585526100ed9583359536956044949193909101919081908401838280828437509497506105e99650505050505050565b34801561018857600080fd5b5060408051602060046024803582810135601f81018590048502860185019096528585526100ed95833595369560449491939091019190819084018382808284375050604080516020601f89358b018035918201839004830284018301909452808352979a9998810197919650918201945092508291508401838280828437509497506106099650505050505050565b34801561022457600080fd5b50610104610809565b34801561023957600080fd5b506100ed61080f565b34801561024e57600080fd5b506040805160206004803580820135601f81018490048402850184019095528484526100ed94369492936024939284019190819084018382808284375094975061086e9650505050505050565b3480156102a757600080fd5b506102b0610898565b60408051600160a060020a039092168252519081900360200190f35b3480156102d857600080fd5b506101046108a7565b3480156102ed57600080fd5b506101046108ad565b34801561030257600080fd5b506101046108d7565b34801561031757600080fd5b506103206108dd565b604080519115158252519081900360200190f35b34801561034057600080fd5b506103496108e6565b6040805160208082528351818301528351919283929083019185019080838360005b8381101561038357818101518382015260200161036b565b50505050905090810190601f1680156103b05780820380516001836020036101000a031916815260200191505b509250505060405180910390f35b3480156103ca57600080fd5b506100ed610974565b3480156103df57600080fd5b506100ed600435610a1e565b3480156103f757600080fd5b50610104610a3a565b34801561040c57600080fd5b50610104610a40565b34801561042157600080fd5b506100ed600160a060020a0360043516610a46565b34801561044257600080fd5b5061044e600435610a69565b60408051600160a060020a03909316835260208301919091528051918290030190f35b600c5481565b61047f612107565b600854341461048d57600080fd5b600e5460ff1615156104e9576040805160e560020a62461bcd02815260206004820152601960248201527f4c6f7474657279206973206e6f7420616374697665206e6f7700000000000000604482015290519081900360640190fd5b6006543360009081526010602052604090205410610551576040805160e560020a62461bcd02815260206004820152601560248201527f4f6e6c79206f6e652062657420666f722067616d650000000000000000000000604482015290519081900360640190fd5b5060408051808201909152338152346020820152600a5460010161057660118261211e565b5060065433600090815260106020526040902055600a8054600181019091556011805483929081106105a457fe5b60009182526020918290208351600292909202018054600160a060020a031916600160a060020a03909216919091178155910151600190910155506009805434019055565b6040805160008152602081019091526106059083908390610609565b5050565b610611610a9f565b600160a060020a03163314610670576040805160e560020a62461bcd02815260206004820152601f60248201527f43616c6c6572206973206e6f74204f7261636c697a6520616464726573732100604482015290519081900360640190fd5b6000838152600f602052604090205460ff1615156106fe576040805160e560020a62461bcd02815260206004820152602160248201527f51756572792068617320616c7265616479206265656e2070726f63657373656460448201527f2100000000000000000000000000000000000000000000000000000000000000606482015290519081900360840190fd5b6007548314156108045761071182610c95565b600c81905560408051918252517fb21238056034e0d6cc890938b808046968a29e77b2a3636793841ff76a92d9559181900360200190a1610753600c54610ca8565b61075b610d8e565b6006805460010190556000838152600f6020908152604091829020805460ff1916905581518181526027918101919091527f4f7261636c697a6520636f6d7075746174696f6e207175657279207761732072818301527f6563656976656400000000000000000000000000000000000000000000000000606082015290517f65f6d9f82a5021bfe453af062212bd087691bf16e7152c3362628730368e20769181900360800190a15b505050565b60065481565b600054600160a060020a0316331461082657600080fd5b60008054604051600160a060020a03909116917ff8df31144d9c2f0f6b59d69b8b98abd5459d07f2742c4df920b25aae33c6482091a260008054600160a060020a0319169055565b600054600160a060020a0316331461088557600080fd5b805161060590600d90602084019061214a565b600054600160a060020a031681565b600a5481565b600b546000906064038181106108cd5760095460649004810291506108d3565b60095491505b5090565b60095481565b600e5460ff1681565b600d805460408051602060026001851615610100026000190190941693909304601f8101849004840282018401909252818152929183018282801561096c5780601f106109415761010080835404028352916020019161096c565b820191906000526020600020905b81548152906001019060200180831161094f57829003601f168201915b505050505081565b600054600160a060020a0316331461098b57600080fd5b600a54600010610a0a576040805160e560020a62461bcd028152602060048201526024808201527f506c617965727320636f756e74206d757374206265206772656174657220746860448201527f616e203000000000000000000000000000000000000000000000000000000000606482015290519081900360840190fd5b600e805460ff19169055610a1c610da7565b565b600054600160a060020a03163314610a3557600080fd5b600b55565b600b5481565b60085481565b600054600160a060020a03163314610a5d57600080fd5b610a6681611183565b50565b6011805482908110610a7757fe5b600091825260209091206002909102018054600190910154600160a060020a03909116915082565b600154600090600160a060020a03161580610acc5750600154610aca90600160a060020a03166111f3565b155b15610add57610adb60006111f7565b505b600160009054906101000a9004600160a060020a0316600160a060020a03166338cc48316040518163ffffffff1660e060020a028152600401602060405180830381600087803b158015610b3057600080fd5b505af1158015610b44573d6000803e3d6000fd5b505050506040513d6020811015610b5a57600080fd5b5051600254600160a060020a03908116911614610c1057600160009054906101000a9004600160a060020a0316600160a060020a03166338cc48316040518163ffffffff1660e060020a028152600401602060405180830381600087803b158015610bc457600080fd5b505af1158015610bd8573d6000803e3d6000fd5b505050506040513d6020811015610bee57600080fd5b505160028054600160a060020a031916600160a060020a039092169190911790555b600260009054906101000a9004600160a060020a0316600160a060020a031663c281d19e6040518163ffffffff1660e060020a028152600401602060405180830381600087803b158015610c6357600080fd5b505af1158015610c77573d6000803e3d6000fd5b505050506040513d6020811015610c8d57600080fd5b505190505b90565b6000610ca2826000611201565b92915050565b610cb0612107565b6000601183815481101515610cc157fe5b6000918252602091829020604080518082019091526002909202018054600160a060020a0316825260010154918101919091529150610cfe6108ad565b8251909150600160a060020a031615610804578151604051600160a060020a039091169082156108fc029083906000818181858888f19350505050158015610d4a573d6000803e3d6000fd5b50815160408051600160a060020a039092168252517f97c59ca311d5f013c9ddfa2dfc788d6f13354cf7e885021c8c027379fa9fb9ec9181900360200190a1505050565b600e805460ff1916600117905560006009819055600a55565b60006001600a5411156110ae5760408051808201909152600b81527f636f6d7075746174696f6e0000000000000000000000000000000000000000006020820152303190610df890620493e0611373565b1115610eaf576040805160208082526057908201527f4f7261636c697a6520636f6d7075746174696f6e20717565727920776173204e818301527f4f542073656e742c20706c656173652061646420736f6d652045544820746f2060608201527f636f76657220666f722074686520717565727920666565000000000000000000608082015290517f45216837f26a6836ade4e0969fe04657e771b5659940d6e0de811cb8d49580d69181900360a00190a1610a66565b610ffe6040805190810160405280600381526020017f55524c0000000000000000000000000000000000000000000000000000000000815250608060405190810160405280604381526020017f6a736f6e2868747470733a2f2f6170692e72616e646f6d2e6f72672f6a736f6e81526020017f2d7270632f312f696e766f6b65292e726573756c742e72616e646f6d2e64617481526020017f612e300000000000000000000000000000000000000000000000000000000000815250610ff560c0604051908101604052806092815260200161220a60929139610f93600a546115e4565b606060405190810160405280603781526020017f2c20227265706c6163656d656e74223a202274727565222c202262617365223a81526020017f20223130227d2c20226964223a2022313432313522207d0000000000000000008152506116d7565b620493e061170e565b60078190556000818152600f6020908152604091829020805460ff1916600117905581518181526026918101919091527f4f7261636c697a6520636f6d7075746174696f6e207175657279207761732072818301527f6571756573740000000000000000000000000000000000000000000000000000606082015290519192507f9eb50eb597f28ea7ded26f0afa775a7ceccca822f45cfe5a16f8bdf4214a41c4919081900360800190a1610a66565b600a5460011415610a66576011805460009081106110c857fe5b60009182526020822060029091020154600954604051600160a060020a039092169281156108fc029290818181858888f1935050505015801561110f573d6000803e3d6000fd5b50611118610d8e565b600680546001019055601180547f97c59ca311d5f013c9ddfa2dfc788d6f13354cf7e885021c8c027379fa9fb9ec9190600090811061115357fe5b60009182526020918290206002909102015460408051600160a060020a039092168252519081900390910190a150565b600160a060020a038116151561119857600080fd5b60008054604051600160a060020a03808516939216917f8be0079c531659141344cd1fd0a4f28419497f9722a3daafe3b4186f6b6457e091a360008054600160a060020a031916600160a060020a0392909216919091179055565b3b90565b6000610ca2611b71565b6000828180805b83518110156113565783517f30000000000000000000000000000000000000000000000000000000000000009085908390811061124157fe5b90602001015160f860020a900460f860020a02600160f860020a031916101580156112b7575083517f39000000000000000000000000000000000000000000000000000000000000009085908390811061129757fe5b90602001015160f860020a900460f860020a02600160f860020a03191611155b156113105781156112d6578515156112ce57611356565b600019909501945b600a83029250603084828151811015156112ec57fe5b90602001015160f860020a900460f860020a0260f860020a9004038301925061134e565b838181518110151561131e57fe5b90602001015160f860020a900460f860020a02600160f860020a031916602e60f860020a02141561134e57600191505b600101611208565b60008611156113685785600a0a830292505b509095945050505050565b600154600090600160a060020a031615806113a0575060015461139e90600160a060020a03166111f3565b155b156113b1576113af60006111f7565b505b600160009054906101000a9004600160a060020a0316600160a060020a03166338cc48316040518163ffffffff1660e060020a028152600401602060405180830381600087803b15801561140457600080fd5b505af1158015611418573d6000803e3d6000fd5b505050506040513d602081101561142e57600080fd5b5051600254600160a060020a039081169116146114e457600160009054906101000a9004600160a060020a0316600160a060020a03166338cc48316040518163ffffffff1660e060020a028152600401602060405180830381600087803b15801561149857600080fd5b505af11580156114ac573d6000803e3d6000fd5b505050506040513d60208110156114c257600080fd5b505160028054600160a060020a031916600160a060020a039092169190911790555b600254604080517f2ef3accc0000000000000000000000000000000000000000000000000000000081526024810185905260048101918252855160448201528551600160a060020a0390931692632ef3accc9287928792829160640190602086019080838360005b8381101561156457818101518382015260200161154c565b50505050905090810190601f1680156115915780820380516001836020036101000a031916815260200191505b509350505050602060405180830381600087803b1580156115b157600080fd5b505af11580156115c5573d6000803e3d6000fd5b505050506040513d60208110156115db57600080fd5b50519392505050565b6060600080828185151561162d5760408051808201909152600181527f3000000000000000000000000000000000000000000000000000000000000000602082015294506116ce565b8593505b831561164857600190920191600a84049350611631565b826040519080825280601f01601f191660200182016040528015611676578160200160208202803883390190505b5091505060001982015b85156116ca57815160001982019160f860020a6030600a8a0601029184919081106116a757fe5b906020010190600160f860020a031916908160001a905350600a86049550611680565b8194505b50505050919050565b606061170684848460206040519081016040528060008152506020604051908101604052806000815250611e93565b949350505050565b6001546000908190600160a060020a0316158061173d575060015461173b90600160a060020a03166111f3565b155b1561174e5761174c60006111f7565b505b600160009054906101000a9004600160a060020a0316600160a060020a03166338cc48316040518163ffffffff1660e060020a028152600401602060405180830381600087803b1580156117a157600080fd5b505af11580156117b5573d6000803e3d6000fd5b505050506040513d60208110156117cb57600080fd5b5051600254600160a060020a0390811691161461188157600160009054906101000a9004600160a060020a0316600160a060020a03166338cc48316040518163ffffffff1660e060020a028152600401602060405180830381600087803b15801561183557600080fd5b505af1158015611849573d6000803e3d6000fd5b505050506040513d602081101561185f57600080fd5b505160028054600160a060020a031916600160a060020a039092169190911790555b600254604080517f2ef3accc0000000000000000000000000000000000000000000000000000000081526024810186905260048101918252885160448201528851600160a060020a0390931692632ef3accc928a928892829160640190602086019080838360005b838110156119015781810151838201526020016118e9565b50505050905090810190601f16801561192e5780820380516001836020036101000a031916815260200191505b509350505050602060405180830381600087803b15801561194e57600080fd5b505af1158015611962573d6000803e3d6000fd5b505050506040513d602081101561197857600080fd5b50519050670de0b6b3a76400003a8402018111156119995760009150611b68565b600260009054906101000a9004600160a060020a0316600160a060020a03166385dee34c826000898989896040518763ffffffff1660e060020a02815260040180868152602001806020018060200180602001858152602001848103845288818151815260200191508051906020019080838360005b83811015611a27578181015183820152602001611a0f565b50505050905090810190601f168015611a545780820380516001836020036101000a031916815260200191505b50848103835287518152875160209182019189019080838360005b83811015611a87578181015183820152602001611a6f565b50505050905090810190601f168015611ab45780820380516001836020036101000a031916815260200191505b50848103825286518152865160209182019188019080838360005b83811015611ae7578181015183820152602001611acf565b50505050905090810190601f168015611b145780820380516001836020036101000a031916815260200191505b50985050505050505050506020604051808303818588803b158015611b3857600080fd5b505af1158015611b4c573d6000803e3d6000fd5b50505050506040513d6020811015611b6357600080fd5b505191505b50949350505050565b600080611b91731d3b2638a7cc9f2cb3d298a3da7a90b67e5506ed6111f3565b1115611c025760018054600160a060020a031916731d3b2638a7cc9f2cb3d298a3da7a90b67e5506ed17905560408051808201909152600b81527f6574685f6d61696e6e65740000000000000000000000000000000000000000006020820152611bfa906120f4565b506001610c92565b6000611c2173c03a2615d5efaf5f49f60b7bb6583eaec212fdf16111f3565b1115611c8a5760018054600160a060020a03191673c03a2615d5efaf5f49f60b7bb6583eaec212fdf117905560408051808201909152600c81527f6574685f726f707374656e3300000000000000000000000000000000000000006020820152611bfa906120f4565b6000611ca973b7a07bcf2ba2f2703b24c0691b5278999c59ac7e6111f3565b1115611d125760018054600160a060020a03191673b7a07bcf2ba2f2703b24c0691b5278999c59ac7e17905560408051808201909152600981527f6574685f6b6f76616e00000000000000000000000000000000000000000000006020820152611bfa906120f4565b6000611d3173146500cfd35b22e4a392fe0adc06de1a1368ed486111f3565b1115611d9a5760018054600160a060020a03191673146500cfd35b22e4a392fe0adc06de1a1368ed4817905560408051808201909152600b81527f6574685f72696e6b6562790000000000000000000000000000000000000000006020820152611bfa906120f4565b6000611db9736f485c8bf6fc43ea212e93bbf8ce046c7f1cb4756111f3565b1115611deb575060018054600160a060020a031916736f485c8bf6fc43ea212e93bbf8ce046c7f1cb475178155610c92565b6000611e0a7320e12a1f859b3feae5fb2a0a32c18f5a65555bbf6111f3565b1115611e3c575060018054600160a060020a0319167320e12a1f859b3feae5fb2a0a32c18f5a65555bbf178155610c92565b6000611e5b7351efaf4c8b3c9afbd5ab9f4bbc82784ab6ef8faa6111f3565b1115611e8d575060018054600160a060020a0319167351efaf4c8b3c9afbd5ab9f4bbc82784ab6ef8faa178155610c92565b50600090565b6060806060806060806060806000808e98508d97508c96508b95508a94508451865188518a518c51010101016040519080825280601f01601f191660200182016040528015611eec578160200160208202803883390190505b50935083925060009150600090505b8851811015611f59578881815181101515611f1257fe5b90602001015160f860020a900460f860020a028383806001019450815181101515611f3957fe5b906020010190600160f860020a031916908160001a905350600101611efb565b5060005b8751811015611fbb578781815181101515611f7457fe5b90602001015160f860020a900460f860020a028383806001019450815181101515611f9b57fe5b906020010190600160f860020a031916908160001a905350600101611f5d565b5060005b865181101561201d578681815181101515611fd657fe5b90602001015160f860020a900460f860020a028383806001019450815181101515611ffd57fe5b906020010190600160f860020a031916908160001a905350600101611fbf565b5060005b855181101561207f57858181518110151561203857fe5b90602001015160f860020a900460f860020a02838380600101945081518110151561205f57fe5b906020010190600160f860020a031916908160001a905350600101612021565b5060005b84518110156120e157848181518110151561209a57fe5b90602001015160f860020a900460f860020a0283838060010194508151811015156120c157fe5b906020010190600160f860020a031916908160001a905350600101612083565b50909d9c50505050505050505050505050565b805161060590600390602084019061214a565b604080518082019091526000808252602082015290565b8154818355818111156108045760020281600202836000526020600020918201910161080491906121c4565b828054600181600116156101000203166002900490600052602060002090601f016020900481019282601f1061218b57805160ff19168380011785556121b8565b828001600101855582156121b8579182015b828111156121b857825182559160200191906001019061219d565b506108d39291506121ef565b610c9291905b808211156108d3578054600160a060020a0319168155600060018201556002016121ca565b610c9291905b808211156108d357600081556001016121f556000a7b226a736f6e727063223a2022322e30222c20226d6574686f64223a202267656e65726174655369676e6564496e746567657273222c2022706172616d73223a207b226170694b6579223a202231316330633331632d326532362d346239342d393433612d373032646565393365663838222c20226e223a202231222c20226d696e223a202230222c20226d6178223a20a165627a7a7230582045ca38437db67d9b97737507716ca3ec8dfcb67789400c368c3e2ada8da52c280029",
  "source": "pragma solidity ^0.4.24;\n\nimport './lib/oraclizeAPI.sol';\nimport 'openzeppelin-solidity/contracts/ownership/Ownable.sol';\n\ncontract Lottery is Ownable, usingOraclize {\n\t\n\tevent event_log(string str);\n\tevent event_log_uint(uint elu);\n\tevent event_random_query_request(string rqreq);\n\tevent event_random_query_result(string rqres);\n\tevent event_transfer(address t);\n\tevent event_error(string e);\n\n\t// lottery couner\n\tuint public counter;\n\n\t// next query id\n\tbytes32 nextQueryId;\n\n\t// player bet\n\tuint public equalBet;\n\n\tuint public totalBalance;\n\tuint public playersCount;\n\n\t// lottery percent comission\n\tuint public commission;\n\n\t// generating random number\n\tuint public rndNumber; \n\n\t// ipfs hash\n\tstring public ipfsHash;\n\n\t// disable players bet when process oraclize request\n\tbool public isLotteryActive;\n\tuint constant ORACLIZE_GAS_LIMIT = 300000;\n\n\tstruct Player {\n\t\taddress recipient;\n\t\tuint value;\n\t}\n\n\tmapping(bytes32 => bool) pendingQueries; //oraclize queries\n\tmapping(address => uint) playersList; //mapping for counter\n\tPlayer[] public players;\n\n\tconstructor(string _ipfsHash, uint _equalBet, uint _commission) public payable {\n\t\toraclize_setProof(proofType_TLSNotary | proofStorage_IPFS);\n\n\t\tcounter = 1;\n\t\tipfsHash = _ipfsHash;\n\t\tequalBet = _equalBet;\n\t\tcommission = _commission;\n\t\tisLotteryActive = true;\n\t}\n\n\tfunction bet() public payable {\n\t\trequire(msg.value == equalBet);\n\t\trequire(isLotteryActive, 'Lottery is not active now');\n\t\trequire(playersList[msg.sender] < counter, 'Only one bet for game');\n\n\t\tPlayer memory newPlayer = Player({\n\t\t\trecipient: msg.sender,\n\t\t\tvalue: msg.value\n\t\t});\n\t\tplayers.length = playersCount + 1;\n\n\t\tplayersList[msg.sender] = counter;\n\t\tplayers[playersCount++] = newPlayer;\n\t\ttotalBalance += msg.value;\n\t}\n\t\n\tfunction determineWinner() private {\n\t\tif (playersCount > 1){\n\t\t\tif (oraclize_getPrice('computation', ORACLIZE_GAS_LIMIT) > address(this).balance) {\n\t\t\t\temit event_error('Oraclize computation query was NOT sent, please add some ETH to cover for the query fee');\n\t\t\t\treturn;\n\t\t\t}\n\n\t\t\tbytes32 queryId = oraclize_query(\n\t\t\t\t'URL',\n\t\t\t\t'json(https://api.random.org/json-rpc/1/invoke).result.random.data.0',\n\t\t\t\tstrConcat('\\n{\"jsonrpc\": \"2.0\", \"method\": \"generateSignedIntegers\", \"params\": {\"apiKey\": \"11c0c31c-2e26-4b94-943a-702dee93ef88\", \"n\": \"1\", \"min\": \"0\", \"max\": ', uint2str(playersCount), ', \"replacement\": \"true\", \"base\": \"10\"}, \"id\": \"14215\" }'),\n\t\t\t\tORACLIZE_GAS_LIMIT\n\t\t\t);\n\n\t\t\t/*bytes32 queryId = oraclize_query( \n\t\t\t\t'computation', \n\t\t\t\t[\n\t\t\t\t\tstrConcat('json(', ipfsHash, ').result.random.data.0'),\n\t\t\t\t\t'1',\n\t\t\t\t\t'0',\n\t\t\t\t\tuint2str(playersCount)\n\t\t\t\t], \n\t\t\t\tORACLIZE_GAS_LIMIT\n\t\t\t);*/\n\n\t\t\tnextQueryId = queryId;\n\t\t\tpendingQueries[queryId] = true;\n\t\t\temit event_random_query_request('Oraclize computation query was request');\n\t\t} else if (playersCount == 1){\n\t\t\tplayers[0].recipient.transfer(totalBalance);\n\t\t\treset();\n\t\t\tcounter++; // increment lottery counter\n\t\t\temit event_transfer(players[0].recipient);\n\t\t}\t\n\t}\n\n\tfunction __callback(bytes32 myid, string result, bytes proof) public {\n\t\trequire(msg.sender == oraclize_cbAddress(), 'Caller is not Oraclize address!');\n        require(pendingQueries[myid], 'Query has already been processed!');\n\n        if (nextQueryId == myid){ // for avoid overlay oraclize queries\n        \trndNumber = parseInt(result);\n        \temit event_log_uint(rndNumber);\n\t\t\tdistributeFunds(rndNumber);\n\t\t\treset();\n\t\t\tcounter++; // increment lottery counter\n\t\t\tdelete pendingQueries[myid];\n\t\t\temit event_random_query_result('Oraclize computation query was received');\n        }\n\t}\n\n\tfunction distributeFunds(uint winningNumber) private {\n\t\tPlayer memory wPlayer = players[winningNumber];\n\t\tuint prizeToDistribute = calculateTotalPrize();\n\n\t\tif (wPlayer.recipient != address(0)){\n\t\t\twPlayer.recipient.transfer(prizeToDistribute);\n\t\t\temit event_transfer(wPlayer.recipient);\n\t\t}\n\t}\n\n\tfunction calculateTotalPrize() public constant returns (uint){\n\t\tuint totalPercent = 100 - commission;\n\t\tif (totalPercent >= 0){\n\t\t\treturn (totalBalance / 100) * totalPercent;\n\t\t}\n\t\treturn totalBalance;\n\t}\n\n\n\tfunction invoke() public onlyOwner {\n\t\trequire(playersCount > 0, 'Players count must be greater than 0');\n\t\tisLotteryActive = false;\n\t\tdetermineWinner();\n\t}\n\n\tfunction reset() private {\n\t\tisLotteryActive = true;\n\t\ttotalBalance = 0;\n\t\tplayersCount = 0;\n\t}\n\n\tfunction changeIpfsHash(string _ipfsHash) public onlyOwner {\n\t\tipfsHash = _ipfsHash;\n\t}\n\n\tfunction changeCommission(uint _commission) public onlyOwner {\n\t\tcommission = _commission;\n\t}\n\n\t//catch ether\n\tfunction() public payable {}\n}\n",
  "sourcePath": "/home/explomat/blockchain/rndeth/contracts/Lottery.sol",
  "compiler": {
    "name": "solc",
    "version": "0.4.24+commit.e67f0147.Emscripten.clang"
  },
  "schemaVersion": "2.0.1",
  "updatedAt": "2018-11-01T17:08:33.885Z"
}