{
  "contractName": "LotteryDaily",
  "abi": [
    {
      "constant": true,
      "inputs": [],
      "name": "rndNumber",
      "outputs": [
        {
          "name": "",
          "type": "uint256"
        }
      ],
      "payable": false,
      "stateMutability": "view",
      "type": "function"
    },
    {
      "constant": false,
      "inputs": [],
      "name": "bet",
      "outputs": [],
      "payable": true,
      "stateMutability": "payable",
      "type": "function"
    },
    {
      "constant": false,
      "inputs": [
        {
          "name": "myid",
          "type": "bytes32"
        },
        {
          "name": "result",
          "type": "string"
        }
      ],
      "name": "__callback",
      "outputs": [],
      "payable": false,
      "stateMutability": "nonpayable",
      "type": "function"
    },
    {
      "constant": false,
      "inputs": [
        {
          "name": "myid",
          "type": "bytes32"
        },
        {
          "name": "result",
          "type": "string"
        },
        {
          "name": "proof",
          "type": "bytes"
        }
      ],
      "name": "__callback",
      "outputs": [],
      "payable": false,
      "stateMutability": "nonpayable",
      "type": "function"
    },
    {
      "constant": true,
      "inputs": [],
      "name": "counter",
      "outputs": [
        {
          "name": "",
          "type": "uint256"
        }
      ],
      "payable": false,
      "stateMutability": "view",
      "type": "function"
    },
    {
      "constant": false,
      "inputs": [],
      "name": "renounceOwnership",
      "outputs": [],
      "payable": false,
      "stateMutability": "nonpayable",
      "type": "function"
    },
    {
      "constant": false,
      "inputs": [
        {
          "name": "_ipfsHash",
          "type": "string"
        }
      ],
      "name": "changeIpfsHash",
      "outputs": [],
      "payable": false,
      "stateMutability": "nonpayable",
      "type": "function"
    },
    {
      "constant": true,
      "inputs": [],
      "name": "owner",
      "outputs": [
        {
          "name": "",
          "type": "address"
        }
      ],
      "payable": false,
      "stateMutability": "view",
      "type": "function"
    },
    {
      "constant": true,
      "inputs": [],
      "name": "playersCount",
      "outputs": [
        {
          "name": "",
          "type": "uint256"
        }
      ],
      "payable": false,
      "stateMutability": "view",
      "type": "function"
    },
    {
      "constant": true,
      "inputs": [],
      "name": "calculateTotalPrize",
      "outputs": [
        {
          "name": "",
          "type": "uint256"
        }
      ],
      "payable": false,
      "stateMutability": "view",
      "type": "function"
    },
    {
      "constant": true,
      "inputs": [],
      "name": "totalBalance",
      "outputs": [
        {
          "name": "",
          "type": "uint256"
        }
      ],
      "payable": false,
      "stateMutability": "view",
      "type": "function"
    },
    {
      "constant": true,
      "inputs": [],
      "name": "isLotteryActive",
      "outputs": [
        {
          "name": "",
          "type": "bool"
        }
      ],
      "payable": false,
      "stateMutability": "view",
      "type": "function"
    },
    {
      "constant": true,
      "inputs": [],
      "name": "ipfsHash",
      "outputs": [
        {
          "name": "",
          "type": "string"
        }
      ],
      "payable": false,
      "stateMutability": "view",
      "type": "function"
    },
    {
      "constant": false,
      "inputs": [],
      "name": "invoke",
      "outputs": [],
      "payable": false,
      "stateMutability": "nonpayable",
      "type": "function"
    },
    {
      "constant": false,
      "inputs": [
        {
          "name": "_commission",
          "type": "uint256"
        }
      ],
      "name": "changeCommission",
      "outputs": [],
      "payable": false,
      "stateMutability": "nonpayable",
      "type": "function"
    },
    {
      "constant": true,
      "inputs": [],
      "name": "commission",
      "outputs": [
        {
          "name": "",
          "type": "uint256"
        }
      ],
      "payable": false,
      "stateMutability": "view",
      "type": "function"
    },
    {
      "constant": true,
      "inputs": [],
      "name": "equalBet",
      "outputs": [
        {
          "name": "",
          "type": "uint256"
        }
      ],
      "payable": false,
      "stateMutability": "view",
      "type": "function"
    },
    {
      "constant": false,
      "inputs": [
        {
          "name": "_newOwner",
          "type": "address"
        }
      ],
      "name": "transferOwnership",
      "outputs": [],
      "payable": false,
      "stateMutability": "nonpayable",
      "type": "function"
    },
    {
      "constant": true,
      "inputs": [],
      "name": "TIMEOUT",
      "outputs": [
        {
          "name": "",
          "type": "uint256"
        }
      ],
      "payable": false,
      "stateMutability": "view",
      "type": "function"
    },
    {
      "constant": true,
      "inputs": [
        {
          "name": "",
          "type": "uint256"
        }
      ],
      "name": "players",
      "outputs": [
        {
          "name": "recipient",
          "type": "address"
        },
        {
          "name": "value",
          "type": "uint256"
        }
      ],
      "payable": false,
      "stateMutability": "view",
      "type": "function"
    },
    {
      "inputs": [
        {
          "name": "_ipfsHash",
          "type": "string"
        },
        {
          "name": "_equalBet",
          "type": "uint256"
        },
        {
          "name": "_commission",
          "type": "uint256"
        }
      ],
      "payable": true,
      "stateMutability": "payable",
      "type": "constructor"
    },
    {
      "payable": true,
      "stateMutability": "payable",
      "type": "fallback"
    },
    {
      "anonymous": false,
      "inputs": [
        {
          "indexed": false,
          "name": "str",
          "type": "string"
        }
      ],
      "name": "event_log",
      "type": "event"
    },
    {
      "anonymous": false,
      "inputs": [
        {
          "indexed": false,
          "name": "elu",
          "type": "uint256"
        }
      ],
      "name": "event_log_uint",
      "type": "event"
    },
    {
      "anonymous": false,
      "inputs": [
        {
          "indexed": false,
          "name": "rqreq",
          "type": "string"
        }
      ],
      "name": "event_random_query_request",
      "type": "event"
    },
    {
      "anonymous": false,
      "inputs": [
        {
          "indexed": false,
          "name": "rqres",
          "type": "string"
        }
      ],
      "name": "event_random_query_result",
      "type": "event"
    },
    {
      "anonymous": false,
      "inputs": [
        {
          "indexed": false,
          "name": "t",
          "type": "address"
        }
      ],
      "name": "event_transfer",
      "type": "event"
    },
    {
      "anonymous": false,
      "inputs": [
        {
          "indexed": false,
          "name": "e",
          "type": "string"
        }
      ],
      "name": "event_error",
      "type": "event"
    },
    {
      "anonymous": false,
      "inputs": [
        {
          "indexed": true,
          "name": "previousOwner",
          "type": "address"
        }
      ],
      "name": "OwnershipRenounced",
      "type": "event"
    },
    {
      "anonymous": false,
      "inputs": [
        {
          "indexed": true,
          "name": "previousOwner",
          "type": "address"
        },
        {
          "indexed": true,
          "name": "newOwner",
          "type": "address"
        }
      ],
      "name": "OwnershipTransferred",
      "type": "event"
    }
  ],
  "bytecode": "0x608060405260405162002a8e38038062002a8e833981016040908152815160208301519183015160008054600160a060020a03191633179055920191828282620000727f1100000000000000000000000000000000000000000000000000000000000000640100000000620000ae810204565b600160065582516200008c90600d906020860190620006f0565b50600891909155600b555050600e805460ff1916600117905550620007929050565b600154600160a060020a03161580620000e45750600154620000e290600160a060020a031664010000000062000311810204565b155b156200010157620000ff600064010000000062000315810204565b505b600160009054906101000a9004600160a060020a0316600160a060020a03166338cc48316040518163ffffffff167c0100000000000000000000000000000000000000000000000000000000028152600401602060405180830381600087803b1580156200016e57600080fd5b505af115801562000183573d6000803e3d6000fd5b505050506040513d60208110156200019a57600080fd5b5051600254600160a060020a039081169116146200026d57600160009054906101000a9004600160a060020a0316600160a060020a03166338cc48316040518163ffffffff167c0100000000000000000000000000000000000000000000000000000000028152600401602060405180830381600087803b1580156200021f57600080fd5b505af115801562000234573d6000803e3d6000fd5b505050506040513d60208110156200024b57600080fd5b505160028054600160a060020a031916600160a060020a039092169190911790555b600254604080517f688dcfd70000000000000000000000000000000000000000000000000000000081527fff00000000000000000000000000000000000000000000000000000000000000841660048201529051600160a060020a039092169163688dcfd79160248082019260009290919082900301818387803b158015620002f557600080fd5b505af11580156200030a573d6000803e3d6000fd5b5050505050565b3b90565b60006200032a64010000000062000330810204565b92915050565b6000806200035b731d3b2638a7cc9f2cb3d298a3da7a90b67e5506ed64010000000062000311810204565b1115620003d95760018054600160a060020a031916731d3b2638a7cc9f2cb3d298a3da7a90b67e5506ed17905560408051808201909152600b81527f6574685f6d61696e6e65740000000000000000000000000000000000000000006020820152620003d090640100000000620006d7810204565b506001620006d4565b60006200040373c03a2615d5efaf5f49f60b7bb6583eaec212fdf164010000000062000311810204565b1115620004785760018054600160a060020a03191673c03a2615d5efaf5f49f60b7bb6583eaec212fdf117905560408051808201909152600c81527f6574685f726f707374656e3300000000000000000000000000000000000000006020820152620003d090640100000000620006d7810204565b6000620004a273b7a07bcf2ba2f2703b24c0691b5278999c59ac7e64010000000062000311810204565b1115620005175760018054600160a060020a03191673b7a07bcf2ba2f2703b24c0691b5278999c59ac7e17905560408051808201909152600981527f6574685f6b6f76616e00000000000000000000000000000000000000000000006020820152620003d090640100000000620006d7810204565b60006200054173146500cfd35b22e4a392fe0adc06de1a1368ed4864010000000062000311810204565b1115620005b65760018054600160a060020a03191673146500cfd35b22e4a392fe0adc06de1a1368ed4817905560408051808201909152600b81527f6574685f72696e6b6562790000000000000000000000000000000000000000006020820152620003d090640100000000620006d7810204565b6000620005e0736f485c8bf6fc43ea212e93bbf8ce046c7f1cb47564010000000062000311810204565b111562000614575060018054600160a060020a031916736f485c8bf6fc43ea212e93bbf8ce046c7f1cb475178155620006d4565b60006200063e7320e12a1f859b3feae5fb2a0a32c18f5a65555bbf64010000000062000311810204565b111562000672575060018054600160a060020a0319167320e12a1f859b3feae5fb2a0a32c18f5a65555bbf178155620006d4565b60006200069c7351efaf4c8b3c9afbd5ab9f4bbc82784ab6ef8faa64010000000062000311810204565b1115620006d0575060018054600160a060020a0319167351efaf4c8b3c9afbd5ab9f4bbc82784ab6ef8faa178155620006d4565b5060005b90565b8051620006ec906003906020840190620006f0565b5050565b828054600181600116156101000203166002900490600052602060002090601f016020900481019282601f106200073357805160ff191683800117855562000763565b8280016001018555821562000763579182015b828111156200076357825182559160200191906001019062000746565b506200077192915062000775565b5090565b620006d491905b808211156200077157600081556001016200077c565b6122ec80620007a26000396000f3006080604052600436106100f85763ffffffff60e060020a60003504166307dd96f781146100fa57806311610c251461012157806327dc297e1461012957806338bbfa501461018757806361bc221a14610223578063715018a6146102385780638064b15f1461024d5780638da5cb5b146102a6578063a3f67d6d146102d7578063ab8078c6146102ec578063ad7a672f14610301578063c3b69ebb14610316578063c623674f1461033f578063cab7f521146103c9578063df922f3a146103de578063e1489191146103f6578063ef9a22421461040b578063f2fde38b14610420578063f56f48f214610441578063f71d96cb14610456575b005b34801561010657600080fd5b5061010f610491565b60408051918252519081900360200190f35b6100f8610497565b34801561013557600080fd5b5060408051602060046024803582810135601f81018590048502860185019096528585526100f89583359536956044949193909101919081908401838280828437509497506106099650505050505050565b34801561019357600080fd5b5060408051602060046024803582810135601f81018590048502860185019096528585526100f895833595369560449491939091019190819084018382808284375050604080516020601f89358b018035918201839004830284018301909452808352979a9998810197919650918201945092508291508401838280828437509497506106299650505050505050565b34801561022f57600080fd5b5061010f610829565b34801561024457600080fd5b506100f861082f565b34801561025957600080fd5b506040805160206004803580820135601f81018490048402850184019095528484526100f894369492936024939284019190819084018382808284375094975061088e9650505050505050565b3480156102b257600080fd5b506102bb6108b8565b60408051600160a060020a039092168252519081900360200190f35b3480156102e357600080fd5b5061010f6108c7565b3480156102f857600080fd5b5061010f6108cd565b34801561030d57600080fd5b5061010f6108f7565b34801561032257600080fd5b5061032b6108fd565b604080519115158252519081900360200190f35b34801561034b57600080fd5b50610354610906565b6040805160208082528351818301528351919283929083019185019080838360005b8381101561038e578181015183820152602001610376565b50505050905090810190601f1680156103bb5780820380516001836020036101000a031916815260200191505b509250505060405180910390f35b3480156103d557600080fd5b506100f8610994565b3480156103ea57600080fd5b506100f8600435610a3e565b34801561040257600080fd5b5061010f610a5a565b34801561041757600080fd5b5061010f610a60565b34801561042c57600080fd5b506100f8600160a060020a0360043516610a66565b34801561044d57600080fd5b5061010f610a89565b34801561046257600080fd5b5061046e600435610a8e565b60408051600160a060020a03909316835260208301919091528051918290030190f35b600c5481565b61049f61212c565b60085434146104ad57600080fd5b600e5460ff161515610509576040805160e560020a62461bcd02815260206004820152601960248201527f4c6f7474657279206973206e6f7420616374697665206e6f7700000000000000604482015290519081900360640190fd5b6006543360009081526010602052604090205410610571576040805160e560020a62461bcd02815260206004820152601560248201527f4f6e6c79206f6e652062657420666f722067616d650000000000000000000000604482015290519081900360640190fd5b5060408051808201909152338152346020820152600a54600101610596601182612143565b5060065433600090815260106020526040902055600a8054600181019091556011805483929081106105c457fe5b60009182526020918290208351600292909202018054600160a060020a031916600160a060020a03909216919091178155910151600190910155506009805434019055565b6040805160008152602081019091526106259083908390610629565b5050565b610631610ac4565b600160a060020a03163314610690576040805160e560020a62461bcd02815260206004820152601f60248201527f43616c6c6572206973206e6f74204f7261636c697a6520616464726573732100604482015290519081900360640190fd5b6000838152600f602052604090205460ff16151561071e576040805160e560020a62461bcd02815260206004820152602160248201527f51756572792068617320616c7265616479206265656e2070726f63657373656460448201527f2100000000000000000000000000000000000000000000000000000000000000606482015290519081900360840190fd5b6007548314156108245761073182610cba565b600c81905560408051918252517fb21238056034e0d6cc890938b808046968a29e77b2a3636793841ff76a92d9559181900360200190a1610773600c54610ccd565b61077b610db3565b6006805460010190556000838152600f6020908152604091829020805460ff1916905581518181526027918101919091527f4f7261636c697a6520636f6d7075746174696f6e207175657279207761732072818301527f6563656976656400000000000000000000000000000000000000000000000000606082015290517f65f6d9f82a5021bfe453af062212bd087691bf16e7152c3362628730368e20769181900360800190a15b505050565b60065481565b600054600160a060020a0316331461084657600080fd5b60008054604051600160a060020a03909116917ff8df31144d9c2f0f6b59d69b8b98abd5459d07f2742c4df920b25aae33c6482091a260008054600160a060020a0319169055565b600054600160a060020a031633146108a557600080fd5b805161062590600d90602084019061216f565b600054600160a060020a031681565b600a5481565b600b546000906064038181106108ed5760095460649004810291506108f3565b60095491505b5090565b60095481565b600e5460ff1681565b600d805460408051602060026001851615610100026000190190941693909304601f8101849004840282018401909252818152929183018282801561098c5780601f106109615761010080835404028352916020019161098c565b820191906000526020600020905b81548152906001019060200180831161096f57829003601f168201915b505050505081565b600054600160a060020a031633146109ab57600080fd5b600a54600010610a2a576040805160e560020a62461bcd028152602060048201526024808201527f506c617965727320636f756e74206d757374206265206772656174657220746860448201527f616e203000000000000000000000000000000000000000000000000000000000606482015290519081900360840190fd5b600e805460ff19169055610a3c610dcc565b565b600054600160a060020a03163314610a5557600080fd5b600b55565b600b5481565b60085481565b600054600160a060020a03163314610a7d57600080fd5b610a86816111a8565b50565b600181565b6011805482908110610a9c57fe5b600091825260209091206002909102018054600190910154600160a060020a03909116915082565b600154600090600160a060020a03161580610af15750600154610aef90600160a060020a0316611218565b155b15610b0257610b00600061121c565b505b600160009054906101000a9004600160a060020a0316600160a060020a03166338cc48316040518163ffffffff1660e060020a028152600401602060405180830381600087803b158015610b5557600080fd5b505af1158015610b69573d6000803e3d6000fd5b505050506040513d6020811015610b7f57600080fd5b5051600254600160a060020a03908116911614610c3557600160009054906101000a9004600160a060020a0316600160a060020a03166338cc48316040518163ffffffff1660e060020a028152600401602060405180830381600087803b158015610be957600080fd5b505af1158015610bfd573d6000803e3d6000fd5b505050506040513d6020811015610c1357600080fd5b505160028054600160a060020a031916600160a060020a039092169190911790555b600260009054906101000a9004600160a060020a0316600160a060020a031663c281d19e6040518163ffffffff1660e060020a028152600401602060405180830381600087803b158015610c8857600080fd5b505af1158015610c9c573d6000803e3d6000fd5b505050506040513d6020811015610cb257600080fd5b505190505b90565b6000610cc7826000611226565b92915050565b610cd561212c565b6000601183815481101515610ce657fe5b6000918252602091829020604080518082019091526002909202018054600160a060020a0316825260010154918101919091529150610d236108cd565b8251909150600160a060020a031615610824578151604051600160a060020a039091169082156108fc029083906000818181858888f19350505050158015610d6f573d6000803e3d6000fd5b50815160408051600160a060020a039092168252517f97c59ca311d5f013c9ddfa2dfc788d6f13354cf7e885021c8c027379fa9fb9ec9181900360200190a1505050565b600e805460ff1916600117905560006009819055600a55565b60006001600a5411156110d35760408051808201909152600b81527f636f6d7075746174696f6e0000000000000000000000000000000000000000006020820152303190610e1d90620493e0611398565b1115610ed4576040805160208082526057908201527f4f7261636c697a6520636f6d7075746174696f6e20717565727920776173204e818301527f4f542073656e742c20706c656173652061646420736f6d652045544820746f2060608201527f636f76657220666f722074686520717565727920666565000000000000000000608082015290517f45216837f26a6836ade4e0969fe04657e771b5659940d6e0de811cb8d49580d69181900360a00190a1610a86565b6110236040805190810160405280600381526020017f55524c0000000000000000000000000000000000000000000000000000000000815250608060405190810160405280604381526020017f6a736f6e2868747470733a2f2f6170692e72616e646f6d2e6f72672f6a736f6e81526020017f2d7270632f312f696e766f6b65292e726573756c742e72616e646f6d2e64617481526020017f612e30000000000000000000000000000000000000000000000000000000000081525061101a60c0604051908101604052806092815260200161222f60929139610fb8600a54611609565b606060405190810160405280603781526020017f2c20227265706c6163656d656e74223a202274727565222c202262617365223a81526020017f20223130227d2c20226964223a2022313432313522207d0000000000000000008152506116fc565b620493e0611733565b60078190556000818152600f6020908152604091829020805460ff1916600117905581518181526026918101919091527f4f7261636c697a6520636f6d7075746174696f6e207175657279207761732072818301527f6571756573740000000000000000000000000000000000000000000000000000606082015290519192507f9eb50eb597f28ea7ded26f0afa775a7ceccca822f45cfe5a16f8bdf4214a41c4919081900360800190a1610a86565b600a5460011415610a86576011805460009081106110ed57fe5b60009182526020822060029091020154600954604051600160a060020a039092169281156108fc029290818181858888f19350505050158015611134573d6000803e3d6000fd5b5061113d610db3565b600680546001019055601180547f97c59ca311d5f013c9ddfa2dfc788d6f13354cf7e885021c8c027379fa9fb9ec9190600090811061117857fe5b60009182526020918290206002909102015460408051600160a060020a039092168252519081900390910190a150565b600160a060020a03811615156111bd57600080fd5b60008054604051600160a060020a03808516939216917f8be0079c531659141344cd1fd0a4f28419497f9722a3daafe3b4186f6b6457e091a360008054600160a060020a031916600160a060020a0392909216919091179055565b3b90565b6000610cc7611b96565b6000828180805b835181101561137b5783517f30000000000000000000000000000000000000000000000000000000000000009085908390811061126657fe5b90602001015160f860020a900460f860020a02600160f860020a031916101580156112dc575083517f3900000000000000000000000000000000000000000000000000000000000000908590839081106112bc57fe5b90602001015160f860020a900460f860020a02600160f860020a03191611155b156113355781156112fb578515156112f35761137b565b600019909501945b600a830292506030848281518110151561131157fe5b90602001015160f860020a900460f860020a0260f860020a90040383019250611373565b838181518110151561134357fe5b90602001015160f860020a900460f860020a02600160f860020a031916602e60f860020a02141561137357600191505b60010161122d565b600086111561138d5785600a0a830292505b509095945050505050565b600154600090600160a060020a031615806113c557506001546113c390600160a060020a0316611218565b155b156113d6576113d4600061121c565b505b600160009054906101000a9004600160a060020a0316600160a060020a03166338cc48316040518163ffffffff1660e060020a028152600401602060405180830381600087803b15801561142957600080fd5b505af115801561143d573d6000803e3d6000fd5b505050506040513d602081101561145357600080fd5b5051600254600160a060020a0390811691161461150957600160009054906101000a9004600160a060020a0316600160a060020a03166338cc48316040518163ffffffff1660e060020a028152600401602060405180830381600087803b1580156114bd57600080fd5b505af11580156114d1573d6000803e3d6000fd5b505050506040513d60208110156114e757600080fd5b505160028054600160a060020a031916600160a060020a039092169190911790555b600254604080517f2ef3accc0000000000000000000000000000000000000000000000000000000081526024810185905260048101918252855160448201528551600160a060020a0390931692632ef3accc9287928792829160640190602086019080838360005b83811015611589578181015183820152602001611571565b50505050905090810190601f1680156115b65780820380516001836020036101000a031916815260200191505b509350505050602060405180830381600087803b1580156115d657600080fd5b505af11580156115ea573d6000803e3d6000fd5b505050506040513d602081101561160057600080fd5b50519392505050565b606060008082818515156116525760408051808201909152600181527f3000000000000000000000000000000000000000000000000000000000000000602082015294506116f3565b8593505b831561166d57600190920191600a84049350611656565b826040519080825280601f01601f19166020018201604052801561169b578160200160208202803883390190505b5091505060001982015b85156116ef57815160001982019160f860020a6030600a8a0601029184919081106116cc57fe5b906020010190600160f860020a031916908160001a905350600a860495506116a5565b8194505b50505050919050565b606061172b84848460206040519081016040528060008152506020604051908101604052806000815250611eb8565b949350505050565b6001546000908190600160a060020a03161580611762575060015461176090600160a060020a0316611218565b155b1561177357611771600061121c565b505b600160009054906101000a9004600160a060020a0316600160a060020a03166338cc48316040518163ffffffff1660e060020a028152600401602060405180830381600087803b1580156117c657600080fd5b505af11580156117da573d6000803e3d6000fd5b505050506040513d60208110156117f057600080fd5b5051600254600160a060020a039081169116146118a657600160009054906101000a9004600160a060020a0316600160a060020a03166338cc48316040518163ffffffff1660e060020a028152600401602060405180830381600087803b15801561185a57600080fd5b505af115801561186e573d6000803e3d6000fd5b505050506040513d602081101561188457600080fd5b505160028054600160a060020a031916600160a060020a039092169190911790555b600254604080517f2ef3accc0000000000000000000000000000000000000000000000000000000081526024810186905260048101918252885160448201528851600160a060020a0390931692632ef3accc928a928892829160640190602086019080838360005b8381101561192657818101518382015260200161190e565b50505050905090810190601f1680156119535780820380516001836020036101000a031916815260200191505b509350505050602060405180830381600087803b15801561197357600080fd5b505af1158015611987573d6000803e3d6000fd5b505050506040513d602081101561199d57600080fd5b50519050670de0b6b3a76400003a8402018111156119be5760009150611b8d565b600260009054906101000a9004600160a060020a0316600160a060020a03166385dee34c826000898989896040518763ffffffff1660e060020a02815260040180868152602001806020018060200180602001858152602001848103845288818151815260200191508051906020019080838360005b83811015611a4c578181015183820152602001611a34565b50505050905090810190601f168015611a795780820380516001836020036101000a031916815260200191505b50848103835287518152875160209182019189019080838360005b83811015611aac578181015183820152602001611a94565b50505050905090810190601f168015611ad95780820380516001836020036101000a031916815260200191505b50848103825286518152865160209182019188019080838360005b83811015611b0c578181015183820152602001611af4565b50505050905090810190601f168015611b395780820380516001836020036101000a031916815260200191505b50985050505050505050506020604051808303818588803b158015611b5d57600080fd5b505af1158015611b71573d6000803e3d6000fd5b50505050506040513d6020811015611b8857600080fd5b505191505b50949350505050565b600080611bb6731d3b2638a7cc9f2cb3d298a3da7a90b67e5506ed611218565b1115611c275760018054600160a060020a031916731d3b2638a7cc9f2cb3d298a3da7a90b67e5506ed17905560408051808201909152600b81527f6574685f6d61696e6e65740000000000000000000000000000000000000000006020820152611c1f90612119565b506001610cb7565b6000611c4673c03a2615d5efaf5f49f60b7bb6583eaec212fdf1611218565b1115611caf5760018054600160a060020a03191673c03a2615d5efaf5f49f60b7bb6583eaec212fdf117905560408051808201909152600c81527f6574685f726f707374656e3300000000000000000000000000000000000000006020820152611c1f90612119565b6000611cce73b7a07bcf2ba2f2703b24c0691b5278999c59ac7e611218565b1115611d375760018054600160a060020a03191673b7a07bcf2ba2f2703b24c0691b5278999c59ac7e17905560408051808201909152600981527f6574685f6b6f76616e00000000000000000000000000000000000000000000006020820152611c1f90612119565b6000611d5673146500cfd35b22e4a392fe0adc06de1a1368ed48611218565b1115611dbf5760018054600160a060020a03191673146500cfd35b22e4a392fe0adc06de1a1368ed4817905560408051808201909152600b81527f6574685f72696e6b6562790000000000000000000000000000000000000000006020820152611c1f90612119565b6000611dde736f485c8bf6fc43ea212e93bbf8ce046c7f1cb475611218565b1115611e10575060018054600160a060020a031916736f485c8bf6fc43ea212e93bbf8ce046c7f1cb475178155610cb7565b6000611e2f7320e12a1f859b3feae5fb2a0a32c18f5a65555bbf611218565b1115611e61575060018054600160a060020a0319167320e12a1f859b3feae5fb2a0a32c18f5a65555bbf178155610cb7565b6000611e807351efaf4c8b3c9afbd5ab9f4bbc82784ab6ef8faa611218565b1115611eb2575060018054600160a060020a0319167351efaf4c8b3c9afbd5ab9f4bbc82784ab6ef8faa178155610cb7565b50600090565b6060806060806060806060806000808e98508d97508c96508b95508a94508451865188518a518c51010101016040519080825280601f01601f191660200182016040528015611f11578160200160208202803883390190505b50935083925060009150600090505b8851811015611f7e578881815181101515611f3757fe5b90602001015160f860020a900460f860020a028383806001019450815181101515611f5e57fe5b906020010190600160f860020a031916908160001a905350600101611f20565b5060005b8751811015611fe0578781815181101515611f9957fe5b90602001015160f860020a900460f860020a028383806001019450815181101515611fc057fe5b906020010190600160f860020a031916908160001a905350600101611f82565b5060005b8651811015612042578681815181101515611ffb57fe5b90602001015160f860020a900460f860020a02838380600101945081518110151561202257fe5b906020010190600160f860020a031916908160001a905350600101611fe4565b5060005b85518110156120a457858181518110151561205d57fe5b90602001015160f860020a900460f860020a02838380600101945081518110151561208457fe5b906020010190600160f860020a031916908160001a905350600101612046565b5060005b84518110156121065784818151811015156120bf57fe5b90602001015160f860020a900460f860020a0283838060010194508151811015156120e657fe5b906020010190600160f860020a031916908160001a9053506001016120a8565b50909d9c50505050505050505050505050565b805161062590600390602084019061216f565b604080518082019091526000808252602082015290565b8154818355818111156108245760020281600202836000526020600020918201910161082491906121e9565b828054600181600116156101000203166002900490600052602060002090601f016020900481019282601f106121b057805160ff19168380011785556121dd565b828001600101855582156121dd579182015b828111156121dd5782518255916020019190600101906121c2565b506108f3929150612214565b610cb791905b808211156108f3578054600160a060020a0319168155600060018201556002016121ef565b610cb791905b808211156108f3576000815560010161221a56000a7b226a736f6e727063223a2022322e30222c20226d6574686f64223a202267656e65726174655369676e6564496e746567657273222c2022706172616d73223a207b226170694b6579223a202231316330633331632d326532362d346239342d393433612d373032646565393365663838222c20226e223a202231222c20226d696e223a202230222c20226d6178223a20a165627a7a723058200bc7691c404a3503799a0ccd87916cfbdda2fc5ad96762c9228386861e53d1db0029",
  "source": "pragma solidity ^0.4.24;\n\nimport './Lottery.sol';\n\ncontract LotteryDaily is Lottery {\n\n\tuint public constant TIMEOUT = 1; // timeout for 1 day\n\n\tconstructor(string _ipfsHash, uint _equalBet, uint _commission)\n\tLottery(_ipfsHash, _equalBet, _commission)\n\tpublic\n\tpayable {}\n}",
  "sourcePath": "/home/explomat/blockchain/rndeth/contracts/LotteryDaily.sol",
  "compiler": {
    "name": "solc",
    "version": "0.4.24+commit.e67f0147.Emscripten.clang"
  },
  "schemaVersion": "2.0.1",
  "updatedAt": "2018-11-01T17:08:44.707Z"
}