{
  "contractName": "Lottery",
  "abi": [
    {
      "constant": true,
      "inputs": [],
      "name": "rndNumber",
      "outputs": [
        {
          "name": "",
          "type": "uint256"
        }
      ],
      "payable": false,
      "stateMutability": "view",
      "type": "function"
    },
    {
      "constant": true,
      "inputs": [],
      "name": "counter",
      "outputs": [
        {
          "name": "",
          "type": "uint256"
        }
      ],
      "payable": false,
      "stateMutability": "view",
      "type": "function"
    },
    {
      "constant": false,
      "inputs": [],
      "name": "renounceOwnership",
      "outputs": [],
      "payable": false,
      "stateMutability": "nonpayable",
      "type": "function"
    },
    {
      "constant": true,
      "inputs": [],
      "name": "_result",
      "outputs": [
        {
          "name": "",
          "type": "string"
        }
      ],
      "payable": false,
      "stateMutability": "view",
      "type": "function"
    },
    {
      "constant": true,
      "inputs": [],
      "name": "owner",
      "outputs": [
        {
          "name": "",
          "type": "address"
        }
      ],
      "payable": false,
      "stateMutability": "view",
      "type": "function"
    },
    {
      "constant": true,
      "inputs": [],
      "name": "playersCount",
      "outputs": [
        {
          "name": "",
          "type": "uint256"
        }
      ],
      "payable": false,
      "stateMutability": "view",
      "type": "function"
    },
    {
      "constant": true,
      "inputs": [],
      "name": "totalBalance",
      "outputs": [
        {
          "name": "",
          "type": "uint256"
        }
      ],
      "payable": false,
      "stateMutability": "view",
      "type": "function"
    },
    {
      "constant": true,
      "inputs": [],
      "name": "isLotteryActive",
      "outputs": [
        {
          "name": "",
          "type": "bool"
        }
      ],
      "payable": false,
      "stateMutability": "view",
      "type": "function"
    },
    {
      "constant": true,
      "inputs": [],
      "name": "ipfsHash",
      "outputs": [
        {
          "name": "",
          "type": "string"
        }
      ],
      "payable": false,
      "stateMutability": "view",
      "type": "function"
    },
    {
      "constant": true,
      "inputs": [],
      "name": "commission",
      "outputs": [
        {
          "name": "",
          "type": "uint256"
        }
      ],
      "payable": false,
      "stateMutability": "view",
      "type": "function"
    },
    {
      "constant": true,
      "inputs": [],
      "name": "equalBet",
      "outputs": [
        {
          "name": "",
          "type": "uint256"
        }
      ],
      "payable": false,
      "stateMutability": "view",
      "type": "function"
    },
    {
      "constant": false,
      "inputs": [
        {
          "name": "_newOwner",
          "type": "address"
        }
      ],
      "name": "transferOwnership",
      "outputs": [],
      "payable": false,
      "stateMutability": "nonpayable",
      "type": "function"
    },
    {
      "constant": true,
      "inputs": [
        {
          "name": "",
          "type": "uint256"
        }
      ],
      "name": "players",
      "outputs": [
        {
          "name": "recipient",
          "type": "address"
        },
        {
          "name": "value",
          "type": "uint256"
        }
      ],
      "payable": false,
      "stateMutability": "view",
      "type": "function"
    },
    {
      "inputs": [
        {
          "name": "_ipfsHash",
          "type": "string"
        },
        {
          "name": "_equalBet",
          "type": "uint256"
        },
        {
          "name": "_commission",
          "type": "uint256"
        }
      ],
      "payable": true,
      "stateMutability": "payable",
      "type": "constructor"
    },
    {
      "payable": true,
      "stateMutability": "payable",
      "type": "fallback"
    },
    {
      "anonymous": false,
      "inputs": [
        {
          "indexed": false,
          "name": "str",
          "type": "string"
        }
      ],
      "name": "event_log",
      "type": "event"
    },
    {
      "anonymous": false,
      "inputs": [
        {
          "indexed": false,
          "name": "str",
          "type": "uint256"
        }
      ],
      "name": "event_log_uint",
      "type": "event"
    },
    {
      "anonymous": false,
      "inputs": [
        {
          "indexed": false,
          "name": "rqreq",
          "type": "string"
        }
      ],
      "name": "event_random_query_request",
      "type": "event"
    },
    {
      "anonymous": false,
      "inputs": [
        {
          "indexed": false,
          "name": "rqres",
          "type": "string"
        }
      ],
      "name": "event_random_query_result",
      "type": "event"
    },
    {
      "anonymous": false,
      "inputs": [
        {
          "indexed": false,
          "name": "t",
          "type": "address"
        }
      ],
      "name": "event_transfer",
      "type": "event"
    },
    {
      "anonymous": false,
      "inputs": [
        {
          "indexed": false,
          "name": "e",
          "type": "string"
        }
      ],
      "name": "event_error",
      "type": "event"
    },
    {
      "anonymous": false,
      "inputs": [
        {
          "indexed": true,
          "name": "previousOwner",
          "type": "address"
        }
      ],
      "name": "OwnershipRenounced",
      "type": "event"
    },
    {
      "anonymous": false,
      "inputs": [
        {
          "indexed": true,
          "name": "previousOwner",
          "type": "address"
        },
        {
          "indexed": true,
          "name": "newOwner",
          "type": "address"
        }
      ],
      "name": "OwnershipTransferred",
      "type": "event"
    },
    {
      "constant": false,
      "inputs": [],
      "name": "bet",
      "outputs": [],
      "payable": true,
      "stateMutability": "payable",
      "type": "function"
    },
    {
      "constant": false,
      "inputs": [
        {
          "name": "myid",
          "type": "bytes32"
        },
        {
          "name": "result",
          "type": "string"
        }
      ],
      "name": "__callback",
      "outputs": [],
      "payable": false,
      "stateMutability": "nonpayable",
      "type": "function"
    },
    {
      "constant": false,
      "inputs": [
        {
          "name": "myid",
          "type": "bytes32"
        },
        {
          "name": "result",
          "type": "string"
        },
        {
          "name": "proof",
          "type": "bytes"
        }
      ],
      "name": "__callback",
      "outputs": [],
      "payable": false,
      "stateMutability": "nonpayable",
      "type": "function"
    },
    {
      "constant": true,
      "inputs": [],
      "name": "calculateTotalPrize",
      "outputs": [
        {
          "name": "",
          "type": "uint256"
        }
      ],
      "payable": false,
      "stateMutability": "view",
      "type": "function"
    },
    {
      "constant": false,
      "inputs": [],
      "name": "invoke",
      "outputs": [],
      "payable": false,
      "stateMutability": "nonpayable",
      "type": "function"
    },
    {
      "constant": false,
      "inputs": [
        {
          "name": "_ipfsHash",
          "type": "string"
        }
      ],
      "name": "changeIpfsHash",
      "outputs": [],
      "payable": false,
      "stateMutability": "nonpayable",
      "type": "function"
    },
    {
      "constant": false,
      "inputs": [
        {
          "name": "_commission",
          "type": "uint256"
        }
      ],
      "name": "changeCommission",
      "outputs": [],
      "payable": false,
      "stateMutability": "nonpayable",
      "type": "function"
    }
  ],
  "bytecode": "0x608060405260405162002f5338038062002f53833981016040908152815160208301519183015160008054600160a060020a031916331790559201916200006f7f1100000000000000000000000000000000000000000000000000000000000000640100000000620000a7810204565b600160065582516200008990600c906020860190620006e9565b50600791909155600a5550600d805460ff191660011790556200078b565b600154600160a060020a03161580620000dd5750600154620000db90600160a060020a03166401000000006200030a810204565b155b15620000fa57620000f860006401000000006200030e810204565b505b600160009054906101000a9004600160a060020a0316600160a060020a03166338cc48316040518163ffffffff167c0100000000000000000000000000000000000000000000000000000000028152600401602060405180830381600087803b1580156200016757600080fd5b505af11580156200017c573d6000803e3d6000fd5b505050506040513d60208110156200019357600080fd5b5051600254600160a060020a039081169116146200026657600160009054906101000a9004600160a060020a0316600160a060020a03166338cc48316040518163ffffffff167c0100000000000000000000000000000000000000000000000000000000028152600401602060405180830381600087803b1580156200021857600080fd5b505af11580156200022d573d6000803e3d6000fd5b505050506040513d60208110156200024457600080fd5b505160028054600160a060020a031916600160a060020a039092169190911790555b600254604080517f688dcfd70000000000000000000000000000000000000000000000000000000081527fff00000000000000000000000000000000000000000000000000000000000000841660048201529051600160a060020a039092169163688dcfd79160248082019260009290919082900301818387803b158015620002ee57600080fd5b505af115801562000303573d6000803e3d6000fd5b5050505050565b3b90565b60006200032364010000000062000329810204565b92915050565b60008062000354731d3b2638a7cc9f2cb3d298a3da7a90b67e5506ed6401000000006200030a810204565b1115620003d25760018054600160a060020a031916731d3b2638a7cc9f2cb3d298a3da7a90b67e5506ed17905560408051808201909152600b81527f6574685f6d61696e6e65740000000000000000000000000000000000000000006020820152620003c990640100000000620006d0810204565b506001620006cd565b6000620003fc73c03a2615d5efaf5f49f60b7bb6583eaec212fdf16401000000006200030a810204565b1115620004715760018054600160a060020a03191673c03a2615d5efaf5f49f60b7bb6583eaec212fdf117905560408051808201909152600c81527f6574685f726f707374656e3300000000000000000000000000000000000000006020820152620003c990640100000000620006d0810204565b60006200049b73b7a07bcf2ba2f2703b24c0691b5278999c59ac7e6401000000006200030a810204565b1115620005105760018054600160a060020a03191673b7a07bcf2ba2f2703b24c0691b5278999c59ac7e17905560408051808201909152600981527f6574685f6b6f76616e00000000000000000000000000000000000000000000006020820152620003c990640100000000620006d0810204565b60006200053a73146500cfd35b22e4a392fe0adc06de1a1368ed486401000000006200030a810204565b1115620005af5760018054600160a060020a03191673146500cfd35b22e4a392fe0adc06de1a1368ed4817905560408051808201909152600b81527f6574685f72696e6b6562790000000000000000000000000000000000000000006020820152620003c990640100000000620006d0810204565b6000620005d9736f485c8bf6fc43ea212e93bbf8ce046c7f1cb4756401000000006200030a810204565b11156200060d575060018054600160a060020a031916736f485c8bf6fc43ea212e93bbf8ce046c7f1cb475178155620006cd565b6000620006377320e12a1f859b3feae5fb2a0a32c18f5a65555bbf6401000000006200030a810204565b11156200066b575060018054600160a060020a0319167320e12a1f859b3feae5fb2a0a32c18f5a65555bbf178155620006cd565b6000620006957351efaf4c8b3c9afbd5ab9f4bbc82784ab6ef8faa6401000000006200030a810204565b1115620006c9575060018054600160a060020a0319167351efaf4c8b3c9afbd5ab9f4bbc82784ab6ef8faa178155620006cd565b5060005b90565b8051620006e5906003906020840190620006e9565b5050565b828054600181600116156101000203166002900490600052602060002090601f016020900481019282601f106200072c57805160ff19168380011785556200075c565b828001600101855582156200075c579182015b828111156200075c5782518255916020019190600101906200073f565b506200076a9291506200076e565b5090565b620006cd91905b808211156200076a576000815560010162000775565b6127b8806200079b6000396000f3006080604052600436106100f85763ffffffff60e060020a60003504166307dd96f781146100fa57806311610c251461012157806327dc297e1461012957806338bbfa501461018457806361bc221a1461021f578063715018a61461023457806379147cf0146102495780638064b15f146102d55780638da5cb5b1461032a578063a3f67d6d1461035b578063ab8078c614610370578063ad7a672f14610385578063c3b69ebb1461039a578063c623674f146103c3578063cab7f521146103d8578063df922f3a146103ed578063e148919114610405578063ef9a22421461041a578063f2fde38b1461042f578063f71d96cb14610450575b005b34801561010657600080fd5b5061010f61048a565b60405190815260200160405180910390f35b6100f8610490565b34801561013557600080fd5b506100f86004803590369060446024803590810190830135806020601f820181900481020160405190810160405281815292919060208401838380828437509497506106339650505050505050565b34801561019057600080fd5b506100f86004803590369060446024803590810190830135806020601f820181900481020160405190810160405281815292919060208401838380828437509497969560208082019650903587018082019550359350839250601f8301819004810201905060405190810160405281815292919060208401838380828437509497506106719650505050505050565b34801561022b57600080fd5b5061010f610861565b34801561024057600080fd5b506100f8610867565b34801561025557600080fd5b5061025e6108c8565b60405160208082528190810183818151815260200191508051906020019080838360005b8381101561029a578082015183820152602001610282565b50505050905090810190601f1680156102c75780820380516001836020036101000a031916815260200191505b509250505060405180910390f35b3480156102e157600080fd5b506100f83660046024813581810190830135806020601f820181900481020160405190810160405281815292919060208401838380828437509497506109669650505050505050565b34801561033657600080fd5b5061033f610990565b604051600160a060020a03909116815260200160405180910390f35b34801561036757600080fd5b5061010f61099f565b34801561037c57600080fd5b5061010f6109a5565b34801561039157600080fd5b5061010f6109cf565b3480156103a657600080fd5b506103af6109d5565b604051901515815260200160405180910390f35b3480156103cf57600080fd5b5061025e6109de565b3480156103e457600080fd5b506100f8610a49565b3480156103f957600080fd5b506100f8600435610ac7565b34801561041157600080fd5b5061010f610ae3565b34801561042657600080fd5b5061010f610ae9565b34801561043b57600080fd5b506100f8600160a060020a0360043516610aef565b34801561045c57600080fd5b50610468600435610b12565b604051600160a060020a03909216825260208201526040908101905180910390f35b600b5481565b610498612674565b7fb21238056034e0d6cc890938b808046968a29e77b2a3636793841ff76a92d9553460405190815260200160405180910390a160075434146104d957600080fd5b600d5460ff1615156105345760405160e560020a62461bcd02815260206004820152601960248201527f4c6f7474657279206973206e6f7420616374697665206e6f7700000000000000604482015260640160405180910390fd5b600654336000908152601060205260409020541061059b5760405160e560020a62461bcd02815260206004820152601560248201527f4f6e6c79206f6e652062657420666f722067616d650000000000000000000000604482015260640160405180910390fd5b604080519081016040523381523460208201526009549091506001016105c260118261268b565b506006543360009081526010602052604090205560098054600181019091556011805483929081106105f057fe5b90600052602060002060029091020181518154600160a060020a031916600160a060020a0391909116178155602082015160019091015550506008805434019055565b61066d82826000604051818152601f19601f8301168101602001604052908015610667578160200160208202803883390190505b50610671565b5050565b604080519081016040526001815260fc60020a6003026020820152600e90805161069f9291602001906126b5565b506106a8610b47565b600160a060020a031633146107065760405160e560020a62461bcd02815260206004820152601f60248201527f43616c6c6572206973206e6f74204f7261636c697a6520616464726573732100604482015260640160405180910390fd5b6000838152600f602052604090205460ff1615156107935760405160e560020a62461bcd02815260206004820152602160248201527f51756572792068617320616c7265616479206265656e2070726f63657373656460448201527f2100000000000000000000000000000000000000000000000000000000000000606482015260840160405180910390fd5b7f65f6d9f82a5021bfe453af062212bd087691bf16e7152c3362628730368e207660405160208082526027908201527f4f7261636c697a6520636f6d7075746174696f6e2071756572792077617320726040808301919091527f656365697665640000000000000000000000000000000000000000000000000060608301526080909101905180910390a161082782610d1c565b600b81905561083590610d2f565b61083d610e13565b6006805460010190556000838152600f60205260409020805460ff19169055505050565b60065481565b600054600160a060020a0316331461087e57600080fd5b600054600160a060020a03167ff8df31144d9c2f0f6b59d69b8b98abd5459d07f2742c4df920b25aae33c6482060405160405180910390a260008054600160a060020a0319169055565b600e8054600181600116156101000203166002900480601f01602080910402602001604051908101604052809291908181526020018280546001816001161561010002031660029004801561095e5780601f106109335761010080835404028352916020019161095e565b820191906000526020600020905b81548152906001019060200180831161094157829003601f168201915b505050505081565b600054600160a060020a0316331461097d57600080fd5b600c81805161066d9291602001906126b5565b600054600160a060020a031681565b60095481565b600a546000906064038181106109c55760085460649004810291506109cb565b60085491505b5090565b60085481565b600d5460ff1681565b600c8054600181600116156101000203166002900480601f01602080910402602001604051908101604052809291908181526020018280546001816001161561010002031660029004801561095e5780601f106109335761010080835404028352916020019161095e565b600054600160a060020a03163314610a6057600080fd5b60006009541115610ac55760408051908101604052600181527f36000000000000000000000000000000000000000000000000000000000000006020820152600e908051610ab29291602001906126b5565b50600d805460ff19169055610ac5610e2c565b565b600054600160a060020a03163314610ade57600080fd5b600a55565b600a5481565b60075481565b600054600160a060020a03163314610b0657600080fd5b610b0f81611295565b50565b6011805482908110610b2057fe5b9060005260206000206002909102018054600190910154600160a060020a03909116915082565b600154600090600160a060020a03161580610b745750600154610b7290600160a060020a0316611308565b155b15610b8557610b83600061130c565b505b600154600160a060020a03166338cc48316040518163ffffffff1660e060020a028152600401602060405180830381600087803b158015610bc557600080fd5b505af1158015610bd9573d6000803e3d6000fd5b505050506040513d6020811015610bef57600080fd5b810190808051600254600160a060020a039081169116149250610ca391505057600154600160a060020a03166338cc48316040518163ffffffff1660e060020a028152600401602060405180830381600087803b158015610c4f57600080fd5b505af1158015610c63573d6000803e3d6000fd5b505050506040513d6020811015610c7957600080fd5b81019080805160028054600160a060020a031916600160a060020a03929092169190911790555050505b600254600160a060020a031663c281d19e6040518163ffffffff1660e060020a028152600401602060405180830381600087803b158015610ce357600080fd5b505af1158015610cf7573d6000803e3d6000fd5b505050506040513d6020811015610d0d57600080fd5b81019080805193505050505b90565b6000610d29826000611316565b92915050565b610d37612674565b6000601183815481101515610d4857fe5b9060005260206000209060020201604080519081016040528154600160a060020a0316815260019091015460208201529150610d826109a5565b905060008251600160a060020a031614610e0e578151600160a060020a031681156108fc0282604051600060405180830381858888f19350505050158015610dce573d6000803e3d6000fd5b507f97c59ca311d5f013c9ddfa2dfc788d6f13354cf7e885021c8c027379fa9fb9ec8251604051600160a060020a03909116815260200160405180910390a15b505050565b600d805460ff1916600117905560006008819055600955565b6000600160095411156111b4573031610e7b60408051908101604052600b81527f636f6d7075746174696f6e0000000000000000000000000000000000000000006020820152620493e0611461565b1115610f37577f45216837f26a6836ade4e0969fe04657e771b5659940d6e0de811cb8d49580d660405160208082526057908201527f4f7261636c697a6520636f6d7075746174696f6e20717565727920776173204e6040808301919091527f4f542073656e742c20706c656173652061646420736f6d652045544820746f2060608301527f636f76657220666f722074686520717565727920666565000000000000000000608083015260a0909101905180910390a1610b0f565b6111016040805190810160405280600b81526020017f636f6d7075746174696f6e0000000000000000000000000000000000000000008152506080604051908101604052806110896040805190810160405280600581526020017f6a736f6e28000000000000000000000000000000000000000000000000000000815250600c8054600181600116156101000203166002900480601f01602080910402602001604051908101604052809291908181526020018280546001816001161561010002031660029004801561104b5780601f106110205761010080835404028352916020019161104b565b820191906000526020600020905b81548152906001019060200180831161102e57829003601f168201915b505050505060408051908101604052601681527f292e726573756c742e72616e646f6d2e646174612e300000000000000000000060208201526116ac565b81526020016040805190810160405280600181526020017f3100000000000000000000000000000000000000000000000000000000000000815250815260200160408051908101604052806001815260200160fc60020a60030281525081526020016110f66009546116e1565b9052620493e06117ba565b6000818152600f60205290915060019060409020805460ff19169115159190911790557f9eb50eb597f28ea7ded26f0afa775a7ceccca822f45cfe5a16f8bdf4214a41c460405160208082526026908201527f4f7261636c697a6520636f6d7075746174696f6e2071756572792077617320726040808301919091527f657175657374000000000000000000000000000000000000000000000000000060608301526080909101905180910390a1610b0f565b60095460011415610b0f576011805460009081106111ce57fe5b90600052602060002060029091020154600854600160a060020a039091169080156108fc0290604051600060405180830381858888f1935050505015801561121a573d6000803e3d6000fd5b50611223610e13565b600680546001019055601180547f97c59ca311d5f013c9ddfa2dfc788d6f13354cf7e885021c8c027379fa9fb9ec9190600090811061125e57fe5b90600052602060002060029091020154600160a060020a0316604051600160a060020a03909116815260200160405180910390a150565b600160a060020a03811615156112aa57600080fd5b600054600160a060020a0380831691167f8be0079c531659141344cd1fd0a4f28419497f9722a3daafe3b4186f6b6457e060405160405180910390a360008054600160a060020a031916600160a060020a0392909216919091179055565b3b90565b6000610d296119d7565b6000828180805b83518110156114445760fc60020a60030284828151811061133a57fe5b016020015160f860020a900460f860020a02600160f860020a031916101580156113ab57507f390000000000000000000000000000000000000000000000000000000000000084828151811061138c57fe5b016020015160f860020a900460f860020a02600160f860020a03191611155b156114015781156113ca578515156113c257611444565b600019909501945b600a8302925060308482815181106113de57fe5b016020015160f860020a900460f860020a0260f860020a9004038301925061143c565b83818151811061140d57fe5b016020015160f860020a900460f860020a02600160f860020a031916602e60f860020a02141561143c57600191505b60010161131d565b60008611156114565785600a0a830292505b509095945050505050565b600154600090600160a060020a0316158061148e575060015461148c90600160a060020a0316611308565b155b1561149f5761149d600061130c565b505b600154600160a060020a03166338cc48316040518163ffffffff1660e060020a028152600401602060405180830381600087803b1580156114df57600080fd5b505af11580156114f3573d6000803e3d6000fd5b505050506040513d602081101561150957600080fd5b810190808051600254600160a060020a0390811691161492506115bd91505057600154600160a060020a03166338cc48316040518163ffffffff1660e060020a028152600401602060405180830381600087803b15801561156957600080fd5b505af115801561157d573d6000803e3d6000fd5b505050506040513d602081101561159357600080fd5b81019080805160028054600160a060020a031916600160a060020a03929092169190911790555050505b600254600160a060020a0316632ef3accc84846040518363ffffffff1660e060020a0281526004018080602001838152602001828103825284818151815260200191508051906020019080838360005b8381101561162557808201518382015260200161160d565b50505050905090810190601f1680156116525780820380516001836020036101000a031916815260200191505b509350505050602060405180830381600087803b15801561167257600080fd5b505af1158015611686573d6000803e3d6000fd5b505050506040513d602081101561169c57600080fd5b8101908080519695505050505050565b60606116d98484846020604051908101604052806000815250602060405190810160405260008152611cf5565b949350505050565b6060600080828185151561171157604080519081016040526001815260fc60020a600302602082015294506117b1565b8593505b831561172c57600190920191600a84049350611715565b82604051818152601f19601f830116810160200160405290801561175a578160200160208202803883390190505b5091505060001982015b85156117ad5760001981019060f860020a6030600a890601029083908151811061178a57fe5b906020010190600160f860020a031916908160001a905350600a86049550611764565b8194505b50505050919050565b600154600090606090600160a060020a031615806117ea57506001546117e890600160a060020a0316611308565b155b156117fb576117f9600061130c565b505b600154600160a060020a03166338cc48316040518163ffffffff1660e060020a028152600401602060405180830381600087803b15801561183b57600080fd5b505af115801561184f573d6000803e3d6000fd5b505050506040513d602081101561186557600080fd5b810190808051600254600160a060020a03908116911614925061191991505057600154600160a060020a03166338cc48316040518163ffffffff1660e060020a028152600401602060405180830381600087803b1580156118c557600080fd5b505af11580156118d9573d6000803e3d6000fd5b505050506040513d60208110156118ef57600080fd5b81019080805160028054600160a060020a031916600160a060020a03929092169190911790555050505b600460405190808252806020026020018201604052801561194e57816020015b60608152602001906001900390816119395790505b50905083518160008151811061196057fe5b6020908102909101015283600160200201518160018151811061197f57fe5b602090810291909101015260408401518160028151811061199c57fe5b60209081029190910101526060840151816003815181106119b957fe5b602090810290910101526119ce858285611f2b565b95945050505050565b6000806119f7731d3b2638a7cc9f2cb3d298a3da7a90b67e5506ed611308565b1115611a675760018054600160a060020a031916731d3b2638a7cc9f2cb3d298a3da7a90b67e5506ed179055611a5f60408051908101604052600b81527f6574685f6d61696e6e65740000000000000000000000000000000000000000006020820152612307565b506001610d19565b6000611a8673c03a2615d5efaf5f49f60b7bb6583eaec212fdf1611308565b1115611aee5760018054600160a060020a03191673c03a2615d5efaf5f49f60b7bb6583eaec212fdf1179055611a5f60408051908101604052600c81527f6574685f726f707374656e3300000000000000000000000000000000000000006020820152612307565b6000611b0d73b7a07bcf2ba2f2703b24c0691b5278999c59ac7e611308565b1115611b755760018054600160a060020a03191673b7a07bcf2ba2f2703b24c0691b5278999c59ac7e179055611a5f60408051908101604052600981527f6574685f6b6f76616e00000000000000000000000000000000000000000000006020820152612307565b6000611b9473146500cfd35b22e4a392fe0adc06de1a1368ed48611308565b1115611bfc5760018054600160a060020a03191673146500cfd35b22e4a392fe0adc06de1a1368ed48179055611a5f60408051908101604052600b81527f6574685f72696e6b6562790000000000000000000000000000000000000000006020820152612307565b6000611c1b736f485c8bf6fc43ea212e93bbf8ce046c7f1cb475611308565b1115611c4d575060018054600160a060020a031916736f485c8bf6fc43ea212e93bbf8ce046c7f1cb475178155610d19565b6000611c6c7320e12a1f859b3feae5fb2a0a32c18f5a65555bbf611308565b1115611c9e575060018054600160a060020a0319167320e12a1f859b3feae5fb2a0a32c18f5a65555bbf178155610d19565b6000611cbd7351efaf4c8b3c9afbd5ab9f4bbc82784ab6ef8faa611308565b1115611cef575060018054600160a060020a0319167351efaf4c8b3c9afbd5ab9f4bbc82784ab6ef8faa178155610d19565b50600090565b6060858585858585806000808451865188518a518c5101010101604051818152601f19601f8301168101602001604052908015611d3c578160200160208202803883390190505b50935083925060009150600090505b8851811015611da457888181518110611d6057fe5b016020015160f860020a900460f860020a02838380600101945081518110611d8457fe5b906020010190600160f860020a031916908160001a905350600101611d4b565b5060005b8751811015611e0157878181518110611dbd57fe5b016020015160f860020a900460f860020a02838380600101945081518110611de157fe5b906020010190600160f860020a031916908160001a905350600101611da8565b5060005b8651811015611e5e57868181518110611e1a57fe5b016020015160f860020a900460f860020a02838380600101945081518110611e3e57fe5b906020010190600160f860020a031916908160001a905350600101611e05565b5060005b8551811015611ebb57858181518110611e7757fe5b016020015160f860020a900460f860020a02838380600101945081518110611e9b57fe5b906020010190600160f860020a031916908160001a905350600101611e62565b5060005b8451811015611f1857848181518110611ed457fe5b016020015160f860020a900460f860020a02838380600101945081518110611ef857fe5b906020010190600160f860020a031916908160001a905350600101611ebf565b50909d9c50505050505050505050505050565b6001546000908190606090600160a060020a03161580611f5d5750600154611f5b90600160a060020a0316611308565b155b15611f6e57611f6c600061130c565b505b600154600160a060020a03166338cc48316040518163ffffffff1660e060020a028152600401602060405180830381600087803b158015611fae57600080fd5b505af1158015611fc2573d6000803e3d6000fd5b505050506040513d6020811015611fd857600080fd5b810190808051600254600160a060020a03908116911614925061208c91505057600154600160a060020a03166338cc48316040518163ffffffff1660e060020a028152600401602060405180830381600087803b15801561203857600080fd5b505af115801561204c573d6000803e3d6000fd5b505050506040513d602081101561206257600080fd5b81019080805160028054600160a060020a031916600160a060020a03929092169190911790555050505b600254600160a060020a0316632ef3accc87866040518363ffffffff1660e060020a0281526004018080602001838152602001828103825284818151815260200191508051906020019080838360005b838110156120f45780820151838201526020016120dc565b50505050905090810190601f1680156121215780820380516001836020036101000a031916815260200191505b509350505050602060405180830381600087803b15801561214157600080fd5b505af1158015612155573d6000803e3d6000fd5b505050506040513d602081101561216b57600080fd5b8101908080519450505050670de0b6b3a76400003a85020182111561219357600092506122fe565b61219c8561231a565b600254909150600160a060020a031663c55c1cb68360008985896040518663ffffffff1660e060020a028152600401808581526020018060200180602001848152602001838103835286818151815260200191508051906020019080838360005b838110156122155780820151838201526020016121fd565b50505050905090810190601f1680156122425780820380516001836020036101000a031916815260200191505b50838103825285818151815260200191508051906020019080838360005b83811015612278578082015183820152602001612260565b50505050905090810190601f1680156122a55780820380516001836020036101000a031916815260200191505b5096505050505050506020604051808303818588803b1580156122c757600080fd5b505af11580156122db573d6000803e3d6000fd5b50505050506040513d60208110156122f257600080fd5b81019080805195505050505b50509392505050565b600381805161066d9291602001906126b5565b606061232461272f565b600061232e612391565b61233a8261040061239d565b612343826123cb565b5060005b835181101561237e5761237684828151811061235f57fe5b90602001906020020151839063ffffffff6123d616565b600101612347565b612387826123f3565b8151949350505050565b60405180590338823950565b8060208106156123b05760208106602003015b60208301819052604051928390526000835290910160405250565b610b0f8160046123fa565b6123e38260038351612413565b610e0e828263ffffffff61251716565b610b0f8160075b61066d82601f602060ff8516021763ffffffff6125b416565b601781116124345761242f8360ff8481166020021683176125b4565b610e0e565b60ff811161246d57612455836018602060ff8616021763ffffffff6125b416565b6124678382600163ffffffff6125ed16565b50610e0e565b61ffff81116124a15761248f836019602060ff8616021763ffffffff6125b416565b6124678382600263ffffffff6125ed16565b63ffffffff81116124d7576124c583601a602060ff8616021763ffffffff6125b416565b6124678382600463ffffffff6125ed16565b67ffffffffffffffff8111610e0e576124ff83601b602060ff8616021763ffffffff6125b416565b6125118382600863ffffffff6125ed16565b50505050565b61251f61272f565b60008060008086602001518751518751011115612551576125518761254989602001518951612643565b60020261265a565b8551915086518051602081830101955087510190526020860192505b60208210612590578251845260208401935060208301925060208203915061256d565b6001826020036101000a039050801983511681855116179093525093949350505050565b816020015182515160010111156125d6576125d682836020015160020261265a565b815180516020818301018381535060010190525050565b6125f561272f565b60008460200151855151840111156126195761261985612549876020015186612643565b6001836101000a039050845180518481830101868419825116179052909301909252509192915050565b600081831115612654575081610d29565b50919050565b60608251905061266a838361239d565b6125118382612517565b604080519081016040526000808252602082015290565b815481835581811115610e0e5760020281600202836000526020600020610e0e9281019101612747565b828054600181600116156101000203166002900490600052602060002090601f016020900481019282601f106126f657805160ff1916838001178555612723565b82800160010185558215612723579182015b82811115612723578251825591602001919060010190612708565b506109cb929150612772565b60408051908101604052606081526000602082015290565b610d1991905b808211156109cb578054600160a060020a03191681556000600182015560020161274d565b610d1991905b808211156109cb57600081556001016127785600a165627a7a7230582013ad562f8d4df7c023ea9f7d7711c51fe35ccc70a73169529251074fc02256020029",
  "source": "pragma solidity ^0.4.24;\n\nimport './lib/oraclizeAPI.sol';\nimport 'openzeppelin-solidity/contracts/ownership/Ownable.sol';\n\ncontract Lottery is Ownable, usingOraclize {\n\t\n\tevent event_log(string str);\n\tevent event_log_uint(uint str);\n\tevent event_random_query_request(string rqreq);\n\tevent event_random_query_result(string rqres);\n\tevent event_transfer(address t);\n\tevent event_error(string e);\n\n\tuint public counter;\n\n\t//player bet\n\tuint public equalBet;\n\n\tuint public totalBalance;\n\tuint public playersCount;\n\n\t//lottery percent comission\n\tuint public commission;\n\n\t//generating random number\n\tuint public rndNumber; \n\n\t//ipfs hash\n\tstring public ipfsHash;\n\n\t// disable players bet when process oraclize request\n\t// If callback never executed, we will invoke determineWinner() on next step\n\tbool public isLotteryActive;\n\tuint constant ORACLIZE_GAS_LIMIT = 300000;\n\n\tstring public _result;\n\n\tstruct Player {\n\t\taddress recipient;\n\t\tuint value;\n\t}\n\n\tmapping(bytes32 => bool) pendingQueries; //oraclize queries\n\tmapping(address => uint) playersList; //mapping for counter\n\tPlayer[] public players;\n\n\tconstructor(string _ipfsHash, uint _equalBet, uint _commission) public payable {\n\t\toraclize_setProof(proofType_TLSNotary | proofStorage_IPFS);\n\n\t\tcounter = 1;\n\t\tipfsHash = _ipfsHash;\n\t\tequalBet = _equalBet;\n\t\tcommission = _commission;\n\t\tisLotteryActive = true;\n\t}\n\n\tfunction bet() public payable {\n\t\temit event_log_uint(msg.value);\n\t\trequire(msg.value == equalBet);\n\t\trequire(isLotteryActive, 'Lottery is not active now');\n\t\trequire(playersList[msg.sender] < counter, 'Only one bet for game');\n\n\t\tPlayer memory newPlayer = Player({\n\t\t\trecipient: msg.sender,\n\t\t\tvalue: msg.value\n\t\t});\n\t\tplayers.length = playersCount + 1;\n\n\t\tplayersList[msg.sender] = counter;\n\t\tplayers[playersCount++] = newPlayer;\n\t\ttotalBalance += msg.value;\n\t}\n\t\n\tfunction determineWinner() private {\n\t\tif (playersCount > 1){\n\t\t\tif (oraclize_getPrice('computation', ORACLIZE_GAS_LIMIT) > address(this).balance) {\n\t\t\t\temit event_error('Oraclize computation query was NOT sent, please add some ETH to cover for the query fee');\n\t\t\t\treturn;\n\t\t\t}\n\n\t\t\tbytes32 queryId = oraclize_query( \n\t\t\t\t'computation', \n\t\t\t\t[\n\t\t\t\t\tstrConcat('json(', ipfsHash, ').result.random.data.0'),\n\t\t\t\t\t'1',\n\t\t\t\t\t'0',\n\t\t\t\t\tuint2str(playersCount)\n\t\t\t\t], \n\t\t\t\tORACLIZE_GAS_LIMIT\n\t\t\t);\n\n\t\t\tpendingQueries[queryId] = true;\n\t\t\temit event_random_query_request('Oraclize computation query was request');\n\t\t} else if (playersCount == 1){\n\t\t\tplayers[0].recipient.transfer(totalBalance);\n\t\t\treset();\n\t\t\tcounter++; // increment lottery counter\n\t\t\temit event_transfer(players[0].recipient);\n\t\t}\t\n\t}\n\n\t// the callback function is called by Oraclize when the result is ready\n\t// the oraclize_randomDS_proofVerify modifier prevents an invalid proof to execute this function code:\n\t// the proof validity is fully verified on-chain\n\tfunction __callback(bytes32 myid, string result, bytes proof) public {\n\t\t_result = \"0\";\n\t\trequire(msg.sender == oraclize_cbAddress(), 'Caller is not Oraclize address!');\n        require(pendingQueries[myid], 'Query has already been processed!');\n\n\t\temit event_random_query_result('Oraclize computation query was received');\n\t\trndNumber = parseInt(result);\n\t\tdistributeFunds(rndNumber);\n\t\treset();\n\t\tcounter++; // increment lottery counter\n\t\tdelete pendingQueries[myid];\n\t}\n\n\tfunction distributeFunds(uint winningNumber) private {\n\t\tPlayer memory wPlayer = players[winningNumber];\n\t\tuint prizeToDistribute = calculateTotalPrize();\n\n\t\tif (wPlayer.recipient != address(0)){\n\t\t\twPlayer.recipient.transfer(prizeToDistribute);\n\t\t\temit event_transfer(wPlayer.recipient);\n\t\t}\n\t}\n\n\tfunction calculateTotalPrize() public constant returns (uint256){\n\t\tuint totalPercent = 100 - commission;\n\t\tif (totalPercent >= 0){\n\t\t\treturn (totalBalance / 100) * totalPercent;\n\t\t}\n\t\treturn totalBalance;\n\t}\n\n\n\tfunction invoke() public onlyOwner {\n\t\tif (playersCount > 0){\n\t\t\t_result = \"6\";\n\t\t\tisLotteryActive = false;\n\t\t\tdetermineWinner();\n\t\t}\n\t}\n\n\tfunction reset() private {\n\t\tisLotteryActive = true;\n\t\ttotalBalance = 0;\n\t\tplayersCount = 0;\n\t}\n\n\tfunction changeIpfsHash(string _ipfsHash) public onlyOwner {\n\t\tipfsHash = _ipfsHash;\n\t}\n\n\tfunction changeCommission(uint _commission) public onlyOwner {\n\t\tcommission = _commission;\n\t}\n\n\t//catch ether\n\tfunction() public payable {}\n}\n",
  "sourcePath": "/home/explomat/blockchain/rndeth/contracts/Lottery.sol",
  "compiler": {
    "name": "solc",
    "version": "0.4.24+commit.e67f0147.Emscripten.clang"
  },
  "schemaVersion": "2.0.1",
  "updatedAt": "2018-10-12T21:59:43.828Z"
}