{
  "contractName": "Lottery",
  "abi": [
    {
      "constant": true,
      "inputs": [],
      "name": "rndNumber",
      "outputs": [
        {
          "name": "",
          "type": "uint256"
        }
      ],
      "payable": false,
      "stateMutability": "view",
      "type": "function"
    },
    {
      "constant": true,
      "inputs": [],
      "name": "counter",
      "outputs": [
        {
          "name": "",
          "type": "uint256"
        }
      ],
      "payable": false,
      "stateMutability": "view",
      "type": "function"
    },
    {
      "constant": false,
      "inputs": [],
      "name": "renounceOwnership",
      "outputs": [],
      "payable": false,
      "stateMutability": "nonpayable",
      "type": "function"
    },
    {
      "constant": true,
      "inputs": [],
      "name": "_result",
      "outputs": [
        {
          "name": "",
          "type": "string"
        }
      ],
      "payable": false,
      "stateMutability": "view",
      "type": "function"
    },
    {
      "constant": true,
      "inputs": [],
      "name": "owner",
      "outputs": [
        {
          "name": "",
          "type": "address"
        }
      ],
      "payable": false,
      "stateMutability": "view",
      "type": "function"
    },
    {
      "constant": true,
      "inputs": [],
      "name": "playersCount",
      "outputs": [
        {
          "name": "",
          "type": "uint256"
        }
      ],
      "payable": false,
      "stateMutability": "view",
      "type": "function"
    },
    {
      "constant": true,
      "inputs": [],
      "name": "totalBalance",
      "outputs": [
        {
          "name": "",
          "type": "uint256"
        }
      ],
      "payable": false,
      "stateMutability": "view",
      "type": "function"
    },
    {
      "constant": true,
      "inputs": [],
      "name": "isLotteryActive",
      "outputs": [
        {
          "name": "",
          "type": "bool"
        }
      ],
      "payable": false,
      "stateMutability": "view",
      "type": "function"
    },
    {
      "constant": true,
      "inputs": [],
      "name": "ipfsHash",
      "outputs": [
        {
          "name": "",
          "type": "string"
        }
      ],
      "payable": false,
      "stateMutability": "view",
      "type": "function"
    },
    {
      "constant": true,
      "inputs": [],
      "name": "commission",
      "outputs": [
        {
          "name": "",
          "type": "uint256"
        }
      ],
      "payable": false,
      "stateMutability": "view",
      "type": "function"
    },
    {
      "constant": true,
      "inputs": [],
      "name": "equalBet",
      "outputs": [
        {
          "name": "",
          "type": "uint256"
        }
      ],
      "payable": false,
      "stateMutability": "view",
      "type": "function"
    },
    {
      "constant": false,
      "inputs": [
        {
          "name": "_newOwner",
          "type": "address"
        }
      ],
      "name": "transferOwnership",
      "outputs": [],
      "payable": false,
      "stateMutability": "nonpayable",
      "type": "function"
    },
    {
      "constant": true,
      "inputs": [
        {
          "name": "",
          "type": "uint256"
        }
      ],
      "name": "players",
      "outputs": [
        {
          "name": "recipient",
          "type": "address"
        },
        {
          "name": "value",
          "type": "uint256"
        }
      ],
      "payable": false,
      "stateMutability": "view",
      "type": "function"
    },
    {
      "inputs": [
        {
          "name": "_ipfsHash",
          "type": "string"
        },
        {
          "name": "_equalBet",
          "type": "uint256"
        },
        {
          "name": "_commission",
          "type": "uint256"
        }
      ],
      "payable": true,
      "stateMutability": "payable",
      "type": "constructor"
    },
    {
      "payable": true,
      "stateMutability": "payable",
      "type": "fallback"
    },
    {
      "anonymous": false,
      "inputs": [
        {
          "indexed": false,
          "name": "str",
          "type": "string"
        }
      ],
      "name": "event_log",
      "type": "event"
    },
    {
      "anonymous": false,
      "inputs": [
        {
          "indexed": false,
          "name": "str",
          "type": "uint256"
        }
      ],
      "name": "event_log_uint",
      "type": "event"
    },
    {
      "anonymous": false,
      "inputs": [
        {
          "indexed": true,
          "name": "rqreq",
          "type": "string"
        }
      ],
      "name": "event_random_query_request",
      "type": "event"
    },
    {
      "anonymous": false,
      "inputs": [
        {
          "indexed": true,
          "name": "rqres",
          "type": "string"
        }
      ],
      "name": "event_random_query_result",
      "type": "event"
    },
    {
      "anonymous": false,
      "inputs": [
        {
          "indexed": true,
          "name": "t",
          "type": "address"
        }
      ],
      "name": "event_transfer",
      "type": "event"
    },
    {
      "anonymous": false,
      "inputs": [
        {
          "indexed": false,
          "name": "e",
          "type": "string"
        }
      ],
      "name": "event_error",
      "type": "event"
    },
    {
      "anonymous": false,
      "inputs": [
        {
          "indexed": true,
          "name": "previousOwner",
          "type": "address"
        }
      ],
      "name": "OwnershipRenounced",
      "type": "event"
    },
    {
      "anonymous": false,
      "inputs": [
        {
          "indexed": true,
          "name": "previousOwner",
          "type": "address"
        },
        {
          "indexed": true,
          "name": "newOwner",
          "type": "address"
        }
      ],
      "name": "OwnershipTransferred",
      "type": "event"
    },
    {
      "constant": false,
      "inputs": [],
      "name": "bet",
      "outputs": [],
      "payable": true,
      "stateMutability": "payable",
      "type": "function"
    },
    {
      "constant": false,
      "inputs": [
        {
          "name": "myid",
          "type": "bytes32"
        },
        {
          "name": "result",
          "type": "string"
        }
      ],
      "name": "__callback",
      "outputs": [],
      "payable": false,
      "stateMutability": "nonpayable",
      "type": "function"
    },
    {
      "constant": false,
      "inputs": [
        {
          "name": "myid",
          "type": "bytes32"
        },
        {
          "name": "result",
          "type": "string"
        },
        {
          "name": "proof",
          "type": "bytes"
        }
      ],
      "name": "__callback",
      "outputs": [],
      "payable": false,
      "stateMutability": "nonpayable",
      "type": "function"
    },
    {
      "constant": true,
      "inputs": [],
      "name": "calculateTotalPrize",
      "outputs": [
        {
          "name": "",
          "type": "uint256"
        }
      ],
      "payable": false,
      "stateMutability": "view",
      "type": "function"
    },
    {
      "constant": false,
      "inputs": [],
      "name": "invoke",
      "outputs": [],
      "payable": false,
      "stateMutability": "nonpayable",
      "type": "function"
    },
    {
      "constant": false,
      "inputs": [
        {
          "name": "_ipfsHash",
          "type": "string"
        }
      ],
      "name": "changeIpfsHash",
      "outputs": [],
      "payable": false,
      "stateMutability": "nonpayable",
      "type": "function"
    },
    {
      "constant": false,
      "inputs": [
        {
          "name": "_commission",
          "type": "uint256"
        }
      ],
      "name": "changeCommission",
      "outputs": [],
      "payable": false,
      "stateMutability": "nonpayable",
      "type": "function"
    }
  ],
  "bytecode": "0x608060405260405162002f2a38038062002f2a833981016040908152815160208301519183015160008054600160a060020a031916331790559201916200006f7f1100000000000000000000000000000000000000000000000000000000000000640100000000620000a7810204565b600160065582516200008990600c906020860190620006e9565b50600791909155600a5550600d805460ff191660011790556200078b565b600154600160a060020a03161580620000dd5750600154620000db90600160a060020a03166401000000006200030a810204565b155b15620000fa57620000f860006401000000006200030e810204565b505b600160009054906101000a9004600160a060020a0316600160a060020a03166338cc48316040518163ffffffff167c0100000000000000000000000000000000000000000000000000000000028152600401602060405180830381600087803b1580156200016757600080fd5b505af11580156200017c573d6000803e3d6000fd5b505050506040513d60208110156200019357600080fd5b5051600254600160a060020a039081169116146200026657600160009054906101000a9004600160a060020a0316600160a060020a03166338cc48316040518163ffffffff167c0100000000000000000000000000000000000000000000000000000000028152600401602060405180830381600087803b1580156200021857600080fd5b505af11580156200022d573d6000803e3d6000fd5b505050506040513d60208110156200024457600080fd5b505160028054600160a060020a031916600160a060020a039092169190911790555b600254604080517f688dcfd70000000000000000000000000000000000000000000000000000000081527fff00000000000000000000000000000000000000000000000000000000000000841660048201529051600160a060020a039092169163688dcfd79160248082019260009290919082900301818387803b158015620002ee57600080fd5b505af115801562000303573d6000803e3d6000fd5b5050505050565b3b90565b60006200032364010000000062000329810204565b92915050565b60008062000354731d3b2638a7cc9f2cb3d298a3da7a90b67e5506ed6401000000006200030a810204565b1115620003d25760018054600160a060020a031916731d3b2638a7cc9f2cb3d298a3da7a90b67e5506ed17905560408051808201909152600b81527f6574685f6d61696e6e65740000000000000000000000000000000000000000006020820152620003c990640100000000620006d0810204565b506001620006cd565b6000620003fc73c03a2615d5efaf5f49f60b7bb6583eaec212fdf16401000000006200030a810204565b1115620004715760018054600160a060020a03191673c03a2615d5efaf5f49f60b7bb6583eaec212fdf117905560408051808201909152600c81527f6574685f726f707374656e3300000000000000000000000000000000000000006020820152620003c990640100000000620006d0810204565b60006200049b73b7a07bcf2ba2f2703b24c0691b5278999c59ac7e6401000000006200030a810204565b1115620005105760018054600160a060020a03191673b7a07bcf2ba2f2703b24c0691b5278999c59ac7e17905560408051808201909152600981527f6574685f6b6f76616e00000000000000000000000000000000000000000000006020820152620003c990640100000000620006d0810204565b60006200053a73146500cfd35b22e4a392fe0adc06de1a1368ed486401000000006200030a810204565b1115620005af5760018054600160a060020a03191673146500cfd35b22e4a392fe0adc06de1a1368ed4817905560408051808201909152600b81527f6574685f72696e6b6562790000000000000000000000000000000000000000006020820152620003c990640100000000620006d0810204565b6000620005d9736f485c8bf6fc43ea212e93bbf8ce046c7f1cb4756401000000006200030a810204565b11156200060d575060018054600160a060020a031916736f485c8bf6fc43ea212e93bbf8ce046c7f1cb475178155620006cd565b6000620006377320e12a1f859b3feae5fb2a0a32c18f5a65555bbf6401000000006200030a810204565b11156200066b575060018054600160a060020a0319167320e12a1f859b3feae5fb2a0a32c18f5a65555bbf178155620006cd565b6000620006957351efaf4c8b3c9afbd5ab9f4bbc82784ab6ef8faa6401000000006200030a810204565b1115620006c9575060018054600160a060020a0319167351efaf4c8b3c9afbd5ab9f4bbc82784ab6ef8faa178155620006cd565b5060005b90565b8051620006e5906003906020840190620006e9565b5050565b828054600181600116156101000203166002900490600052602060002090601f016020900481019282601f106200072c57805160ff19168380011785556200075c565b828001600101855582156200075c579182015b828111156200075c5782518255916020019190600101906200073f565b506200076a9291506200076e565b5090565b620006cd91905b808211156200076a576000815560010162000775565b61278f806200079b6000396000f3006080604052600436106100f85763ffffffff60e060020a60003504166307dd96f781146100fa57806311610c251461012157806327dc297e1461012957806338bbfa501461018457806361bc221a1461021f578063715018a61461023457806379147cf0146102495780638064b15f146102d55780638da5cb5b1461032a578063a3f67d6d1461035b578063ab8078c614610370578063ad7a672f14610385578063c3b69ebb1461039a578063c623674f146103c3578063cab7f521146103d8578063df922f3a146103ed578063e148919114610405578063ef9a22421461041a578063f2fde38b1461042f578063f71d96cb14610450575b005b34801561010657600080fd5b5061010f61048a565b60405190815260200160405180910390f35b6100f8610490565b34801561013557600080fd5b506100f86004803590369060446024803590810190830135806020601f820181900481020160405190810160405281815292919060208401838380828437509497506106339650505050505050565b34801561019057600080fd5b506100f86004803590369060446024803590810190830135806020601f820181900481020160405190810160405281815292919060208401838380828437509497969560208082019650903587018082019550359350839250601f8301819004810201905060405190810160405281815292919060208401838380828437509497506106719650505050505050565b34801561022b57600080fd5b5061010f610859565b34801561024057600080fd5b506100f861085f565b34801561025557600080fd5b5061025e6108c0565b60405160208082528190810183818151815260200191508051906020019080838360005b8381101561029a578082015183820152602001610282565b50505050905090810190601f1680156102c75780820380516001836020036101000a031916815260200191505b509250505060405180910390f35b3480156102e157600080fd5b506100f83660046024813581810190830135806020601f8201819004810201604051908101604052818152929190602084018383808284375094975061095e9650505050505050565b34801561033657600080fd5b5061033f610988565b604051600160a060020a03909116815260200160405180910390f35b34801561036757600080fd5b5061010f610997565b34801561037c57600080fd5b5061010f61099d565b34801561039157600080fd5b5061010f6109c7565b3480156103a657600080fd5b506103af6109cd565b604051901515815260200160405180910390f35b3480156103cf57600080fd5b5061025e6109d6565b3480156103e457600080fd5b506100f8610a41565b3480156103f957600080fd5b506100f8600435610abf565b34801561041157600080fd5b5061010f610adb565b34801561042657600080fd5b5061010f610ae1565b34801561043b57600080fd5b506100f8600160a060020a0360043516610ae7565b34801561045c57600080fd5b50610468600435610b0a565b604051600160a060020a03909216825260208201526040908101905180910390f35b600b5481565b61049861264b565b7fb21238056034e0d6cc890938b808046968a29e77b2a3636793841ff76a92d9553460405190815260200160405180910390a160075434146104d957600080fd5b600d5460ff1615156105345760405160e560020a62461bcd02815260206004820152601960248201527f4c6f7474657279206973206e6f7420616374697665206e6f7700000000000000604482015260640160405180910390fd5b600654336000908152601060205260409020541061059b5760405160e560020a62461bcd02815260206004820152601560248201527f4f6e6c79206f6e652062657420666f722067616d650000000000000000000000604482015260640160405180910390fd5b604080519081016040523381523460208201526009549091506001016105c2601182612662565b506006543360009081526010602052604090205560098054600181019091556011805483929081106105f057fe5b90600052602060002060029091020181518154600160a060020a031916600160a060020a0391909116178155602082015160019091015550506008805434019055565b61066d82826000604051818152601f19601f8301168101602001604052908015610667578160200160208202803883390190505b50610671565b5050565b604080519081016040526001815260fc60020a6003026020820152600e90805161069f92916020019061268c565b506106a8610b3f565b600160a060020a031633146107065760405160e560020a62461bcd02815260206004820152601f60248201527f43616c6c6572206973206e6f74204f7261636c697a6520616464726573732100604482015260640160405180910390fd5b6000838152600f602052604090205460ff1615156107935760405160e560020a62461bcd02815260206004820152602160248201527f51756572792068617320616c7265616479206265656e2070726f63657373656460448201527f2100000000000000000000000000000000000000000000000000000000000000606482015260840160405180910390fd5b61079c82610d14565b600b8190556107aa90610d27565b6107b2610e04565b6006805460010190556000838152600f60205260409020805460ff191690556040517f4f7261636c697a6520636f6d7075746174696f6e20717565727920776173207281527f6563656976656400000000000000000000000000000000000000000000000000602082015260270160405180910390207f65f6d9f82a5021bfe453af062212bd087691bf16e7152c3362628730368e207660405160405180910390a2505050565b60065481565b600054600160a060020a0316331461087657600080fd5b600054600160a060020a03167ff8df31144d9c2f0f6b59d69b8b98abd5459d07f2742c4df920b25aae33c6482060405160405180910390a260008054600160a060020a0319169055565b600e8054600181600116156101000203166002900480601f0160208091040260200160405190810160405280929190818152602001828054600181600116156101000203166002900480156109565780601f1061092b57610100808354040283529160200191610956565b820191906000526020600020905b81548152906001019060200180831161093957829003601f168201915b505050505081565b600054600160a060020a0316331461097557600080fd5b600c81805161066d92916020019061268c565b600054600160a060020a031681565b60095481565b600a546000906064038181106109bd5760085460649004810291506109c3565b60085491505b5090565b60085481565b600d5460ff1681565b600c8054600181600116156101000203166002900480601f0160208091040260200160405190810160405280929190818152602001828054600181600116156101000203166002900480156109565780601f1061092b57610100808354040283529160200191610956565b600054600160a060020a03163314610a5857600080fd5b60006009541115610abd5760408051908101604052600181527f36000000000000000000000000000000000000000000000000000000000000006020820152600e908051610aaa92916020019061268c565b50600d805460ff19169055610abd610e1d565b565b600054600160a060020a03163314610ad657600080fd5b600a55565b600a5481565b60075481565b600054600160a060020a03163314610afe57600080fd5b610b078161126c565b50565b6011805482908110610b1857fe5b9060005260206000206002909102018054600190910154600160a060020a03909116915082565b600154600090600160a060020a03161580610b6c5750600154610b6a90600160a060020a03166112df565b155b15610b7d57610b7b60006112e3565b505b600154600160a060020a03166338cc48316040518163ffffffff1660e060020a028152600401602060405180830381600087803b158015610bbd57600080fd5b505af1158015610bd1573d6000803e3d6000fd5b505050506040513d6020811015610be757600080fd5b810190808051600254600160a060020a039081169116149250610c9b91505057600154600160a060020a03166338cc48316040518163ffffffff1660e060020a028152600401602060405180830381600087803b158015610c4757600080fd5b505af1158015610c5b573d6000803e3d6000fd5b505050506040513d6020811015610c7157600080fd5b81019080805160028054600160a060020a031916600160a060020a03929092169190911790555050505b600254600160a060020a031663c281d19e6040518163ffffffff1660e060020a028152600401602060405180830381600087803b158015610cdb57600080fd5b505af1158015610cef573d6000803e3d6000fd5b505050506040513d6020811015610d0557600080fd5b81019080805193505050505b90565b6000610d218260006112ed565b92915050565b610d2f61264b565b6000601183815481101515610d4057fe5b9060005260206000209060020201604080519081016040528154600160a060020a0316815260019091015460208201529150610d7a61099d565b905060008251600160a060020a031614610dff578151600160a060020a031681156108fc0282604051600060405180830381858888f19350505050158015610dc6573d6000803e3d6000fd5b508151600160a060020a03167f97c59ca311d5f013c9ddfa2dfc788d6f13354cf7e885021c8c027379fa9fb9ec60405160405180910390a25b505050565b600d805460ff1916600117905560006008819055600955565b60006001600954111561119d573031610e6c60408051908101604052600b81527f636f6d7075746174696f6e0000000000000000000000000000000000000000006020820152620493e0611438565b1115610f28577f45216837f26a6836ade4e0969fe04657e771b5659940d6e0de811cb8d49580d660405160208082526057908201527f4f7261636c697a6520636f6d7075746174696f6e20717565727920776173204e6040808301919091527f4f542073656e742c20706c656173652061646420736f6d652045544820746f2060608301527f636f76657220666f722074686520717565727920666565000000000000000000608083015260a0909101905180910390a1610b07565b6110f26040805190810160405280600b81526020017f636f6d7075746174696f6e00000000000000000000000000000000000000000081525060806040519081016040528061107a6040805190810160405280600581526020017f6a736f6e28000000000000000000000000000000000000000000000000000000815250600c8054600181600116156101000203166002900480601f01602080910402602001604051908101604052809291908181526020018280546001816001161561010002031660029004801561103c5780601f106110115761010080835404028352916020019161103c565b820191906000526020600020905b81548152906001019060200180831161101f57829003601f168201915b505050505060408051908101604052601681527f292e726573756c742e72616e646f6d2e646174612e30000000000000000000006020820152611683565b81526020016040805190810160405280600181526020017f3100000000000000000000000000000000000000000000000000000000000000815250815260200160408051908101604052806001815260200160fc60020a60030281525081526020016110e76009546116b8565b9052620493e0611791565b6000818152600f60205290915060019060409020805460ff19169115159190911790556040517f4f7261636c697a6520636f6d7075746174696f6e20717565727920776173207281527f6571756573740000000000000000000000000000000000000000000000000000602082015260260160405180910390207f9eb50eb597f28ea7ded26f0afa775a7ceccca822f45cfe5a16f8bdf4214a41c460405160405180910390a2610b07565b60095460011415610b07576011805460009081106111b757fe5b90600052602060002060029091020154600854600160a060020a039091169080156108fc0290604051600060405180830381858888f19350505050158015611203573d6000803e3d6000fd5b5061120c610e04565b60068054600101905560118054600090811061122457fe5b90600052602060002060029091020154600160a060020a03167f97c59ca311d5f013c9ddfa2dfc788d6f13354cf7e885021c8c027379fa9fb9ec60405160405180910390a250565b600160a060020a038116151561128157600080fd5b600054600160a060020a0380831691167f8be0079c531659141344cd1fd0a4f28419497f9722a3daafe3b4186f6b6457e060405160405180910390a360008054600160a060020a031916600160a060020a0392909216919091179055565b3b90565b6000610d216119ae565b6000828180805b835181101561141b5760fc60020a60030284828151811061131157fe5b016020015160f860020a900460f860020a02600160f860020a0319161015801561138257507f390000000000000000000000000000000000000000000000000000000000000084828151811061136357fe5b016020015160f860020a900460f860020a02600160f860020a03191611155b156113d85781156113a1578515156113995761141b565b600019909501945b600a8302925060308482815181106113b557fe5b016020015160f860020a900460f860020a0260f860020a90040383019250611413565b8381815181106113e457fe5b016020015160f860020a900460f860020a02600160f860020a031916602e60f860020a02141561141357600191505b6001016112f4565b600086111561142d5785600a0a830292505b509095945050505050565b600154600090600160a060020a03161580611465575060015461146390600160a060020a03166112df565b155b156114765761147460006112e3565b505b600154600160a060020a03166338cc48316040518163ffffffff1660e060020a028152600401602060405180830381600087803b1580156114b657600080fd5b505af11580156114ca573d6000803e3d6000fd5b505050506040513d60208110156114e057600080fd5b810190808051600254600160a060020a03908116911614925061159491505057600154600160a060020a03166338cc48316040518163ffffffff1660e060020a028152600401602060405180830381600087803b15801561154057600080fd5b505af1158015611554573d6000803e3d6000fd5b505050506040513d602081101561156a57600080fd5b81019080805160028054600160a060020a031916600160a060020a03929092169190911790555050505b600254600160a060020a0316632ef3accc84846040518363ffffffff1660e060020a0281526004018080602001838152602001828103825284818151815260200191508051906020019080838360005b838110156115fc5780820151838201526020016115e4565b50505050905090810190601f1680156116295780820380516001836020036101000a031916815260200191505b509350505050602060405180830381600087803b15801561164957600080fd5b505af115801561165d573d6000803e3d6000fd5b505050506040513d602081101561167357600080fd5b8101908080519695505050505050565b60606116b08484846020604051908101604052806000815250602060405190810160405260008152611ccc565b949350505050565b606060008082818515156116e857604080519081016040526001815260fc60020a60030260208201529450611788565b8593505b831561170357600190920191600a840493506116ec565b82604051818152601f19601f8301168101602001604052908015611731578160200160208202803883390190505b5091505060001982015b85156117845760001981019060f860020a6030600a890601029083908151811061176157fe5b906020010190600160f860020a031916908160001a905350600a8604955061173b565b8194505b50505050919050565b600154600090606090600160a060020a031615806117c157506001546117bf90600160a060020a03166112df565b155b156117d2576117d060006112e3565b505b600154600160a060020a03166338cc48316040518163ffffffff1660e060020a028152600401602060405180830381600087803b15801561181257600080fd5b505af1158015611826573d6000803e3d6000fd5b505050506040513d602081101561183c57600080fd5b810190808051600254600160a060020a0390811691161492506118f091505057600154600160a060020a03166338cc48316040518163ffffffff1660e060020a028152600401602060405180830381600087803b15801561189c57600080fd5b505af11580156118b0573d6000803e3d6000fd5b505050506040513d60208110156118c657600080fd5b81019080805160028054600160a060020a031916600160a060020a03929092169190911790555050505b600460405190808252806020026020018201604052801561192557816020015b60608152602001906001900390816119105790505b50905083518160008151811061193757fe5b6020908102909101015283600160200201518160018151811061195657fe5b602090810291909101015260408401518160028151811061197357fe5b602090810291909101015260608401518160038151811061199057fe5b602090810290910101526119a5858285611f02565b95945050505050565b6000806119ce731d3b2638a7cc9f2cb3d298a3da7a90b67e5506ed6112df565b1115611a3e5760018054600160a060020a031916731d3b2638a7cc9f2cb3d298a3da7a90b67e5506ed179055611a3660408051908101604052600b81527f6574685f6d61696e6e657400000000000000000000000000000000000000000060208201526122de565b506001610d11565b6000611a5d73c03a2615d5efaf5f49f60b7bb6583eaec212fdf16112df565b1115611ac55760018054600160a060020a03191673c03a2615d5efaf5f49f60b7bb6583eaec212fdf1179055611a3660408051908101604052600c81527f6574685f726f707374656e33000000000000000000000000000000000000000060208201526122de565b6000611ae473b7a07bcf2ba2f2703b24c0691b5278999c59ac7e6112df565b1115611b4c5760018054600160a060020a03191673b7a07bcf2ba2f2703b24c0691b5278999c59ac7e179055611a3660408051908101604052600981527f6574685f6b6f76616e000000000000000000000000000000000000000000000060208201526122de565b6000611b6b73146500cfd35b22e4a392fe0adc06de1a1368ed486112df565b1115611bd35760018054600160a060020a03191673146500cfd35b22e4a392fe0adc06de1a1368ed48179055611a3660408051908101604052600b81527f6574685f72696e6b65627900000000000000000000000000000000000000000060208201526122de565b6000611bf2736f485c8bf6fc43ea212e93bbf8ce046c7f1cb4756112df565b1115611c24575060018054600160a060020a031916736f485c8bf6fc43ea212e93bbf8ce046c7f1cb475178155610d11565b6000611c437320e12a1f859b3feae5fb2a0a32c18f5a65555bbf6112df565b1115611c75575060018054600160a060020a0319167320e12a1f859b3feae5fb2a0a32c18f5a65555bbf178155610d11565b6000611c947351efaf4c8b3c9afbd5ab9f4bbc82784ab6ef8faa6112df565b1115611cc6575060018054600160a060020a0319167351efaf4c8b3c9afbd5ab9f4bbc82784ab6ef8faa178155610d11565b50600090565b6060858585858585806000808451865188518a518c5101010101604051818152601f19601f8301168101602001604052908015611d13578160200160208202803883390190505b50935083925060009150600090505b8851811015611d7b57888181518110611d3757fe5b016020015160f860020a900460f860020a02838380600101945081518110611d5b57fe5b906020010190600160f860020a031916908160001a905350600101611d22565b5060005b8751811015611dd857878181518110611d9457fe5b016020015160f860020a900460f860020a02838380600101945081518110611db857fe5b906020010190600160f860020a031916908160001a905350600101611d7f565b5060005b8651811015611e3557868181518110611df157fe5b016020015160f860020a900460f860020a02838380600101945081518110611e1557fe5b906020010190600160f860020a031916908160001a905350600101611ddc565b5060005b8551811015611e9257858181518110611e4e57fe5b016020015160f860020a900460f860020a02838380600101945081518110611e7257fe5b906020010190600160f860020a031916908160001a905350600101611e39565b5060005b8451811015611eef57848181518110611eab57fe5b016020015160f860020a900460f860020a02838380600101945081518110611ecf57fe5b906020010190600160f860020a031916908160001a905350600101611e96565b50909d9c50505050505050505050505050565b6001546000908190606090600160a060020a03161580611f345750600154611f3290600160a060020a03166112df565b155b15611f4557611f4360006112e3565b505b600154600160a060020a03166338cc48316040518163ffffffff1660e060020a028152600401602060405180830381600087803b158015611f8557600080fd5b505af1158015611f99573d6000803e3d6000fd5b505050506040513d6020811015611faf57600080fd5b810190808051600254600160a060020a03908116911614925061206391505057600154600160a060020a03166338cc48316040518163ffffffff1660e060020a028152600401602060405180830381600087803b15801561200f57600080fd5b505af1158015612023573d6000803e3d6000fd5b505050506040513d602081101561203957600080fd5b81019080805160028054600160a060020a031916600160a060020a03929092169190911790555050505b600254600160a060020a0316632ef3accc87866040518363ffffffff1660e060020a0281526004018080602001838152602001828103825284818151815260200191508051906020019080838360005b838110156120cb5780820151838201526020016120b3565b50505050905090810190601f1680156120f85780820380516001836020036101000a031916815260200191505b509350505050602060405180830381600087803b15801561211857600080fd5b505af115801561212c573d6000803e3d6000fd5b505050506040513d602081101561214257600080fd5b8101908080519450505050670de0b6b3a76400003a85020182111561216a57600092506122d5565b612173856122f1565b600254909150600160a060020a031663c55c1cb68360008985896040518663ffffffff1660e060020a028152600401808581526020018060200180602001848152602001838103835286818151815260200191508051906020019080838360005b838110156121ec5780820151838201526020016121d4565b50505050905090810190601f1680156122195780820380516001836020036101000a031916815260200191505b50838103825285818151815260200191508051906020019080838360005b8381101561224f578082015183820152602001612237565b50505050905090810190601f16801561227c5780820380516001836020036101000a031916815260200191505b5096505050505050506020604051808303818588803b15801561229e57600080fd5b505af11580156122b2573d6000803e3d6000fd5b50505050506040513d60208110156122c957600080fd5b81019080805195505050505b50509392505050565b600381805161066d92916020019061268c565b60606122fb612706565b6000612305612368565b61231182610400612374565b61231a826123a2565b5060005b83518110156123555761234d84828151811061233657fe5b90602001906020020151839063ffffffff6123ad16565b60010161231e565b61235e826123ca565b8151949350505050565b60405180590338823950565b8060208106156123875760208106602003015b60208301819052604051928390526000835290910160405250565b610b078160046123d1565b6123ba82600383516123ea565b610dff828263ffffffff6124ee16565b610b078160075b61066d82601f602060ff8516021763ffffffff61258b16565b6017811161240b576124068360ff84811660200216831761258b565b610dff565b60ff81116124445761242c836018602060ff8616021763ffffffff61258b16565b61243e8382600163ffffffff6125c416565b50610dff565b61ffff811161247857612466836019602060ff8616021763ffffffff61258b16565b61243e8382600263ffffffff6125c416565b63ffffffff81116124ae5761249c83601a602060ff8616021763ffffffff61258b16565b61243e8382600463ffffffff6125c416565b67ffffffffffffffff8111610dff576124d683601b602060ff8616021763ffffffff61258b16565b6124e88382600863ffffffff6125c416565b50505050565b6124f6612706565b6000806000808660200151875151875101111561252857612528876125208960200151895161261a565b600202612631565b8551915086518051602081830101955087510190526020860192505b602082106125675782518452602084019350602083019250602082039150612544565b6001826020036101000a039050801983511681855116179093525093949350505050565b816020015182515160010111156125ad576125ad828360200151600202612631565b815180516020818301018381535060010190525050565b6125cc612706565b60008460200151855151840111156125f0576125f08561252087602001518661261a565b6001836101000a039050845180518481830101868419825116179052909301909252509192915050565b60008183111561262b575081610d21565b50919050565b6060825190506126418383612374565b6124e883826124ee565b604080519081016040526000808252602082015290565b815481835581811115610dff5760020281600202836000526020600020610dff928101910161271e565b828054600181600116156101000203166002900490600052602060002090601f016020900481019282601f106126cd57805160ff19168380011785556126fa565b828001600101855582156126fa579182015b828111156126fa5782518255916020019190600101906126df565b506109c3929150612749565b60408051908101604052606081526000602082015290565b610d1191905b808211156109c3578054600160a060020a031916815560006001820155600201612724565b610d1191905b808211156109c3576000815560010161274f5600a165627a7a723058204e37c8a80f8e01316e51c432ed5742dae1391c0cdeaf5137b6316e57392276780029",
  "source": "pragma solidity ^0.4.24;\n\nimport './lib/oraclizeAPI.sol';\nimport 'openzeppelin-solidity/contracts/ownership/Ownable.sol';\n\ncontract Lottery is Ownable, usingOraclize {\n\t\n\tevent event_log(string str);\n\tevent event_log_uint(uint str);\n\tevent event_random_query_request(string indexed rqreq);\n\tevent event_random_query_result(string indexed rqres);\n\tevent event_transfer(address indexed t);\n\tevent event_error(string e);\n\n\tuint public counter;\n\n\t//player bet\n\tuint public equalBet;\n\n\tuint public totalBalance;\n\tuint public playersCount;\n\n\t//lottery percent comission\n\tuint public commission;\n\n\t//generating random number\n\tuint public rndNumber; \n\n\t//ipfs hash\n\tstring public ipfsHash;\n\n\t// disable players bet when process oraclize request\n\t// If callback never executed, we will invoke determineWinner() on next step\n\tbool public isLotteryActive;\n\tuint constant ORACLIZE_GAS_LIMIT = 300000;\n\n\tstring public _result;\n\n\tstruct Player {\n\t\taddress recipient;\n\t\tuint value;\n\t}\n\n\tmapping(bytes32 => bool) pendingQueries; //oraclize queries\n\tmapping(address => uint) playersList; //mapping for counter\n\tPlayer[] public players;\n\n\tconstructor(string _ipfsHash, uint _equalBet, uint _commission) public payable {\n\t\toraclize_setProof(proofType_TLSNotary | proofStorage_IPFS);\n\n\t\tcounter = 1;\n\t\tipfsHash = _ipfsHash;\n\t\tequalBet = _equalBet;\n\t\tcommission = _commission;\n\t\tisLotteryActive = true;\n\t}\n\n\tfunction bet() public payable {\n\t\temit event_log_uint(msg.value);\n\t\trequire(msg.value == equalBet);\n\t\trequire(isLotteryActive, 'Lottery is not active now');\n\t\trequire(playersList[msg.sender] < counter, 'Only one bet for game');\n\n\t\tPlayer memory newPlayer = Player({\n\t\t\trecipient: msg.sender,\n\t\t\tvalue: msg.value\n\t\t});\n\t\tplayers.length = playersCount + 1;\n\n\t\tplayersList[msg.sender] = counter;\n\t\tplayers[playersCount++] = newPlayer;\n\t\ttotalBalance += msg.value;\n\t}\n\t\n\tfunction determineWinner() private {\n\t\tif (playersCount > 1){\n\t\t\tif (oraclize_getPrice('computation', ORACLIZE_GAS_LIMIT) > address(this).balance) {\n\t\t\t\temit event_error('Oraclize computation query was NOT sent, please add some ETH to cover for the query fee');\n\t\t\t\treturn;\n\t\t\t}\n\n\t\t\tbytes32 queryId = oraclize_query( \n\t\t\t\t'computation', \n\t\t\t\t[\n\t\t\t\t\tstrConcat('json(', ipfsHash, ').result.random.data.0'),\n\t\t\t\t\t'1',\n\t\t\t\t\t'0',\n\t\t\t\t\tuint2str(playersCount)\n\t\t\t\t], \n\t\t\t\tORACLIZE_GAS_LIMIT\n\t\t\t);\n\n\t\t\tpendingQueries[queryId] = true;\n\t\t\temit event_random_query_request('Oraclize computation query was request');\n\t\t} else if (playersCount == 1){\n\t\t\tplayers[0].recipient.transfer(totalBalance);\n\t\t\treset();\n\t\t\tcounter++; // increment lottery counter\n\t\t\temit event_transfer(players[0].recipient);\n\t\t}\t\n\t}\n\n\t// the callback function is called by Oraclize when the result is ready\n\t// the oraclize_randomDS_proofVerify modifier prevents an invalid proof to execute this function code:\n\t// the proof validity is fully verified on-chain\n\tfunction __callback(bytes32 myid, string result, bytes proof) public {\n\t\t_result = \"0\";\n\t\trequire(msg.sender == oraclize_cbAddress(), 'Caller is not Oraclize address!');\n        require(pendingQueries[myid], 'Query has already been processed!');\n\n\t\trndNumber = parseInt(result);\n\t\tdistributeFunds(rndNumber);\n\t\treset();\n\t\tcounter++; // increment lottery counter\n\t\tdelete pendingQueries[myid];\n\t\temit event_random_query_result('Oraclize computation query was received');\n\t}\n\n\tfunction distributeFunds(uint winningNumber) private {\n\t\tPlayer memory wPlayer = players[winningNumber];\n\t\tuint prizeToDistribute = calculateTotalPrize();\n\n\t\tif (wPlayer.recipient != address(0)){\n\t\t\twPlayer.recipient.transfer(prizeToDistribute);\n\t\t\temit event_transfer(wPlayer.recipient);\n\t\t}\n\t}\n\n\tfunction calculateTotalPrize() public constant returns (uint256){\n\t\tuint totalPercent = 100 - commission;\n\t\tif (totalPercent >= 0){\n\t\t\treturn (totalBalance / 100) * totalPercent;\n\t\t}\n\t\treturn totalBalance;\n\t}\n\n\n\tfunction invoke() public onlyOwner {\n\t\tif (playersCount > 0){\n\t\t\t_result = \"6\";\n\t\t\tisLotteryActive = false;\n\t\t\tdetermineWinner();\n\t\t}\n\t}\n\n\tfunction reset() private {\n\t\tisLotteryActive = true;\n\t\ttotalBalance = 0;\n\t\tplayersCount = 0;\n\t}\n\n\tfunction changeIpfsHash(string _ipfsHash) public onlyOwner {\n\t\tipfsHash = _ipfsHash;\n\t}\n\n\tfunction changeCommission(uint _commission) public onlyOwner {\n\t\tcommission = _commission;\n\t}\n\n\t//catch ether\n\tfunction() public payable {}\n}\n",
  "sourcePath": "/home/explomat/blockchain/rndeth/contracts/Lottery.sol",
  "compiler": {
    "name": "solc",
    "version": "0.4.24+commit.e67f0147.Emscripten.clang"
  },
  "schemaVersion": "2.0.1",
  "updatedAt": "2018-10-15T02:31:00.583Z"
}