{
  "contractName": "usingOraclizeFuture",
  "abi": [
    {
      "constant": false,
      "inputs": [
        {
          "name": "myid",
          "type": "bytes32"
        },
        {
          "name": "result",
          "type": "string"
        }
      ],
      "name": "__callback",
      "outputs": [],
      "payable": false,
      "stateMutability": "nonpayable",
      "type": "function"
    },
    {
      "constant": false,
      "inputs": [
        {
          "name": "myid",
          "type": "bytes32"
        },
        {
          "name": "result",
          "type": "string"
        },
        {
          "name": "proof",
          "type": "bytes"
        }
      ],
      "name": "__callback",
      "outputs": [],
      "payable": false,
      "stateMutability": "nonpayable",
      "type": "function"
    }
  ],
  "bytecode": "0x608060405234801561001057600080fd5b5061019d806100206000396000f30060806040526004361061004b5763ffffffff7c010000000000000000000000000000000000000000000000000000000060003504166327dc297e811461005057806338bbfa50146100b0575b600080fd5b34801561005c57600080fd5b5060408051602060046024803582810135601f81018590048502860185019096528585526100ae95833595369560449491939091019190819084018382808284375094975061014c9650505050505050565b005b3480156100bc57600080fd5b5060408051602060046024803582810135601f81018590048502860185019096528585526100ae95833595369560449491939091019190819084018382808284375050604080516020601f89358b018035918201839004830284018301909452808352979a99988101979196509182019450925082915084018382808284375094975061016c9650505050505050565b604080516000815260208101909152610168908390839061016c565b5050565b5050505600a165627a7a72305820d9f283593ceea25d16a076e8f240a8539b80c0377162ca0e52d8fbfdc465b0e50029",
  "source": "pragma solidity ^0.4.24;\n\nimport './oraclizeAPI.sol';\n\ncontract usingOraclizeFuture is usingOraclize {\n    \n    modifier oraclize_proofShield_proofVerify(bytes32 _queryId, string _query, string _result, bytes _proof) {\n\n        // Step 1: the prefix has to match 'LP\\x01' (Ledger Proof version 1)\n\n        require((_proof[0] == \"L\") && (_proof[1] == \"P\") && (_proof[2] == 1));\n\n        bool proofVerified = oraclize_proofShield_proofVerify__main(_proof, _queryId, bytes(_result), oraclize_getNetworkName());\n\n        require(proofVerified);\n\n        _;\n\n    }\n\n    function oraclize_proofShield_proofVerify__returnCode(bytes32 _queryId, string _result, bytes _proof) internal returns (uint8){\n\n        // Step 1: the prefix has to match 'LP\\x01' (Ledger Proof version 1)\n\n        if ((_proof[0] != \"L\")||(_proof[1] != \"P\")||(_proof[2] != 1)) return 1;\n\n        bool proofVerified = oraclize_proofShield_proofVerify__main(_proof, _queryId, bytes(_result), oraclize_getNetworkName());\n\n        if (proofVerified == false) return 2;\n\n        return 0;\n\n    }\n\n    function oraclize_proofShield_proofVerify__main(bytes proof, bytes32 queryId, bytes result, string context_name) internal returns (bool){\n\n        uint offset = 3+65+32+ uint(proof[3+65+1])+2;\n\n        // Step 2: verify the APPKEY1 provenance (must be signed by Ledger)\n\n        bytes memory LEDGERKEY = hex\"7fb956469c5c9b89840d55b43537e66a98dd4811ea0a27224272c2e5622911e8537a2f8e86a46baec82864e98dd01e9ccc2f8bc5dfc9cbe5a91a290498dd96e4\";\n\n        bytes memory tosign1 = new bytes(1+65);\n\n        tosign1[0] = 0xFE;\n\n        copyBytes(proof, 3, 65, tosign1, 1);\n\n        bytes memory sig1 = new bytes(uint(proof[3+65+1])+2);\n\n        copyBytes(proof, 3+65, sig1.length, sig1, 0);\n\n        if (verifySig(sha256(tosign1), sig1, LEDGERKEY) == false) return false;\n\n\n\n        // Step 3: verify the attestation signature, APPKEY1 must sign the message from the correct ledger app (CODEHASH)\n\n        bytes memory tosign2 = new bytes(130);\n\n        copyBytes(proof, offset, 98, tosign2, 0);\n\n        bytes memory sig2 = new bytes(uint(proof[offset+98+1])+2);\n\n        copyBytes(proof, offset+98, sig2.length, sig2, 0);\n\n        bytes memory CODEHASH = hex\"f9d90c24eafd50fbca9558ca1f93b80cb7ffa4edb775d9dc73c3cec20df21521\";\n\n        copyBytes(CODEHASH, 0, 32, tosign2, 98);\n\n        bytes memory appkey1_pubkey = new bytes(64);\n\n        copyBytes(proof, 3+1, 64, appkey1_pubkey, 0);\n\n        if (verifySig(sha256(tosign2), sig2, appkey1_pubkey) == false) return false;\n\n        \n\n        // Step 4: check proof verification status\n\n        if (proof[offset+33] != 0) return false;\n\n        \n\n        // Step 5: check queryid match\n\n        bytes memory vresulth = new bytes(32);\n\n        copyBytes(proof, offset, 32, vresulth, 0);\n\n        if (keccak256(vresulth) != keccak256(sha256(context_name, queryId))) return false;\n\n        \n\n        // Step 6: check result match\n\n        copyBytes(proof, offset+66, 32, vresulth, 0);\n\n        if (keccak256(vresulth) != keccak256(sha256(result))) return false;\n\n        \n\n        // Step 7: check query match\n\n        copyBytes(proof, offset+34, 32, vresulth, 0);\n\n        if (keccak256(vresulth, proof[offset+32]) != oraclize_proofShield_commitment[queryId]) return false;\n\n        delete oraclize_proofShield_commitment[queryId];\n\n        return true;\n\n    }\n    \n    mapping (bytes32 => bytes32) oraclize_proofShield_commitment;\n\n    byte constant proofType_Android_v2 = 0x40;\n    byte constant proofShield = 0x0F;\n    byte constant proofShield_Ledger = 0x0F;\n}\n",
  "sourcePath": "/home/explomat/blockchain/rndeth/contracts/lib/usingOraclizeFuture.sol",
  "compiler": {
    "name": "solc",
    "version": "0.4.24+commit.e67f0147.Emscripten.clang"
  },
  "schemaVersion": "2.0.1",
  "updatedAt": "2018-10-18T22:27:04.749Z"
}